:020000040800F2
:10000000489C0120AD5F00088503000887030008B5
:10001000890300088B0300088D030008000000001E
:10002000000000000000000000000000A101000826
:100030008F03000800000000FD010008D98C0008B3
:10004000C75F0008C75F0008C75F0008C75F0008F8
:10005000C75F0008C75F0008C75F0008C75F0008E8
:10006000C75F0008C75F0008C75F0008C75F0008D8
:10007000C75F0008C75F0008C75F0008C75F0008C8
:10008000C75F0008C75F0008C75F0008C75F0008B8
:10009000C75F0008C75F0008C75F0008C75F0008A8
:1000A000D54E0008C75F0008C75F0008C75F00089B
:1000B000C75F000843030008C75F0008C75F000868
:1000C000C75F0008C75F0008C75F0008C75F000878
:1000D000C75F0008AD530008055F00084F550008D2
:1000E000C75F0008C75F0008C75F0008C75F000858
:1000F000C75F0008C75F0008C75F0008C75F000848
:10010000C75F0008C75F0008C75F0008C75F000837
:10011000C75F000891560008C75F0008C75F000866
:10012000C75F0008C75F0008C75F0008C75F000817
:10013000C75F0008C75F0008C75F0008C75F000807
:10014000F9580008C75F0008C75F00085D3C030856
:10015000C75F0008C75F0008C75F0008C75F0008E7
:10016000C75F0008C75F0008C75F0008C75F0008D7
:10017000C75F0008C75F0008C75F0008C75F0008C7
:10018000C75F0008C75F0008DFF810D034F008FE32
:10019000004800471D030008AFF30080489C012081
:1001A0002C4B19680868B0E8F04F80F30988BFF35A
:1001B0006F8F4FF0000080F311887047000000003F
:1001C00008480068006880F308884FF0000080F35A
:1001D000148862B661B6BFF34F8FBFF36F8F00DF35
:1001E00000BF00BF08ED00E0DFF80C00016841F43B
:1001F00070010160704700BF88ED00E0EFF30980F7
:10020000BFF36F8F134B1A681EF0100F08BF20ED5D
:10021000108A20E9F04F106009B44FF0100080F30D
:100220001188BFF34F8FBFF36F8F07F025FE4FF09C
:10023000000080F3118809BC19680868B0E8F04F25
:100240001EF0100F08BFB0EC108A80F30988BFF3CE
:100250006F8F704754000020EFF305807047000057
:100260007FB50D4604460121022006F0BAFB019439
:10027000ADF8005000243D4DADF80240ADF8084007
:100280006946284606F0A0FE01221146284607F0DE
:1002900024FA0121284606F00FFF1D208DF80C00DE
:1002A0008DF80D4002208DF80E0001208DF80F0012
:1002B00003A805F092FE7FBD4FF4A06005F088FE14
:1002C00000F040FE04F06FFC012000F07BFC0BF01E
:1002D000B0F808F056FD08F0CAFD532140F2CF7087
:1002E000FFF7BEFF2FF066FA2EF0C2FA00F036F8E4
:1002F00030F0FFF900F032F830F0DDFB0021012092
:1003000008F062FD24F03EFC05202EF05FFFF5E7CB
:10031000174800680168491C016070470EB5A820A5
:1003200005F008FC022002A90023CDE90001C20269
:1003300010A1AFF27B0007F04EFB07F0DDFE0020BE
:100340000EBD10B5094C10342088C00702D0022021
:1003500021F004FF4FF6FE70208010BD10B521F093
:1003600091FBBDE8104008F095BD0000000400407E
:10037000000000204F7574736964655F6D6F746F62
:10038000720000007047FEE7FEE7FEE7FEE77047F9
:100390000CB50022544900920192086840F4803064
:1003A00008604FF4A043086800F400300190009802
:1003B000401C0090019810B900989842F3D1086849
:1003C000800334D50120019047484030026842F054
:1003D000805202604548026842F44042026042484E
:1003E000083002680260026842F40042026002685B
:1003F00042F4A0520260031F3D4A1A600A6842F0AC
:1004000080720A600A689201FCD53A4940F205728E
:100410000A60016821F003010160016841F00201F6
:1004200001600168C1F381010229FAD10CBD01927A
:100430000CBD314810B5016841F4700101602A48D3
:10044000016841F001010160274A00210832116072
:1004500002682A4B1A400260031D294A1A6002688A
:1004600022F48022026020480C300160FFF790FFE8
:1004700021494FF000608039086010BD70B51A4DF9
:10048000083528681F4B204910F00C0004D05E107E
:10049000042803D0082803D00B601BE00E6019E08D
:1004A000114A121D1068C0F38054106800F03F001C
:1004B00014B1B6FBF0F001E0B3FBF0F01368126882
:1004C000C3F388135843C2F30142521C5200B0FBDD
:1004D000F2F0086028680C4AC0F30310121D105C8B
:1004E0000A68C2400A6070BD0038024000700040D7
:1004F00008544007003C024088ED00E0FFFFF6FE94
:10050000103000240024F4000400002001B5BDF8E0
:100510000000ADF80000BDF800004FF0D841A1F890
:100520007E0008BD01B5BDF80000ADF80000BDF8C3
:1005300000004FF0D841A1F8800008BD08B54FF089
:10054000D840B0F88000ADF80000BDF8000008BD4C
:100550004FF0D84222F87E0F5180704710B5FFF758
:10056000D5FF052005F0ECFABDE81040E6E7FE48AF
:100570004FF0D8410089A1F87E0070474FF0D84174
:10058000A1F880007047C0F34511C20AC00200EB19
:100590004110104480B27047401EC0B2FCD2704778
:1005A000F0B5F14E0C460246050AB1883046A1F579
:1005B000134340894FEA142C413B1AD0A1F5A643BE
:1005C000103B16D0B646B3793688A1F5D047B61A97
:1005D000761E043F17D07746A1F5C85EBEF1630EC4
:1005E00025D0A1F5A04EBEF5A26E57D0012B6FD03D
:1005F0006FE0FFF78BFF2846FFF794FFD0B2FFF7BD
:1006000091FFB0890CE07546012B00D1B2B2FFF723
:100610007DFF100AFFF786FFD0B2FFF783FFA8899E
:10062000FFF774FF6046FFF77DFFE0B225E03BB3C4
:10063000FFF76CFF2846FFF775FFD0B2FFF772FF98
:100640003888401EC0F30F20FFF76CFF3878401E3B
:10065000C0B2FFF767FFB889FFF758FF6046FFF7A2
:1006600061FFE0B2FFF75EFF7888401EC0F30F2005
:10067000FFF758FFB878401EC0B2BDE8F04051E720
:10068000B2B2FFF743FF0020FFF74CFF0020FFF757
:1006900049FF100AFFF746FFD0B2DAE7FFF736FF4F
:1006A0002846FFF73FFF7889401C80B2FFF72EFFF6
:1006B000D0B2FFF737FFB889FFF728FF6046FFF792
:1006C00031FFB889401C80B2FFF720FFADE7FFE79C
:1006D000B2B21146FFF73CFFB8892146BDE8F040B1
:1006E00036E72DE9F041A04E0024254632888242AB
:1006F00002D972888A4202D80020BDE8F081FFF753
:100700004FFFB08849F2413841F6631C45F2103280
:1007100045F21057404507D0A0F5D041043903D029
:10072000904201D0604501D12E2005E0B84202D1AF
:100730004FF4385000E02220FFF7E8FEB088A0F523
:100740001341203903D10220401EC0B2FCD2FFF772
:10075000F5FEB1886145D0D00220401EC0B2FCD267
:10076000FFF7ECFE0146B088C446604503D09042D6
:1007700001D0B8420BD10220401EC0B2FCD2FFF71C
:10078000DDFE0546C8B24FF6FF7303EA0024B088C9
:10079000A0F51343253B1DD0A0F58A43353B19D066
:1007A000A0F58A43313B15D0A0F53543053B11D068
:1007B000A0F54543053B0DD0604503D0904201D0E4
:1007C000B84209D1C80AC002A10A40EA411040EA71
:1007D000D52092E7084690E7BDE8F0410846D2E60A
:1007E00061488088A0F51341413913D0A0F5D0416C
:1007F00004390FD0A0F5A64110390BD0A0F5C8518F
:10080000633907D0A0F5AA41103905D040F2731121
:1008100007209DE6292001E04FF4245076E6524857
:100820008088A0F51341413912D0A0F5D041043998
:100830000ED0A0F5A64110390AD0A0F5C8516339F1
:1008400006D0A0F5AA41103904D0002107207FE688
:10085000282001E04FF4205058E6F0B5424C002328
:100860002146A279898846F6040741F66315012AD4
:1008700001D02AB11DE0B9421BD0A94202D118E033
:10088000A94216D1082814D2DFE800F00406080AAD
:100890000C0E101206200CE007200AE0042008E0ED
:1008A000052006E0012004E0002002E0032000E033
:1008B0000220A1F5134C45F2103245F21056BCF15E
:1008C000410C07D0B94205D0914203D0B14201D0CA
:1008D000A9427CD1082812D2DFE800F011040608F2
:1008E0000A0C0E1080230AE0402308E0C02306E033
:1008F000202304E0602302E0A02300E0E023B142D3
:1009000002D14FF4585000E03620914205D0B14258
:1009100003D0A94201D043F00803B94201D143F00A
:1009200002031946FFF714FEA288AA420AD09806CD
:100930002088618802D5884202D303E0884201D929
:10094000218060806089B24245D1FFF7DFFD002041
:10095000FFF7E8FD6089401C80B2FFF7D7FD00205B
:10096000FFF7E0FD608901E0E8040020801C80B210
:10097000FFF7CCFD2088401EC0F30F20FFF7D2FD0B
:100980006089C01C80B2FFF7C1FD2078401EC0B254
:10099000FFF7C8FDA089FFF7B9FD0020FFF7C2FDF2
:1009A000A089401C80B2FFF7B1FD0020FFF7BAFD1F
:1009B000A089801C80B2FFF7A9FD6088401EC0F3AB
:1009C0000F20FFF7AFFDA089C01C80B200E02AE035
:1009D000FFF79CFD21E0FFF799FD0020FFF7A2FD46
:1009E0000020FFF79FFD2088401EC0F30F20FFF777
:1009F00099FD2078401EC0B2FFF794FDA089FFF753
:100A000085FD0020FFF78EFD0020FFF78BFD60883D
:100A1000401EC0F30F20FFF785FDA078BDE8F04031
:100A2000401EC0B27EE5082812D2DFE800F00406BE
:100A300008110A0C0E1030230AE0102308E02023CE
:100A400006E0382304E0282302E0182300E008230E
:100A5000BDE8F040032043F4805179E500B5FFF78D
:100A60009FFDFFF784FDFE484FF0D8410088A1F8B4
:100A7000800000BD2DE9F041FA4D90460C4602463B
:100A8000060AA9882846A1F5134340894FEA142C89
:100A9000413B17D0A1F5A643103B13D0A1F5AA43C3
:100AA000103B13D02E46A1F5C857B3793688B61A35
:100AB000761E633F23D0A1F5D047043F3AD0012BE7
:100AC0004DD04DE0FFF722FD304639E0FFF71EFD27
:100AD0003046FFF727FD6889401C80B2FFF716FDFE
:100AE000D0B2FFF71FFDA889FFF710FD6046FFF7A2
:100AF00019FDA889401C80B2FFF708FD2BE003B95F
:100B0000B2B2FFF703FD160A3046FFF70BFDD0B275
:100B1000FFF708FD3046FFF705FDD0B2FFF702FDF5
:100B2000A889FFF7F3FC6046FFF7FCFCE0B2FFF793
:100B3000F9FC0DE0012B00D1B2B2FFF7E7FC100A7F
:100B4000FFF7F0FCD0B2FFF7EDFCA889FFF7DEFC61
:100B50006046FFF7E7FCE0B2FFF7E4FC07E0B2B263
:100B60001146FFF7F5FCA8892146FFF7F1FC4FF08D
:100B7000D840298920F87E1FA0F80280BDE510B575
:100B80000246BE20FFF7C2FC0520FFF7CBFC104653
:100B900033F038FD9FEDB41B53EC112B33F040FCC8
:100BA00033F05CFD80B2FFF7BDFC0120FFF7BAFC1B
:100BB000FF20FFF7B7FC0020FFF7B4FCBDE81040B2
:100BC0000020AFE42DE9F04FA6492A232B24898881
:100BD00045F2105A4FF4305B4FF4285E4FF44875DD
:100BE0004FF0F00C49F241394FF4A07745F210363E
:100BF0004FF4F07280B19B484FF00108494580F8EE
:100C000006800780A0F802C001D0B1423ED12C2559
:100C100005814381848157E092484FF0000849459F
:100C200080F80680A0F800C0478006D0A1F5D04C1F
:100C3000BCF1040C01D0B1420CD12C2505814381BB
:100C4000A1F5D0438481043B01D0B14244D1078057
:100C5000428041E0514507D1A0F808B0A0F80AE071
:100C60004FF42C5181810EE0A1F5C856633E06D0A9
:100C70002221018120214181212181812CE02C210F
:100C80000181448183810280458025E0A1F5D04C1B
:100C9000BCF1040C09D051450BD1A0F808B0A0F864
:100CA0000AE04FF42C53838120E02C2505814481F8
:100CB00009E0A1F5C85CBCF1630C11D022230381CB
:100CC0002123438120238381A1F5D043043B01D01C
:100CD000B14201D102804780BDE8F04F0020BCE561
:100CE0004FF02C0CA0F808C043818481058042801D
:100CF000EAE72DE9FE4F0446104401EB0308DFF854
:100D00006491401EA8F1010887B2B9F80400C8F345
:100D1000072302930B0A0093A3185B1EC3F3072358
:100D200001934B460D465B89A0F513411FFA88F6E7
:100D30004FEA142B413910D0A0F5A64110390CD040
:100D4000A0F5D041043908D099F806A041F6631CFB
:100D5000BAF1010F1ED160451CD14A461846FFF773
:100D6000D5FB5846FFF7DEFBE0B2FFF7DBFB01984F
:100D7000FFF7D8FBF8B2FFF7D5FB9089FFF7C6FB6A
:100D80000098FFF7CFFBE8B2FFF7CCFB0298FFF724
:100D9000C9FB95E033496045098825D1881A001BB5
:100DA00084B24E461FFA88F71846FFF7AFFB200AB9
:100DB000FFF7B8FBE0B2FFF7B5FB2244521EC2F3C7
:100DC0000F20FFF7AFFBD0B2FFF7ACFBB089FFF706
:100DD0009DFB0098FFF7A6FBE8B2FFF7A3FB380ADC
:100DE000FFF7A0FBF8B26CE0A0F5A04C4A46BCF5BA
:100DF000A26C23D0BAF1010F67D03B4620462F46A4
:100E0000502201464FF051094FF052084FF0530C59
:100E10001046FFF79DFB19464846FFF799FB3946F8
:100E20004046FFF795FB31466046FFF791FB03B064
:100E300029462046BDE8F04FFFF7B2BB1846FFF742
:100E400065FB5846FFF76EFB5089401C80B2FFF7E8
:100E50005DFBE0B2FFF766FB5089801C80B207E0C3
:100E600018000020E8040020666666666666044096
:100E7000FFF74CFB0198FFF755FB5089C01C80B26F
:100E8000FFF744FBF8B2FFF74DFB9089FFF73EFBFD
:100E90000098FFF747FB9089401C80B2FFF736FBB4
:100EA000E8B2FFF73FFB9089801C80B2FFF72EFB72
:100EB0000298FFF737FB9089C01C80B2FFF726FB32
:100EC000F0B2BDE8FE4FFFF72DBBCA1B521E091B37
:100ED0003346491E284697B28EB291E72DE9F0437A
:100EE000FF4F0646002438887D884543B888A0F522
:100EF000D041043902D1B879012808D00021084630
:100F0000FFF74EFBFFF733FB4FF0D84016E0002011
:100F1000B8714FF02A09A7F80A904FF02B08A7F8EC
:100F20000C800146FFF73CFB0120B871A7F80A804E
:100F3000A7F80C90E6E7A0F88060641CAC42FAD3F6
:100F4000BDE8F0832DE9F04FA1B0002401217A2003
:100F50001F9405F028FD0121084605F038FD012009
:100F60008DF804008DF8064002208DF80500012060
:100F700008258DF8070000956946DA4805F0ECF879
:100F80004CF23370009002208DF804008DF806407A
:100F900003208DF8050001208DF807006946D2482E
:100FA00005F0DAF84FF68070009002208DF804000A
:100FB0008DF8064003208DF805000120CB4E8DF8FA
:100FC00007006946304605F0C7F868020090022025
:100FD0008DF804008DF8064003208DF805000120EF
:100FE000C34F8DF807006946384605F0B5F868022A
:100FF000009002208DF804008DF8064003208DF843
:10100000050001208DF807006946B64805F0A4F8F0
:101010000C220021B44805F013F90C220121B2483A
:1010200005F00EF90C220421AF4805F009F90C2255
:101030000521AD4805F004F90C220821AA4805F065
:10104000FFF80C220921A84805F0FAF80C220A2121
:10105000A54805F0F5F80C220E21A34805F0F0F89C
:101060000C220F21A04805F0EBF80C220721304696
:1010700005F0E6F80C220821304605F0E1F80C22D4
:101080000921304605F0DCF80C220A21304605F033
:10109000D7F80C220B21304605F0D2F80C2211466D
:1010A000304605F0CDF80C220D21304605F0C8F889
:1010B0000C220E21304605F0C3F80C220F213046D9
:1010C00005F0BEF80C221146384605F0B9F80C229E
:1010D0001146844805F0B4F80F20CDE911043C20F6
:1010E000CDE91304159409201694CDE91740CDE9F4
:1010F00019451B941C940620CDE902041D941E94EE
:101100001020CDE9044006940002CDE90A4008947D
:1011100007948000CDE90C40099411A8CDE90E4058
:1011200018A8109002A805F0C4F80121062005F0C7
:1011300039F96C4C18342580012004F01DFDA01CE9
:101140000580012004F018FD2580322004F014FDF4
:1011500001210020FFF7FCF9322004F00DFD0020F2
:10116000FFF7FCF9DFF878C14FF020494FF6FF7820
:10117000ACF8040049F2413545F2103645F21054FE
:1011800041F6631246F60407FF2804D3404502D017
:10119000B0F5134F7DD1D320FFF7B8F9FFF7CEF9A3
:1011A000ACF80400FFF7CAF9ACF80400FFF7C6F981
:1011B00008EA0020ACF80400FFF7C0F9BCF80410FE
:1011C0000843ACF80400A84273D0BF20FFF79EF993
:1011D000FFF7B4F9ACF80400FFF7B0F9ACF804007D
:1011E000FFF7ACF9ACF80400FFF7A8F908EA002013
:1011F000ACF80400FFF7A2F9BCF804100843ACF8FF
:101200000400B84255D0D420FFF780F9FFF796F9D3
:10121000ACF80400FFF792F9ACF80400FFF78EF980
:1012200008EA0020ACF80400FFF788F9BCF80410C5
:101230000843ACF80400B0423BD04FF45A40FFF7EB
:1012400065F9FFF77BF9ACF804004FF45B40FFF75A
:101250005DF9FFF773F908EA0020ACF804004FF4D9
:101260005C40FFF753F9FFF769F9BCF80410084335
:10127000ACF80400B0F5004F4AD0A04219D0A1202C
:10128000FFF744F9FFF75AF9ACF80400FFF756F9F5
:1012900000E00EE008EA0020ACF80400FFF74EF989
:1012A000BCF804100843A0F5AE41ACF80400613965
:1012B0002BD080B2A84205D0B04203D0A04201D0CA
:1012C000904228D1D9F81C11484621F00F01C9F8E5
:1012D0001C11D9F81C1121F47061C9F81C1109E026
:1012E000E804002000180240000C024000100240F8
:1012F00000140240D9F81C1141F00301C9F81C1177
:10130000D9F81C1141F4007122E0ACF80420D9E7AF
:10131000ACF80440D6E7B84203D0A0F54541053902
:1013200018D1D9F81C11484621F00F01C9F81C1139
:10133000D9F81C1121F47061C9F81C11D9F81C11DD
:1013400041F00A01C9F81C11D9F81C1141F440619F
:10135000C0F81C11BCF80400A8427CD1CF20FFF7D4
:10136000D5F80020FFF7DEF8C120FFF7DBF83020CA
:10137000FFF7D8F8ED20FFF7C9F86420FFF7D2F89F
:101380000320FFF7CFF81220FFF7CCF88120FFF7FA
:10139000C9F8E820FFF7BAF88520FFF7C3F8102056
:1013A000FFF7C0F87A20FFF7BDF8CB20FFF7AEF8C3
:1013B0003920FFF7B7F82C20FFF7B4F80020FFF72B
:1013C000B1F83420FFF7AEF80220FFF7ABF8F720B2
:1013D000FFF79CF82020FFF7A5F8EA20FFF796F822
:1013E0000020FFF79FF80020FFF79CF8C020FFF7D0
:1013F0008DF81B20FFF796F8C120FFF787F8012032
:10140000FFF790F8C520FFF781F83020FFF78AF842
:101410003020FFF787F8C720FFF778F8B720FFF7ED
:1014200081F83620FFF772F84820FFF77BF83A2062
:10143000FFF76CF85520FFF775F8B120FFF766F855
:101440000020FFF76FF81A20FFF76CF8B620FFF7BF
:101450005DF80A2000E092E0FFF764F8A220FFF7B1
:1014600061F8F220FFF752F80020FFF75BF8262022
:10147000FFF74CF80120FFF755F8E020FFF746F89A
:101480000F20FFF74FF82A20FFF74CF82820FFF72E
:1014900049F80820FFF746F80E20FFF743F8082028
:1014A000FFF740F85420FFF73DF8A920FFF73AF87E
:1014B0004320FFF737F80A20FFF734F80F20FFF733
:1014C00031F80020FFF72EF80020FFF72BF800205E
:1014D000FFF728F80020FFF725F8E120FFF716F8BE
:1014E0000020FFF71FF81520FFF71CF81720FFF763
:1014F00019F80720FFF716F81120FFF713F8062058
:10150000FFF710F82B20FFF70DF85620FFF70AF829
:101510003C20FFF707F80520FFF704F81020FFF73D
:1015200001F80F20FEF7FEFF3F20FEF7FBFF3F20F4
:10153000FEF7F8FF0F20FEF7F5FF2B20FEF7E6FF82
:101540000020FEF7EFFF0020FEF7ECFF0120FEF782
:10155000E9FF3F20FEF7E6FF2A20FEF7D7FF002035
:10156000FEF7E0FF0020FEF7DDFF0020FEF7DAFFC8
:10157000EF20FEF7D7FF1120FEF7C8FFA5E0B84225
:101580007ED11120FEF7C2FF142004F0F5FAD0201E
:10159000FEF7BCFF0720FEF7C5FF4220FEF7C2FFA3
:1015A0001D20FEF7BFFFD120FEF7B0FF0020FEF7A1
:1015B000B9FF1A20FEF7B6FF0920FEF7B3FFD220CD
:1015C000FEF7A4FF0120FEF7ADFF2220FEF7AAFFE1
:1015D000C020FEF79BFF1020FEF7A4FF3B20FEF784
:1015E000A1FF0020FEF79EFF0220FEF79BFF1120C7
:1015F000FEF798FFC520FEF789FF0320FEF792FF54
:10160000C820FEF783FF0020FEF78CFF2520FEF7A1
:1016100089FF2120FEF786FF0520FEF783FF0020CB
:10162000FEF780FF0A20FEF77DFF6520FEF77AFFB8
:101630002520FEF777FF7720FEF774FF5020FEF796
:1016400071FF0F20FEF76EFF0020FEF76BFFF82002
:10165000FEF75CFF0120FEF765FFFE20FEF756FF58
:101660000020FEF75FFF0220FEF75CFF2020FEF760
:101670004DFF3620FEF74AFF0820FEF753FF00E03B
:1016800029E03A20FEF742FF5520FEF74BFF2B20C2
:10169000FEF73CFF0020FEF745FF0020FEF742FF6B
:1016A0000120FEF73FFF3F20FEF73CFF2A20FEF718
:1016B0002DFF0020FEF736FF0020FEF733FF01204C
:1016C000FEF730FFDF20FEF72DFF782004F054FAFC
:1016D000292001F0FBBEB0427ED1ED20FEF716FFBF
:1016E0000120FEF71FFFFE20FEF71CFFEE20FEF795
:1016F0000DFFDE20FEF716FF2120FEF713FFF1207D
:10170000FEF704FF0120FEF70DFFDF20FEF7FEFECF
:101710001020FEF707FFC420FEF7F8FE8F20FEF72B
:1017200001FFC620FEF7F2FE0020FEF7FBFEE220DE
:10173000FEF7F8FEE220FEF7F5FEE220FEF7F2FEED
:10174000BF20FEF7E3FEAA20FEF7ECFEB020FEF776
:10175000DDFE0D20FEF7E6FE0020FEF7E3FE0D2085
:10176000FEF7E0FE0020FEF7DDFE1120FEF7DAFEB8
:101770000020FEF7D7FE1920FEF7D4FE0020FEF76A
:10178000D1FE2120FEF7CEFE0020FEF7CBFE2D205D
:10179000FEF7C8FE0020FEF7C5FE3D20FEF7C2FEA4
:1017A0000020FEF7BFFE5D20FEF7BCFE0020FEF726
:1017B000B9FE5D20FEF7B6FE0020FEF7B3FEB120B5
:1017C000FEF7A4FE8020FEF7ADFE0020FEF7AAFE85
:1017D0008B20FEF7A7FE00E0FDE30020FEF7A2FE4F
:1017E0009620FEF79FFE0020FEF79CFEB220FEF73B
:1017F0008DFE0020FEF796FE0020FEF793FE0220ED
:10180000FEF790FE0020FEF78DFE0320FEF78AFE15
:101810000020FEF787FEB320FEF778FE0020FEF7DB
:1018200081FE0020FEF77EFE0020FEF77BFE0020FA
:10183000FEF778FE0020FEF775FE0020FEF772FE30
:101840000020FEF76FFE0020FEF76CFE0020FEF782
:1018500069FE0020FEF766FE0020FEF763FE002012
:10186000FEF760FE0020FEF75DFE0020FEF75AFE48
:101870000020FEF757FE0020FEF754FE0020FEF782
:1018800051FE0020FEF74EFE0020FEF74BFE00202A
:10189000FEF748FE0020FEF745FE0020FEF742FE60
:1018A0000020FEF73FFE0020FEF73CFEB420FEF7CE
:1018B0002DFE8B20FEF736FE0020FEF733FE96202D
:1018C000FEF730FE0020FEF72DFEA120FEF72AFED7
:1018D0000020FEF727FEB520FEF718FE0220FEF7D7
:1018E00021FE0020FEF71EFE0320FEF71BFE002057
:1018F000FEF718FE0420FEF715FE0020FEF712FE8C
:10190000B620FEF703FE0020FEF70CFE0020FEF7D7
:1019100009FEB720FEF7FAFD0020FEF703FE0020C7
:10192000FEF700FE3F20FEF7FDFD0020FEF7FAFD6A
:101930005E20FEF7F7FD0020FEF7F4FD6420FEF7C1
:10194000F1FD0020FEF7EEFD8C20FEF7EBFD002000
:10195000FEF7E8FDAC20FEF7E5FD0020FEF7E2FD16
:10196000DC20FEF7DFFD0020FEF7DCFD7020FEF737
:10197000D9FD0020FEF7D6FD9020FEF7D3FD002014
:10198000FEF7D0FDEB20FEF7CDFD0020FEF7CAFDEF
:10199000DC20FEF7C7FD0020FEF7C4FDB820FEF7EF
:1019A000B5FD0020FEF7BEFD0020FEF7BBFD0020C8
:1019B000FEF7B8FD0020FEF7B5FD0020FEF7B2FDF2
:1019C0000020FEF7AFFD0020FEF7ACFD0020FEF783
:1019D000A9FDBA20FEF79AFD2420FEF7A3FD002002
:1019E000FEF7A0FD0020FEF79DFD0020FEF79AFD0A
:1019F000C120FEF78BFD2020FEF794FD0020FEF7AE
:101A000091FD5420FEF78EFD0020FEF78BFDFF2098
:101A1000FEF788FD0020FEF785FDC220FEF776FD6B
:101A20000A20FEF77FFD0020FEF77CFD0420FEF774
:101A300079FD0020FEF776FDC320FEF767FD3C2010
:101A4000FEF770FD0020FEF76DFD3A20FEF76AFDFF
:101A50000020FEF767FD3920FEF764FD0020FEF749
:101A600061FD3720FEF75EFD0020FEF75BFD3C20A8
:101A7000FEF758FD0020FEF755FD3620FEF752FD1B
:101A80000020FEF74FFD3220FEF74CFD0020FEF750
:101A900049FD2F20FEF746FD0020FEF743FD2C20D8
:101AA000FEF740FD0020FEF73DFD2920FEF73AFD40
:101AB0000020FEF737FD2620FEF734FD0020FEF75C
:101AC00031FD2420FEF72EFD0020FEF72BFD242003
:101AD000FEF728FD0020FEF725FD2320FEF722FD5E
:101AE0000020FEF71FFD3C20FEF71CFD0020FEF746
:101AF00019FD3620FEF716FD0020FEF713FD3220FB
:101B0000FEF710FD0020FEF70DFD2F20FEF70AFD69
:101B10000020FEF707FD2C20FEF704FD0020FEF755
:101B200001FD2920FEF7FEFC0020FEF7FBFC26202D
:101B3000FEF7F8FC0020FEF7F5FC2420FEF7F2FC8F
:101B40000020FEF7EFFC2420FEF7ECFC0020FEF75F
:101B5000E9FC2320FEF7E6FC0020FEF7E3FCC420AE
:101B6000FEF7D4FC6220FEF7DDFC0020FEF7DAFC75
:101B70000520FEF7D7FC0020FEF7D4FC8420FEF7FA
:101B8000D1FC0020FEF7CEFCF020FEF7CBFC0020BD
:101B9000FEF7C8FC1820FEF7C5FC0020FEF7C2FCCB
:101BA000A420FEF7BFFC0020FEF7BCFC1820FEF7C7
:101BB000B9FC0020FEF7B6FC5020FEF7B3FC002075
:101BC000FEF7B0FC0C20FEF7ADFC0020FEF7AAFCEF
:101BD0001720FEF7A7FC0020FEF7A4FC9520FEF7D7
:101BE000A1FC0020FEF79EFCF320FEF79BFC0020EA
:101BF000FEF798FCE620FEF795FC0020FEF792FC2D
:101C0000C520FEF783FC3220FEF78CFC0020FEF797
:101C100089FC4420FEF786FC0020FEF783FC65204B
:101C2000FEF780FC0020FEF77DFC7620FEF77AFCB4
:101C30000020FEF777FC8820FEF774FC0020FEF7FA
:101C400071FCC620FEF762FC2020FEF76BFC002032
:101C5000FEF768FC1720FEF765FC0020FEF762FC2B
:101C60000120FEF75FFC0020FEF75CFCC720FEF7BA
:101C70004DFC0020FEF756FC0020FEF753FC002030
:101C8000FEF750FC0020FEF74DFCC820FEF73EFC9E
:101C90000020FEF747FC0020FEF744FC0020FEF782
:101CA00041FC0020FEF73EFCC920FEF72FFC00207F
:101CB000FEF738FC0020FEF735FC0020FEF732FC72
:101CC0000020FEF72FFC0020FEF72CFC0020FEF782
:101CD00029FC0020FEF726FC0020FEF723FC002054
:101CE000FEF720FC0020FEF71DFC0020FEF71AFC8A
:101CF0000020FEF717FC0020FEF714FC0020FEF782
:101D000011FC0020FEF70EFC0020FEF70BFCE0208B
:101D1000FEF7FCFB1620FEF705FC0020FEF702FC98
:101D20001C20FEF7FFFB0020FEF7FCFB2120FEF746
:101D3000F9FB0020FEF7F6FB3620FEF7F3FB002050
:101D4000FEF7F0FB4620FEF7EDFB0020FEF7EAFB76
:101D50005220FEF7E7FB0020FEF7E4FB6420FEF7CD
:101D6000E1FB0020FEF7DEFB7A20FEF7DBFB002024
:101D7000FEF7D8FB8B20FEF7D5FB0020FEF7D2FB49
:101D80009920FEF7CFFB0020FEF7CCFBA820FEF742
:101D9000C9FB0020FEF7C6FBB920FEF7C3FB0020FD
:101DA000FEF7C0FBC420FEF7BDFB0020FEF7BAFB28
:101DB000CA20FEF7B7FB0020FEF7B4FBD220FEF7E7
:101DC000B1FB0020FEF7AEFBD920FEF7ABFB0020F5
:101DD000FEF7A8FBE020FEF7A5FB0020FEF7A2FB24
:101DE000F320FEF79FFB0020FEF79CFBE120FEF7AF
:101DF0008DFB1620FEF796FB0020FEF793FB1C20C0
:101E0000FEF790FB0020FEF78DFB2220FEF78AFBF9
:101E10000020FEF787FB3620FEF784FB0020FEF74C
:101E200081FB4520FEF77EFB0020FEF77BFB522066
:101E3000FEF778FB0020FEF775FB6420FEF772FBCF
:101E40000020FEF76FFB7A20FEF76CFB0020FEF708
:101E500069FB8B20FEF766FB0020FEF763FB9920F1
:101E6000FEF760FB0020FEF75DFBA820FEF75AFBA3
:101E70000020FEF757FBB920FEF754FB0020FEF7C9
:101E800051FBC420FEF74EFB0020FEF74BFBCA209F
:101E9000FEF748FB0020FEF745FBD220FEF742FB91
:101EA0000020FEF73FFBD820FEF73CFB0020FEF7AA
:101EB00039FBE020FEF736FB0020FEF733FBF32072
:101EC000FEF730FB0020FEF72DFBE220FEF71EFBA5
:101ED0000520FEF727FB0020FEF724FB0B20FEF772
:101EE00021FB0020FEF71EFB1B20FEF71BFB002042
:101EF000FEF718FB3420FEF715FB0020FEF712FB5F
:101F00004420FEF70FFB0020FEF70CFB4F20FEF7EE
:101F100009FB0020FEF706FB6120FEF703FB002013
:101F2000FEF700FB7920FEF7FDFA0020FEF7FAFA33
:101F30008820FEF7F7FA0020FEF7F4FA9720FEF764
:101F4000F1FA0020FEF7EEFAA620FEF7EBFA0020E9
:101F5000FEF7E8FAB720FEF7E5FA0020FEF7E2FA0E
:101F6000C220FEF7DFFA0020FEF7DCFAC720FEF7FA
:101F7000D9FA0020FEF7D6FAD120FEF7D3FA0020D6
:101F8000FEF7D0FAD620FEF7CDFA0020FEF7CAFA07
:101F9000DD20FEF7C7FA0020FEF7C4FAF320FEF7B3
:101FA000C1FA0020FEF7BEFAE320FEF7AFFA0520E3
:101FB000FEF7B8FA0020FEF7B5FA0A20FEF7B2FAEB
:101FC0000020FEF7AFFA1C20FEF7ACFA0020FEF767
:101FD000A9FA332000E0FAE2FEF7A4FA0020FEF7A7
:101FE000A1FA4420FEF79EFA0020FEF79BFA50204B
:101FF000FEF798FA0020FEF795FA6220FEF792FAB3
:102000000020FEF78FFA7820FEF78CFA0020FEF70A
:1020100089FA8820FEF786FA0020FEF783FA9720D7
:10202000FEF780FA0020FEF77DFAA620FEF77AFA86
:102030000020FEF777FAB720FEF774FA0020FEF7CB
:1020400071FAC220FEF76EFA0020FEF76BFAC72085
:10205000FEF768FA0020FEF765FAD120FEF762FA73
:102060000020FEF75FFAD520FEF75CFA0020FEF7AD
:1020700059FADD20FEF756FA0020FEF753FAF32056
:10208000FEF750FA0020FEF74DFAE420FEF73EFA84
:102090000120FEF747FA0020FEF744FA0120FEF780
:1020A00041FA0020FEF73EFA0220FEF73BFA00203C
:1020B000FEF738FA2A20FEF735FA0020FEF732FA4A
:1020C0003C20FEF72FFA0020FEF72CFA4B20FEF7FB
:1020D00029FA0020FEF726FA5D20FEF723FA0020F9
:1020E000FEF720FA7420FEF71DFA0020FEF71AFA18
:1020F0008420FEF717FA0020FEF714FA9320FEF76B
:1021000011FA0020FEF70EFAA220FEF70BFA0020CB
:10211000FEF708FAB320FEF705FA0020FEF702FAF0
:10212000BE20FEF7FFF90020FEF7FCF9C420FEF701
:10213000F9F90020FEF7F6F9CD20FEF7F3F90020BB
:10214000FEF7F0F9D320FEF7EDF90020FEF7EAF9EB
:10215000DD20FEF7E7F90020FEF7E4F9F320FEF7B3
:10216000E1F90020FEF7DEF9E520FEF7CFF90020C7
:10217000FEF7D8F90020FEF7D5F90020FEF7D2F9D6
:102180000020FEF7CFF90220FEF7CCF90020FEF781
:10219000C9F92920FEF7C6F90020FEF7C3F93C2053
:1021A000FEF7C0F90020FEF7BDF94B20FEF7BAF9A3
:1021B0000020FEF7B7F95D20FEF7B4F90020FEF726
:1021C000B1F97420FEF7AEF90020FEF7ABF98420D8
:1021D000FEF7A8F90020FEF7A5F99320FEF7A2F973
:1021E0000020FEF79FF9A220FEF79CF90020FEF7E1
:1021F00099F9B320FEF796F90020FEF793F9BE2077
:10220000FEF790F90020FEF78DF9C420FEF78AF959
:102210000020FEF787F9CD20FEF784F90020FEF7B5
:1022200081F9D320FEF77EF90020FEF77BF9DC2050
:10223000FEF778F90020FEF775F9F320FEF772F942
:102240000020FEF76FF9E620FEF760F91120FEF797
:1022500069F90020FEF766F93420FEF763F90020E3
:10226000FEF760F95620FEF75DF90020FEF75AF9F7
:102270007620FEF757F90020FEF754F97720FEF795
:1022800051F90020FEF74EF96620FEF74BF90020C9
:10229000FEF748F98820FEF745F90020FEF742F9DD
:1022A0009920FEF73FF90020FEF73CF9BB20FEF72E
:1022B00039F90020FEF736F99920FEF733F90020AE
:1022C000FEF730F96620FEF72DF90020FEF72AF917
:1022D0005520FEF727F90020FEF724F95520FEF7D8
:1022E00021F90020FEF71EF94520FEF71BF900201A
:1022F000FEF718F94320FEF715F90020FEF712F952
:102300004420FEF70FF90020FEF70CF9E720FEF756
:10231000FDF83220FEF706F90020FEF703F95520FC
:10232000FEF700F90020FEF7FDF87620FEF7FAF838
:102330000020FEF7F7F86620FEF7F4F80020FEF71D
:10234000F1F86720FEF7EEF80020FEF7EBF86720C3
:10235000FEF7E8F80020FEF7E5F88720FEF7E2F840
:102360000020FEF7DFF89920FEF7DCF80020FEF7EA
:10237000D9F8BB20FEF7D6F80020FEF7D3F8992055
:10238000FEF7D0F80020FEF7CDF87720FEF7CAF868
:102390000020FEF7C7F84420FEF7C4F80020FEF73F
:1023A000C1F85620FEF7BEF80020FEF7BBF8232048
:1023B000FEF7B8F80020FEF7B5F83320FEF7B2F8C4
:1023C0000020FEF7AFF84520FEF7ACF80020FEF73E
:1023D000A9F8E820FEF79AF80020FEF7A3F80020FD
:1023E000FEF7A0F89920FEF79DF80020FEF79AF876
:1023F0008720FEF797F80020FEF794F88820FEF774
:1024000091F80020FEF78EF87720FEF78BF8002079
:10241000FEF788F86620FEF785F80020FEF782F8C0
:102420008820FEF77FF80020FEF77CF8AA20FEF750
:1024300079F80020FEF776F8BB20FEF773F800204D
:10244000FEF770F89920FEF76DF80020FEF76AF8A5
:102450006620FEF767F80020FEF764F85520FEF7C7
:1024600061F80020FEF75EF85520FEF75BF80020CB
:10247000FEF758F84420FEF755F80020FEF752F812
:102480004420FEF74FF80020FEF74CF85520FEF7E9
:1024900049F80020FEF746F8E920FEF737F8AA20B1
:1024A000FEF740F80020FEF73DF80020FEF73AF86E
:1024B0000020FEF737F80020FEF728F8AA20FEF7E4
:1024C00031F8CF20FEF722F80020FEF72BF800208D
:1024D000FEF728F80020FEF725F80020FEF722F886
:1024E0000020FEF71FF80020FEF71CF80020FEF782
:1024F00019F80020FEF716F80020FEF713F8002068
:10250000FEF710F80020FEF70DF80020FEF70AF89D
:102510000020FEF707F80020FEF704F80020FEF781
:1025200001F80020FDF7FEFF0020FDF7FBFFF02083
:10253000FDF7ECFF0020FDF7F5FF5020FDF7F2FF5F
:102540000020FDF7EFFF0020FDF7ECFF0020FDF776
:10255000E9FFF320FDF7DAFF0020FDF7E3FFF920A4
:10256000FDF7D4FF0620FDF7DDFF1020FDF7DAFFB1
:102570002920FDF7D7FF0020FDF7D4FF3A20FDF713
:10258000C5FF5520FDF7CEFF1120FDF7BFFF6420EA
:1025900003F0F2FA2920FDF7B9FF3520FDF7B6FF69
:1025A0000020FDF7BFFF5120FDF7B0FFFF20FDF732
:1025B000B9FF5320FDF7AAFF2C20FDF7B3FF5520EC
:1025C000FDF7A4FF8220FDF7ADFF2C20FDE3A04224
:1025D0007ED14FF4704355211846FDF7B9FF4FF2F5
:1025E0000104AA212046FDF7B3FF651C52212846AD
:1025F000FDF7AEFFA61C08213046FDF7A9FFE71C3A
:1026000001213846FDF7A4FF0D214FF43040FDF7BE
:102610009FFF0D214BF20100FDF79AFF0D214BF2B8
:102620000200FDF795FF4FF4364C34216046FDF76C
:102630008FFF34214BF20160FDF78AFF34214BF20A
:102640000260FDF785FF4FF431490D214846FDF743
:102650007FFF4BF2011A0D215046FDF779FF0D2146
:102660004BF20210FDF774FF4FF4374B34215846FC
:10267000FDF76EFF34214BF20170FDF769FF342145
:102680004BF20270FDF764FF00214FF43240FDF77A
:102690005FFF00214BF20120FDF75AFF00214BF2B2
:1026A0000220FDF755FF24214FF43840FDF750FF7D
:1026B00024214BF60100FDF74BFF24214BF60200CD
:1026C000FDF746FF01214FF43F40FDF741FF00E0D9
:1026D000FEE30F214FF43340FDF73AFF0F214BF299
:1026E0000130FDF735FF0F214BF20230FDF730FFCF
:1026F00034214FF43940FDF72BFF34214BF6011004
:10270000FDF726FF34214BF60210FDF721FF0821CB
:102710004FF43540FDF71CFF08214BF20150FDF747
:1027200017FF08214BF20250FDF712FF03214FF46F
:102730004240FDF70DFF24214FF43A40FDF708FF1A
:1027400024214BF60120FDF703FF24214BF6022044
:10275000FDF7FEFE00214FF43C40FDF7F9FE782125
:102760004BF60140FDF7F4FE00214BF60240FDF769
:10277000EFFE00214FF43D40FDF7EAFE78214BF6D5
:102780000150FDF7E5FE00214BF60250FDF7E0FE9B
:1027900000214FF43E40FDF7DBFE64214BF6016063
:1027A000FDF7D6FE00214FF45140FDF7D1FE332155
:1027B0004DF20110FDF7CCFE00214DF20210FDF7A5
:1027C000C7FE34214DF20310FDF7C2FE00214DF289
:1027D0000410FDF7BDFE3A214DF20510FDF7B8FEDD
:1027E00000214DF20610FDF7B3FE4A214DF207100D
:1027F000FDF7AEFE00214DF20810FDF7A9FE5C21A9
:102800004DF20910FDF7A4FE00214DF20A10FDF76C
:102810009FFE81214DF20B10FDF79AFE00214DF233
:102820000C10FDF795FEA6214DF20D10FDF790FE60
:1028300000214DF20E10FDF78BFEE5214DF20F1039
:10284000FDF786FE01214DF21010FDF781FE1321E8
:102850004DF21110FDF77CFE01214DF21210FDF733
:1028600077FE54214DF21310FDF772FE01214DF257
:102870001410FDF76DFE82214DF21510FDF768FE74
:1028800001214DF21610FDF763FECA214DF217101B
:10289000FDF75EFE02214DF21810FDF759FE0021F2
:1028A0004DF21910FDF754FE02214DF21A10FDF7FA
:1028B0004FFE01214DF21B10FDF74AFE02214DF2A1
:1028C0001C10FDF745FE34214DF21D10FDF740FEB2
:1028D00002214DF21E10FDF73BFE67214DF21F1045
:1028E000FDF736FE02214DF22010FDF731FE842166
:1028F0004DF22110FDF72CFE02214DF22210FDF7C2
:1029000027FEA4214DF22310FDF722FE02214DF2F5
:102910002410FDF71DFEB7214DF22510FDF718FE1E
:1029200002214DF22610FDF713FECF214DF22710A4
:10293000FDF70EFE02214DF22810FDF709FEDE2103
:102940004DF22910FDF704FE02214DF22A10FDF789
:10295000FFFDF2214DF22B10FDF7FAFD02214DF2A1
:102960002C10FDF7F5FDFE214DF22D10FDF7F0FDC9
:1029700003214DF22E10FDF7EBFD10214DF22F102B
:10298000FDF7E6FD03214DF23010FDF7E1FD3321A7
:102990004DF23110FDF7DCFD03214DF23210FDF751
:1029A000D7FD6D214DF23310FDF7D2FD00214FF41C
:1029B0005240FDF7CDFD33214DF20120FDF7C8FD5A
:1029C00000214DF20220FDF7C3FD34214DF203201A
:1029D000FDF7BEFD00214DF20420FDF7B9FD3A21BF
:1029E0004DF20520FDF7B4FD00214DF20620FDF764
:1029F000AFFD4A214DF20720FDF7AAFD00214DF25F
:102A00000820FDF7A5FD5C214DF20920FDF7A0FD92
:102A100000214DF20A20FDF79BFD81214DF20B2094
:102A2000FDF796FD00214DF20C20FDF791FDA6214A
:102A30004DF20D20FDF78CFD00214DF20E20FDF72B
:102A400087FDE5214DF20F20FDF782FD01214DF2BA
:102A50001020FDF77DFD13214DF21120FDF778FDCB
:102A600001214DF21220FDF773FD54214DF2132088
:102A7000FDF76EFD01214DF21420FDF769FD822165
:102A80004DF21520FDF764FD01214DF21620FDF7F2
:102A90005FFDCA214DF21720FDF75AFD02214DF2CC
:102AA0001820FDF755FD00214DF21920FDF750FDCE
:102AB00002214DF21A20FDF74BFD01214DF21B20A2
:102AC000FDF746FD02214DF21C20FDF741FD3421AA
:102AD0004DF21D20FDF73CFD02214DF21E20FDF7B9
:102AE00037FD67214DF21F20FDF732FD02214DF227
:102AF0002020FDF72DFD84214DF22120FDF728FD3A
:102B000002214DF22220FDF723FDA4214DF22320C6
:102B1000FDF71EFD02214DF22420FDF719FDB7211E
:102B20004DF22520FDF714FD02214DF22620FDF780
:102B30000FFDCF214DF22720FDF70AFD02214DF2B6
:102B40002820FDF705FDDE214DF22920FDF700FDCF
:102B500002214DF22A20FDF7FBFCF2214DF22B2041
:102B6000FDF7F6FC02214DF22C20FDF7F1FCFE21D1
:102B70004DF22D20FDF7ECFC03214DF22E20FDF748
:102B8000E7FC10214DF22F20FDF7E2FC03214DF26E
:102B90003020FDF7DDFC33214DF23120FDF7D8FC6C
:102BA00003214DF23220FDF7D3FC6D214DF233208D
:102BB000FDF7CEFC00214FF45340FDF7C9FC332153
:102BC0004DF20130FDF7C4FC00214DF20230FDF75B
:102BD000BFFC34214DF20330FDF7BAFC00214DF269
:102BE0000430FDF7B5FC3A214DF20530FDF7B0FC9D
:102BF00000214DF20630FDF7ABFC4A214DF20730C3
:102C0000FDF7A6FC00214DF20830FDF7A1FC5C2188
:102C10004DF20930FDF79CFC00214DF20A30FDF722
:102C200097FC81214DF20B30FDF792FC00214DF213
:102C30000C30FDF78DFCA6214DF20D30FDF788FC20
:102C400000214DF20E30FDF783FCE5214DF20F30EF
:102C5000FDF77EFC01214DF21030FDF779FC1321C8
:102C60004DF21130FDF774FC01214DF21230FDF7E9
:102C70006FFC54214DF21330FDF76AFC01214DF237
:102C80001430FDF765FC82214DF21530FDF760FC34
:102C900001214DF21630FDF75BFCCA214DF21730D1
:102CA000FDF756FC02214DF21830FDF751FC0021D2
:102CB0004DF21930FDF74CFC02214DF21A30FDF7B0
:102CC00047FC01214DF21B30FDF742FC02214DF281
:102CD0001C30FDF73DFC34214DF21D30FDF738FC72
:102CE00002214DF21E30FDF733FC67214DF21F30FB
:102CF000FDF72EFC02214DF22030FDF729FC842146
:102D00004DF22130FDF724FC02214DF22230FDF777
:102D10001FFCA4214DF22330FDF71AFC02214DF2D5
:102D20002430FDF715FCB7214DF22530FDF710FCDE
:102D300002214DF22630FDF70BFCCF214DF227305A
:102D4000FDF706FC02214DF22830FDF701FCDE21E3
:102D50004DF22930FDF7FCFB02214DF22A30FDF740
:102D6000F7FBF2214DF22B30FDF7F2FB02214DF281
:102D70002C30FDF7EDFBFE214DF22D30FDF7E8FB89
:102D800003214DF22E30FDF7E3FB10214DF22F30E1
:102D9000FDF7DEFB03214DF23030FDF7D9FB332187
:102DA0004DF23130FDF7D4FB03214DF23230FDF707
:102DB000CFFB6D214DF23330FDF7CAFB00214FF4FC
:102DC0005440FDF7C5FB332100E07FE34DF20140A5
:102DD000FDF7BEFB00214DF20240FDF7B9FB3421A7
:102DE0004DF20340FDF7B4FB00214DF20440FDF726
:102DF000AFFB3A214DF20540FDF7AAFB00214DF251
:102E00000640FDF7A5FB4A214DF20740FDF7A0FB68
:102E100000214DF20840FDF79BFB5C214DF209407B
:102E2000FDF796FB00214DF20A40FDF791FB812151
:102E30004DF20B40FDF78CFB00214DF20C40FDF7ED
:102E400087FBA6214DF20D40FDF782FB00214DF2DC
:102E50000E40FDF77DFBE5214DF20F40FDF778FBBD
:102E600001214DF21040FDF773FB13214DF211408B
:102E7000FDF76EFB01214DF21240FDF769FB542175
:102E80004DF21340FDF764FB01214DF21440FDF7B4
:102E90005FFB82214DF21540FDF75AFB01214DF2F7
:102EA0001640FDF755FBCA214DF21740FDF750FBC8
:102EB00002214DF21840FDF74BFB00214DF2194065
:102EC000FDF746FB02214DF21A40FDF741FB00E001
:102ED000FFE201214DF21B40FDF73AFB02214DF2CA
:102EE0001C40FDF735FB34214DF21D40FDF730FB52
:102EF00002214DF21E40FDF72BFB67214DF21F40D2
:102F0000FDF726FB02214DF22040FDF721FB842135
:102F10004DF22140FDF71CFB02214DF22240FDF74E
:102F200017FBA4214DF22340FDF712FB02214DF2C5
:102F30002440FDF70DFBB7214DF22540FDF708FBBE
:102F400002214DF22640FDF703FBCF214DF2274031
:102F5000FDF7FEFA02214DF22840FDF7F9FADE21D5
:102F60004DF22940FDF7F4FA02214DF22A40FDF717
:102F7000EFFAF2214DF22B40FDF7EAFA02214DF271
:102F80002C40FDF7E5FAFE214DF22D40FDF7E0FA69
:102F900003214DF22E40FDF7DBFA10214DF22F40B8
:102FA000FDF7D6FA03214DF23040FDF7D1FA332177
:102FB0004DF23140FDF7CCFA03214DF23240FDF7DE
:102FC000C7FA6D214DF23340FDF7C2FA00214FF4EC
:102FD0005540FDF7BDFA33214DF20150FDF7B8FA27
:102FE00000214DF20250FDF7B3FA34214DF20350A7
:102FF000FDF7AEFA00214DF20450FDF7A9FA3A218F
:103000004DF20550FDF7A4FA00214DF20650FDF7F0
:103010009FFA4A214DF20750FDF79AFA00214DF22E
:103020000850FDF795FA5C214DF20950FDF790FA32
:1030300000214DF20A50FDF78BFA81214DF20B5021
:10304000FDF786FA00214DF20C50FDF781FAA6211A
:103050004DF20D50FDF77CFA00214DF20E50FDF7B8
:1030600077FAE5214DF20F50FDF772FA01214DF28A
:103070001050FDF76DFA13214DF21150FDF768FA6B
:1030800001214DF21250FDF763FA54214DF2135015
:10309000FDF75EFA01214DF21450FDF759FA822135
:1030A0004DF21550FDF754FA01214DF21650FDF77F
:1030B0004FFACA214DF21750FDF74AFA02214DF29C
:1030C0001850FDF745FA00214DF21950FDF740FA6E
:1030D00002214DF21A50FDF73BFA01214DF21B502F
:1030E000FDF736FA02214DF21C50FDF731FA34217A
:1030F0004DF21D50FDF72CFA02214DF21E50FDF746
:1031000027FA67214DF21F50FDF722FA02214DF2F6
:103110002050FDF71DFA84214DF22150FDF718FAD9
:1031200002214DF22250FDF713FAA4214DF2235053
:10313000FDF70EFA02214DF22450FDF709FAB721EE
:103140004DF22550FDF704FA02214DF22650FDF70D
:10315000FFF9CF214DF22750FDF7FAF902214DF288
:103160002850FDF7F5F9DE214DF22950FDF7F0F971
:1031700002214DF22A50FDF7EBF9F2214DF22B50CE
:10318000FDF7E6F902214DF22C50FDF7E1F9FE21A1
:103190004DF22D50FDF7DCF903214DF22E50FDF7D5
:1031A000D7F910214DF22F50FDF7D2F903214DF23E
:1031B0003050FDF7CDF933214DF23150FDF7C8F90C
:1031C00003214DF23250FDF7C3F96D214DF233501A
:1031D000FDF7BEF900214FF45640FDF7B9F9332150
:1031E0004DF20160FDF7B4F900214DF20260FDF7E8
:1031F000AFF934214DF20360FDF7AAF900214DF239
:103200000460FDF7A5F93A214DF20560FDF7A0F93C
:1032100000214DF20660FDF79BF94A214DF207604F
:10322000FDF796F900214DF20860FDF791F95C2158
:103230004DF20960FDF78CF900214DF20A60FDF7AF
:1032400087F981214DF20B60FDF782F900214DF2E3
:103250000C60FDF77DF9A6214DF20D60FDF778F9C0
:1032600000214DF20E60FDF773F9E5214DF20F607C
:10327000FDF76EF901214DF21060FDF769F9132198
:103280004DF21160FDF764F901214DF21260FDF776
:103290005FF954214DF21360FDF75AF901214DF207
:1032A0001460FDF755F982214DF21560FDF750F9D4
:1032B00001214DF21660FDF74BF9CA214DF217605E
:1032C000FDF746F902214DF21860FDF741F90021A2
:1032D0004DF21960FDF73CF902214DF21A60FDF73D
:1032E00037F901214DF21B60FDF732F902214DF251
:1032F0001C60FDF72DF934214DF21D60FDF728F912
:1033000002214DF21E60FDF723F967214DF21F6087
:10331000FDF71EF902214DF22060FDF719F9842115
:103320004DF22160FDF714F902214DF22260FDF704
:103330000FF9A4214DF22360FDF70AF902214DF2A5
:103340002460FDF705F9B7214DF22560FDF700F97E
:1033500002214DF22660FDF7FBF8CF214DF22760E8
:10336000FDF7F6F802214DF22860FDF7F1F8DE21B5
:103370004DF22960FDF7ECF802214DF22A60FDF7CD
:10338000E7F8F2214DF22B60FDF7E2F802214DF251
:103390002C60FDF7DDF8FE214DF22D60FDF7D8F829
:1033A00003214DF22E60FDF7D3F810214DF22F606E
:1033B000FDF7CEF803214DF23060FDF7C9F8332157
:1033C0004DF23160FDF7C4F803214DF23260FDF794
:1033D000BFF86D214DF23360FDF7BAF8552118465C
:1033E000FDF7B6F8AA212046FDF7B2F8522128468B
:1033F000FDF7AEF808213046FDF7AAF8002138465F
:10340000FDF7A6F8CC214846FDF7A2F8002150466A
:10341000FDF79EF805216046FDF79AF870215846A1
:10342000FDF796F870214BF20170FDF791F801213C
:103430004FF43840FDF78CF803214BF60100FDF7FF
:1034400087F803214BF60200FDF782F803214BF6C3
:103450000300FDF77DF802214FF43C40FDF778F8BA
:1034600000214BF60140FDF773F800214BF60240B6
:10347000FDF76EF8D0214FF44940FDF769F80221BD
:103480004CF60110FDF764F850214CF60210FDF7E0
:103490005FF850214CF60310FDF75AF850214CF616
:1034A0000410FDF755F800214FF45450FDF750F883
:1034B00055214FF46850FDF74BF84FF48850FDF755
:1034C00025F8782002F03CFB4FF42450FDF71EF85D
:1034D000FEE0A0F513414FF480744FF4E06740F232
:1034E000022940F23F1B4FF4274625397ED0FD1DAF
:1034F000A0F5134128397AD0A0F513414FF488760E
:103500004FF41C5A203973D0A0F51341313970D0D3
:10351000A0F5A84108396DD0A0F5A8514FF4407628
:10352000053968D0A0F53541053965D0A0F545418C
:1035300005397CD0A0F58A41313979D0A0F58A418E
:10354000353976D09042C3D1E220FCF7DFFF1D2051
:10355000FCF7E8FF0220FCF7E5FF0420FCF7E2FFA0
:10356000642002F0EDFAE020FCF7D0FF0120FCF728
:10357000D9FF0A2002F000FBE020FCF7C7FF032080
:10358000FCF7D0FF0C2002F0F7FA0120FCF7BEFF99
:103590000A2002F0F1FAE620FCF7B8FF2F20FCF732
:1035A000C1FFFF20FCF7BEFFFF20FCF7BBFFB020F0
:1035B000FCF7ACFF2020FCF7B5FF0020FCF7B2FFC2
:1035C0000320FCF7AFFF40F21F30FCF7ABFF0120F8
:1035D000FCF7A8FF40F2DF10FCF7A4FF0020FCF787
:1035E000A1FFB420FCF792FF042006E07DE047E154
:1035F00002E2A7E27BE3FDE3FDE3FCF793FF40F289
:103600001F40FCF78FFF0020FCF78CFF2E20FCF7FB
:1036100089FF0020FCF786FF0020FCF783FF0020D5
:10362000FCF780FF0020FCF77DFFB62002E0FCE302
:10363000FCE3FCE3FCF76AFF0220FCF773FF4FF4A6
:103640000370FCF76FFF0020FCF76CFF1720FCF7FE
:1036500069FF1520FCF766FF0020FCF763FF0020E0
:10366000FCF760FFF020FCF751FF0320FCF75AFF46
:103670002920FCF74BFFD020FCF748FF0020FCF787
:1036800051FFBE20FCF742FF0520FCF74BFFFE2058
:10369000FCF748FF0120FCF745FF0020FCF742FF44
:1036A0000020FCF73FFF0020FCF73CFFB820FCF7B0
:1036B0002DFF0320FCF736FF0120FCF733FFBA2073
:1036C000FCF724FF0120FCF72DFF6420FDF757FADB
:1036D0000020FDF777FAFF490120C1F8BC024046FF
:1036E000FDF7FCFB21B0BDE8F08F47F6F001E520C7
:1036F000FCF72EFF21460120FCF72AFF3946022065
:10370000FCF726FF41F230010320FCF721FF0021E6
:103710000420FCF71DFF49460820FCF719FF002193
:103720000920FCF715FF00210A20FCF711FF0021FA
:103730000C20FCF70DFF00210D20FCF709FF0021F4
:103740000F20FCF705FF00211020FCF701FF0721E7
:103750001120FCF7FDFE00211220FCF7F9FE0021EC
:103760001320FCF7F5FE00210720FCF7F1FE41F2E3
:1037700090611020FCF7ECFE40F227211120FCF7AD
:10378000E7FE9D211220FCF7E3FE4FF4C851132001
:10379000FCF7DEFE25212920FCF7DAFE0D212B2087
:1037A000FCF7D6FE07213020FCF7D2FE40F20331B1
:1037B0003120FCF7CDFE03213220FCF7C9FE40F298
:1037C00006213520FCF7C4FE08213620FCF7C0FE98
:1037D00040F206413720FCF7BBFE4FF44171382020
:1037E000FCF7B6FE07213920FCF7B2FE40F2026179
:1037F0003C20FCF7ADFE08213D20FCF7A9FE00218E
:103800005020FCF7A5FEEF215120FCF7A1FE00217E
:103810005220FCF79DFE59465320FCF799FE314695
:103820006020FCF795FE01216120FCF791FE00214C
:103830006A20FCF78DFE00218020FCF789FE002124
:103840008120FCF785FE00218220FCF781FE00210B
:103850008320FCF77DFE00218420FCF779FE002107
:103860008520FCF775FE10219020FCF771FE4FF4C7
:10387000C0619220FCF76CFE40F233110720FDE39B
:1038800041F28F01EC20FCF763FE41F23421EF207E
:10389000FCF75EFE21460120FCF75AFE3946022065
:1038A000FCF756FE41F230010320FCF751FE0021E7
:1038B0000420FCF74DFE49460820FCF749FE002194
:1038C0000920FCF745FE00210A20FCF741FE0121FA
:1038D0000C20FCF73DFE00210D20FCF739FE0021F5
:1038E0000F20FCF735FE00211020FCF731FE0721E8
:1038F0001120FCF72DFE00211220FCF729FE0021EB
:103900001320FCF725FE01210720FCF721FE3220C1
:1039100002F032F941F290411020FCF719FE40F21A
:1039200027211120FCF714FE322002F025F98A210C
:103930001220FCF70DFE322002F01EF94FF4D05198
:103940001320FCF705FE06212920FCF701FE0D21BE
:103950002B20FCF7FDFD322002F00EF90021202083
:10396000FCF7F6FD00212120FCF7F2FD322002F0E9
:1039700003F900213020FCF7EBFD40F20461312017
:10398000FCF7E6FD40F205313220FCF7E1FD0021B5
:103990003520FCF7DDFD40F609413620FCF7D8FD67
:1039A0004FF401713720FCF7D3FD40F2013138208C
:1039B000FCF7CEFD29463920FCF7CAFD00213C204A
:1039C000FCF7C6FD40F60A213D20FCF7C1FD322080
:1039D00002F0D2F800215020FCF7BAFDEF2151206F
:1039E000FCF7B6FD00215220FCF7B2FD59465320EA
:1039F000FCF7AEFD31464FE100210846FCF7A8FD7B
:103A000021460120FCF7A4FD39460220FCF7A0FD69
:103A100041F230010320FCF79BFD00210420FCF75C
:103A200097FD49460820FCF793FD00210920FCF78B
:103A30008FFD00210A20FCF78BFD01210C20FCF7F3
:103A400087FD00210D20FCF783FD00210F20FCF7EE
:103A50007FFD322002F090F840F201110720FCF7C0
:103A600077FD322002F088F84FF486511020FCF7E1
:103A70006FFD07211120FCF76BFD31461220FCF78A
:103A800067FD4FF430611320FCF762FD002129200F
:103A9000FCF75EFD44F210012B20FCF759FD0021DC
:103AA0005020FCF755FDEF215120FCF751FD00217E
:103AB0005220FCF74DFD59465320FCF749FD514675
:103AC0006020FCF745FD01216120FCF741FD00214C
:103AD0006A2001E000804042FCF73AFD002180208E
:103AE000FCF736FD00218120FCF732FD0021822009
:103AF000FCF72EFD00218320FCF72AFD0021842005
:103B0000FCF726FD00218520FCF722FD10219020E6
:103B1000FCF71EFD00219220FCF71AFD01219320E5
:103B2000FCF716FD31469520FCF712FD0021972089
:103B3000FCF70EFD00219820FCF70AFD40F27311FE
:103B400007207DE341F21401E720FCF701FD214647
:103B50000120FCF7FDFC4FF400710220FCF7F8FC9B
:103B600041F238010320FCF7F3FC49460820FCF73A
:103B7000EFFC00210920FCF7EBFC00210A20FCF7F8
:103B8000E7FC00210C20FCF7E3FC00210D20FCF7F2
:103B9000DFFC00210F20FCF7DBFC00211020FCF7EC
:103BA000D7FC07211120FCF7D3FC00211220FCF7E1
:103BB000CFFC00211320FCF7CBFCC82001F0DCFF78
:103BC00041F290611020FCF7C3FC40F22721112044
:103BD000FCF7BEFC322001F0CFFF0C211220FCF7D5
:103BE000B7FC322001F0C8FF4FF400611320FCF74E
:103BF000AFFC11212920FCF7ABFC0B212B20FCF79B
:103C0000A7FC322001F0B8FF00212020FCF7A0FC27
:103C10005B4659462120FCF79BFC00213020FCF735
:103C200097FC4FF4837421463120FCF791FC00216E
:103C30003220FCF78DFC4FF401713520FCF788FC35
:103C400041F20A613620FCF783FC29463720FCF755
:103C50007FFC21463820FCF77BFC29463920FCF705
:103C600077FC40F202413C20FCF772FC40F60F4129
:103C70003D20FCF76DFC00215020FCF769FCEF2192
:103C80005120FCF765FC00215220FCF761FC19462D
:103C90005320FCF75DFC51466020FCF759FC0121E4
:103CA0006120FCF755FC00216A20FCF751FC002143
:103CB0008020FCF74DFC00218120FCF749FC00210D
:103CC0008220FCF745FC00218320FCF741FC002109
:103CD0008420FCF73DFC00218520FCF739FC1021F5
:103CE0009020FCF735FC4FF4C0619220FEE32146A2
:103CF0000120FCF72DFC39460220FCF729FC41F29B
:103D000030010320FCF724FC00210420FCF720FCF8
:103D100040F207210820FCF71BFC00210920FCF7DA
:103D200017FC00210A20FCF713FC00210C20FCF7F3
:103D30000FFC00210D20FCF70BFC00210F20FCF7ED
:103D400007FC142001F018FF41F2B0611020FCF7CD
:103D5000FFFB01211120FCF7FBFB01211720FCF7E1
:103D6000F7FB4FF49C711220FCF7F2FB4FF400615B
:103D70001320FCF7EDFB09212920FCF7E9FB0921C1
:103D80002A20FCF7E5FB0021A420FCF7E1FB002141
:103D90005020FCF7DDFBEF215120FCF7D9FB00217F
:103DA0005220FCF7D5FB59465320FCF7D1FB514676
:103DB0006020FCF7CDFB01216120FCF7C9FB00214D
:103DC0006A20FCF7C5FB00218020FCF7C1FB002125
:103DD0008120FCF7BDFB00218220FCF7B9FB00210C
:103DE0008320FCF7B5FB00218420FCF7B1FB002108
:103DF000852001E01CE027E1FCF7AAFB13219020BD
:103E0000FCF7A6FB00219220FCF7A2FB03219320E4
:103E1000FCF79EFB31469520FCF79AFB40F27311AC
:103E20000720FCF795FB32200AE10AE2D0E285E3A5
:103E300000210720FCF78CFB322001F09DFE4FF49F
:103E40008E711220FCF784FB0121A420FCF780FB7B
:103E50000F210820FCF77CFB08210A20FCF778FBE7
:103E600008210D20FCF774FB2B4629463020FCF777
:103E70006FFB07213120FCF76BFB40F2036132201E
:103E8000FCF766FB3D4639463320FCF761FB4946AB
:103E90003420FCF75DFB02213520FCF759FB41F68D
:103EA0000F713620FCF754FB19463720FCF750FB06
:103EB00000213820FCF74CFB00213920FCF748FB9F
:103EC00019463A20FCF744FB00213B20FCF740FB5D
:103ED00007213C20FCF73CFB00213D20FCF738FB90
:103EE000322001F049FE01210720FCF731FB0121BE
:103EF0001720FCF72DFB322001F03EFE4FF4BD51A0
:103F00001020FCF725FB40F217211120FCF720FBC5
:103F10004FF48F711220FCF71BFB4FF470611320DC
:103F2000FCF716FB00212A20FCF712FB0A212920AE
:103F3000FCF70EFB4FF49F711220FCF709FB0021E8
:103F40005020FCF705FBEF215120FCF701FB00217D
:103F50005220FCF7FDFA59465320FCF7F9FA514676
:103F60006020FCF7F5FA01216120FCF7F1FA00214D
:103F70006A20FCF7EDFA00218020FCF7E9FA002125
:103F80008120FCF7E5FA00218220FCF7E1FA00210C
:103F90008320FCF7DDFA00218420FCF7D9FA002108
:103FA0008520FCF7D5FA13219020FCF7D1FA314691
:103FB0009220FCF7CDFA05219320FCF7C9FA0021E5
:103FC0009520FCF7C5FA00219720FCF7C1FA0021E3
:103FD0009820FCF7BDFA21460120FCF7B9FA2946E2
:103FE0000220FCF7B5FA41F238010320FCF7B0FAE1
:103FF00000210420FCF7ACFA00210C20FCF7A8FA01
:1040000000210F20FCF7A4FA00212020FCF7A0FAE1
:1040100000212120FCF79CFA21210720FCF798FAC7
:10402000142001F0A9FD61210720FCF791FA14206A
:1040300001F0A2FD40F273110720FCF789FA142069
:1040400001F09AFDFFF744BB00210846FCF780FA17
:1040500000210846FCF77CFA00210846FCF778FAB4
:1040600000210846FCF774FA0121A420FCF770FA3D
:10407000142001F081FD5546514600E0DCE060204F
:10408000FCF766FA4E4649460820FCF761FA4FF401
:1040900005713020FCF75CFA43F215713120FCF712
:1040A00057FA40F204613220FCF752FA40F61661EA
:1040B0003320FCF74DFA42F211213420FCF748FA84
:1040C0004FF4A8513520FCF743FA48F20751362047
:1040D000FCF73EFA41F207413720FCF739FA41F28A
:1040E00003413820FCF734FA20213920FCF730FA5C
:1040F0001A219020FCF72CFA00211020FCF728FA56
:1041000007211120FCF724FA00211220FCF720FAE5
:1041100000211320FCF71CFA142001F02DFD4FF4B0
:10412000E6611020FCF714FA40F237111120FCF779
:104130000FFA142001F020FD4FF4DC711220FCF77F
:1041400007FA142001F018FD4FF470611320FCF7FA
:10415000FFF980212A20FCF7FBF948212920FCF7F0
:10416000F7F9142001F008FD21460120FCF7F0F9D1
:1041700039460220FCF7ECF941F238010320FCF744
:10418000E7F931460820FCF7E3F900210A20FCF7A3
:10419000DFF900210C20FCF7DBF900210D20FCF7F2
:1041A000D7F930210E20FCF7D3F900215020FCF77D
:1041B000CFF9EF215120FCF7CBF900215220FCF779
:1041C000C7F959465320FCF7C3F929466020FCF78C
:1041D000BFF901216120FCF7BBF900216A20FCF73F
:1041E000B7F911219020FCF7B3F94FF4C061922088
:1041F000FCF7AEF940F202419320FCF7A9F9022145
:104200009420FCF7A5F9142001F0B6FC0121072049
:10421000FCF79EF9142001F0AFFC61210720FCF7A8
:1042200097F940F273110720FCF792F90021202042
:10423000FCF78EF900212120FCF78AF922210020C9
:1042400079E100210846FCF783F900210846FCF7D4
:104250007FF9142001F090FC00210846FCF778F962
:1042600000210846FCF774F900210846FCF770F9B4
:1042700000210846FCF76CF90121A420FCF768F93D
:10428000142001F079FC51466020FCF761F940F6FA
:1042900006010820FCF75CF940F203731946302050
:1042A000FCF756F901213120FCF752F904213220A4
:1042B000FCF74EF94FF481713320FCF749F9314690
:1042C0003420FCF745F940F203113520FCF740F9A2
:1042D0001F213620FCF73CF919463720FCF738F946
:1042E00001213820FCF734F904213920FCF730F99A
:1042F00015219020FCF72CF94FF482611020FCF777
:1043000027F940F247211120FCF722F94FF4DE7122
:104310001220FCF71DF94FF460611320FCF718F927
:10432000782001F029FC21460120FCF711F94FF417
:1043300000710220FCF70CF941F230010320FCF778
:1043400007F908210A20FCF703F900210C20FCF7EB
:10435000FFF820210E20FCF7FBF800210F20FCF7CE
:10436000F7F800212020FCF7F3F800212120FCF7CA
:10437000EFF83D212A20FCF7EBF8142001F0FCFBBC
:104380002D212920FCF7E4F800215020FCF7E0F86B
:104390004DF2EF015120FCF7DBF800215220FCF731
:1043A000D7F859465320FCF7D3F800216120FCF7D9
:1043B000CFF800216A20FCF7CBF831469220FCF7B9
:1043C000C7F805219320FCF7C3F82146FFF7B8BBD7
:1043D00001210020FCF7BCF80A2001F0CDFB41F2DE
:1043E00028611020FCF7B4F80E211220FCF7B0F879
:1043F00040F639211320FCF7ABF80A2001F0BCFB92
:1044000040211120FCF7A4F850211520FCF7A0F85A
:104410000A2001F0B1FB1E211220FCF799F80A20B6
:1044200001F0AAFB4FF4B1511020FCF791F842F6CD
:1044300039211320FCF78CF80A2001F09DFB21465E
:104440000120FCF785F831460220FCF781F841F2A3
:1044500038010320FCF77CF849460820FCF778F87F
:1044600008210A20FCF774F800213020FCF770F8CE
:1044700040F202413120FCF76BF84FF48371322097
:10448000FCF766F840F203513320FCF761F84FF473
:1044900082713420FCF75CF840F201313520FCF7E2
:1044A00057F829463620FCF753F840F205313720FB
:1044B000FCF74EF84FF402713820FCF749F840F64B
:1044C0000B713920FCF744F802214120FCF740F839
:1044D00051466020FCF73CF801216120FCF738F8D8
:1044E0004FF404719020FCF733F800E0C8E04FF47B
:1044F00085719220FCF72CF804219320FCF728F812
:104500002146A020FCF724F801210720FCF720F821
:1045100021210720FCF71CF823210720FCF718F8BD
:1045200033210720FCF714F840F233110720FCF781
:104530000FF80021A020FCF70BF883E530211520AF
:10454000FCF706F810219A20FCF702F82021112030
:10455000FBF7FEFF43F228411020FBF7F9FF022191
:104560001220FBF7F5FF41F238011320FBF7F0FFB3
:10457000282001F001FB12210846FBF7E9FF282063
:1045800001F0FAFA43F220411020FBF7E1FF43F279
:1045900038011320FBF7DCFF462001F0EDFA002183
:1045A0003020FBF7D5FF40F202413120FBF7D0FF6E
:1045B00040F207313220FBF7CBFF4FF4417133203B
:1045C000FBF7C6FF04213420FBF7C2FF40F2014194
:1045D0003520FBF7BDFF29463620FBF7B9FF40F237
:1045E00005313720FBF7B4FF4FF4C263194638207A
:1045F000FBF7AEFF19463920FBF7AAFF2146012041
:10460000FBF7A6FF31460220FBF7A2FF41F2300183
:104610000320FBF79DFF40F608010820FBF798FFF9
:1046200008210A20FBF794FF51466020FBF790FF1A
:1046300001216120FBF78CFF4FF49F719020FBF765
:1046400087FF21469220FBF783FF21469320FBF74B
:104650007FFF4FF44051A020FBF77AFF1021A320E9
:10466000FBF776FF01210720FBF772FF21210720CE
:10467000FBF76EFF23210720FBF76AFF332107209A
:10468000FBF766FF40F23311A0E62DE9F843FB4D3E
:104690001F468046AB88089EA3F5D040043802D15F
:1046A000A879012807D0A2EB0800401C85B20C466F
:1046B0004FF0D84929E02B880846991A0024AC719C
:1046C0003A462A24A3EB08036C812B27491E5B1E64
:1046D000AF8189B29BB20096FFF7D7FF0120A87186
:1046E0006F81AC81BDE8F88321464046FBF758FF57
:1046F000FBF73DFF0020494603E0A1F88060401C25
:1047000080B2A842F9D3641CA4B2BC42ECD9E9E758
:104710002DE9F0478246A2EB0A00401C0E4685B206
:10472000981B401C87B200244FF0D849DDF8208048
:1047300015E0301981B25046FBF732FFFBF717FF47
:104740000020494607E004FB050338F81320A1F8D0
:104750008020401C80B2A842F5D3641CA4B2BC42A5
:10476000E7D3BDE8F0872DE9FE4F0026A2EB000855
:1047700082465F1A701E35468946B8F1000F02DD89
:104780004FF0010102E003D14FF00001019102E07E
:10479000C8F100080190002F02DD4FF0010002E097
:1047A00003D14FF00000009002E0C7F10007009035
:1047B0004046B84501DD044600E03C46601C4FF031
:1047C000000B029015E01FFA89F11FFA8AF0FCF73E
:1047D00045F946443D44A64202DD0199361B8A4410
:1047E000A54202DD00992D1B89440BF101001FFA3F
:1047F00080FB02998B45E6DDBDE8FE8FF0B51C46D7
:1048000015460E4607460B46FFF7ADFF3A462346D0
:1048100031461046FFF7A7FF23462A461946384679
:10482000FFF7A1FF2A4623463146BDE8F040104677
:1048300099E72DE9FC4F80460024154603200F46DA
:10484000A0EB450649E0781B81B208EB040A019011
:104850001FFA8AF0FCF702F9381B81B208EB050950
:1048600000901FFA89F0FCF7F9F807EB040B1FFA28
:104870008BF11FFA89F0FCF7F1F807EB05091FFA35
:1048800089F11FFA8AF0FCF7E9F8A8EB040A1FFA8D
:1048900089F11FFA8AF0FCF7E1F8A8EB05091FFA85
:1048A0008BF11FFA89F0FCF7D9F8019881B21FFA51
:1048B0008AF0FCF7D3F8009881B21FFA89F0FCF770
:1048C000CDF8641C002E03DA06EB8406B61D04E066
:1048D000601B06EB80066D1E0A36AC42B3DDBDE8F8
:1048E000FC8F2DE9F84F82461F460C468B46580731
:1048F00000D0012000EBD700790810FB01F0203A2E
:10490000C0B202F0FF090026009041E00C2F10D049
:10491000102F12D0182F3ED1594909EBC90001EBD5
:1049200080004FF00008855D28060AD555480288AA
:104930000BE009EB49005449F1E7544901EB091038
:10494000EFE70A9828B94F48428821465046FCF7BD
:1049500091F86806050E4948641CA4B24088A0423C
:1049600019D9A4EB0B00B84209D10AF101001FFAD2
:1049700080FA42485C46018851450CD906E008F1AE
:10498000010000F0FF08B8F1080FCDD3761CF6B295
:1049900000988642BAD3BDE8F88F0346012000E0B4
:1049A0005843491EC9B2FBD270472DE9FF4F81B071
:1049B0000027DDF838B01D46924680463C46B94691
:1049C0004FEA5B0627E0281B401EC1B20A20FFF712
:1049D000E4FFBAFBF0F00A21B0FBF1F201FB120098
:1049E00027B9691E8C4201DA48B101273030C2B2C2
:1049F00006FB048080B25B46CDF8009006E006FB23
:104A0000048080B25B462022CDF800900299FFF727
:104A100068FF641CE4B2AC42D5D305B0BDE8F08FAA
:104A20002DE9FF4F81B08046DDF83CA00E984FF095
:104A300000091F4693464C460AF00105460835E03A
:104A4000381B401EC1B20A20FFF7A7FFBBFBF0F0E6
:104A50000A21B0FBF1F201FB1200B9F1000F05D100
:104A6000791E8C4202DA98B14FF001093030C2B29F
:104A700006FB048080B200950E9B12E0E804002043
:104A8000B86F03081800002054650308C8690308BC
:104A90005FEA0A6006FB04800E9B80B2009508D591
:104AA00030220299FFF71DFF641CE4B2BC42C7D359
:104AB000B3E72022F5E72DE9F84F044600F0FF08A0
:104AC00010190D46DDE90A761FFA80FA58191FFA07
:104AD00080F94FF0000B11E0544502D3E819444629
:104AE00085B24D450FD23B4629462046CDF800B051
:104AF000FFF7F7FE04EB570084B2761C3278A2F180
:104B000020005E28E8D946E72DE9F04115460E461B
:104B10000446002700F0A0F8702000F03BF900F0F8
:104B2000D6F8E0B200F036F900F0D1F8002408E041
:104B3000305D00F02FF900F0CAF8070003D1641CC3
:104B4000E4B2AC42F4D300F0A6F83846BDE8F081F8
:104B50002DE9F04115460F46044600F07DF870201F
:104B600000F018F900F0B3F8E0B200F013F900F02B
:104B7000AEF800F071F8712000F00CF900F0A7F821
:104B800000246E1E09E0B44201D0012000E00020A4
:104B900000F02DF93855641CE4B2AC42F3D3BDE803
:104BA000F04100F078B87CB50121062001F0FBFE51
:104BB00000248DF8044002208DF806400326009062
:104BC0008DF8056001258DF807506946104801F001
:104BD000C3FA68038DF8045000908DF806408DF8F4
:104BE000056069460B4801F0B7FA00F01AF80A4E62
:104BF000C6F8B442142006F52D7600F0BDFF3560EE
:104C0000322000F0B9FF01207CBD00207047000079
:104C1000000402400008024000004142022000F06F
:104C20008FBF1CB50121222001F0BDFE01248DF8AB
:104C3000044000208DF8060000948DF80740694676
:104C4000854801F089FAE00200908DF80440694639
:104C5000824801F081FA1CBD70B58048016821F4DA
:104C600040010160016841F4800101607C4E012037
:104C7000C6F8AC027B4DC5F880021E2005F52075F4
:104C800006F52B7600F05CFF00243460022000F073
:104C900057FF2C6070BD70B57048016821F4400169
:104CA0000160016841F4800101606E480125C0F88F
:104CB00080521E2000F044FF694C0020C4F8AC0272
:104CC000022004F52B7400F03BFF256070BD70B529
:104CD00062480024016821F440010160016801601C
:104CE0005F4D0120C5F8AC025E4EC6F8800207E0B9
:104CF000641CE4B2FA2C03D9FFF7CDFF012070BD8C
:104D0000022000F01DFFD5F82C020028F0D1C6F8D3
:104D1000800270BD70B5534C0025C4F880524F48D6
:104D2000016821F440010160016841F480010160E3
:104D3000022004F5207400F003FF4948C0F8AC528B
:104D4000022000F0FDFE01202060022000F0F8FEAD
:104D5000256070BD70B5434C0026C4F880623F48A2
:104D6000016821F440010160016841F480010160A3
:104D7000022004F5207400F0E3FE39480125C0F854
:104D8000AC52022000F0DCFE2560022000F0D8FECC
:104D9000266070BD2DE9F04705463048016821F4D2
:104DA00040010160016841F4800101602D4E00273F
:104DB000C6F88072022000F0C3FEDFF8A480002451
:104DC0004FF00109E909C8F8AC126806050EC6F8EB
:104DD0008092022000F0B4FEC6F88072022000F03B
:104DE000AFFE641CE4B2082CECD3BDE8F0872DE9DB
:104DF000F047824619480024016821F4400101600F
:104E0000016801601E2000F09BFE0025154EDFF8B2
:104E100050902F464FF00108C6F88072022000F033
:104E20008FFEC6F88082022000F08AFE6006040E23
:104E3000D9F82C0208B1641CE4B26D1CEDB2082D47
:104E4000EAD3BAF1000F03D0FFF764FF2046CCE7A6
:104E5000FFF780FFFAE70000000402400014024060
:104E600000804242008040421848016841F0010140
:104E70000160016841F004010160016841F0020134
:104E800001601348016821F440710160016821F458
:104E900040410160016821F0C0010160016841F4F6
:104EA00080410160016841F040010160704708499C
:104EB000082208B10A8370474A8370470449802258
:104EC00008B10A8370474A837047000030380240B7
:104ED0000000024010B5E64C208AC00708D0E54823
:104EE000006828B1804718B1208820F00100208098
:104EF0004FF6FE70208210BD7FB50121080401F03D
:104F00007AFD40F2E730019040F24F10ADF800001A
:104F10000024D74DADF80240ADF808406946284658
:104F200002F052F801221146284602F0D6FB182062
:104F30008DF80C008DF80D408DF80E4001208DF895
:104F40000F0003A801F049F87FBD10B50446FFF734
:104F50008BFF0120FFF7ABFFFFF7CEFFC4490888A6
:104F600020F001000880C3480460088840F0010078
:104F7000088010BDFEB50D460446BF4E284303D140
:104F80000021304602F098F8ADF800500020ADF84E
:104F90000200ADF80800019469463546304602F03B
:104FA00013F8600868630121284602F085F8FEBD09
:104FB000B248016841F001010160B0480C38016855
:104FC00041F0030101600007018921F0070101811F
:104FD000018941F003010181018B4FF6FC42114030
:104FE0000183018B40F2022211430183018C21F0E5
:104FF00022010184018B40F60F7211400183018868
:1050000041F0010101809E490A6842F400620A6091
:105010009C4A136843F0800313600A6A42F48012CA
:105020000A62984920310A6842F480520A604FF0BF
:10503000FF31C16200210185018841F00101018039
:1050400070478E4910B5091D0A6842F001020A60D6
:105050008A4910390A6842F001020A60420886480B
:10506000426387490B6823F440330B600B6843F4B9
:1050700000330B604B6A43F001034B6253210185FF
:1050800040F2E731C1624FF4FA714163018B21F0C4
:1050900070010183018B41F060010183018B41F0BC
:1050A00008010183018C41F001010184018841F074
:1050B00080010180B0F8441041F40041A0F8441090
:1050C000018841F0010101804263FFF771FFBDE8F3
:1050D000104011E72DE9F047071E674E6A484FF070
:1050E000000503D008DA7F42002106E03046BDE823
:1050F000F047002101F0E0BF012190FBF7F4894661
:1051000020462FF06EFA41EC100B30F0FDF851EC18
:10511000100B2FF084FA03465C4902204FF4803CC8
:1051200011E094FBF0F200FB124291420ADD94FB85
:10513000F0F8E04506DA1100054603D194FBF0F2E1
:10514000624502DB401C9842EBDD94FBF5F4641EE3
:105150006D1EB7F57A7F0CDD4846FFF7AFFEF06AAB
:10516000A04202D1308DA84203D029462046FFF745
:1051700001FF308840F001003080BDE8F0872DE964
:10518000F047071E3C4D40484FF0000603D007DAB9
:105190007F42002105E0BDE8F04700210846E9E62E
:1051A000012190FBF7F4894620462FF01AFA41ECD2
:1051B000100B30F0A9F851EC100B2FF030FA034629
:1051C000324902204FF4803C11E094FBF0F200FBE6
:1051D000124291420ADD94FBF0F8E04506DA110034
:1051E000064603D194FBF0F2624502DB401C984274
:1051F000EBDD94FBF6F4641E761EB7F57A7F03DCD4
:10520000686AE96B88420CD94846FFF757FEE86A9E
:10521000A04202D1288DB04203D031462046FFF78C
:10522000A9FE288840F001002880A6E701207047E9
:1052300001207047012070474FF08040406A70475E
:105240004FF08041486270474FF08040406A9FEDC8
:10525000101A00EE100AF8EEC00A80EE810ADFEDA7
:105260000D0A20EE200AF2EE000A20EE200A704716
:10527000004001401C000020000001404038024076
:10528000000002400004024000BD01058096980025
:10529000F0FF7F4C0000B4432DE9F04180465848B0
:1052A00088B041600121042001F07DFB0121102024
:1052B00001F0A1FB534F07220921384600F0C0FF3F
:1052C00007220A21384600F0BBFF02258DF8045062
:1052D00038158DF80550002400908DF80640012601
:1052E0008DF807606946384600F036FF8DF80450A7
:1052F00028028DF8055000908DF806408DF8076063
:105300006946384600F028FFADF810400C203E4DAD
:10531000ADF80C40ADF81200CDF80880ADF80E40A5
:10532000ADF8144002A9284601F059FC0121284695
:1053300001F0C6FC012240F22551284601F05FFD34
:1053400025208DF818008DF8194003208DF81A00DB
:105350008DF81B6006A800F040FE08B0BDE8F081A3
:10536000274B19885A88914203D30020188058800F
:10537000704722B1254A525C0270491C19800120F5
:10538000704770B51E4D0C46698809B1002070BD8C
:10539000014622461D482EF04EFD6C80012240F24F
:1053A0002771194801F02BFD012070BD38B5164C4E
:1053B00040F225552946204601F043FD48B1A0881A
:1053C0000F49C0B24A6802B190472946204601F011
:1053D00057FD40F227752946204601F032FD60B1A5
:1053E0006846FFF7BDFF18B19DF80000A08004E0FB
:1053F00000222946204601F002FD0020208038BD11
:10540000200000200000024000100140F6040020AF
:105410002DE9F0418046664888B0416001210420B2
:1054200001F0C1FA0121880401F0DBFA614F072283
:105430000B21384600F004FF07220A21384600F00D
:10544000FFFE02258DF80450F8148DF80550002455
:1054500000908DF8064001268DF8076069463846B1
:1054600000F07AFE8DF8045068028DF80550009027
:105470008DF806408DF807606946384600F06CFEEE
:10548000ADF810400C204C4DADF80C40ADF81200BA
:10549000CDF80880ADF80E40ADF8144002A92846BA
:1054A00001F09DFB0121284601F00AFC012240F297
:1054B0002551284601F0A3FC27208DF818008DF80F
:1054C000194003208DF81A008DF81B6006A800F023
:1054D00084FD08B0BDE8F081354B19885A889142A7
:1054E00003D3002018805880704722B1334A525CA1
:1054F0000270491C19800120704770B52C4D0C4674
:10550000698809B1002070BD014622462B482EF063
:1055100092FC6C80012240F22771274801F06FFC59
:10552000012070BD70B5224D0C46698809B100207C
:1055300070BD0146224621482EF07DFC6C80012280
:1055400040F227711C4801F05AFC012070BDF8B5EB
:10555000194D40F225563146284601F072FC2C1DAB
:1055600048B120881249C0B24A6802B1904731461A
:10557000284601F085FC40F227763146284601F0A6
:1055800060FC88B16846FFF7A7FF01000C4804D013
:105590009DF800108180218006E0AA2181800022F0
:1055A0003146284601F02BFC00202880F8BD000081
:1055B0002800002000080240004800405A05002052
:1055C000001001402DE9F04381463D4887B001605D
:1055D00001210C2001F0E7F90121080501F001FA91
:1055E000384F08220C21384600F02AFEDFF8D88018
:1055F00008220221404600F023FE02258DF80450C7
:10560000B8148DF80550002400908DF8064001264E
:105610008DF807606946384600F09EFD8DF804500D
:1056200004208DF8055000908DF806408DF8076035
:105630006946404600F090FDADF810400C20234D27
:10564000ADF80C40ADF81200CDF80890ADF80E4062
:10565000ADF8144002A9284601F0C1FA01212846FC
:1056600001F02EFB012240F22551284601F0C7FB34
:1056700035208DF818008DF8194003208DF81A0098
:105680008DF81B6006A800F0A8FC07B0BDE8F08309
:1056900070B50E4C40F225552946204601F0D1FB4D
:1056A00000280BD0A0880649C0B20A6802B1904712
:1056B00029462046BDE8704001F0E2BB70BD000005
:1056C0003000002000080240000C02400050004062
:1056D000F0B50024002861D000295FD0002A5DD0F9
:1056E000002B5BD0401EC5B2491EF548521ECEB2FB
:1056F0005B1E0168D7B21FFA83FC41F00101016013
:10570000016841F001010160ED4910310A6842F081
:1057100080620A600A6842F000720A60016841F023
:1057200002010160E748016821F0706101600168D1
:1057300041F000610160016841F000710160E148E1
:105740000830016821F070610160016841F000716A
:105750000160016841F000610160DA4824300168AD
:1057600041F410210160016841F410010160D54845
:105770000C30016821F070610160016841F08071B6
:105780000160016841F080610160CF48002303603F
:10579000016841F001010160021D07E00120F0BD38
:1057A000641CA4B2642C01D90220F0BD1168C907A1
:1057B000F6D001680160016801600168016001685C
:1057C00041F0100101600168016001680160BE499B
:1057D0001C310B60D1F800E0C1F800E0D1F800E026
:1057E000C1F800E0D1F800E04EEA05650D600D68F3
:1057F00045EA06550D600D6845EA07450D600D68E0
:1058000045EA0C050D60016821F0010101604FF6C9
:10581000F07005E0641CA4B2844201D90320F0BDFD
:105820001168C907F6D1A948016841F0010101607A
:10583000A6491C310A6822F480420A60A34A0C324D
:10584000146844F480441460021D13609F4A1432AB
:10585000146814609D4AB0321360121D13600A6808
:1058600042F480420A60016803600020F0BDF0B598
:10587000974CDDE9057504EB0014D4F8B06916F017
:1058800004061670D4F8B02931D0D2080A60D4F8D2
:10589000B01901F002011970D4F8B41901F00F0128
:1058A0003970D4F8B8192970D4F8B819090A697090
:1058B000D4F8B819090CA970D4F8B819090EE97010
:1058C000D4F8BC192971D4F8BC19090A6971D4F843
:1058D000BC19090CA971D4F8BC19090EE97140B1C1
:1058E00079481030016841F020010160F0BD520D8F
:1058F000CCE775480C30F5E700B587B0142102A855
:105900002EF0C0FA0DF11300411ECDE90010831EE8
:1059100004AA02A90020FFF7AAFF6E480168002927
:1059200001D002A8884707B000BDF8B5002413468F
:10593000009101252246214600F035F8074640F641
:10594000FF76384600F08CF8072805D0641CA4B216
:10595000B442F6D32846F8BD0025FBE730B505462E
:1059600087B00024584802940C308DF80C40006831
:1059700010F0030015D003A8CDE9000105AB04AA7F
:1059800002A90020FFF773FF0298A84205D19DF8F5
:10599000100010B99DF8140008B18DF80C409DF866
:1059A0000C0007B030BDF0B506464748059D0830ED
:1059B0000468640101D5002008E00468240101D5D1
:1059C000012003E00068C00046D50220404C0027BB
:1059D00004EB0014C4F88079E9B3F600D4F88079B8
:1059E0003743C4F88079D4F8806946EA8101C4F865
:1059F0008019D4F8801941EA4201C4F88019D4F81A
:105A0000842903F00F0122F00F02C4F88429D4F88E
:105A100084290A43C4F884292979EA796B7941EA0F
:105A20000261AA79120442EA03221143C4F88C19D4
:105A30002978EA786B7841EA0261AA78120442EA8E
:105A400003221143C4F88819D4F8801941F00101E8
:105A5000C4F88019F0BD01E0FF20FBE77605BDE743
:105A60001949083128B1012810D002281BD005207F
:105A7000704708680A6800F0010002F00202024361
:105A8000086800F0806042EA1060704708680A68A1
:105A900000F0010002F002020243086800F000601A
:105AA00042EA5060704708680A6800F0010002F09E
:105AB00002020243086800F0805042EA906070479A
:105AC0003038024000040240006800400066004098
:105AD000006000403400002010B5144B4FF48042A9
