:020000040800F2
:1000000048CF01208D610008690300086B030008D8
:100010006D0300086F030008710300080000000072
:100020000000000000000000000000009D0100082A
:100030007303000800000000F9010008B98E0008F1
:10004000A7610008A7610008A7610008A761000870
:10005000A7610008A7610008A7610008A761000860
:10006000A7610008A7610008A7610008A761000850
:10007000A7610008A7610008A7610008A761000840
:10008000A7610008A7610008A7610008A761000830
:10009000A7610008A7610008A7610008A761000820
:1000A000A14E0008A7610008A7610008A761000829
:1000B000A761000835030008A7610008A7610008D0
:1000C000A7610008A7610008A7610008A7610008F0
:1000D000A761000879530008E56000081955000879
:1000E000A7610008A7610008A7610008A7610008D0
:1000F000A7610008A7610008A7610008A7610008C0
:10010000A7610008A7610008A7610008A7610008AF
:10011000A76100084D560008A7610008A761000804
:10012000A7610008A7610008A7610008A76100088F
:10013000A7610008A7610008A7610008A76100087F
:10014000B5580008A7610008A7610008457E0308AC
:10015000A7610008A7610008A7610008AD5C00085E
:10016000A7610008A7610008A7610008A76100084F
:10017000A7610008A7610008A7610008A76100083F
:10018000A7610008A7610008DFF80CD038F002FF73
:10019000004800470D03000848CF01202C4B196888
:1001A0000868B0E8F04F80F30988BFF36F8F4FF015
:1001B000000080F3118870470000000008480068C4
:1001C000006880F308884FF0000080F3148862B65E
:1001D00061B6BFF34F8FBFF36F8F00DF00BF00BF6B
:1001E00008ED00E0DFF80C00016841F470010160E7
:1001F000704700BF88ED00E0EFF30980BFF36F8F19
:10020000134B1A681EF0100F08BF20ED108A20E96A
:10021000F04F106009B44FF0100080F31188BFF365
:100220004F8FBFF36F8F07F017FF4FF0000080F381
:10023000118809BC19680868B0E8F04F1EF0100F6B
:1002400008BFB0EC108A80F30988BFF36F8F704746
:100250005C000020EFF30580704700007FB50D467D
:1002600004460121022006F0ACFC0194ADF80050D8
:100270000024374DADF80240ADF8084069462846E5
:1002800006F092FF01221146284607F016FB0121D5
:10029000284607F001F81D208DF80C008DF80D4060
:1002A00002208DF80E0001208DF80F0003A805F044
:1002B00084FF7FBD4FF4A06005F07AFF00F032FEAE
:1002C00004F057FC012000F06CFC0BF01EFB08F062
:1002D00048FE08F0BCFE532140F2CF70FFF7BEFF8E
:1002E00031F03DFD32F0B2FE33F068FF0021012015
:1002F00008F05AFE27F028F9022032F04FFBF5E70C
:10030000144800680168491C016070470EB5A820B8
:1003100005F000FD032002A9CDE9000100234FF400
:1003200080520DA1AFF2730007F045FC07F0D4FF37
:1003300000200EBD10B5064C10342088C00702D036
:10034000022024F0C7F94FF6FE70208010BD000097
:1003500000040040000000204F7574736964655FFD
:100360006D6F746F720000007047FEE7FEE7FEE7F6
:10037000FEE770470CB500225449009201920868CC
:1003800040F4803008604FF4A043086800F4003067
:1003900001900098401C0090019810B90098984274
:1003A000F3D10868800334D50120019047484030DC
:1003B000026842F0805202604548026842F44042BE
:1003C00002604248083002680260026842F400425B
:1003D0000260026842F4A0520260031F3D4A1A60A4
:1003E0000A6842F080720A600A689201FCD53A49B4
:1003F00040F205720A60016821F0030101600168A2
:1004000041F0020101600168C1F381010229FAD1C2
:100410000CBD01920CBD314810B5016841F470016A
:1004200001602A48016841F001010160274A00216A
:100430000832116002682A4B1A400260031D294AE3
:100440001A60026822F48022026020480C300160A9
:10045000FFF790FF21494FF000608039086010BD20
:1004600070B51A4D083528681F4B204910F00C0054
:1004700004D05E10042803D0082803D00B601BE0D2
:100480000E6019E0114A121D1068C0F38054106804
:1004900000F03F0014B1B6FBF0F001E0B3FBF0F068
:1004A00013681268C3F388135843C2F30142521C05
:1004B0005200B0FBF2F0086028680C4AC0F3031049
:1004C000121D105C0A68C2400A6070BD003802400C
:1004D0000070004008544007003C024088ED00E0F6
:1004E000FFFFF6FE103000240024F400040000207A
:1004F00001B5BDF80000ADF80000BDF800004FF0F8
:10050000D841A1F87E0008BD01B5BDF80000ADF8E6
:100510000000BDF800004FF0D841A1F8800008BDF0
:1005200008B54FF0D840B0F88000ADF80000BDF835
:10053000000008BD4FF0D84222F87E0F518070476E
:1005400010B5FFF7D5FF052005F0EAFBBDE8104028
:10055000E6E7FE484FF0D8410089A1F87E007047D9
:100560004FF0D841A1F880007047C0F34511C20A8E
:10057000C00200EB4110104480B27047401EC0B270
:10058000FCD27047F0B5F14E0C460246050AB18820
:100590003046A1F5134340894FEA142C413B1AD051
:1005A000A1F5A643103B16D0B646B3793688A1F51F
:1005B000D047B61A761E043F17D07746A1F5C85E1D
:1005C000BEF1630E25D0A1F5A04EBEF5A26E57D0A8
:1005D000012B6FD06FE0FFF78BFF2846FFF794FFEA
:1005E000D0B2FFF791FFB0890CE07546012B00D126
:1005F000B2B2FFF77DFF100AFFF786FFD0B2FFF718
:1006000083FFA889FFF774FF6046FFF77DFFE0B224
:1006100025E03BB3FFF76CFF2846FFF775FFD0B22C
:10062000FFF772FF3888401EC0F30F20FFF76CFF02
:100630003878401EC0B2FFF767FFB889FFF758FF50
:100640006046FFF761FFE0B2FFF75EFF7888401E6B
:10065000C0F30F20FFF758FFB878401EC0B2BDE8C6
:10066000F04051E7B2B2FFF743FF0020FFF74CFF25
:100670000020FFF749FF100AFFF746FFD0B2DAE784
:10068000FFF736FF2846FFF73FFF7889401C80B20E
:10069000FFF72EFFD0B2FFF737FFB889FFF728FF2B
:1006A0006046FFF731FFB889401C80B2FFF720FF9A
:1006B000ADE7FFE7B2B21146FFF73CFFB88921462C
:1006C000BDE8F04036E72DE9F041A04E0024254674
:1006D0003288824202D972888A4202D80020BDE85C
:1006E000F081FFF74FFFB08849F2413841F6631CB3
:1006F00045F2103245F21057404507D0A0F5D041E1
:10070000043903D0904201D0604501D12E2005E08C
:10071000B84202D14FF4385000E02220FFF7E8FE43
:10072000B088A0F51341203903D10220401EC0B289
:10073000FCD2FFF7F5FEB1886145D0D00220401E03
:10074000C0B2FCD2FFF7ECFE0146B088C44660455B
:1007500003D0904201D0B8420BD10220401EC0B25B
:10076000FCD2FFF7DDFE0546C8B24FF6FF7303EA81
:100770000024B088A0F51343253B1AD0A0F58A4386
:10078000353B16D01B1D14D0A0F53543053B10D0CA
:10079000B3F580530DD0604503D0904201D0B842EC
:1007A00009D1C80AC002A10A40EA411040EAD52096
:1007B00095E7084693E7BDE8F0410846D5E663486B
:1007C0008088A0F51341413913D0A0F5D0410439F8
:1007D0000FD0A0F5A64110390BD0A0F5C851633950
:1007E00007D0A0F5AA41103905D040F273110720B7
:1007F000A0E6292001E04FF4245079E65348808890
:10080000A0F51341413912D0A0F5D04104390ED0E2
:10081000A0F5A64110390AD0A0F5C851633906D019
:10082000A0F5AA41103904D00021072082E6282033
:1008300001E04FF420505BE6F0B5444C0023214624
:10084000A279898846F6040741F66315012A01D08A
:100850002AB11DE0B9421BD0A94202D118E0A94239
:1008600016D1082814D2DFE800F00406080A0C0E9E
:10087000101206200CE007200AE0042008E0052002
:1008800006E0012004E0002002E0032000E0022056
:10089000A1F5134C45F2103245F21056BCF1410C53
:1008A00007D0B94205D0914203D0B14201D0A9424C
:1008B0007DD1082812D2DFE800F0110406080A0CE6
:1008C0000E1080230AE0402308E0C02306E0202326
:1008D00004E0602302E0A02300E0E023B14202D163
:1008E0004FF4585000E03620914205D0B14203D079
:1008F000A94201D043F00803B94201D143F00203F9
:100900001946FFF717FEA288AA420AD09806208847
:10091000618802D5884202D303E0884201D9218050
:1009200060806089B24246D1FFF7E2FD0020FFF708
:10093000EBFD6089401C80B2FFF7DAFD0020FFF775
:10094000E3FD6089801C80B202E000000405002005
:10095000FFF7CEFD2088401EC0F30F20FFF7D4FD27
:100960006089C01C80B2FFF7C3FD2078401EC0B272
:10097000FFF7CAFDA089FFF7BBFD0020FFF7C4FD0C
:10098000A089401C80B2FFF7B3FD0020FFF7BCFD3B
:10099000A089801C80B2FFF7ABFD6088401EC0F3C9
:1009A0000F20FFF7B1FDA089C01C80B200E02AE053
:1009B000FFF79EFD21E0FFF79BFD0020FFF7A4FD60
:1009C0000020FFF7A1FD2088401EC0F30F20FFF795
:1009D0009BFD2078401EC0B2FFF796FDA089FFF76F
:1009E00087FD0020FFF790FD0020FFF78DFD608858
:1009F000401EC0F30F20FFF787FDA078BDE8F04050
:100A0000401EC0B280E5082812D2DFE800F00406DC
:100A100008110A0C0E1030230AE0102308E02023EE
:100A200006E0382304E0282302E0182300E008232E
:100A3000BDE8F040032043F480517BE500B5FFF7AB
:100A4000A1FDFFF786FDFE484FF0D8410088A1F8D0
:100A5000800000BD2DE9F041FA4D90460C4602465B
:100A6000060AA9882846A1F5134340894FEA142CA9
:100A7000413B16D0A1F5A643103B12D0B3F500734D
:100A800013D02E46A1F5C857B3793688B61A761E0C
:100A9000633F23D0A1F5D047043F3AD0012B4DD07E
:100AA0004DE0FFF725FD304639E0FFF721FD3046E8
:100AB000FFF72AFD6889401C80B2FFF719FDD0B20C
:100AC000FFF722FDA889FFF713FD6046FFF71CFD25
:100AD000A889401C80B2FFF70BFD2BE003B9B2B22E
:100AE000FFF706FD160A3046FFF70EFDD0B2FFF7FE
:100AF0000BFD3046FFF708FDD0B2FFF705FDA889D2
:100B0000FFF7F6FC6046FFF7FFFCE0B2FFF7FCFCE6
:100B10000DE0012B00D1B2B2FFF7EAFC100AFFF79B
:100B2000F3FCD0B2FFF7F0FCA889FFF7E1FC6046C8
:100B3000FFF7EAFCE0B2FFF7E7FC07E0B2B21146CC
:100B4000FFF7F8FCA8892146FFF7F4FC4FF0D840E6
:100B5000298920F87E1FA0F80280C0E510B5024662
:100B6000BE20FFF7C5FC0520FFF7CEFC104637F08E
:100B700043FE9FEDB51B53EC112B37F04BFD37F0C7
:100B800067FE80B2FFF7C0FC0120FFF7BDFCFF202D
:100B9000FFF7BAFC0020FFF7B7FCBDE810400020CB
:100BA000B2E42DE9F04FA7492A232B24898845F286
:100BB000105A4FF4305B4FF4285E4FF448754FF0F5
:100BC000F00C49F241394FF4A07745F210364FF45A
:100BD000F07280B19B484FF00108494580F80680CB
:100BE0000780A0F802C001D0B1423ED12C2505817A
:100BF0004381848157E093484FF00008494580F8CD
:100C00000680A0F800C0478006D0A1F5D04CBCF10A
:100C1000040C01D0B1420CD12C2505814381A1F5F2
:100C2000D0438481043B01D0B14244D1078042804B
:100C300041E0514507D1A0F808B0A0F80AE04FF410
:100C40002C5181810EE0A1F5C856633E06D02221C9
:100C5000018120214181212181812CE02C210181F0
:100C6000448183810280458025E0A1F5D04CBCF110
:100C7000040C09D051450BD1A0F808B0A0F80AE047
:100C80004FF42C53838120E02C250581448109E019
:100C9000A1F5C85CBCF1630C11D022230381212390
:100CA000438120238381A1F5D043043B01D0B1428D
:100CB00001D102804780BDE8F04F0020BCE54FF035
:100CC0002C0CA0F808C04381848105804280EAE7AB
:100CD0002DE9FE4F0446104401EB0308DFF8649150
:100CE000401EA8F1010887B2B9F80400C8F3072331
:100CF00002930B0A0093A3185B1EC3F3072301930F
:100D00004B460D465B89A0F513411FFA88F64FEA62
:100D1000142B413910D0A0F5A64110390CD0A0F504
:100D2000D041043908D099F806A041F6631CBAF105
:100D3000010F1ED160451CD14A461846FFF7D8FB6B
:100D40005846FFF7E1FBE0B2FFF7DEFB0198FFF743
:100D5000DBFBF8B2FFF7D8FB9089FFF7C9FB0098DF
:100D6000FFF7D2FBE8B2FFF7CFFB0298FFF7CCFB0F
:100D700096E034496045098825D1881A001B84B261
:100D80004E461FFA88F71846FFF7B2FB200AFFF716
:100D9000BBFBE0B2FFF7B8FB2244521EC2F30F20A8
:100DA000FFF7B2FBD0B2FFF7AFFBB089FFF7A0FBB4
:100DB0000098FFF7A9FBE8B2FFF7A6FB380AFFF798
:100DC000A3FBF8B26DE0A0F5A04C4A46BCF5A26CBE
:100DD00023D0BAF1010F68D03B4620462F4650225F
:100DE00001464FF051094FF052084FF0530C104696
:100DF000FFF7A0FB19464846FFF79CFB39464046E3
:100E0000FFF798FB31466046FFF794FB03B0294695
:100E10002046BDE8F04FFFF7B5BB1846FFF768FB6B
:100E20005846FFF771FB5089401C80B2FFF760FB0A
:100E3000E0B2FFF769FB5089801C80B208E0000037
:100E40001800002004050020666666666666044099
:100E5000FFF74EFB0198FFF757FB5089C01C80B28B
:100E6000FFF746FBF8B2FFF74FFB9089FFF740FB17
:100E70000098FFF749FB9089401C80B2FFF738FBD0
:100E8000E8B2FFF741FB9089801C80B2FFF730FB8E
:100E90000298FFF739FB9089C01C80B2FFF728FB4E
:100EA000F0B2BDE8FE4FFFF72FBBCA1B521E091B55
:100EB0003346491E284697B28EB290E72DE9F0439B
:100EC000FF4F0646002438887D884543B888A0F542
:100ED000D041043902D1B879012808D00021084650
:100EE000FFF750FBFFF735FB4FF0D84016E000202E
:100EF000B8714FF02A09A7F80A904FF02B08A7F80D
:100F00000C800146FFF73EFB0120B871A7F80A806C
:100F1000A7F80C90E6E7A0F88060641CAC42FAD316
:100F2000BDE8F0832DE9F04FA1B0002401217A2023
:100F30001F9405F028FE0121084605F038FE012027
:100F40008DF804008DF8064002208DF80500012080
:100F500008258DF8070000956946DA4805F0ECF998
:100F60004CF23370009002208DF804008DF806409A
:100F700003208DF8050001208DF807006946D2484E
:100F800005F0DAF94FF68070009002208DF8040029
:100F90008DF8064003208DF805000120CB4E8DF81A
:100FA00007006946304605F0C7F968020090022044
:100FB0008DF804008DF8064003208DF8050001200F
:100FC000C34F8DF807006946384605F0B5F9680249
:100FD000009002208DF804008DF8064003208DF863
:100FE000050001208DF807006946B64805F0A4F910
:100FF0000C220021B44805F013FA0C220121B2485A
:1010000005F00EFA0C220421AF4805F009FA0C2273
:101010000521AD4805F004FA0C220821AA4805F084
:10102000FFF90C220921A84805F0FAF90C220A213F
:10103000A54805F0F5F90C220E21A34805F0F0F9BA
:101040000C220F21A04805F0EBF90C2207213046B5
:1010500005F0E6F90C220821304605F0E1F90C22F2
:101060000921304605F0DCF90C220A21304605F052
:10107000D7F90C220B21304605F0D2F90C2211468B
:10108000304605F0CDF90C220D21304605F0C8F9A7
:101090000C220E21304605F0C3F90C220F213046F8
:1010A00005F0BEF90C221146384605F0B9F90C22BC
:1010B0001146844805F0B4F90F20CDE911043C2015
:1010C000CDE91304159409201694CDE91740CDE914
:1010D00019451B941C940620CDE902041D941E940E
:1010E0001020CDE9044006940002CDE90A4008949E
:1010F00007948000CDE90C40099411A8CDE90E4079
:1011000018A8109002A805F0C4F90121062005F0E6
:1011100039FA6C4C18342580012004F01DFEA01C07
:101120000580012004F018FE2580322004F014FE12
:1011300001210020FFF7FEF9322004F00DFE00200F
:10114000FFF7FEF9DFF878C14FF020494FF6FF783E
:10115000ACF8040049F2413545F2103645F210541E
:1011600041F6631246F60407FF2804D3404502D037
:10117000B0F5134F7DD1D320FFF7BAF9FFF7D0F9BF
:10118000ACF80400FFF7CCF9ACF80400FFF7C8F99D
:1011900008EA0020ACF80400FFF7C2F9BCF804101C
:1011A0000843ACF80400A84273D0BF20FFF7A0F9B1
:1011B000FFF7B6F9ACF80400FFF7B2F9ACF8040099
:1011C000FFF7AEF9ACF80400FFF7AAF908EA00202F
:1011D000ACF80400FFF7A4F9BCF804100843ACF81D
:1011E0000400B84255D0D420FFF782F9FFF798F9F0
:1011F000ACF80400FFF794F9ACF80400FFF790F99D
:1012000008EA0020ACF80400FFF78AF9BCF80410E3
:101210000843ACF80400B0423BD04FF45A40FFF70B
:1012200067F9FFF77DF9ACF804004FF45B40FFF776
:101230005FF9FFF775F908EA0020ACF804004FF4F5
:101240005C40FFF755F9FFF76BF9BCF80410084351
:10125000ACF80400B0F5004F4AD0A04219D0A1204C
:10126000FFF746F9FFF75CF9ACF80400FFF758F90F
:1012700000E00EE008EA0020ACF80400FFF750F9A7
:10128000BCF804100843A0F5AE41ACF80400613985
:101290002BD080B2A84205D0B04203D0A04201D0EA
:1012A000904228D1D9F81C11484621F00F01C9F805
:1012B0001C11D9F81C1121F47061C9F81C1109E046
:1012C0000405002000180240000C024000100240FB
:1012D00000140240D9F81C1141F00301C9F81C1197
:1012E000D9F81C1141F4007122E0ACF80420D9E7D0
:1012F000ACF80440D6E7B84203D0A0F54541053923
:1013000018D1D9F81C11484621F00F01C9F81C1159
:10131000D9F81C1121F47061C9F81C11D9F81C11FD
:1013200041F00A01C9F81C11D9F81C1141F44061BF
:10133000C0F81C11BCF80400A8427CD1CF20FFF7F4
:10134000D7F80020FFF7E0F8C120FFF7DDF83020E4
:10135000FFF7DAF8ED20FFF7CBF86420FFF7D4F8B9
:101360000320FFF7D1F81220FFF7CEF88120FFF716
:10137000CBF8E820FFF7BCF88520FFF7C5F8102070
:10138000FFF7C2F87A20FFF7BFF8CB20FFF7B0F8DD
:101390003920FFF7B9F82C20FFF7B6F80020FFF747
:1013A000B3F83420FFF7B0F80220FFF7ADF8F720CC
:1013B000FFF79EF82020FFF7A7F8EA20FFF798F83C
:1013C0000020FFF7A1F80020FFF79EF8C020FFF7EC
:1013D0008FF81B20FFF798F8C120FFF789F801204C
:1013E000FFF792F8C520FFF783F83020FFF78CF85D
:1013F0003020FFF789F8C720FFF77AF8B720FFF70A
:1014000083F83620FFF774F84820FFF77DF83A207C
:10141000FFF76EF85520FFF777F8B120FFF768F86F
:101420000020FFF771F81A20FFF76EF8B620FFF7DB
:101430005FF80A2000E092E0FFF766F8A220FFF7CD
:1014400063F8F220FFF754F80020FFF75DF826203C
:10145000FFF74EF80120FFF757F8E020FFF748F8B4
:101460000F20FFF751F82A20FFF74EF82820FFF74A
:101470004BF80820FFF748F80E20FFF745F8082042
:10148000FFF742F85420FFF73FF8A920FFF73CF898
:101490004320FFF739F80A20FFF736F80F20FFF74F
:1014A00033F80020FFF730F80020FFF72DF8002078
:1014B000FFF72AF80020FFF727F8E120FFF718F8D8
:1014C0000020FFF721F81520FFF71EF81720FFF77F
:1014D0001BF80720FFF718F81120FFF715F8062072
:1014E000FFF712F82B20FFF70FF85620FFF70CF844
:1014F0003C20FFF709F80520FFF706F81020FFF75A
:1015000003F80F20FFF700F83F20FEF7FDFF3F2014
:10151000FEF7FAFF0F20FEF7F7FF2B20FEF7E8FF9C
:101520000020FEF7F1FF0020FEF7EEFF0120FEF79E
:10153000EBFF3F20FEF7E8FF2A20FEF7D9FF00204F
:10154000FEF7E2FF0020FEF7DFFF0020FEF7DCFFE2
:10155000EF20FEF7D9FF1120FEF7CAFFA5E0B84241
:101560007ED11120FEF7C4FF142004F0F5FBD0203B
:10157000FEF7BEFF0720FEF7C7FF4220FEF7C4FFBD
:101580001D20FEF7C1FFD120FEF7B2FF0020FEF7BD
:10159000BBFF1A20FEF7B8FF0920FEF7B5FFD220E7
:1015A000FEF7A6FF0120FEF7AFFF2220FEF7ACFFFB
:1015B000C020FEF79DFF1020FEF7A6FF3B20FEF7A0
:1015C000A3FF0020FEF7A0FF0220FEF79DFF1120E1
:1015D000FEF79AFFC520FEF78BFF0320FEF794FF6E
:1015E000C820FEF785FF0020FEF78EFF2520FEF7BE
:1015F0008BFF2120FEF788FF0520FEF785FF0020E6
:10160000FEF782FF0A20FEF77FFF6520FEF77CFFD2
:101610002520FEF779FF7720FEF776FF5020FEF7B2
:1016200073FF0F20FEF770FF0020FEF76DFFF8201C
:10163000FEF75EFF0120FEF767FFFE20FEF758FF72
:101640000020FEF761FF0220FEF75EFF2020FEF77C
:101650004FFF3620FEF74CFF0820FEF755FF00E055
:1016600029E03A20FEF744FF5520FEF74DFF2B20DE
:10167000FEF73EFF0020FEF747FF0020FEF744FF85
:101680000120FEF741FF3F20FEF73EFF2A20FEF734
:101690002FFF0020FEF738FF0020FEF735FF012066
:1016A000FEF732FFDF20FEF72FFF782004F054FB17
:1016B000292001F0FBBEB0427ED1ED20FEF718FFDD
:1016C0000120FEF721FFFE20FEF71EFFEE20FEF7B1
:1016D0000FFFDE20FEF718FF2120FEF715FFF12097
:1016E000FEF706FF0120FEF70FFFDF20FEF700FFE9
:1016F0001020FEF709FFC420FEF7FAFE8F20FEF748
:1017000003FFC620FEF7F4FE0020FEF7FDFEE220F8
:10171000FEF7FAFEE220FEF7F7FEE220FEF7F4FE07
:10172000BF20FEF7E5FEAA20FEF7EEFEB020FEF792
:10173000DFFE0D20FEF7E8FE0020FEF7E5FE0D209F
:10174000FEF7E2FE0020FEF7DFFE1120FEF7DCFED2
:101750000020FEF7D9FE1920FEF7D6FE0020FEF786
:10176000D3FE2120FEF7D0FE0020FEF7CDFE2D2077
:10177000FEF7CAFE0020FEF7C7FE3D20FEF7C4FEBE
:101780000020FEF7C1FE5D20FEF7BEFE0020FEF742
:10179000BBFE5D20FEF7B8FE0020FEF7B5FEB120CF
:1017A000FEF7A6FE8020FEF7AFFE0020FEF7ACFE9F
:1017B0008B20FEF7A9FE00E0FDE30020FEF7A4FE6B
:1017C0009620FEF7A1FE0020FEF79EFEB220FEF757
:1017D0008FFE0020FEF798FE0020FEF795FE022007
:1017E000FEF792FE0020FEF78FFE0320FEF78CFE30
:1017F0000020FEF789FEB320FEF77AFE0020FEF7F8
:1018000083FE0020FEF780FE0020FEF77DFE002014
:10181000FEF77AFE0020FEF777FE0020FEF774FE4A
:101820000020FEF771FE0020FEF76EFE0020FEF79E
:101830006BFE0020FEF768FE0020FEF765FE00202C
:10184000FEF762FE0020FEF75FFE0020FEF75CFE62
:101850000020FEF759FE0020FEF756FE0020FEF79E
:1018600053FE0020FEF750FE0020FEF74DFE002044
:10187000FEF74AFE0020FEF747FE0020FEF744FE7A
:101880000020FEF741FE0020FEF73EFEB420FEF7EA
:101890002FFE8B20FEF738FE0020FEF735FE962047
:1018A000FEF732FE0020FEF72FFEA120FEF72CFEF1
:1018B0000020FEF729FEB520FEF71AFE0220FEF7F3
:1018C00023FE0020FEF720FE0320FEF71DFE002071
:1018D000FEF71AFE0420FEF717FE0020FEF714FEA6
:1018E000B620FEF705FE0020FEF70EFE0020FEF7F4
:1018F0000BFEB720FEF7FCFD0020FEF705FE0020E2
:10190000FEF702FE3F20FEF7FFFD0020FEF7FCFD84
:101910005E20FEF7F9FD0020FEF7F6FD6420FEF7DD
:10192000F3FD0020FEF7F0FD8C20FEF7EDFD00201A
:10193000FEF7EAFDAC20FEF7E7FD0020FEF7E4FD30
:10194000DC20FEF7E1FD0020FEF7DEFD7020FEF753
:10195000DBFD0020FEF7D8FD9020FEF7D5FD00202E
:10196000FEF7D2FDEB20FEF7CFFD0020FEF7CCFD09
:10197000DC20FEF7C9FD0020FEF7C6FDB820FEF70B
:10198000B7FD0020FEF7C0FD0020FEF7BDFD0020E2
:10199000FEF7BAFD0020FEF7B7FD0020FEF7B4FD0C
:1019A0000020FEF7B1FD0020FEF7AEFD0020FEF79F
:1019B000ABFDBA20FEF79CFD2420FEF7A5FD00201C
:1019C000FEF7A2FD0020FEF79FFD0020FEF79CFD24
:1019D000C120FEF78DFD2020FEF796FD0020FEF7CA
:1019E00093FD5420FEF790FD0020FEF78DFDFF20B3
:1019F000FEF78AFD0020FEF787FDC220FEF778FD86
:101A00000A20FEF781FD0020FEF77EFD0420FEF790
:101A10007BFD0020FEF778FDC320FEF769FD3C202A
:101A2000FEF772FD0020FEF76FFD3A20FEF76CFD19
:101A30000020FEF769FD3920FEF766FD0020FEF765
:101A400063FD3720FEF760FD0020FEF75DFD3C20C2
:101A5000FEF75AFD0020FEF757FD3620FEF754FD35
:101A60000020FEF751FD3220FEF74EFD0020FEF76C
:101A70004BFD2F20FEF748FD0020FEF745FD2C20F2
:101A8000FEF742FD0020FEF73FFD2920FEF73CFD5A
:101A90000020FEF739FD2620FEF736FD0020FEF778
:101AA00033FD2420FEF730FD0020FEF72DFD24201D
:101AB000FEF72AFD0020FEF727FD2320FEF724FD78
:101AC0000020FEF721FD3C20FEF71EFD0020FEF762
:101AD0001BFD3620FEF718FD0020FEF715FD322015
:101AE000FEF712FD0020FEF70FFD2F20FEF70CFD84
:101AF0000020FEF709FD2C20FEF706FD0020FEF772
:101B000003FD2920FEF700FD0020FEF7FDFC262046
:101B1000FEF7FAFC0020FEF7F7FC2420FEF7F4FCA9
:101B20000020FEF7F1FC2420FEF7EEFC0020FEF77B
:101B3000EBFC2320FEF7E8FC0020FEF7E5FCC420C8
:101B4000FEF7D6FC6220FEF7DFFC0020FEF7DCFC8F
:101B50000520FEF7D9FC0020FEF7D6FC8420FEF716
:101B6000D3FC0020FEF7D0FCF020FEF7CDFC0020D7
:101B7000FEF7CAFC1820FEF7C7FC0020FEF7C4FCE5
:101B8000A420FEF7C1FC0020FEF7BEFC1820FEF7E3
:101B9000BBFC0020FEF7B8FC5020FEF7B5FC00208F
:101BA000FEF7B2FC0C20FEF7AFFC0020FEF7ACFC09
:101BB0001720FEF7A9FC0020FEF7A6FC9520FEF7F3
:101BC000A3FC0020FEF7A0FCF320FEF79DFC002004
:101BD000FEF79AFCE620FEF797FC0020FEF794FC47
:101BE000C520FEF785FC3220FEF78EFC0020FEF7B4
:101BF0008BFC4420FEF788FC0020FEF785FC652066
:101C0000FEF782FC0020FEF77FFC7620FEF77CFCCE
:101C10000020FEF779FC8820FEF776FC0020FEF716
:101C200073FCC620FEF764FC2020FEF76DFC00204C
:101C3000FEF76AFC1720FEF767FC0020FEF764FC45
:101C40000120FEF761FC0020FEF75EFCC720FEF7D6
:101C50004FFC0020FEF758FC0020FEF755FC00204A
:101C6000FEF752FC0020FEF74FFCC820FEF740FCB8
:101C70000020FEF749FC0020FEF746FC0020FEF79E
:101C800043FC0020FEF740FCC920FEF731FC002099
:101C9000FEF73AFC0020FEF737FC0020FEF734FC8C
:101CA0000020FEF731FC0020FEF72EFC0020FEF79E
:101CB0002BFC0020FEF728FC0020FEF725FC00206E
:101CC000FEF722FC0020FEF71FFC0020FEF71CFCA4
:101CD0000020FEF719FC0020FEF716FC0020FEF79E
:101CE00013FC0020FEF710FC0020FEF70DFCE020A6
:101CF000FEF7FEFB1620FEF707FC0020FEF704FCB3
:101D00001C20FEF701FC0020FEF7FEFB2120FEF761
:101D1000FBFB0020FEF7F8FB3620FEF7F5FB00206A
:101D2000FEF7F2FB4620FEF7EFFB0020FEF7ECFB90
:101D30005220FEF7E9FB0020FEF7E6FB6420FEF7E9
:101D4000E3FB0020FEF7E0FB7A20FEF7DDFB00203E
:101D5000FEF7DAFB8B20FEF7D7FB0020FEF7D4FB63
:101D60009920FEF7D1FB0020FEF7CEFBA820FEF75E
:101D7000CBFB0020FEF7C8FBB920FEF7C5FB002017
:101D8000FEF7C2FBC420FEF7BFFB0020FEF7BCFB42
:101D9000CA20FEF7B9FB0020FEF7B6FBD220FEF703
:101DA000B3FB0020FEF7B0FBD920FEF7ADFB00200F
:101DB000FEF7AAFBE020FEF7A7FB0020FEF7A4FB3E
:101DC000F320FEF7A1FB0020FEF79EFBE120FEF7CB
:101DD0008FFB1620FEF798FB0020FEF795FB1C20DA
:101DE000FEF792FB0020FEF78FFB2220FEF78CFB14
:101DF0000020FEF789FB3620FEF786FB0020FEF769
:101E000083FB4520FEF780FB0020FEF77DFB522080
:101E1000FEF77AFB0020FEF777FB6420FEF774FBE9
:101E20000020FEF771FB7A20FEF76EFB0020FEF724
:101E30006BFB8B20FEF768FB0020FEF765FB99200B
:101E4000FEF762FB0020FEF75FFBA820FEF75CFBBD
:101E50000020FEF759FBB920FEF756FB0020FEF7E5
:101E600053FBC420FEF750FB0020FEF74DFBCA20B9
:101E7000FEF74AFB0020FEF747FBD220FEF744FBAB
:101E80000020FEF741FBD820FEF73EFB0020FEF7C6
:101E90003BFBE020FEF738FB0020FEF735FBF3208C
:101EA000FEF732FB0020FEF72FFBE220FEF720FBBF
:101EB0000520FEF729FB0020FEF726FB0B20FEF78E
:101EC00023FB0020FEF720FB1B20FEF71DFB00205C
:101ED000FEF71AFB3420FEF717FB0020FEF714FB79
:101EE0004420FEF711FB0020FEF70EFB4F20FEF70B
:101EF0000BFB0020FEF708FB6120FEF705FB00202E
:101F0000FEF702FB7920FEF7FFFA0020FEF7FCFA4D
:101F10008820FEF7F9FA0020FEF7F6FA9720FEF780
:101F2000F3FA0020FEF7F0FAA620FEF7EDFA002003
:101F3000FEF7EAFAB720FEF7E7FA0020FEF7E4FA28
:101F4000C220FEF7E1FA0020FEF7DEFAC720FEF716
:101F5000DBFA0020FEF7D8FAD120FEF7D5FA0020F0
:101F6000FEF7D2FAD620FEF7CFFA0020FEF7CCFA21
:101F7000DD20FEF7C9FA0020FEF7C6FAF320FEF7CF
:101F8000C3FA0020FEF7C0FAE320FEF7B1FA0520FD
:101F9000FEF7BAFA0020FEF7B7FA0A20FEF7B4FA05
:101FA0000020FEF7B1FA1C20FEF7AEFA0020FEF783
:101FB000ABFA332000E0FAE2FEF7A6FA0020FEF7C3
:101FC000A3FA4420FEF7A0FA0020FEF79DFA502065
:101FD000FEF79AFA0020FEF797FA6220FEF794FACD
:101FE0000020FEF791FA7820FEF78EFA0020FEF727
:101FF0008BFA8820FEF788FA0020FEF785FA9720F2
:10200000FEF782FA0020FEF77FFAA620FEF77CFAA0
:102010000020FEF779FAB720FEF776FA0020FEF7E7
:1020200073FAC220FEF770FA0020FEF76DFAC7209F
:10203000FEF76AFA0020FEF767FAD120FEF764FA8D
:102040000020FEF761FAD520FEF75EFA0020FEF7C9
:102050005BFADD20FEF758FA0020FEF755FAF32070
:10206000FEF752FA0020FEF74FFAE420FEF740FA9E
:102070000120FEF749FA0020FEF746FA0120FEF79C
:1020800043FA0020FEF740FA0220FEF73DFA002056
:10209000FEF73AFA2A20FEF737FA0020FEF734FA64
:1020A0003C20FEF731FA0020FEF72EFA4B20FEF717
:1020B0002BFA0020FEF728FA5D20FEF725FA002013
:1020C000FEF722FA7420FEF71FFA0020FEF71CFA32
:1020D0008420FEF719FA0020FEF716FA9320FEF787
:1020E00013FA0020FEF710FAA220FEF70DFA0020E6
:1020F000FEF70AFAB320FEF707FA0020FEF704FA0B
:10210000BE20FEF701FA0020FEF7FEF9C420FEF71C
:10211000FBF90020FEF7F8F9CD20FEF7F5F90020D5
:10212000FEF7F2F9D320FEF7EFF90020FEF7ECF905
:10213000DD20FEF7E9F90020FEF7E6F9F320FEF7CF
:10214000E3F90020FEF7E0F9E520FEF7D1F90020E1
:10215000FEF7DAF90020FEF7D7F90020FEF7D4F9F0
:102160000020FEF7D1F90220FEF7CEF90020FEF79D
:10217000CBF92920FEF7C8F90020FEF7C5F93C206D
:10218000FEF7C2F90020FEF7BFF94B20FEF7BCF9BD
:102190000020FEF7B9F95D20FEF7B6F90020FEF742
:1021A000B3F97420FEF7B0F90020FEF7ADF98420F2
:1021B000FEF7AAF90020FEF7A7F99320FEF7A4F98D
:1021C0000020FEF7A1F9A220FEF79EF90020FEF7FD
:1021D0009BF9B320FEF798F90020FEF795F9BE2091
:1021E000FEF792F90020FEF78FF9C420FEF78CF974
:1021F0000020FEF789F9CD20FEF786F90020FEF7D2
:1022000083F9D320FEF780F90020FEF77DF9DC206A
:10221000FEF77AF90020FEF777F9F320FEF774F95C
:102220000020FEF771F9E620FEF762F91120FEF7B3
:102230006BF90020FEF768F93420FEF765F90020FD
:10224000FEF762F95620FEF75FF90020FEF75CF911
:102250007620FEF759F90020FEF756F97720FEF7B1
:1022600053F90020FEF750F96620FEF74DF90020E3
:10227000FEF74AF98820FEF747F90020FEF744F9F7
:102280009920FEF741F90020FEF73EF9BB20FEF74A
:102290003BF90020FEF738F99920FEF735F90020C8
:1022A000FEF732F96620FEF72FF90020FEF72CF931
:1022B0005520FEF729F90020FEF726F95520FEF7F4
:1022C00023F90020FEF720F94520FEF71DF9002034
:1022D000FEF71AF94320FEF717F90020FEF714F96C
:1022E0004420FEF711F90020FEF70EF9E720FEF773
:1022F000FFF83220FEF708F90020FEF705F9552017
:10230000FEF702F90020FEF7FFF87620FEF7FCF852
:102310000020FEF7F9F86620FEF7F6F80020FEF739
:10232000F3F86720FEF7F0F80020FEF7EDF86720DD
:10233000FEF7EAF80020FEF7E7F88720FEF7E4F85A
:102340000020FEF7E1F89920FEF7DEF80020FEF706
:10235000DBF8BB20FEF7D8F80020FEF7D5F899206F
:10236000FEF7D2F80020FEF7CFF87720FEF7CCF882
:102370000020FEF7C9F84420FEF7C6F80020FEF75B
:10238000C3F85620FEF7C0F80020FEF7BDF8232062
:10239000FEF7BAF80020FEF7B7F83320FEF7B4F8DE
:1023A0000020FEF7B1F84520FEF7AEF80020FEF75A
:1023B000ABF8E820FEF79CF80020FEF7A5F8002017
:1023C000FEF7A2F89920FEF79FF80020FEF79CF890
:1023D0008720FEF799F80020FEF796F88820FEF790
:1023E00093F80020FEF790F87720FEF78DF8002094
:1023F000FEF78AF86620FEF787F80020FEF784F8DB
:102400008820FEF781F80020FEF77EF8AA20FEF76C
:102410007BF80020FEF778F8BB20FEF775F8002067
:10242000FEF772F89920FEF76FF80020FEF76CF8BF
:102430006620FEF769F80020FEF766F85520FEF7E3
:1024400063F80020FEF760F85520FEF75DF80020E5
:10245000FEF75AF84420FEF757F80020FEF754F82C
:102460004420FEF751F80020FEF74EF85520FEF705
:102470004BF80020FEF748F8E920FEF739F8AA20CB
:10248000FEF742F80020FEF73FF80020FEF73CF888
:102490000020FEF739F80020FEF72AF8AA20FEF700
:1024A00033F8CF20FEF724F80020FEF72DF80020A7
:1024B000FEF72AF80020FEF727F80020FEF724F8A0
:1024C0000020FEF721F80020FEF71EF80020FEF79E
:1024D0001BF80020FEF718F80020FEF715F8002082
:1024E000FEF712F80020FEF70FF80020FEF70CF8B8
:1024F0000020FEF709F80020FEF706F80020FEF79E
:1025000003F80020FEF700F80020FDF7FDFFF020A3
:10251000FDF7EEFF0020FDF7F7FF5020FDF7F4FF79
:102520000020FDF7F1FF0020FDF7EEFF0020FDF792
:10253000EBFFF320FDF7DCFF0020FDF7E5FFF920BE
:10254000FDF7D6FF0620FDF7DFFF1020FDF7DCFFCB
:102550002920FDF7D9FF0020FDF7D6FF3A20FDF72F
:10256000C7FF5520FDF7D0FF1120FDF7C1FF642004
:1025700003F0F2FB2920FDF7BBFF3520FDF7B8FF84
:102580000020FDF7C1FF5120FDF7B2FFFF20FDF74E
:10259000BBFF5320FDF7ACFF2C20FDF7B5FF552006
:1025A000FDF7A6FF8220FDF7AFFF2C20FDE3A04240
:1025B0007ED14FF4704355211846FDF7BBFF4FF213
:1025C0000104AA212046FDF7B5FF651C52212846CB
:1025D000FDF7B0FFA61C08213046FDF7ABFFE71C56
:1025E00001213846FDF7A6FF0D214FF43040FDF7DD
:1025F000A1FF0D214BF20100FDF79CFF0D214BF2D5
:102600000200FDF797FF4FF4364C34216046FDF78A
:1026100091FF34214BF20160FDF78CFF34214BF226
:102620000260FDF787FF4FF431490D214846FDF761
:1026300081FF4BF2011A0D215046FDF77BFF0D2162
:102640004BF20210FDF776FF4FF4374B342158461A
:10265000FDF770FF34214BF20170FDF76BFF342161
:102660004BF20270FDF766FF00214FF43240FDF798
:1026700061FF00214BF20120FDF75CFF00214BF2CE
:102680000220FDF757FF24214FF43840FDF752FF99
:1026900024214BF60100FDF74DFF24214BF60200EB
:1026A000FDF748FF01214FF43F40FDF743FF00E0F5
:1026B000FEE30F214FF43340FDF73CFF0F214BF2B7
:1026C0000130FDF737FF0F214BF20230FDF732FFEB
:1026D00034214FF43940FDF72DFF34214BF6011022
:1026E000FDF728FF34214BF60210FDF723FF0821E8
:1026F0004FF43540FDF71EFF08214BF20150FDF766
:1027000019FF08214BF20250FDF714FF03214FF48B
:102710004240FDF70FFF24214FF43A40FDF70AFF36
:1027200024214BF60120FDF705FF24214BF6022062
:10273000FDF700FF00214FF43C40FDF7FBFE782140
:102740004BF60140FDF7F6FE00214BF60240FDF787
:10275000F1FE00214FF43D40FDF7ECFE78214BF6F1
:102760000150FDF7E7FE00214BF60250FDF7E2FEB7
:1027700000214FF43E40FDF7DDFE64214BF6016081
:10278000FDF7D8FE00214FF45140FDF7D3FE332171
:102790004DF20110FDF7CEFE00214DF20210FDF7C3
:1027A000C9FE34214DF20310FDF7C4FE00214DF2A5
:1027B0000410FDF7BFFE3A214DF20510FDF7BAFEF9
:1027C00000214DF20610FDF7B5FE4A214DF207102B
:1027D000FDF7B0FE00214DF20810FDF7ABFE5C21C5
:1027E0004DF20910FDF7A6FE00214DF20A10FDF78B
:1027F000A1FE81214DF20B10FDF79CFE00214DF250
:102800000C10FDF797FEA6214DF20D10FDF792FE7C
:1028100000214DF20E10FDF78DFEE5214DF20F1057
:10282000FDF788FE01214DF21010FDF783FE132104
:102830004DF21110FDF77EFE01214DF21210FDF751
:1028400079FE54214DF21310FDF774FE01214DF273
:102850001410FDF76FFE82214DF21510FDF76AFE90
:1028600001214DF21610FDF765FECA214DF2171039
:10287000FDF760FE02214DF21810FDF75BFE00210E
:102880004DF21910FDF756FE02214DF21A10FDF718
:1028900051FE01214DF21B10FDF74CFE02214DF2BD
:1028A0001C10FDF747FE34214DF21D10FDF742FECE
:1028B00002214DF21E10FDF73DFE67214DF21F1063
:1028C000FDF738FE02214DF22010FDF733FE842182
:1028D0004DF22110FDF72EFE02214DF22210FDF7E0
:1028E00029FEA4214DF22310FDF724FE02214DF212
:1028F0002410FDF71FFEB7214DF22510FDF71AFE3B
:1029000002214DF22610FDF715FECF214DF22710C2
:10291000FDF710FE02214DF22810FDF70BFEDE211F
:102920004DF22910FDF706FE02214DF22A10FDF7A7
:1029300001FEF2214DF22B10FDF7FCFD02214DF2BC
:102940002C10FDF7F7FDFE214DF22D10FDF7F2FDE5
:1029500003214DF22E10FDF7EDFD10214DF22F1049
:10296000FDF7E8FD03214DF23010FDF7E3FD3321C3
:102970004DF23110FDF7DEFD03214DF23210FDF76F
:10298000D9FD6D214DF23310FDF7D4FD00214FF438
:102990005240FDF7CFFD33214DF20120FDF7CAFD76
:1029A00000214DF20220FDF7C5FD34214DF2032038
:1029B000FDF7C0FD00214DF20420FDF7BBFD3A21DB
:1029C0004DF20520FDF7B6FD00214DF20620FDF782
:1029D000B1FD4A214DF20720FDF7ACFD00214DF27B
:1029E0000820FDF7A7FD5C214DF20920FDF7A2FDAF
:1029F00000214DF20A20FDF79DFD81214DF20B20B3
:102A0000FDF798FD00214DF20C20FDF793FDA62166
:102A10004DF20D20FDF78EFD00214DF20E20FDF749
:102A200089FDE5214DF20F20FDF784FD01214DF2D6
:102A30001020FDF77FFD13214DF21120FDF77AFDE7
:102A400001214DF21220FDF775FD54214DF21320A6
:102A5000FDF770FD01214DF21420FDF76BFD822181
:102A60004DF21520FDF766FD01214DF21620FDF710
:102A700061FDCA214DF21720FDF75CFD02214DF2E8
:102A80001820FDF757FD00214DF21920FDF752FDEA
:102A900002214DF21A20FDF74DFD01214DF21B20C0
:102AA000FDF748FD02214DF21C20FDF743FD3421C6
:102AB0004DF21D20FDF73EFD02214DF21E20FDF7D7
:102AC00039FD67214DF21F20FDF734FD02214DF243
:102AD0002020FDF72FFD84214DF22120FDF72AFD56
:102AE00002214DF22220FDF725FDA4214DF22320E5
:102AF000FDF720FD02214DF22420FDF71BFDB7213B
:102B00004DF22520FDF716FD02214DF22620FDF79E
:102B100011FDCF214DF22720FDF70CFD02214DF2D2
:102B20002820FDF707FDDE214DF22920FDF702FDEB
:102B300002214DF22A20FDF7FDFCF2214DF22B205F
:102B4000FDF7F8FC02214DF22C20FDF7F3FCFE21ED
:102B50004DF22D20FDF7EEFC03214DF22E20FDF766
:102B6000E9FC10214DF22F20FDF7E4FC03214DF28A
:102B70003020FDF7DFFC33214DF23120FDF7DAFC88
:102B800003214DF23220FDF7D5FC6D214DF23320AB
:102B9000FDF7D0FC00214FF45340FDF7CBFC33216F
:102BA0004DF20130FDF7C6FC00214DF20230FDF779
:102BB000C1FC34214DF20330FDF7BCFC00214DF285
:102BC0000430FDF7B7FC3A214DF20530FDF7B2FCB9
:102BD00000214DF20630FDF7ADFC4A214DF20730E1
:102BE000FDF7A8FC00214DF20830FDF7A3FC5C21A5
:102BF0004DF20930FDF79EFC00214DF20A30FDF741
:102C000099FC81214DF20B30FDF794FC00214DF22F
:102C10000C30FDF78FFCA6214DF20D30FDF78AFC3C
:102C200000214DF20E30FDF785FCE5214DF20F300D
:102C3000FDF780FC01214DF21030FDF77BFC1321E4
:102C40004DF21130FDF776FC01214DF21230FDF707
:102C500071FC54214DF21330FDF76CFC01214DF253
:102C60001430FDF767FC82214DF21530FDF762FC50
:102C700001214DF21630FDF75DFCCA214DF21730EF
:102C8000FDF758FC02214DF21830FDF753FC0021EE
:102C90004DF21930FDF74EFC02214DF21A30FDF7CE
:102CA00049FC01214DF21B30FDF744FC02214DF29D
:102CB0001C30FDF73FFC34214DF21D30FDF73AFC8E
:102CC00002214DF21E30FDF735FC67214DF21F3019
:102CD000FDF730FC02214DF22030FDF72BFC842162
:102CE0004DF22130FDF726FC02214DF22230FDF796
:102CF00021FCA4214DF22330FDF71CFC02214DF2F2
:102D00002430FDF717FCB7214DF22530FDF712FCFA
:102D100002214DF22630FDF70DFCCF214DF2273078
:102D2000FDF708FC02214DF22830FDF703FCDE21FF
:102D30004DF22930FDF7FEFB02214DF22A30FDF75E
:102D4000F9FBF2214DF22B30FDF7F4FB02214DF29D
:102D50002C30FDF7EFFBFE214DF22D30FDF7EAFBA5
:102D600003214DF22E30FDF7E5FB10214DF22F30FF
:102D7000FDF7E0FB03214DF23030FDF7DBFB3321A3
:102D80004DF23130FDF7D6FB03214DF23230FDF725
:102D9000D1FB6D214DF23330FDF7CCFB00214FF418
:102DA0005440FDF7C7FB332100E07FE34DF20140C3
:102DB000FDF7C0FB00214DF20240FDF7BBFB3421C3
:102DC0004DF20340FDF7B6FB00214DF20440FDF744
:102DD000B1FB3A214DF20540FDF7ACFB00214DF26D
:102DE0000640FDF7A7FB4A214DF20740FDF7A2FB85
:102DF00000214DF20840FDF79DFB5C214DF209409A
:102E0000FDF798FB00214DF20A40FDF793FB81216D
:102E10004DF20B40FDF78EFB00214DF20C40FDF70B
:102E200089FBA6214DF20D40FDF784FB00214DF2F8
:102E30000E40FDF77FFBE5214DF20F40FDF77AFBD9
:102E400001214DF21040FDF775FB13214DF21140A9
:102E5000FDF770FB01214DF21240FDF76BFB542191
:102E60004DF21340FDF766FB01214DF21440FDF7D2
:102E700061FB82214DF21540FDF75CFB01214DF213
:102E80001640FDF757FBCA214DF21740FDF752FBE4
:102E900002214DF21840FDF74DFB00214DF2194083
:102EA000FDF748FB02214DF21A40FDF743FB00E01D
:102EB000FFE201214DF21B40FDF73CFB02214DF2E8
:102EC0001C40FDF737FB34214DF21D40FDF732FB6E
:102ED00002214DF21E40FDF72DFB67214DF21F40F0
:102EE000FDF728FB02214DF22040FDF723FB842152
:102EF0004DF22140FDF71EFB02214DF22240FDF76D
:102F000019FBA4214DF22340FDF714FB02214DF2E1
:102F10002440FDF70FFBB7214DF22540FDF70AFBDA
:102F200002214DF22640FDF705FBCF214DF227404F
:102F3000FDF700FB02214DF22840FDF7FBFADE21F0
:102F40004DF22940FDF7F6FA02214DF22A40FDF735
:102F5000F1FAF2214DF22B40FDF7ECFA02214DF28D
:102F60002C40FDF7E7FAFE214DF22D40FDF7E2FA85
:102F700003214DF22E40FDF7DDFA10214DF22F40D6
:102F8000FDF7D8FA03214DF23040FDF7D3FA332193
:102F90004DF23140FDF7CEFA03214DF23240FDF7FC
:102FA000C9FA6D214DF23340FDF7C4FA00214FF408
:102FB0005540FDF7BFFA33214DF20150FDF7BAFA43
:102FC00000214DF20250FDF7B5FA34214DF20350C5
:102FD000FDF7B0FA00214DF20450FDF7ABFA3A21AB
:102FE0004DF20550FDF7A6FA00214DF20650FDF70F
:102FF000A1FA4A214DF20750FDF79CFA00214DF24B
:103000000850FDF797FA5C214DF20950FDF792FA4E
:1030100000214DF20A50FDF78DFA81214DF20B503F
:10302000FDF788FA00214DF20C50FDF783FAA62136
:103030004DF20D50FDF77EFA00214DF20E50FDF7D6
:1030400079FAE5214DF20F50FDF774FA01214DF2A6
:103050001050FDF76FFA13214DF21150FDF76AFA87
:1030600001214DF21250FDF765FA54214DF2135033
:10307000FDF760FA01214DF21450FDF75BFA822151
:103080004DF21550FDF756FA01214DF21650FDF79D
:1030900051FACA214DF21750FDF74CFA02214DF2B8
:1030A0001850FDF747FA00214DF21950FDF742FA8A
:1030B00002214DF21A50FDF73DFA01214DF21B504D
:1030C000FDF738FA02214DF21C50FDF733FA342196
:1030D0004DF21D50FDF72EFA02214DF21E50FDF764
:1030E00029FA67214DF21F50FDF724FA02214DF213
:1030F0002050FDF71FFA84214DF22150FDF71AFAF6
:1031000002214DF22250FDF715FAA4214DF2235071
:10311000FDF710FA02214DF22450FDF70BFAB7210A
:103120004DF22550FDF706FA02214DF22650FDF72B
:1031300001FACF214DF22750FDF7FCF902214DF2A3
:103140002850FDF7F7F9DE214DF22950FDF7F2F98D
:1031500002214DF22A50FDF7EDF9F2214DF22B50EC
:10316000FDF7E8F902214DF22C50FDF7E3F9FE21BD
:103170004DF22D50FDF7DEF903214DF22E50FDF7F3
:10318000D9F910214DF22F50FDF7D4F903214DF25A
:103190003050FDF7CFF933214DF23150FDF7CAF928
:1031A00003214DF23250FDF7C5F96D214DF2335038
:1031B000FDF7C0F900214FF45640FDF7BBF933216C
:1031C0004DF20160FDF7B6F900214DF20260FDF706
:1031D000B1F934214DF20360FDF7ACF900214DF255
:1031E0000460FDF7A7F93A214DF20560FDF7A2F959
:1031F00000214DF20660FDF79DF94A214DF207606E
:10320000FDF798F900214DF20860FDF793F95C2174
:103210004DF20960FDF78EF900214DF20A60FDF7CD
:1032200089F981214DF20B60FDF784F900214DF2FF
:103230000C60FDF77FF9A6214DF20D60FDF77AF9DC
:1032400000214DF20E60FDF775F9E5214DF20F609A
:10325000FDF770F901214DF21060FDF76BF91321B4
:103260004DF21160FDF766F901214DF21260FDF794
:1032700061F954214DF21360FDF75CF901214DF223
:103280001460FDF757F982214DF21560FDF752F9F0
:1032900001214DF21660FDF74DF9CA214DF217607C
:1032A000FDF748F902214DF21860FDF743F90021BE
:1032B0004DF21960FDF73EF902214DF21A60FDF75B
:1032C00039F901214DF21B60FDF734F902214DF26D
:1032D0001C60FDF72FF934214DF21D60FDF72AF92E
:1032E00002214DF21E60FDF725F967214DF21F60A6
:1032F000FDF720F902214DF22060FDF71BF9842132
:103300004DF22160FDF716F902214DF22260FDF722
:1033100011F9A4214DF22360FDF70CF902214DF2C1
:103320002460FDF707F9B7214DF22560FDF702F99A
:1033300002214DF22660FDF7FDF8CF214DF2276006
:10334000FDF7F8F802214DF22860FDF7F3F8DE21D1
:103350004DF22960FDF7EEF802214DF22A60FDF7EB
:10336000E9F8F2214DF22B60FDF7E4F802214DF26D
:103370002C60FDF7DFF8FE214DF22D60FDF7DAF845
:1033800003214DF22E60FDF7D5F810214DF22F608C
:10339000FDF7D0F803214DF23060FDF7CBF8332173
:1033A0004DF23160FDF7C6F803214DF23260FDF7B2
:1033B000C1F86D214DF23360FDF7BCF85521184678
:1033C000FDF7B8F8AA212046FDF7B4F852212846A7
:1033D000FDF7B0F808213046FDF7ACF8002138467B
:1033E000FDF7A8F8CC214846FDF7A4F80021504687
:1033F000FDF7A0F805216046FDF79CF870215846BE
:10340000FDF798F870214BF20170FDF793F8012158
:103410004FF43840FDF78EF803214BF60100FDF71D
:1034200089F803214BF60200FDF784F803214BF6DF
:103430000300FDF77FF802214FF43C40FDF77AF8D6
:1034400000214BF60140FDF775F800214BF60240D4
:10345000FDF770F8D0214FF44940FDF76BF80221D9
:103460004CF60110FDF766F850214CF60210FDF7FE
:1034700061F850214CF60310FDF75CF850214CF632
:103480000410FDF757F800214FF45450FDF752F89F
:1034900055214FF46850FDF74DF84FF48850FDF773
:1034A00027F8782002F03CFC4FF42450FDF720F878
:1034B000F3E0A0F513414FF480744FF4E06740F25D
:1034C000022940F23F1B4FF4274625397ED0FD1DCF
:1034D000C91E7CD04FF488764FF41C5A083177D03F
:1034E000113976D0A0F5A841083973D0A0F5A851BC
:1034F0004FF4407605396ED0B1F520416CD0B1F56E
:1035000080516AD0A0F58A41313967D0091F66D051
:103510009042CDD1E220FCF7EBFF1D20FCF7F4FF39
:103520000220FCF7F1FF0420FCF7EEFF642002F01C
:10353000F7FBE020FCF7DCFF0120FCF7E5FF0A20A9
:1035400002F00AFCE020FCF7D3FF0320FCF7DCFFCD
:103550000C2002F001FC0120FCF7CAFF0A2002F057
:10356000FBFBE620FCF7C4FF2F20FCF7CDFFFF207C
:10357000FCF7CAFFFF20FCF7C7FFB020FCF7B8FF3D
:103580002020FCF7C1FF0020FCF7BEFF0320FCF762
:10359000BBFF40F21F30FCF7B7FF0120FCF7B4FF80
:1035A00040F2DF10FCF7B0FF0020FCF7ADFFB420C5
:1035B000FCF79EFF0420FCF7A7FF40F21F40FCF73A
:1035C000A3FF0020FCF7A0FF2E2009E072E03CE101
:1035D000F7E19CE270E3FDE3FDE3FDE3FDE3FDE3E2
:1035E000FCF792FF0020FCF78FFF0020FCF78CFF18
:1035F0000020FCF789FF0020FCF786FFB620FCF7CF
:1036000077FF0220FCF780FF4FF40370FCF77CFF8C
:103610000020FCF779FF1720FCF776FF1520FCF758
:1036200073FF0020FCF770FF0020FCF76DFFF02017
:10363000FCF75EFF0320FCF767FF2920FCF758FF2B
:10364000D020FCF755FF0020FCF75EFFBE20FCF702
:103650004FFF0520FCF758FFFE20FCF755FF012027
:10366000FCF752FF0020FCF74FFF0020FCF74CFF57
:103670000020FCF749FFB820FCF73AFF0320FCF7D5
:1036800043FF0120FCF740FFBA20FCF731FF012087
:10369000FCF73AFF6420FDF761FA0020FDF781FA9C
:1036A000FE490120C1F8BC024046FDF707FC21B0ED
:1036B000BDE8F08F47F6F001E520FCF73BFF21461F
:1036C0000120FCF737FF39460220FCF733FF41F2B7
:1036D00030010320FCF72EFF00210420FCF72AFF15
:1036E00049460820FCF726FF00210920FCF722FFAD
:1036F00000210A20FCF71EFF00210C20FCF71AFF16
:1037000000210D20FCF716FF00210F20FCF712FF0F
:1037100000211020FCF70EFF07211120FCF70AFF03
:1037200000211220FCF706FF00211320FCF702FF06
:1037300000210720FCF7FEFE41F290611020FCF70B
:10374000F9FE40F227211120FCF7F4FE9D21122002
:10375000FCF7F0FE4FF4C8511320FCF7EBFE2521D7
:103760002920FCF7E7FE0D212B20FCF7E3FE0721C3
:103770003020FCF7DFFE40F203313120FCF7DAFEA7
:1037800003213220FCF7D6FE40F206213520FCF75B
:10379000D1FE08213620FCF7CDFE40F2064137204D
:1037A000FCF7C8FE4FF441713820FCF7C3FE072137
:1037B0003920FCF7BFFE40F202613C20FCF7BAFE64
:1037C00008213D20FCF7B6FE00215020FCF7B2FE98
:1037D000EF215120FCF7AEFE00215220FCF7AAFE9B
:1037E00059465320FCF7A6FE31466020FCF7A2FEA6
:1037F00001216120FCF79EFE00216A20FCF79AFE61
:1038000000218020FCF796FE00218120FCF792FE2B
:1038100000218220FCF78EFE00218320FCF78AFE27
:1038200000218420FCF786FE00218520FCF782FE23
:1038300010219020FCF77EFE4FF4C0619220FCF72F
:1038400079FE40F233110720FEE341F28F01EC20B4
:10385000FCF770FE41F23421EF20FCF76BFE2146AD
:103860000120FCF767FE39460220FCF763FE41F2B7
:1038700030010320FCF75EFE00210420FCF75AFE15
:1038800049460820FCF756FE00210920FCF752FEAD
:1038900000210A20FCF74EFE01210C20FCF74AFE15
:1038A00000210D20FCF746FE00210F20FCF742FE10
:1038B00000211020FCF73EFE07211120FCF73AFE04
:1038C00000211220FCF736FE00211320FCF732FE07
:1038D00001210720FCF72EFE322002F03DFA41F2D2
:1038E00090411020FCF726FE40F227211120FCF722
:1038F00021FE322002F030FA8A211220FCF71AFE53
:10390000322002F029FA4FF4D0511320FCF712FEB6
:1039100006212920FCF70EFE0D212B20FCF70AFEC4
:10392000322002F019FA00212020FCF703FE0021CA
:103930002120FCF7FFFD322002F00EFA002130209A
:10394000FCF7F8FD40F204613120FCF7F3FD40F292
:1039500005313220FCF7EEFD00213520FCF7EAFDB1
:1039600040F609413620FCF7E5FD4FF401713720A0
:10397000FCF7E0FD40F201313820FCF7DBFD294681
:103980003920FCF7D7FD00213C20FCF7D3FD40F6A1
:103990000A213D20FCF7CEFD322002F0DDF90021A6
:1039A0005020FCF7C7FDEF215120FCF7C3FD00219B
:1039B0005220FCF7BFFD59465320FCF7BBFD3146B2
:1039C0004FE100210846FCF7B5FD21460120FCF738
:1039D000B1FD39460220FCF7ADFD41F23001032074
:1039E000FCF7A8FD00210420FCF7A4FD49460820AF
:1039F000FCF7A0FD00210920FCF79CFD00210A2016
:103A0000FCF798FD01210C20FCF794FD00210D200E
:103A1000FCF790FD00210F20FCF78CFD322002F016
:103A20009BF940F201110720FCF784FD322002F0DF
:103A300093F94FF486511020FCF77CFD07211120EB
:103A4000FCF778FD31461220FCF774FD4FF430612D
:103A50001320FCF76FFD00212920FCF76BFD44F2D9
:103A600010012B20FCF766FD00215020FCF762FDC1
:103A7000EF215120FCF75EFD00215220FCF75AFD9A
:103A800059465320FCF756FD51466020FCF752FD85
:103A900001216120FCF74EFD002101E00080404241
:103AA0006A20FCF747FD00218020FCF743FD002140
:103AB0008120FCF73FFD00218220FCF73BFD002127
:103AC0008320FCF737FD00218420FCF733FD002123
:103AD0008520FCF72FFD10219020FCF72BFD002105
:103AE0009220FCF727FD01219320FCF723FD3146AE
:103AF0009520FCF71FFD00219720FCF71BFD0021FE
:103B00009820FCF717FD40F2731107207DE341F286
:103B10001401E720FCF70EFD21460120FCF70AFD09
:103B20004FF400710220FCF705FD41F2380103203B
:103B3000FCF700FD49460820FCF7FCFC00210920A9
:103B4000FCF7F8FC00210A20FCF7F4FC00210C2013
:103B5000FCF7F0FC00210D20FCF7ECFC00210F200D
:103B6000FCF7E8FC00211020FCF7E4FC0721112001
:103B7000FCF7E0FC00211220FCF7DCFC0021132004
:103B8000FCF7D8FCC82002F0E7F841F29061102061
:103B9000FCF7D0FC40F227211120FCF7CBFC3220AF
:103BA00002F0DAF80C211220FCF7C4FC322002F0FB
:103BB000D3F84FF400611320FCF7BCFC112129203D
:103BC000FCF7B8FC0B212B20FCF7B4FC322002F0F0
:103BD000C3F800212020FCF7ADFC5B4659462120AC
:103BE000FCF7A8FC00213020FCF7A4FC4FF4837400
:103BF00021463120FCF79EFC00213220FCF79AFC84
:103C00004FF401713520FCF795FC41F20A61362032
:103C1000FCF790FC29463720FCF78CFC2146382025
:103C2000FCF788FC29463920FCF784FC40F202416D
:103C30003C20FCF77FFC40F60F413D20FCF77AFC6E
:103C400000215020FCF776FCEF215120FCF772FC9C
:103C500000215220FCF76EFC19465320FCF76AFC49
:103C600051466020FCF766FC01216120FCF762FCF4
:103C700000216A20FCF75EFC00218020FCF75AFC42
:103C800000218120FCF756FC00218220FCF752FC29
:103C900000218320FCF74EFC00218420FCF74AFC25
:103CA00000218520FCF746FC10219020FCF742FC07
:103CB0004FF4C0619220FCE321460120FCF73AFC5E
:103CC00039460220FCF736FC41F230010320FCF7B4
:103CD00031FC00210420FCF72DFC40F207210820D4
:103CE000FCF728FC00210920FCF724FC00210A2015
:103CF000FCF720FC00210C20FCF71CFC00210D200F
:103D0000FCF718FC00210F20FCF714FC142002F033
:103D100023F841F2B0611020FCF70CFC01211120C6
:103D2000FCF708FC01211720FCF704FC4FF49C7100
:103D30001220FCF7FFFB4FF400611320FCF7FAFBA5
:103D400009212920FCF7F6FB09212A20FCF7F2FBC8
:103D50000021A420FCF7EEFB00215020FCF7EAFB39
:103D6000EF215120FCF7E6FB00215220FCF7E2FB9B
:103D700059465320FCF7DEFB51466020FCF7DAFB86
:103D800001216120FCF7D6FB00216A20FCF7D2FB61
:103D900000218020FCF7CEFB00218120FCF7CAFB2C
:103DA00000218220FCF7C6FB00218320FCF7C2FB28
:103DB00000218420FCF7BEFB00218520FCF7BAFB24
:103DC00013219020FCF7B6FB00219220FCF7B2FBF8
:103DD000032104E011E01CE118E2DEE293E393200A
:103DE000FCF7A8FB31469520FCF7A4FB40F27311C9
:103DF0000720FCF79FFB322007E100210720FCF79A
:103E000099FB322001F0A8FF4FF48E711220FCF7CD
:103E100091FB0121A420FCF78DFB0F210820FCF76A
:103E200089FB08210A20FCF785FB08210D20FCF7FF
:103E300081FB2B4629463020FCF77CFB07213120F3
:103E4000FCF778FB40F203613220FCF773FB3D4640
:103E500039463320FCF76EFB49463420FCF76AFBF9
:103E600002213520FCF766FB41F60F713620FCF786
:103E700061FB19463720FCF75DFB00213820FCF779
:103E800059FB00213920FCF755FB19463A20FCF775
:103E900051FB00213B20FCF74DFB07213C20FCF7A8
:103EA00049FB00213D20FCF745FB322001F054FF87
:103EB00001210720FCF73EFB01211720FCF73AFB0C
:103EC000322001F049FF4FF4BD511020FCF732FBC6
:103ED00040F217211120FCF72DFB4FF48F711220B7
:103EE000FCF728FB4FF470611320FCF723FB002143
:103EF0002A20FCF71FFB0A212920FCF71BFB4FF4AB
:103F00009F711220FCF716FB00215020FCF712FBDA
:103F1000EF215120FCF70EFB00215220FCF70AFB99
:103F200059465320FCF706FB51466020FCF702FB84
:103F300001216120FCF7FEFA00216A20FCF7FAFA61
:103F400000218020FCF7F6FA00218120FCF7F2FA2C
:103F500000218220FCF7EEFA00218320FCF7EAFA28
:103F600000218420FCF7E6FA00218520FCF7E2FA24
:103F700013219020FCF7DEFA31469220FCF7DAFAA2
:103F800005219320FCF7D6FA00219520FCF7D2FA00
:103F900000219720FCF7CEFA00219820FCF7CAFAFE
:103FA00021460120FCF7C6FA29460220FCF7C2FA96
:103FB00041F238010320FCF7BDFA00210420FCF790
:103FC000B9FA00210C20FCF7B5FA00210F20FCF70C
:103FD000B1FA00212020FCF7ADFA00212120FCF7E6
:103FE000A9FA21210720FCF7A5FA142001F0B4FE5C
:103FF00061210720FCF79EFA142001F0ADFE40F28B
:1040000073110720FCF796FA142001F0A5FEFFF7C4
:1040100044BB00210846FCF78DFA00210846FCF756
:1040200089FA00210846FCF785FA00210846FCF7CA
:1040300081FA0121A420FCF77DFA142001F08CFE06
:1040400055465146602000E0DBE0FCF773FA4E462F
:1040500049460820FCF76EFA4FF405713020FCF752
:1040600069FA43F215713120FCF764FA40F20461F9
:104070003220FCF75FFA40F616613320FCF75AFA5B
:1040800042F211213420FCF755FA4FF4A8513520A3
:10409000FCF750FA48F207513620FCF74BFA41F290
:1040A00007413720FCF746FA41F203413820FCF77C
:1040B00041FA20213920FCF73DFA1A219020FCF723
:1040C00039FA00211020FCF735FA07211120FCF7FE
:1040D00031FA00211220FCF72DFA00211320FCF701
:1040E00029FA142001F038FE4FF4E6611020FCF7A5
:1040F00021FA40F237111120FCF71CFA142001F0CC
:104100002BFE4FF4DC711220FCF714FA142001F09E
:1041100023FE4FF470611320FCF70CFA80212A2053
:10412000FCF708FA48212920FCF704FA142001F0D2
:1041300013FE21460120FCF7FDF939460220FCF769
:10414000F9F941F238010320FCF7F4F9314608206F
:10415000FCF7F0F900210A20FCF7ECF900210C2013
:10416000FCF7E8F900210D20FCF7E4F930210E20DE
:10417000FCF7E0F900215020FCF7DCF9EF21512099
:10418000FCF7D8F900215220FCF7D4F95946532006
:10419000FCF7D0F929466020FCF7CCF90121612019
:1041A000FCF7C8F900216A20FCF7C4F9112190201E
:1041B000FCF7C0F94FF4C0619220FCF7BBF940F264
:1041C00002419320FCF7B6F902219420FCF7B2F9E2
:1041D000142001F0C1FD01210720FCF7ABF91420E8
:1041E00001F0BAFD61210720FCF7A4F940F2731138
:1041F0000720FCF79FF900212020FCF79BF9002104
:104200002120FCF797F92221002079E100210846BE
:10421000FCF790F900210846FCF78CF9142001F016
:104220009BFD00210846FCF785F900210846FCF7B4
:1042300081F900210846FCF77DF900210846FCF7CA
:1042400079F90121A420FCF775F9142001F084FD0F
:1042500051466020FCF76EF940F606010820FCF795
:1042600069F940F2037319463020FCF763F9012124
:104270003120FCF75FF904213220FCF75BF94FF4A1
:1042800081713320FCF756F931463420FCF752F99E
:1042900040F203113520FCF74DF91F213620FCF7C1
:1042A00049F919463720FCF745F901213820FCF778
:1042B00041F904213920FCF73DF915219020FCF744
:1042C00039F94FF482611020FCF734F940F24721AC
:1042D0001120FCF72FF94FF4DE711220FCF72AF9B8
:1042E0004FF460611320FCF725F9782001F034FDCC
:1042F00021460120FCF71EF94FF400710220FCF763
:1043000019F941F230010320FCF714F908210A20C1
:10431000FCF710F900210C20FCF70CF920210E20ED
:10432000FCF708F900210F20FCF704F900212020F8
:10433000FCF700F900212120FCF7FCF83D212A20A0
:10434000FCF7F8F8142001F007FD2D212920FCF7D7
:10435000F1F800215020FCF7EDF84DF2EF0151206B
:10436000FCF7E8F800215220FCF7E4F85946532006
:10437000FCF7E0F800216120FCF7DCF800216A205E
:10438000FCF7D8F831469220FCF7D4F805219320A9
:10439000FCF7D0F82146FFF7B8BB01210020FCF75D
:1043A000C9F80A2001F0D8FC41F228611020FCF77E
:1043B000C1F80E211220FCF7BDF840F63921132078
:1043C000FCF7B8F80A2001F0C7FC40211120FCF7E7
:1043D000B1F850211520FCF7ADF80A2001F0BCFC23
:1043E0001E211220FCF7A6F80A2001F0B5FC4FF4BC
:1043F000B1511020FCF79EF842F639211320FCF74A
:1044000099F80A2001F0A8FC21460120FCF792F857
:1044100031460220FCF78EF841F238010320FCF708
:1044200089F849460820FCF785F808210A20FCF79E
:1044300081F800213020FCF77DF840F20241312064
:10444000FCF778F84FF483713220FCF773F840F2F0
:1044500003513320FCF76EF84FF482713420FCF7DF
:1044600069F840F201313520FCF764F8294636201E
:10447000FCF760F840F205313720FCF75BF84FF4A9
:1044800002713820FCF756F840F60B713920FCF722
:1044900051F802214120FCF74DF851466020FCF70D
:1044A00049F801216120FCF745F84FF40471902090
:1044B00000E0CAE0FCF73EF84FF485719220FCF76B
:1044C00039F804219320FCF735F82146A020FCF7A9
:1044D00031F801210720FCF72DF821210720FCF7F6
:1044E00029F823210720FCF725F833210720FCF7C2
:1044F00021F840F233110720FCF71CF80021A0201E
:10450000FCF718F883E530211520FCF713F810218B
:104510009A20FCF70FF820211120FCF70BF843F24A
:1045200028411020FCF706F802211220FCF702F8BF
:1045300041F238011320FBF7FDFF282001F00CFCAD
:1045400012210846FBF7F6FF282001F005FC43F294
:1045500020411020FBF7EEFF43F238011320FBF758
:10456000E9FF462001F0F8FB00213020FBF7E2FFD5
:1045700040F202413120FBF7DDFF40F207313220EB
:10458000FBF7D8FF4FF441713320FBF7D3FF042131
:104590003420FBF7CFFF40F201413520FBF7CAFF83
:1045A00029463620FBF7C6FF40F205313720FBF7DE
:1045B000C1FF4FF4C26319463820FBF7BBFF194611
:1045C0003920FBF7B7FF21460120FBF7B3FF314647
:1045D0000220FBF7AFFF41F230010320FBF7AAFFF7
:1045E00040F608010820FBF7A5FF08210A20FBF789
:1045F000A1FF51466020FBF79DFF01216120FBF7E1
:1046000099FF4FF49F719020FBF794FF2146922071
:10461000FBF790FF21469320FBF78CFF4FF44051AE
:10462000A020FBF787FF1021A320FBF783FF0121C8
:104630000720FBF77FFF21210720FBF77BFF2321CA
:104640000720FBF777FF33210720FBF773FF40F2CA
:104650003311A0E62DE9F843FB4D1F468046AB8899
:10466000089EA3F5D040043802D1A879012807D0CC
:10467000A2EB0800401C85B20C464FF0D84929E057
:104680002B880846991A0024AC713A462A24A3EBD9
:1046900008036C812B27491E5B1EAF8189B29BB238
:1046A0000096FFF7D7FF0120A8716F81AC81BDE8AC
:1046B000F88321464046FBF765FFFBF74AFF0020E1
:1046C000494603E0A1F88060401C80B2A842F9D3BB
:1046D000641CA4B2BC42ECD9E9E72DE9F04782465C
:1046E000A2EB0A00401C0E4685B2981B401C87B204
:1046F00000244FF0D849DDF8208015E0301981B250
:104700005046FBF73FFFFBF724FF0020494607E038
:1047100004FB050338F81320A1F88020401C80B268
:10472000A842F5D3641CA4B2BC42E7D3BDE8F0872D
:104730002DE9FE4F0026A2EB000882465F1A701E8C
:1047400035468946B8F1000F02DD4FF0010102E065
:1047500003D14FF00001019102E0C8F1000801907F
:10476000002F02DD4FF0010002E003D14FF0000006
:10477000009002E0C7F1000700904046B84501DD17
:10478000044600E03C46601C4FF0000B029015E030
:104790001FFA89F11FFA8AF0FCF750F946443D44AC
:1047A000A64202DD0199361B8A44A54202DD00992A
:1047B0002D1B89440BF101001FFA80FB02998B45E8
:1047C000E6DDBDE8FE8FF0B51C4615460E460746F1
:1047D0000B46FFF7ADFF3A46234631461046FFF73A
:1047E000A7FF23462A4619463846FFF7A1FF2A4667
:1047F00023463146BDE8F040104699E72DE9FC4FCD
:1048000080460024154603200F46A0EB450649E0EC
:10481000781B81B208EB040A01901FFA8AF0FCF7BA
:104820000DF9381B81B208EB050900901FFA89F0D9
:10483000FCF704F907EB040B1FFA8BF11FFA89F060
:10484000FCF7FCF807EB05091FFA89F11FFA8AF05B
:10485000FCF7F4F8A8EB040A1FFA89F11FFA8AF0B2
:10486000FCF7ECF8A8EB05091FFA8BF11FFA89F0A9
:10487000FCF7E4F8019881B21FFA8AF0FCF7DEF841
:10488000009881B21FFA89F0FCF7D8F8641C002E5A
:1048900003DA06EB8406B61D04E0601B06EB800617
:1048A0006D1E0A36AC42B3DDBDE8FC8F2DE9F84F32
:1048B00082461F460C468B46580700D0012000EB6D
:1048C000D700790810FB01F0203AC0B202F0FF09CE
:1048D0000026009041E00C2F10D0102F12D0182F7E
:1048E0003ED15A4909EBC90001EB80004FF00008A6
:1048F000855D28060AD5564802880BE009EB490079
:104900005449F1E7544901EB0910EFE70A9828B937
:104910004F48428821465046FCF79CF86806050E31
:104920004948641CA4B24088A04219D9A4EB0B00EA
:10493000B84209D10AF101001FFA80FA42485C46E8
:10494000018851450CD906E008F1010000F0FF088C
:10495000B8F1080FCDD3761CF6B200988642BAD3D0
:10496000BDE8F88F0346012000E05843491EC9B254
:10497000FBD270472DE9FF4F81B00027DDF838B03A
:104980001D46924680463C46B9464FEA5B0627E004
:10499000281B401EC1B20A20FFF7E4FFBAFBF0F06B
:1049A0000A21B0FBF1F201FB120027B9691E8C420B
:1049B00001DA48B101273030C2B206FB048080B270
:1049C0005B46CDF8009006E006FB048080B25B46B3
:1049D0002022CDF800900299FFF768FF641CE4B232
:1049E000AC42D5D305B0BDE8F08F2DE9FF4F81B0C3
:1049F0008046DDF83CA00E984FF000091F46934614
:104A00004C460AF00105460836E0381B401EC1B28C
:104A10000A20FFF7A7FFBBFBF0F00A21B0FBF1F281
:104A200001FB1200B9F1000F05D1791E8C4202DAA8
:104A3000A0B14FF001093030C2B206FB048080B251
:104A400000950E9B13E0000004050020F0B1030860
:104A5000180000208CA7030800AC03085FEA0A6076
:104A600006FB04800E9B80B2009508D53022029987
:104A7000FFF71CFF641CE4B2BC42C6D3B2E720229D
:104A8000F5E72DE9F84F044600F0FF0810190D4630
:104A9000DDE90A761FFA80FA58191FFA80F94FF0FB
:104AA000000B11E0544502D3E819444685B24D4548
:104AB0000FD23B4629462046CDF800B0FFF7F6FE60
:104AC00004EB570084B2761C3278A2F120005E28F5
:104AD000E8D945E72DE9F04115460E460446002782
:104AE00000F0A0F8702000F03BF900F0D6F8E0B23A
:104AF00000F036F900F0D1F8002408E0305D00F055
:104B00002FF900F0CAF8070003D1641CE4B2AC42EC
:104B1000F4D300F0A6F83846BDE8F0812DE9F04165
:104B200015460F46044600F07DF8702000F018F995
:104B300000F0B3F8E0B200F013F900F0AEF800F0C6
:104B400071F8712000F00CF900F0A7F800246E1E37
:104B500009E0B44201D0012000E0002000F02DF96E
:104B60003855641CE4B2AC42F3D3BDE8F04100F028
:104B700078B87CB50121062002F005F800248DF8F4
:104B8000044002208DF80640032600908DF8056051
:104B900001258DF807506946104801F0CDFB6803E8
:104BA0008DF8045000908DF806408DF80560694638
:104BB0000B4801F0C1FB00F01AF80A4EC6F8B442E7
:104BC000142006F52D7601F0C7F83560322001F08B
:104BD000C3F801207CBD00207047000000040240A3
:104BE0000008024000004142022001F099B81CB5C3
:104BF0000121222001F0C7FF01248DF8044000208C
:104C00008DF8060000948DF807406946854801F04C
:104C100093FBE00200908DF804406946824801F061
:104C20008BFB1CBD70B58048016821F44001016018
:104C3000016841F4800101607C4E0120C6F8AC029D
:104C40007B4DC5F880021E2005F5207506F52B76F4
:104C500001F066F800243460022001F061F82C6055
:104C600070BD70B57048016821F4400101600168B1
:104C700041F4800101606E480125C0F880521E2079
:104C800001F04EF8694C0020C4F8AC02022004F593
:104C90002B7401F045F8256070BD70B562480024A2
:104CA000016821F440010160016801605F4D01204D
:104CB000C5F8AC025E4EC6F8800207E0641CE4B2A0
:104CC000FA2C03D9FFF7CDFF012070BD022001F0BF
:104CD00027F8D5F82C020028F0D1C6F8800270BD64
:104CE00070B5534C0025C4F880524F48016821F438
:104CF00040010160016841F480010160022004F577
:104D0000207401F00DF84948C0F8AC52022001F0BF
:104D100007F801202060022001F002F8256070BD34
:104D200070B5434C0026C4F880623F48016821F406
:104D300040010160016841F480010160022004F536
:104D4000207400F0EDFF39480125C0F8AC52022074
:104D500000F0E6FF2560022000F0E2FF266070BD53
:104D60002DE9F04705463048016821F44001016013
:104D7000016841F4800101602D4E0027C6F8807261
:104D8000022000F0CDFFDFF8A48000244FF00109DD
:104D9000E909C8F8AC126806050EC6F88092022030
:104DA00000F0BEFFC6F88072022000F0B9FF641C5C
:104DB000E4B2082CECD3BDE8F0872DE9F047824639
:104DC00019480024016821F4400101600168016074
:104DD0001E2000F0A5FF0025154EDFF850902F464D
:104DE0004FF00108C6F88072022000F099FFC6F863
:104DF0008082022000F094FF6006040ED9F82C0295
:104E000008B1641CE4B26D1CEDB2082DEAD3BAF10E
:104E1000000F03D0FFF764FF2046CCE7FFF780FFC9
:104E2000FAE7000000040240001402400080424201
:104E3000008040421848016841F0010101600168AA
:104E400041F004010160016841F002010160134872
:104E5000016821F440710160016821F44041016062
:104E6000016821F0C0010160016841F480410160E6
:104E7000016841F04001016070470849082208B10B
:104E80000A8370474A8370470449802208B10A8325
:104E900070474A83704700003038024000000240EB
:104EA00010B5E64C208AC00708D0E548006828B154
:104EB000804718B1208820F0010020804FF6FE7056
:104EC000208210BD7FB50121080401F084FE40F26C
:104ED000E7300190A720ADF800000024D74DADF8D1
:104EE0000240ADF808406946284602F05DF901220B
:104EF0001146284602F0E1FC18208DF80C008DF8D0
:104F00000D408DF80E4001208DF80F0003A801F030
:104F100054F97FBD10B50446FFF78CFF0120FFF761
:104F2000ACFFFFF7CFFFC549088820F001000880DB
:104F3000C3480460088840F00100088010BDFEB539
:104F40000D460446BF4E284303D10021304602F0EF
:104F5000A3F9ADF800500020ADF80200ADF808004C
:104F6000019469463546304602F01EF960086863D0
:104F70000121284602F090F9FEBDB348016841F0D6
:104F800001010160B0480C38016841F00301016083
:104F90000007018921F007010181018941F0030126
:104FA0000181018B4FF6FC4211400183018B40F2DD
:104FB000022211430183018C21F022010184018B23
:104FC00040F60F7211400183018841F00101018018
:104FD0009E490A6842F400620A609D4A136843F0E1
:104FE000800313600A6A42F480120A6298492031F1
:104FF0000A6842F480520A604FF0FF31C16200211A
:105000000185018841F00101018070478E4910B58A
:10501000091D0A6842F001020A608B4910390A68CA
:1050200042F001020A6042088648426387490B68E1
:1050300023F440330B600B6843F400330B604B6A7E
:1050400043F001034B625321018540F2E731C16215
:105050004FF4FA714163018B21F070010183018BE0
:1050600041F060010183018B41F008010183018C53
:1050700041F001010184018841F080010180B0F814
:10508000441041F40041A0F84410018841F00101AE
:1050900001804263FFF771FFBDE8104012E72DE980
:1050A000F047071E674E6B484FF0000503D008DA43
:1050B0007F42002106E03046BDE8F047002102F0C3
:1050C000EBB8012190FBF7F48946204633F083FBCF
:1050D00041EC100B34F024FA51EC100B33F099FB37
:1050E00003465D4902204FF4803C11E094FBF0F24E
:1050F00000FB124291420ADD94FBF0F8E04506DA2B
:105100001100054603D194FBF0F2624502DB401C1E
:105110009842EBDD94FBF5F4641E6D1EB7F57A7FC3
:105120000CDD4846FFF7B0FEF06AA04202D1308D98
:10513000A84203D029462046FFF701FF308840F0FF
:1051400001003080BDE8F0872DE9F047071E3D4D96
:1051500040484FF0000603D007DA7F42002105E007
:10516000BDE8F04700210846E9E6012190FBF7F48D
:105170008946204633F02FFB41EC100B34F0D0F978
:1051800051EC100B33F045FB0346334902204FF43A
:10519000803C11E094FBF0F200FB124291420ADDE8
:1051A00094FBF0F8E04506DA1100064603D194FBC3
:1051B000F0F2624502DB401C9842EBDD94FBF6F412
:1051C000641E761EB7F57A7F03DC686AE96B884255
:1051D0000CD94846FFF758FEE86AA04202D1288D54
:1051E000B04203D031462046FFF7A9FE288840F0A0
:1051F00001002880A6E701207047012070470120A8
:1052000070474FF08040406A70474FF080414862DD
:1052100070474FF08040406A9FED101A00EE100A70
:10522000F8EEC00A80EE810ADFED0D0A20EE200ABA
:10523000F2EE000A20EE200A704700000040014014
:105240001C000020000001404038024000000240E5
:105250000004024000BD010580969800F0FF7F4CDD
:105260000000B4432DE9F0418046584888B04160C1
:105270000121042001F087FC0121102001F0ABFC8A
:10528000534F07220921384601F0CAF807220A21A4
:10529000384601F0C5F802258DF8045038158DF810
:1052A0000550002400908DF8064001268DF8076017
:1052B0006946384601F040F88DF8045028028DF810
:1052C000055000908DF806408DF807606946384615
:1052D00001F032F8ADF810400C203E4DADF80C4016
:1052E000ADF81200CDF80880ADF80E40ADF81440CE
:1052F00002A9284601F063FD0121284601F0D0FDF6
:10530000012240F22551284601F069FE25208DF842
:1053100018008DF8194003208DF81A008DF81B60D5
:1053200006A800F04AFF08B0BDE8F081274B1988B5
:105330005A88914203D3002018805880704722B1C8
:10534000254A525C0270491C19800120704770B5D3
:105350001E4D0C46698809B1002070BD01462246E9
:105360001D4832F05CFE6C80012240F22771194822
:1053700001F035FE012070BD38B5164C40F22555C0
:105380002946204601F04DFE48B1A0880F49C0B221
:105390004A6802B190472946204601F061FE40F27A
:1053A00027752946204601F03CFE60B16846FFF7AC
:1053B000BDFF18B19DF80000A08004E0002229463E
:1053C000204601F00CFE0020208038BD2000002087
:1053D0000000024000100140120500202DE9F041BC
:1053E0008046634888B041600121042001F0CBFB76
:1053F0000121880401F0E5FB5E4F07220B213846AE
:1054000001F00EF807220A21384601F009F80225BA
:105410008DF80450F8148DF80550002400908DF894
:10542000064001268DF807606946384600F084FF83
:105430008DF8045068028DF8055000908DF80640F4
:105440008DF807606946384600F076FFADF81040E9
:105450000C20494FADF80C40ADF81200CDF8088093
:10546000ADF80E40ADF8144002A9384601F0A7FC93
:105470000121384601F014FD012240F22551384641
:1054800001F0ADFD27208DF818008DF819408DF83A
:105490001A508DF81B6006A800F08FFE08B0BDE81A
:1054A000F081334B19885A88914203D30020188029
:1054B0005880704722B1314A525C0270491C1980F1
:1054C0000120704770B52A4D0C46698809B100204B
:1054D00070BD01462246294832F0A1FD6C800122B0
:1054E00040F22771244801F07AFD012070BD70B5AB
:1054F0001F4D0C46698809B1002070BD0146224647
:105500001E4832F08CFD6C80012240F227711A484F
:1055100001F065FD012070BDF8B5174D40F225562C
:105520003146284601F07DFD2C1D48B120881049E8
:10553000C0B24A6802B190473146284601F090FD5A
:1055400040F227763146284601F06BFD60B168468F
:10555000FFF7A7FF18B19DF80000208004E00022AB
:105560003146284601F03BFD00202880F8BD0000B0
:105570002800002000080240004800407605002076
:105580002DE9F04381463D4887B0016001210C20A0
:1055900001F0F9FA0121080501F013FB384F082248
:1055A0000C21384600F03CFFDFF8D88008220221A9
:1055B000404600F035FF02258DF80450B8148DF8F0
:1055C0000550002400908DF8064001268DF80760F4
:1055D0006946384600F0B0FE8DF8045004208DF87E
:1055E000055000908DF806408DF8076069464046EA
:1055F00000F0A2FEADF810400C20234DADF80C4099
:10560000ADF81200CDF80890ADF80E40ADF814409A
:1056100002A9284601F0D3FB0121284601F040FCF5
:10562000012240F22551284601F0D9FC35208DF8A1
:1056300018008DF8194003208DF81A008DF81B60B2
:1056400006A800F0BAFD07B0BDE8F08370B50E4CB7
:1056500040F225552946204601F0E3FC00280BD0F6
:10566000A0880649C0B20A6802B190472946204680
:10567000BDE8704001F0F4BC70BD000030000020B7
:1056800000080240000C024000500040F0B5002429
:10569000002861D000295FD0002A5DD0002B5BD0AC
:1056A000401EC5B2491EF048521ECEB25B1E0168B4
:1056B000D7B21FFA83FC41F001010160016841F09B
:1056C00001010160E84910310A6842F080620A6015
:1056D0000A6842F000720A60016841F0020101604C
:1056E000E248016821F070610160016841F00061E9
:1056F0000160016841F000710160DC480830016818
:1057000021F070610160016841F000710160016881
:1057100041F000610160D5482430016841F4102156
:105720000160016841F410010160D0480C3001684B
:1057300021F070610160016841F0807101600168D1
:1057400041F080610160CA4800230360016841F0B4
:1057500001010160021D07E00120F0BD641CA4B23C
:10576000642C01D90220F0BD1168C907F6D0016888
:1057700001600168016001680160016841F0100189
:1057800001600168016001680160B9491C310B606A
:10579000D1F800E0C1F800E0D1F800E0C1F800E085
:1057A000D1F800E04EEA05650D600D6845EA065542
:1057B0000D600D6845EA07450D600D6845EA0C056A
:1057C0000D60016821F0010101604FF6F07005E005
:1057D000641CA4B2844201D90320F0BD1168C9073A
:1057E000F6D1A448016841F001010160A1491C31D2
:1057F0000A6822F480420A609E4A0C32146844F41B
:1058000080441460021D13609A4A143214681460B4
:10581000984AB0321360121D13600A6842F4804245
:105820000A60016803600020F0BDF0B5924CDDE92C
:10583000057504EB0014D4F8B06916F00406167070
:10584000D4F8B02931D0D2080A60D4F8B01901F0E8
:1058500002011970D4F8B41901F00F013970D4F8AD
:10586000B8192970D4F8B819090A6970D4F8B819A8
:10587000090CA970D4F8B819090EE970D4F8BC194C
:105880002971D4F8BC19090A6971D4F8BC19090C3A
:10589000A971D4F8BC19090EE97140B174481030EF
:1058A000016841F020010160F0BD520DCCE7704865
:1058B0000C30F5E700B587B0142102A832F0D6FB12
:1058C0000DF11300411ECDE90010831E04AA02A9A8
:1058D0000020FFF7AAFF69480168002901D002A84B
:1058E000884707B000BDF8B5002413460091012594
:1058F0002246214600F035F8074640F6FF76384646
:1059000000F082F8072805D0641CA4B2B442F6D394
:105910002846F8BD0025FBE730B5054687B00024D2
:10592000534802940C308DF80C40006810F00300CE
:1059300015D003A8CDE9000105AB04AA02A90020F7
:10594000FFF773FF0298A84205D19DF8100010B927
:105950009DF8140008B18DF80C409DF80C0007B0BC
:1059600030BDF0B506464248059D08300468640124
:1059700001D5002008E00468240101D5012003E0DE
:105980000068C0003CD502203B4C002704EB00140B
:10599000C4F8807999B3F600D4F880793743C4F815
:1059A0008079D4F8806946EA8101C4F88019D4F876
:1059B000801941EA4201C4F88019D4F8842903F01F
:1059C0000F0122F00F02C4F88429D4F884290A4375
:1059D000C4F884292979D5F8052041EA0221C4F8C0
:1059E0008C192978D5F8012041EA0221C4F88819D8
:1059F000D4F8801941F00101C4F88019F0BD01E02C
:105A0000FF20FBE77605C7E71949083128B10128CF
:105A100010D002281BD00520704708680A6800F0E3
:105A2000010002F002020243086800F0806042EACE
:105A30001060704708680A6800F0010002F0020276
:105A40000243086800F0006042EA5060704708684E
:105A50000A6800F0010002F002020243086800F048
:105A6000805042EA906070473038024000040240A3
:105A700000680040006600400060004034000020E4
:105A800010B5164A4FF480435C10911C022805D0D3
:105A9000012806D04FF4C040088010BD14800B8050
:105AA00010BD0C80138010BD0D48016841F020012D
:105AB00001600A481838016821F0406101600168FE
:105AC00021F040510160016841F08061016001688E
:105AD00041F0805101600020D2E70000181402401C
