:020000040800F2
:1000000078D70120FD700008E9030008EB03000821
:10001000ED030008EF030008F103000800000000F2
:10002000000000000000000000000000B101000816
:10003000F3030008000000000D02000875A100088D
:100040001771000817710008177100082969000866
:100050001771000817710008177100081771000860
:100060001771000817710008177100081771000850
:100070001771000817710008177100081771000840
:100080001771000817710008177100081771000830
:100090001771000817710008177100081771000820
:1000A00065500008FF630008177100081771000809
:1000B00017710008910300081771000817710008F4
:1000C00017710008177100081771000817710008F0
:1000D000177100084156000855700008E1570008E4
:1000E000177100080B6900081771000817710008E4
:1000F00017710008177100081771000817710008C0
:1001000017710008177100081771000817710008AF
:1001100017710008155900081771000817710008B9
:1001200071060008177100081771000817710008A0
:10013000177100081771000817710008177100087F
:10014000415C00081771000817710008D9C3030843
:10015000177100081771000817710008DD5F0008AB
:10016000177100081771000817710008177100084F
:10017000177100081771000817710008177100083F
:100180001771000817710008DFF80CD03DF0CCF9AA
:10019000004800476503000878D7012030BF72B6D9
:1001A000704762B6704780F30888704768467047AA
:1001B0002C4B19680868B0E8F04F80F30988BFF34A
:1001C0006F8F4FF0000080F311887047000000002F
:1001D00008480068006880F308884FF0000080F34A
:1001E000148862B661B6BFF34F8FBFF36F8F00DF25
:1001F00000BF00BF08ED00E0DFF80C00016841F42B
:1002000070010160704700BF88ED00E0EFF30980E6
:10021000BFF36F8F134B1A681EF0100F08BF20ED4D
:10022000108A20E9F04F106009B44FF0100080F3FD
:100230001188BFF34F8FBFF36F8F09F06CF84FF049
:10024000000080F3118809BC19680868B0E8F04F15
:100250001EF0100F08BFB0EC108A80F30988BFF3BE
:100260006F8F704790000020EFF30580704700000B
:100270007FB50C4605460121022007F070FC019570
:10028000ADF800400024494DADF80240ADF80840FB
:100290006946284607F056FF01221146284608F015
:1002A000DAFA0121284607F0C5FF1D208DF80C0061
:1002B0008DF80D4002208DF80E0001208DF80F0002
:1002C00003A806F032FF7FBD86B04FF4A06006F0B1
:1002D00027FF4FF47A6034F0A5FE00F0D4FE04F05E
:1002E00014FD06F0F2FB012000F00EFD0CF077FC8F
:1002F00009F092FF0AF017F8532140F2CF70FFF790
:10030000B7FF33F00FFC142168463CF079F9002068
:100310004FF4FA74059026A31422694627A034F0FE
:10032000A9FF05AA27A168463CF0E0F901280FD1F2
:10033000059868B135F0CCF936F09AFC002101201F
:1003400009F096FF28F004FD022034F06BFEF5E77B
:10035000204634F067FEDEE71E4800680168491C4D
:10036000016070470EB5A82006F060FC06F0C2FCE4
:10037000032002A9CDE90001002341F2707216A109
:10038000AFF2BB0008F075FD09F001F900200EBDC9
:1003900010B5064C10342088C00702D0022025F08A
:1003A0007DFD4FF6FE70208010BD0000000400406F
:1003B00049534374726C496E697400004374726CE3
:1003C0000000000049534374726C496E6974202523
:1003D00064000000000000204F7574736964655F5D
:1003E0006D6F746F720000007047FEE7FEE7FEE776
:1003F000FEE770470CB500205449019000900A6850
:1004000042F480320A604FF4A0430A6802F40032DA
:100410000092019A521C0192009A12B9019A9A42D2
:10042000F3D10A68920334D5012000904748403048
:10043000026842F0805202604548026842F440423D
:1004400002604248083002680260026842F40042DA
:100450000260026842F4A0520260031F3D4A1A6023
:100460000A6842F080720A600A689201FCD53A4A32
:1004700040F205711160016821F00301016001681B
:1004800041F0020101600168C1F381010229FAD142
:100490000CBD00900CBD314810B5016841F47001ED
:1004A00001602A48016841F001010160274A0021EA
:1004B0000832116002682A4B1A400260031D294A63
:1004C0001A60026822F48022026020480C30016029
:1004D000FFF790FF21494FF000608039086010BDA0
:1004E00070B51A4C083420681F4A10F00C011F48E0
:1004F00004D05510042903D0082903D002601BE062
:10050000056019E01149091D0B68C3F380560B689B
:1005100003F03F0316B1B5FBF3F201E0B2FBF3F2D7
:100520000B680968C3F388135A43C1F30141491C9E
:100530004900B2FBF1F1016021680C4AC1F30311DB
:10054000121D515C0268CA40026070BD0038024052
:100550000070004008544007003C024088ED00E075
:10056000FFFFF6FE103000240024F40004000020F9
:1005700001B5BDF80000ADF80000BDF800004FF077
:10058000D841A1F87E0008BD01B5BDF80000ADF866
:100590000000BDF800004FF0D841A1F8800008BD70
:1005A00008B54FF0D840B0F88000ADF80000BDF8B5
:1005B000000008BD4FF0D84222F87E0F51807047EE
:1005C00010B5FFF7D5FF052006F036FBBDE810405B
:1005D000E6E7F8484FF0D8410089A1F87E0070475F
:1005E0004FF0D841A1F880007047C0F34511C20A0E
:1005F000C00200EB4110104480B27047F8B50121F1
:10060000880507F08EFAEB48103008F0ABFAE9489D
:100610000024103080210460C1608900C0E9051405
:100620008900C1618900C0E9081400F128020901AC
:10063000012682E852004463DF4D01468463284668
:1006400008F068FADC49601E08390860286840F044
:100650001000286038208DF800008DF8014004203B
:100660008DF802008DF80360684606F05EFDF8BD67
:10067000D14810B510380068D049084204D009F0BC
:10068000E6FDCF4900204860CB494FF0FF300839E4
:10069000086010BDC84B08331860181D0160181F92
:1006A00002604CF250318A4200D90160C2494FF0D9
:1006B000FF3008390860C249012048600146BE4841
:1006C00008F061BA401EC0B2FCD27047F0B5B94E16
:1006D00002463346B0880C464FEA112C150A5B8956
:1006E000A0F5134141391AD0A0F5A641103916D012
:1006F000B646B1793688A0F5D047B61A761E043FC3
:1007000018D07746A0F5C85EBEF1630E27D0A0F5DD
:10071000A04EBEF5A26E5BD0012974D074E01846DD
:10072000FFF726FF2846FFF72FFFD0B2FFF72CFF79
:10073000B0890DE07546012900D1B2B21846FFF725
:1007400017FF100AFFF720FFD0B2FFF71DFFA8899F
:10075000FFF70EFF6046FFF717FFE0B226E041B358
:100760001846FFF705FF2846FFF70EFFD0B2FFF748
:100770000BFF3888401EC0F30F20FFF705FF3878C5
:10078000401EC0B2FFF700FFB889FFF7F1FE6046D8
:10079000FFF7FAFEE0B2FFF7F7FE7888401EC0F3DD
:1007A0000F20FFF7F1FEB878401EC0B2BDE8F04060
:1007B000EAE6B2B21846FFF7DBFE0020FFF7E4FEE0
:1007C0000020FFF7E1FE100AFFF7DEFED0B2D9E706
:1007D0001846FFF7CDFE2846FFF7D6FE7889401C65
:1007E00080B2FFF7C5FED0B2FFF7CEFEB889FFF7A3
:1007F000BFFE6046FFF7C8FEB889401C80B2FFF715
:10080000B7FEAAE7FFE7B2B211461846FFF7D2FEDD
:10081000B8892146BDE8F040CCE62DE9F041654CB1
:10082000002635462288824202D962888A4202D84E
:100830000020BDE8F081FFF749FFA08849F2413868
:1008400041F6631C45F2103245F21057404507D07F
:10085000A0F5D041043903D0904201D0604501D1C8
:100860002E2005E0B84202D14FF4385000E022209B
:10087000FFF77EFEA088A0F51341203903D10120A7
:10088000401EC0B2FCD2FFF78BFEA1886145D0D0DC
:100890000120401EC0B2FCD2FFF782FE0146A088B4
:1008A000C446604503D0904201D0B8420BD101202C
:1008B000401EC0B2FCD2FFF773FE0546C8B24FF629
:1008C000FF7303EA0026A088A0F51343253B1AD046
:1008D000A0F58A43353B16D01B1D14D0A0F5354337
:1008E000053B10D0B3F580530DD0604503D0904246
:1008F00001D0B84209D1C80AC002B10A40EA411089
:1009000040EAD52095E7084693E7BDE8F041084660
:100910006BE628488088A0F51341413913D0A0F533
:10092000D04104390FD0A0F5A64110390BD0A0F565
:10093000C851633907D0A0F5AA41103905D040F25B
:100940007311072036E6292001E04FF424500FE60A
:1009500018488088A0F51341413912D0A0F5D04144
:1009600004390ED0A0F5A64110390AD0A0F5C8511F
:10097000633906D0A0F5AA41103904D00021072020
:1009800018E6282001E04FF42050F1E5F0B5094CBD
:1009900000232146A579898846F6040241F66316AC
:1009A000012D01D075B126E0914224D0B1420BD186
:1009B00021E00000E00500201064024020800010CB
:1009C00018000020B14216D1082814D2DFE800F048
:1009D0000406080A0C0E101206200CE007200AE09C
:1009E000042008E0052006E0012004E0002002E0E9
:1009F000032000E00220A1F5134C45F2103745F228
:100A00001055BCF1410C07D0914205D0B94203D03A
:100A1000A94201D0B1427BD1082812D2DFE800F010
:100A2000110406080A0C0E1080230AE0402308E097
:100A3000C02306E0202304E0602302E0A02300E0BE
:100A4000E023A94202D14FF4585000E03620B942C9
:100A500005D0A94203D0B14201D043F0080391422E
:100A600001D143F002031946FFF7A4FDA188B1426A
:100A70000AD098062088628802D5904202D303E00B
:100A8000904201D9228060806089A94241D1FFF75C
:100A90006FFD0020FFF778FD6089401C80B2FFF7F2
:100AA00067FD0020FFF770FD6089801C80B2FFF7B2
:100AB0005FFD2088401EC0F30F20FFF765FD6089B1
:100AC000C01C80B2FFF754FD2078401EC0B2FFF773
:100AD0005BFDA089FFF74CFD0020FFF755FDA089C5
:100AE000401C80B2FFF744FD0020FFF74DFDA089B8
:100AF000801C80B2FFF73CFD6088401EC0F30F20D1
:100B0000FFF742FDA089C01C80B2FFF731FD22E053
:100B100027E0FFF72DFD0020FFF736FD0020FFF74F
:100B200033FD2088401EC0F30F20FFF72DFD2078F5
:100B3000401EC0B2FFF728FDA089FFF719FD002075
:100B4000FFF722FD0020FFF71FFD6088401EC0F365
:100B50000F20FFF719FDA078BDE8F040401EC0B29D
:100B600012E5082812D2DFE800F0040608110A0C8A
:100B70000E1030230AE0102308E0202306E038237B
:100B800004E0282302E0182300E00823BDE8F04039
:100B9000032043F480510DE500B5FFF797FDFFF703
:100BA00018FDFE484FF0D8410088A1F8800000BD34
:100BB0002DE9F041FA4C90460246A08823460D46A6
:100BC0004FEA112C160A5B89A0F51341413916D062
:100BD000A0F5A641103912D0B1F5007114D0264607
:100BE000A0F5C857B1793688B61A761E633F25D06E
:100BF000A0F5D047043F3DD0012951D051E018461F
:100C0000FFF7B6FC30463CE01846FFF7B1FC304633
:100C1000FFF7BAFC6089401C80B2FFF7A9FCD0B294
:100C2000FFF7B2FCA089FFF7A3FC6046FFF7ACFC1E
:100C3000A089401C80B2FFF79BFC2DE001B9B2B245
:100C40001846FFF795FC160A3046FFF79DFCD0B218
:100C5000FFF79AFC3046FFF797FCD0B2FFF794FC01
:100C6000A089FFF785FC6046FFF78EFCE8B2FFF72E
:100C70008BFC0EE0012900D1B2B21846FFF778FCD8
:100C8000100AFFF781FCD0B2FFF77EFCA089FFF7C6
:100C90006FFC6046FFF778FCE8B2FFF775FC08E0F0
:100CA000B2B211461846FFF785FCA0892946FFF726
:100CB00081FC4FF0D840218920F87E1FA0F80280E7
:100CC000B7E510B50246BE20FFF752FC0520FFF73E
:100CD0005BFC10463CF05AF89FEDB21B53EC112B15
:100CE0003BF062FF3CF07EF880B2FFF74DFC012044
:100CF000FFF74AFCFF20FFF747FC0020FFF744FC0A
:100D0000BDE8104000203FE42DE9F04FA4492A241B
:100D10002B25898845F2105A4FF4305B4FF4285E3A
:100D20004FF448764FF0F00C49F241394FF4A0737C
:100D300045F210374FF4F07280B199484FF0010836
:100D4000494580F806800380A0F802C001D0B9426E
:100D50003ED12C2606814481858157E090484FF092
:100D60000008494580F80680A0F800C0438006D0FE
:100D7000A1F5D04CBCF1040C01D0B9420CD12C2609
:100D800006814481A1F5D0448581043C01D0B9425B
:100D900044D10380428041E0514507D1A0F808B01A
:100DA000A0F80AE04FF42C5181810EE0A1F5C85360
:100DB000633B06D0222101812021418121218181B3
:100DC0002CE02C210181458184810280468025E030
:100DD000A1F5D04CBCF1040C09D051450BD1A0F8C1
:100DE00008B0A0F80AE04FF42C54848120E02C26AF
:100DF0000681458109E0A1F5C85CBCF1630C11D006
:100E0000222404812124448120248481A1F5D0441A
:100E1000043C01D0B94201D102804380BDE8F04FCB
:100E20000020B3E54FF02C0CA0F808C04481858168
:100E300006804280EAE72DE9FE4F0446104401EBAC
:100E40000308DFF85C91401EA8F1010887B2B9F8E9
:100E50000400C8F3072302930B0A0093A3185B1E38
:100E6000C3F3072301934B460D465B89A0F513415D
:100E70001FFA88F64FEA142B413912D0A0F5A04C86
:100E8000BCF5447C0DD0A0F5D04CBCF1040C08D0CE
:100E900099F806A041F6631CBAF1010F1ED1604516
:100EA0001CD14A461846FFF763FB5846FFF76CFB18
:100EB000E0B2FFF769FB0198FFF766FBF8B2FFF7B6
:100EC00063FB9089FFF754FB0098FFF75DFBE8B2E6
:100ED000FFF75AFB0298FFF757FB95E03049604552
:100EE000098825D1881A001B84B24E461FFA88F75C
:100EF0001846FFF73DFB200AFFF746FBE0B2FFF77D
:100F000043FB2244521EC2F30F20FFF73DFBD0B239
:100F1000FFF73AFBB089FFF72BFB0098FFF734FB94
:100F2000E8B2FFF731FB380AFFF72EFBF8B26CE0AE
:100F3000A0F5A04C4A46BCF5A26C23D0BAF1010F33
:100F400067D03B4620462F46502201464FF05109BC
:100F50004FF052084FF0530C1046FFF72BFB194689
:100F60004846FFF727FB39464046FFF723FB31464B
:100F70006046FFF71FFB03B029462046BDE8F04F4F
:100F8000FFF7A4BB1846FFF7F3FA5846FFF7FCFA41
:100F90005089401C80B2FFF7EBFA07E018000020F0
:100FA000E00500206666666666660440E0B2FFF70C
:100FB000EBFA5089801C80B2FFF7DAFA0198FFF74C
:100FC000E3FA5089C01C80B2FFF7D2FAF8B2FFF7FB
:100FD000DBFA9089FFF7CCFA0098FFF7D5FA9089F1
:100FE000401C80B2FFF7C4FAE8B2FFF7CDFA90894F
:100FF000801C80B2FFF7BCFA0298FFF7C5FA90890F
:10100000C01C80B2FFF7B4FAF0B2BDE8FE4FFFF7A4
:10101000BBBACA1B521E091B3346491E284697B24B
:101020008EB291E72DE9F043FF4C814600252088E0
:1010300066884643A088A0F5D041043902D1A07942
:10104000012808D000210846FFF740FBFFF7C1FA4E
:101050004FF0D84013E00020A0712A2767814FF09D
:101060002B08A4F80C800146FFF730FB0120A0718B
:10107000A4F80A80A781E9E7A0F880906D1CB5422A
:10108000FAD3BDE8F0832DE9F04FA1B0002411940C
:10109000FFF7B4FA01217A2006F043FD012108464A
:1010A00006F053FD01208DF804008DF80640022063
:1010B0008DF80500012008258DF807000095694688
:1010C000DA4806F0F1F84CF23370009002208DF807
:1010D00004008DF8064003208DF8050001208DF8EE
:1010E00007006946D24806F0DFF84FF6807000909E
:1010F00002208DF804008DF8064003208DF80500CD
:101100000120CC4E8DF807006946304606F0CCF839
:101110006802009002208DF804008DF8064003203C
:101120008DF805000120C44F8DF807006946384648
:1011300006F0BAF86802009002208DF804008DF8DD
:10114000064003208DF8050001208DF80700694650
:10115000B64806F0A9F80C220021B54806F02DF992
:101160000C220121B24806F028F90C220421B048D3
:1011700006F023F90C220521AD4806F01EF90C22D9
:101180000821AB4806F019F90C220921A84806F0FD
:1011900014F90C220A21A64806F00FF90C220E21A0
:1011A000A34806F00AF90C220F21A14806F005F920
:1011B0000C220721304606F000F90C2208213046A7
:1011C00006F0FBF80C220921304606F0F6F80C2256
:1011D0000A21304606F0F1F80C220B21304606F0C9
:1011E000ECF80C221146304606F0E7F80C220D21EF
:1011F000304606F0E2F80C220E21304606F0DDF80B
:101200000C220F21304606F0D8F80C221146384641
:1012100006F0D3F80C221146844806F0CEF80F20D1
:10122000CDE91A043C20CDE91C0413A91E941F9497
:101230000920209481E83100169417940620CDE906
:101240000204189419941020CDE904400694000279
:10125000CDE90A40089407948000CDE90C40099438
:101260001AA8CDE90E4013A8109002A806F0E0F8E5
:101270000121062006F055F96C4C18342580012018
:1012800005F0F6FCA01C0580012005F0F1FC25808E
:10129000322005F0EDFC01210020FFF78BF9322010
:1012A00005F0E6FC0020FFF78BF9DFF87CC14FF07A
:1012B00020494FF6FF78ACF8040049F2413545F279
:1012C000103645F2105441F6631246F60407FF2823
:1012D00004D3404502D0B0F5134F7DD1D320FFF7A2
:1012E00047F9FFF75DF9ACF80400FFF759F9ACF8DE
:1012F0000400FFF755F908EA0020ACF80400FFF7F6
:101300004FF9BCF804100843ACF80400A84273D0AD
:10131000BF20FFF72DF9FFF743F9ACF80400FFF702
:101320003FF9ACF80400FFF73BF9ACF80400FFF715
:1013300037F908EA0020ACF80400FFF731F9BCF8EF
:1013400004100843ACF80400B84255D0D420FFF78D
:101350000FF9FFF725F9ACF80400FFF721F9ACF815
:101360000400FFF71DF908EA0020ACF80400FFF7BD
:1013700017F9BCF804100843ACF80400B0423BD0A5
:101380004FF45A40FFF7F4F8FFF70AF9ACF80400FD
:101390004FF45B40FFF7ECF8FFF702F908EA002092
:1013A000ACF804004FF45C40FFF7E2F8FFF7F8F800
:1013B000BCF804100843ACF80400B0F5004F4BD063
:1013C000A04219D0A120FFF7D3F8FFF7E9F8ACF855
:1013D0000400FFF7E5F800E00EE008EA0020ACF8B2
:1013E0000400FFF7DDF8BCF804100843A0F5AE4197
:1013F000ACF8040061392CD080B2A84205D0B042CC
:1014000003D0A04201D0904229D1D9F81C114846FE
:1014100021F00F01C9F81C11D9F81C1121F47061D9
:10142000C9F81C110AE00000E00500200018024085
:10143000000C02400010024000140240D9F81C11B8
:1014400041F00301C9F81C11D9F81C1141F40071D5
:1014500022E0ACF80420D8E7ACF80440D5E7B84265
:1014600003D0A0F54541053918D1D9F81C114846DB
:1014700021F00F01C9F81C11D9F81C1121F4706179
:10148000C9F81C11D9F81C1141F00A01C9F81C1146
:10149000D9F81C1141F44061C0F81C11BCF80400DB
:1014A000A8427CD1CF20FFF763F80020FFF76CF84B
:1014B000C120FFF769F83020FFF766F8ED20FFF74D
:1014C00057F86420FFF760F80320FFF75DF812205B
:1014D000FFF75AF88120FFF757F8E820FFF748F8A0
:1014E0008520FFF751F81020FFF74EF87A20FFF71C
:1014F0004BF8CB20FFF73CF83920FFF745F82C20BC
:10150000FFF742F80020FFF73FF83420FFF73CF8E0
:101510000220FFF739F8F720FFF72AF82020FFF71D
:1015200033F8EA20FFF724F80020FFF72DF8002019
:10153000FFF72AF8C020FFF71BF81B20FFF724F85D
:10154000C120FFF715F80120FFF71EF8C520FFF7AF
:101550000FF83020FFF718F83020FFF715F8C720F4
:10156000FFF706F8B720FFF70FF83620FFF700F86F
:101570004820FFF709F83A20FEF7FAFF5520FFF759
:1015800003F8B120FEF7F4FF0020FEF7FDFF1A205C
:10159000FEF7FAFFB620FEF7EBFF0A2000E092E02C
:1015A000FEF7F2FFA220FEF7EFFFF220FEF7E0FFCA
:1015B0000020FEF7E9FF2620FEF7DAFF0120FEF704
:1015C000E3FFE020FEF7D4FF0F20FEF7DDFF2A2027
:1015D000FEF7DAFF2820FEF7D7FF0820FEF7D4FF3A
:1015E0000E20FEF7D1FF0820FEF7CEFF5420FEF7B5
:1015F000CBFFA920FEF7C8FF4320FEF7C5FF0A2056
:10160000FEF7C2FF0F20FEF7BFFF0020FEF7BCFF72
:101610000020FEF7B9FF0020FEF7B6FF0020FEF71E
:10162000B3FFE120FEF7A4FF0020FEF7ADFF152079
:10163000FEF7AAFF1720FEF7A7FF0720FEF7A4FF7B
:101640001120FEF7A1FF0620FEF79EFF2B20FEF7DC
:101650009BFF5620FEF798FF3C20FEF795FF0520E4
:10166000FEF792FF1020FEF78FFF0F20FEF78CFF92
:101670003F20FEF789FF3F20FEF786FF0F20FEF791
:1016800083FF2B20FEF774FF0020FEF77DFF002074
:10169000FEF77AFF0120FEF777FF3F20FEF774FF89
:1016A0002A20FEF765FF0020FEF76EFF0020FEF700
:1016B0006BFF0020FEF768FFEF20FEF765FF1120AB
:1016C000FEF756FFA5E0B8427ED11120FEF750FF8D
:1016D000142005F0CDFAD020FEF74AFF0720FEF7D0
:1016E00053FF4220FEF750FF1D20FEF74DFFD12093
:1016F000FEF73EFF0020FEF747FF1A20FEF744FFEB
:101700000920FEF741FFD220FEF732FF0120FEF74D
:101710003BFF2220FEF738FFC020FEF729FF1020F4
:10172000FEF732FF3B20FEF72FFF0020FEF72CFFD5
:101730000220FEF729FF1120FEF726FFC520FEF745
:1017400017FF0320FEF720FFC820FEF711FF00203F
:10175000FEF71AFF2520FEF717FF2120FEF714FFE2
:101760000520FEF711FF0020FEF70EFF0A20FEF70E
:101770000BFF6520FEF708FF2520FEF705FF772009
:10178000FEF702FF5020FEF7FFFE0F20FEF7FCFEE3
:101790000020FEF7F9FEF820FEF7EAFE0120FEF732
:1017A000F3FEFE20FEF7E4FE0020FEF7EDFE022031
:1017B000FEF7EAFE2020FEF7DBFE3620FEF7D8FE1D
:1017C0000820FEF7E1FE00E029E03A20FEF7D0FE17
:1017D0005520FEF7D9FE2B20FEF7CAFE0020FEF7AB
:1017E000D3FE0020FEF7D0FE0120FEF7CDFE3F2005
:1017F000FEF7CAFE2A20FEF7BBFE0020FEF7C4FE5D
:101800000020FEF7C1FE0120FEF7BEFEDF20FEF73E
:10181000BBFE782005F02CFA292001F0FBBEB04277
:101820007ED1ED20FEF7A4FE0120FEF7ADFEFE20E6
:10183000FEF7AAFEEE20FEF79BFEDE20FEF7A4FEDA
:101840002120FEF7A1FEF120FEF792FE0120FEF717
:101850009BFEDF20FEF78CFE1020FEF795FEC420D5
:10186000FEF786FE8F20FEF78FFEC620FEF780FE75
:101870000020FEF789FEE220FEF786FEE220FEF75A
:1018800083FEE220FEF780FEBF20FEF771FEAA2055
:10189000FEF77AFEB020FEF76BFE0D20FEF774FE19
:1018A0000020FEF771FE0D20FEF76EFE0020FEF711
:1018B0006BFE1120FEF768FE0020FEF765FE192082
:1018C000FEF762FE0020FEF75FFE2120FEF75CFEC1
:1018D0000020FEF759FE2D20FEF756FE0020FEF7F1
:1018E00053FE3D20FEF750FE0020FEF74DFE5D202A
:1018F000FEF74AFE0020FEF747FE5D20FEF744FE9D
:101900000020FEF741FEB120FEF732FE8020FEF7F8
:101910003BFE0020FEF738FE8B20FEF735FE00E090
:10192000FDE30020FEF730FE9620FEF72DFE00209E
:10193000FEF72AFEB220FEF71BFE0020FEF724FE73
:101940000020FEF721FE0220FEF71EFE0020FEF71B
:101950001BFE0320FEF718FE0020FEF715FEB32045
:10196000FEF706FE0020FEF70FFE0020FEF70CFE3D
:101970000020FEF709FE0020FEF706FE0020FEF71D
:1019800003FE0020FEF700FE0020FEF7FDFD002014
:10199000FEF7FAFD0020FEF7F7FD0020FEF7F4FD4C
:1019A0000020FEF7F1FD0020FEF7EEFD0020FEF71F
:1019B000EBFD0020FEF7E8FD0020FEF7E5FD00202E
:1019C000FEF7E2FD0020FEF7DFFD0020FEF7DCFD64
:1019D0000020FEF7D9FD0020FEF7D6FD0020FEF71F
:1019E000D3FD0020FEF7D0FD0020FEF7CDFD002046
:1019F000FEF7CAFDB420FEF7BBFD8B20FEF7C4FD49
:101A00000020FEF7C1FD9620FEF7BEFD0020FEF788
:101A1000BBFDA120FEF7B8FD0020FEF7B5FDB52007
:101A2000FEF7A6FD0220FEF7AFFD0020FEF7ACFD9D
:101A30000320FEF7A9FD0020FEF7A6FD0420FEF717
:101A4000A3FD0020FEF7A0FDB620FEF791FD0020CB
:101A5000FEF79AFD0020FEF797FDB720FEF788FD00
:101A60000020FEF791FD0020FEF78EFD3F20FEF7DF
:101A70008BFD0020FEF788FD5E20FEF785FD00202F
:101A8000FEF782FD6420FEF77FFD0020FEF77CFD5F
:101A90008C20FEF779FD0020FEF776FDAC20FEF7E6
:101AA00073FD0020FEF770FDDC20FEF76DFD0020C9
:101AB000FEF76AFD7020FEF767FD0020FEF764FD6B
:101AC0009020FEF761FD0020FEF75EFDEB20FEF7A3
:101AD0005BFD0020FEF758FDDC20FEF755FD0020E1
:101AE000FEF752FDB820FEF743FD0020FEF74CFD47
:101AF0000020FEF749FD0020FEF746FD0020FEF71E
:101B000043FD0020FEF740FD0020FEF73DFD0020D4
:101B1000FEF73AFD0020FEF737FDBA20FEF728FD5C
:101B20002420FEF731FD0020FEF72EFD0020FEF7F9
:101B30002BFD0020FEF728FDC120FEF719FD202017
:101B4000FEF722FD0020FEF71FFD5420FEF71CFDCE
:101B50000020FEF719FDFF20FEF716FD0020FEF71E
:101B600013FDC220FEF704FD0A20FEF70DFD002044
:101B7000FEF70AFD0420FEF707FD0020FEF704FD36
:101B8000C320FEF7F5FC3C20FEF7FEFC0020FEF72C
:101B9000FBFC3A20FEF7F8FC0020FEF7F5FC3920AC
:101BA000FEF7F2FC0020FEF7EFFC3720FEF7ECFC1E
:101BB0000020FEF7E9FC3C20FEF7E6FC0020FEF7E3
:101BC000E3FC3620FEF7E0FC0020FEF7DDFC3220CF
:101BD000FEF7DAFC0020FEF7D7FC2F20FEF7D4FC3E
:101BE0000020FEF7D1FC2C20FEF7CEFC0020FEF7F3
:101BF000CBFC2920FEF7C8FC0020FEF7C5FC262000
:101C0000FEF7C2FC0020FEF7BFFC2420FEF7BCFC60
:101C10000020FEF7B9FC2420FEF7B6FC0020FEF7FA
:101C2000B3FC2320FEF7B0FC0020FEF7ADFC3C2007
:101C3000FEF7AAFC0020FEF7A7FC3620FEF7A4FC66
:101C40000020FEF7A1FC3220FEF79EFC0020FEF7EC
:101C50009BFC2F20FEF798FC0020FEF795FC2C2023
:101C6000FEF792FC0020FEF78FFC2920FEF78CFC8B
:101C70000020FEF789FC2620FEF786FC0020FEF7F8
:101C800083FC2420FEF780FC0020FEF77DFC24204E
:101C9000FEF77AFC0020FEF777FC2320FEF774FCA9
:101CA0000020FEF771FCC420FEF762FC6220FEF704
:101CB0006BFC0020FEF768FC0520FEF765FC0020A9
:101CC000FEF762FC8420FEF75FFC0020FEF75CFC60
:101CD000F020FEF759FC0020FEF756FC1820FEF716
:101CE00053FC0020FEF750FCA420FEF74DFC002022
:101CF000FEF74AFC1820FEF747FC0020FEF744FCE4
:101D00005020FEF741FC0020FEF73EFC0C20FEF7C1
:101D10003BFC0020FEF738FC1720FEF735FC0020C6
:101D2000FEF732FC9520FEF72FFC0020FEF72CFC7E
:101D3000F320FEF729FC0020FEF726FCE620FEF744
:101D400023FC0020FEF720FCC520FEF711FC32200A
:101D5000FEF71AFC0020FEF717FC4420FEF714FCE7
:101D60000020FEF711FC6520FEF70EFC0020FEF7B8
:101D70000BFC7620FEF708FC0020FEF705FC88200F
:101D8000FEF702FC0020FEF7FFFBC620FEF7F0FB8B
:101D90002020FEF7F9FB0020FEF7F6FB1720FEF7E8
:101DA000F3FB0020FEF7F0FB0120FEF7EDFB002027
:101DB000FEF7EAFBC720FEF7DBFB0020FEF7E4FBA3
:101DC0000020FEF7E1FB0020FEF7DEFB0020FEF71F
:101DD000DBFBC820FEF7CCFB0020FEF7D5FB002084
:101DE000FEF7D2FB0020FEF7CFFB0020FEF7CCFB76
:101DF000C920FEF7BDFB0020FEF7C6FB0020FEF762
:101E0000C3FB0020FEF7C0FB0020FEF7BDFB002057
:101E1000FEF7BAFB0020FEF7B7FB0020FEF7B4FB8D
:101E20000020FEF7B1FB0020FEF7AEFB0020FEF71E
:101E3000ABFB0020FEF7A8FB0020FEF7A5FB00206F
:101E4000FEF7A2FB0020FEF79FFB0020FEF79CFBA5
:101E50000020FEF799FBE020FEF78AFB1620FEF734
:101E600093FB0020FEF790FB1C20FEF78DFB00206B
:101E7000FEF78AFB2120FEF787FB0020FEF784FB9C
:101E80003620FEF781FB0020FEF77EFB4620FEF7A2
:101E90007BFB0020FEF778FB5220FEF775FB00204D
:101EA000FEF772FB6420FEF76FFB0020FEF76CFB71
:101EB0007A20FEF769FB0020FEF766FB8B20FEF719
:101EC00063FB0020FEF760FB9920FEF75DFB00201E
:101ED000FEF75AFBA820FEF757FB0020FEF754FB45
:101EE000B920FEF751FB0020FEF74EFBC420FEF7A1
:101EF0004BFB0020FEF748FBCA20FEF745FB002005
:101F0000FEF742FBD220FEF73FFB0020FEF73CFB32
:101F1000D920FEF739FB0020FEF736FBE020FEF764
:101F200033FB0020FEF730FBF320FEF72DFB0020F3
:101F3000FEF72AFBE120FEF71BFB1620FEF724FB31
:101F40000020FEF721FB1C20FEF71EFB0020FEF701
:101F50001BFB2220FEF718FB0020FEF715FB3620A6
:101F6000FEF712FB0020FEF70FFB4520FEF70CFBEF
:101F70000020FEF709FB5220FEF706FB0020FEF7CB
:101F800003FB6420FEF700FB0020FEF7FDFA7A2039
:101F9000FEF7FAFA0020FEF7F7FA8B20FEF7F4FAC4
:101FA0000020FEF7F1FA9920FEF7EEFA0020FEF786
:101FB000EBFAA820FEF7E8FA0020FEF7E5FAB920D0
:101FC000FEF7E2FA0020FEF7DFFAC420FEF7DCFAA3
:101FD0000020FEF7D9FACA20FEF7D6FA0020FEF755
:101FE000D3FAD220FEF7D0FA0020FEF7CDFAD8209F
:101FF000FEF7CAFA0020FEF7C7FAE020FEF7C4FA9F
:102000000020FEF7C1FAF320FEF7BEFA0020FEF72B
:10201000BBFAE220FEF7ACFA0520FEF7B5FA002085
:10202000FEF7B2FA0B20FEF7AFFA0020FEF7ACFA8B
:102030001B20FEF7A9FA0020FEF7A6FA3420FEF7CF
:10204000A3FA0020FEF7A0FA4420FEF79DFA002034
:10205000FEF79AFA4F20FEF797FA0020FEF794FA5F
:102060006120FEF791FA0020FEF78EFA7920FEF744
:102070008BFA0020FEF788FA8820FEF785FA002008
:10208000FEF782FA9720FEF77FFA0020FEF77CFA2F
:10209000A620FEF779FA0020FEF776FAB720FEF7C1
:1020A00073FA0020FEF770FAC220FEF76DFA0020E6
:1020B000FEF76AFAC720FEF767FA0020FEF764FA17
:1020C000D120FEF761FA0020FEF75EFAD620FEF777
:1020D0005BFA0020FEF758FADD20FEF755FA0020E3
:1020E000FEF752FAF320FEF74FFA0020FEF74CFA03
:1020F000E320FEF73DFA0520FEF746FA0020FEF742
:1021000043FA0A20FEF740FA0020FEF73DFA1C20B1
:10211000FEF73AFA0020FEF737FA332000E0FAE241
:10212000FEF732FA0020FEF72FFA4420FEF72CFAD1
:102130000020FEF729FA5020FEF726FA0020FEF7CD
:1021400023FA6220FEF720FA0020FEF71DFA78201D
:10215000FEF71AFA0020FEF717FA8820FEF714FAA5
:102160000020FEF711FA9720FEF70EFA0020FEF786
:102170000BFAA620FEF708FA0020FEF705FAB720B2
:10218000FEF702FA0020FEF7FFF9C220FEF7FCF985
:102190000020FEF7F9F9C720FEF7F6F90020FEF758
:1021A000F3F9D120FEF7F0F90020FEF7EDF9D52084
:1021B000FEF7EAF90020FEF7E7F9DD20FEF7E4F983
:1021C0000020FEF7E1F9F320FEF7DEF90020FEF72C
:1021D000DBF9E420FEF7CCF90120FEF7D5F9002069
:1021E000FEF7D2F90120FEF7CFF90020FEF7CCF977
:1021F0000220FEF7C9F90020FEF7C6F92A20FEF7F3
:10220000C3F90020FEF7C0F93C20FEF7BDF900201D
:10221000FEF7BAF94B20FEF7B7F90020FEF7B4F944
:102220005D20FEF7B1F90020FEF7AEF97420FEF74D
:10223000ABF90020FEF7A8F98420FEF7A5F90020ED
:10224000FEF7A2F99320FEF79FF90020FEF79CF914
:10225000A220FEF799F90020FEF796F9B320FEF7C9
:1022600093F90020FEF790F9BE20FEF78DF90020CB
:10227000FEF78AF9C420FEF787F90020FEF784F9FB
:10228000CD20FEF781F90020FEF77EF9D320FEF77E
:102290007BF90020FEF778F9DD20FEF775F90020C4
:1022A000FEF772F9F320FEF76FF90020FEF76CF9E4
:1022B000E520FEF75DF90020FEF766F90020FEF745
:1022C00063F90020FEF760F90020FEF75DF90220B7
:1022D000FEF75AF90020FEF757F92920FEF754F9C6
:1022E0000020FEF751F93C20FEF74EF90020FEF7E2
:1022F0004BF94B20FEF748F90020FEF745F95D2029
:10230000FEF742F90020FEF73FF97420FEF73CF992
:102310000020FEF739F98420FEF736F90020FEF799
:1023200033F99320FEF730F90020FEF72DF9A220B3
:10233000FEF72AF90020FEF727F9B320FEF724F96B
:102340000020FEF721F9BE20FEF71EF90020FEF75F
:102350001BF9C420FEF718F90020FEF715F9CD206F
:10236000FEF712F90020FEF70FF9D320FEF70CF963
:102370000020FEF709F9DC20FEF706F90020FEF741
:1023800003F9F320FEF700F90020FEF7FDF8E62040
:10239000FEF7EEF81120FEF7F7F80020FEF7F4F84C
:1023A0003420FEF7F1F80020FEF7EEF85620FEF795
:1023B000EBF80020FEF7E8F87620FEF7E5F80020BD
:1023C000FEF7E2F87720FEF7DFF80020FEF7DCF8F2
:1023D0006620FEF7D9F80020FEF7D6F88820FEF731
:1023E000D3F80020FEF7D0F89920FEF7CDF80020B2
:1023F000FEF7CAF8BB20FEF7C7F80020FEF7C4F8C6
:102400009920FEF7C1F80020FEF7BEF86620FEF71F
:10241000BBF80020FEF7B8F85520FEF7B5F800200D
:10242000FEF7B2F85520FEF7AFF80020FEF7ACF843
:102430004520FEF7A9F80020FEF7A6F84320FEF796
:10244000A3F80020FEF7A0F84420FEF79DF8002036
:10245000FEF79AF8E720FEF78BF83220FEF794F8A3
:102460000020FEF791F85520FEF78EF80020FEF7C9
:102470008BF87620FEF788F80020FEF785F86620B6
:10248000FEF782F80020FEF77FF86720FEF77CF861
:102490000020FEF779F86720FEF776F80020FEF7B7
:1024A00073F88720FEF770F80020FEF76DF899208A
:1024B000FEF76AF80020FEF767F8BB20FEF764F825
:1024C0000020FEF761F89920FEF75EF80020FEF785
:1024D0005BF87720FEF758F80020FEF755F8442007
:1024E000FEF752F80020FEF74FF85620FEF74CF8A2
:1024F0000020FEF749F82320FEF746F80020FEF7FB
:1025000043F83320FEF740F80020FEF73DF8452061
:10251000FEF73AF80020FEF737F8E820FEF728F833
:102520000020FEF731F80020FEF72EF89920FEF784
:102530002BF80020FEF728F88720FEF725F800206A
:10254000FEF722F88820FEF71FF80020FEF71CF89F
:102550007720FEF719F80020FEF716F86620FEF740
:1025600013F80020FEF710F88820FEF70DF8002081
:10257000FEF70AF8AA20FEF707F80020FEF704F895
:10258000BB20FEF701F80020FDF7FEFF9920FDF7C4
:10259000FBFF0020FDF7F8FF6620FDF7F5FF0020A8
:1025A000FDF7F2FF5520FDF7EFFF0020FDF7ECFFF0
:1025B0005520FDF7E9FF0020FDF7E6FF4420FDF779
:1025C000E3FF0020FDF7E0FF4420FDF7DDFF0020E2
:1025D000FDF7DAFF5520FDF7D7FF0020FDF7D4FF08
:1025E000E920FDF7C5FFAA20FDF7CEFF0020FDF78B
:1025F000CBFF0020FDF7C8FF0020FDF7C5FF00203E
:10260000FDF7B6FFAA20FDF7BFFFCF20FDF7B0FF13
:102610000020FDF7B9FF0020FDF7B6FF0020FDF711
:10262000B3FF0020FDF7B0FF0020FDF7ADFF002055
:10263000FDF7AAFF0020FDF7A7FF0020FDF7A4FF8C
:102640000020FDF7A1FF0020FDF79EFF0020FDF711
:102650009BFF0020FDF798FF0020FDF795FF00206D
:10266000FDF792FF0020FDF78FFF0020FDF78CFFA4
:102670000020FDF789FFF020FDF77AFF0020FDF72D
:1026800083FF5020FDF780FF0020FDF77DFF002035
:10269000FDF77AFF0020FDF777FFF320FDF768FFD5
:1026A0000020FDF771FFF920FDF762FF0620FDF71E
:1026B0006BFF1020FDF768FF2920FDF765FF002064
:1026C000FDF762FF3A20FDF753FF5520FDF75CFF51
:1026D0001120FDF74DFF642004F0CAFA2920FDF710
:1026E00047FF3520FDF744FF0020FDF74DFF512047
:1026F000FDF73EFFFF20FDF747FF5320FDF738FFB2
:102700002C20FDF741FF5520FDF732FF8220FDF719
:102710003BFF2C20FDE3A0427ED14FF470435521B6
:102720001846FDF747FF4FF20104AA212046FDF7A6
:1027300041FF651C52212846FDF73CFFA61C0821DD
:102740003046FDF737FFE71C01213846FDF732FF21
:102750000D214FF43040FDF72DFF0D214BF201000C
:10276000FDF728FF0D214BF20200FDF723FF4FF488
:10277000364C34216046FDF71DFF34214BF20160D9
:10278000FDF718FF34214BF20260FDF713FF4FF401
:1027900031490D214846FDF70DFF4BF2011A0D217D
:1027A0005046FDF707FF0D214BF20210FDF702FF27
:1027B0004FF4374B34215846FDF7FCFE34214BF2E1
:1027C0000170FDF7F7FE34214BF20270FDF7F2FEC7
:1027D00000214FF43240FDF7EDFE00214BF20120C5
:1027E000FDF7E8FE00214BF20220FDF7E3FE242175
:1027F0004FF43840FDF7DEFE24214BF60100FDF7D3
:10280000D9FE24214BF60200FDF7D4FE01214FF43E
:102810003F40FDF7CFFE00E0FEE30F214FF43340D1
:10282000FDF7C8FE0F214BF20130FDF7C3FE0F216B
:102830004BF20230FDF7BEFE34214FF43940FDF774
:10284000B9FE34214BF60110FDF7B4FE34214BF6EE
:102850000210FDF7AFFE08214FF43540FDF7AAFE48
:1028600008214BF20150FDF7A5FE08214BF2025062
:10287000FDF7A0FE03214FF44240FDF79BFE24210B
:102880004FF43A40FDF796FE24214BF60120FDF768
:1028900091FE24214BF60220FDF78CFE00214FF41F
:1028A0003C40FDF787FE78214BF60140FDF782FEA4
:1028B00000214BF60240FDF77DFE00214FF43D4024
:1028C000FDF778FE78214BF60150FDF773FE0021ED
:1028D0004BF60250FDF76EFE00214FF43E40FDF72F
:1028E00069FE64214BF60160FDF764FE00214FF4A0
:1028F0005140FDF75FFE33214DF20110FDF75AFE06
:1029000000214DF20210FDF755FE34214DF2031067
:10291000FDF750FE00214DF20410FDF74BFE3A2169
:102920004DF20510FDF746FE00214DF20610FDF7B1
:1029300041FE4A214DF20710FDF73CFE00214DF209
:102940000810FDF737FE5C214DF20910FDF732FE4D
:1029500000214DF20A10FDF72DFE81214DF20B10E2
:10296000FDF728FE00214DF20C10FDF723FEA621F5
:102970004DF20D10FDF71EFE00214DF20E10FDF779
:1029800019FEE5214DF20F10FDF714FE01214DF265
:102990001010FDF70FFE13214DF21110FDF70AFE86
:1029A00001214DF21210FDF705FE54214DF21310D6
:1029B000FDF700FE01214DF21410FDF7FBFD822111
:1029C0004DF21510FDF7F6FD01214DF21610FDF741
:1029D000F1FDCA214DF21710FDF7ECFD02214DF279
:1029E0001810FDF7E7FD00214DF21910FDF7E2FD8B
:1029F00002214DF21A10FDF7DDFD01214DF21B10F1
:102A0000FDF7D8FD02214DF21C10FDF7D3FD342156
:102A10004DF21D10FDF7CEFD02214DF21E10FDF707
:102A2000C9FD67214DF21F10FDF7C4FD02214DF2D3
:102A30002010FDF7BFFD84214DF22110FDF7BAFDF6
:102A400002214DF22210FDF7B5FDA4214DF2231015
:102A5000FDF7B0FD02214DF22410FDF7ABFDB721CB
:102A60004DF22510FDF7A6FD02214DF22610FDF7CF
:102A7000A1FDCF214DF22710FDF79CFD02214DF263
:102A80002810FDF797FDDE214DF22910FDF792FD8C
:102A900002214DF22A10FDF78DFDF2214DF22B108F
:102AA000FDF788FD02214DF22C10FDF783FDFE217C
:102AB0004DF22D10FDF77EFD03214DF22E10FDF796
:102AC00079FD10214DF22F10FDF774FD03214DF219
:102AD0003010FDF76FFD33214DF23110FDF76AFD27
:102AE00003214DF23210FDF765FD6D214DF23310DB
:102AF000FDF760FD00214FF45240FDF75BFD3321EF
:102B00004DF20120FDF756FD00214DF20220FDF7A8
:102B100051FD34214DF20320FDF74CFD00214DF213
:102B20000420FDF747FD3A214DF20520FDF742FD57
:102B300000214DF20620FDF73DFD4A214DF2072010
:102B4000FDF738FD00214DF20820FDF733FD5C2133
:102B50004DF20920FDF72EFD00214DF20A20FDF770
:102B600029FD81214DF20B20FDF724FD00214DF2BE
:102B70000C20FDF71FFDA6214DF20D20FDF71AFDDB
:102B800000214DF20E20FDF715FDE5214DF20F203D
:102B9000FDF710FD01214DF21020FDF70BFD132173
:102BA0004DF21120FDF706FD01214DF21220FDF737
:102BB00001FD54214DF21320FDF7FCFC01214DF2E3
:102BC0001420FDF7F7FC82214DF21520FDF7F2FCF1
:102BD00001214DF21620FDF7EDFCCA214DF2172020
:102BE000FDF7E8FC02214DF21820FDF7E3FC00217F
:102BF0004DF21920FDF7DEFC02214DF21A20FDF7FF
:102C0000D9FC01214DF21B20FDF7D4FC02214DF22D
:102C10001C20FDF7CFFC34214DF21D20FDF7CAFC2E
:102C200002214DF21E20FDF7C5FC67214DF21F2049
:102C3000FDF7C0FC02214DF22020FDF7BBFC8421F2
:102C40004DF22120FDF7B6FC02214DF22220FDF7C6
:102C5000B1FCA4214DF22320FDF7ACFC02214DF282
:102C60002420FDF7A7FCB7214DF22520FDF7A2FC9B
:102C700002214DF22620FDF79DFCCF214DF22720A9
:102C8000FDF798FC02214DF22820FDF793FCDE2190
:102C90004DF22920FDF78EFC02214DF22A20FDF78E
:102CA00089FCF2214DF22B20FDF784FC02214DF22C
:102CB0002C20FDF77FFCFE214DF22D20FDF77AFC44
:102CC00003214DF22E20FDF775FC10214DF22F202F
:102CD000FDF770FC03214DF23020FDF76BFC332132
:102CE0004DF23120FDF766FC03214DF23220FDF755
:102CF00061FC6D214DF23320FDF75CFC00214FF4A7
:102D00005340FDF757FC33214DF20130FDF752FCE3
:102D100000214DF20230FDF74DFC34214DF203301D
:102D2000FDF748FC00214DF20430FDF743FC3A2149
:102D30004DF20530FDF73EFC00214DF20630FDF767
:102D400039FC4A214DF20730FDF734FC00214DF2E9
:102D50000830FDF72FFC5C214DF20930FDF72AFC0D
:102D600000214DF20A30FDF725FC81214DF20B3098
:102D7000FDF720FC00214DF20C30FDF71BFCA621D5
:102D80004DF20D30FDF716FC00214DF20E30FDF72F
:102D900011FCE5214DF20F30FDF70CFC01214DF245
:102DA0001030FDF707FC13214DF21130FDF702FC46
:102DB00001214DF21230FDF7FDFB54214DF213308D
:102DC000FDF7F8FB01214DF21430FDF7F3FB8221F2
:102DD0004DF21530FDF7EEFB01214DF21630FDF7F7
:102DE000E9FBCA214DF21730FDF7E4FB02214DF259
:102DF0001830FDF7DFFB00214DF21930FDF7DAFB4B
:102E000002214DF21A30FDF7D5FB01214DF21B30A6
:102E1000FDF7D0FB02214DF21C30FDF7CBFB342136
:102E20004DF21D30FDF7C6FB02214DF21E30FDF7BD
:102E3000C1FB67214DF21F30FDF7BCFB02214DF2B3
:102E40002030FDF7B7FB84214DF22130FDF7B2FBB6
:102E500002214DF22230FDF7ADFBA4214DF22330CB
:102E6000FDF7A8FB02214DF22430FDF7A3FBB721AB
:102E70004DF22530FDF79EFB02214DF22630FDF785
:102E800099FBCF214DF22730FDF794FB02214DF243
:102E90002830FDF78FFBDE214DF22930FDF78AFB4C
:102EA00002214DF22A30FDF785FBF2214DF22B3045
:102EB000FDF780FB02214DF22C30FDF77BFBFE215C
:102EC0004DF22D30FDF776FB03214DF22E30FDF74C
:102ED00071FB10214DF22F30FDF76CFB03214DF2F9
:102EE0003030FDF767FB33214DF23130FDF762FBE7
:102EF00003214DF23230FDF75DFB6D214DF2333091
:102F0000FDF758FB00214FF45440FDF753FB3321EC
:102F100000E07FE34DF20140FDF74CFB00214DF254
:102F20000240FDF747FB34214DF20340FDF742FB21
:102F300000214DF20440FDF73DFB3A214DF20540E2
:102F4000FDF738FB00214DF20640FDF733FB4A2127
:102F50004DF20740FDF72EFB00214DF20840FDF732
:102F600029FB5C214DF20940FDF724FB00214DF2C5
:102F70000A40FDF71FFB81214DF20B40FDF71AFBC4
:102F800000214DF20C40FDF715FBA6214DF20D403E
:102F9000FDF710FB00214DF20E40FDF70BFBE52184
:102FA0004DF20F40FDF706FB01214DF21040FDF7F9
:102FB00001FB13214DF21140FDF7FCFA01214DF206
:102FC0001240FDF7F7FA54214DF21340FDF7F2FAE3
:102FD00001214DF21440FDF7EDFA82214DF215402A
:102FE000FDF7E8FA01214DF21640FDF7E3FACA2198
:102FF0004DF21740FDF7DEFA02214DF21840FDF7C1
:10300000D9FA00214DF21940FDF7D4FA02214DF210
:103010001A40FDF7CFFA00E0FFE201214DF21B401C
:10302000FDF7C8FA02214DF21C40FDF7C3FA342126
:103030004DF21D40FDF7BEFA02214DF21E40FDF794
:10304000B9FA67214DF21F40FDF7B4FA02214DF2A3
:103050002040FDF7AFFA84214DF22140FDF7AAFA96
:1030600002214DF22240FDF7A5FAA4214DF22340A2
:10307000FDF7A0FA02214DF22440FDF79BFAB7219B
:103080004DF22540FDF796FA02214DF22640FDF75C
:1030900091FACF214DF22740FDF78CFA02214DF233
:1030A0002840FDF787FADE214DF22940FDF782FA2C
:1030B00002214DF22A40FDF77DFAF2214DF22B401C
:1030C000FDF778FA02214DF22C40FDF773FAFE214C
:1030D0004DF22D40FDF76EFA03214DF22E40FDF723
:1030E00069FA10214DF22F40FDF764FA03214DF2E9
:1030F0003040FDF75FFA33214DF23140FDF75AFAC7
:1031000003214DF23240FDF755FA6D214DF2334067
:10311000FDF750FA00214FF45540FDF74BFA3321EB
:103120004DF20150FDF746FA00214DF20250FDF735
:1031300041FA34214DF20350FDF73CFA00214DF2E3
:103140000450FDF737FA3A214DF20550FDF732FAF7
:1031500000214DF20650FDF72DFA4A214DF207509D
:10316000FDF728FA00214DF20850FDF723FA5C2103
:103170004DF20950FDF71EFA00214DF20A50FDF7FD
:1031800019FA81214DF20B50FDF714FA00214DF28E
:103190000C50FDF70FFAA6214DF20D50FDF70AFA7B
:1031A00000214DF20E50FDF705FAE5214DF20F50CA
:1031B000FDF700FA01214DF21050FDF7FBF9132144
:1031C0004DF21150FDF7F6F901214DF21250FDF7C5
:1031D000F1F954214DF21350FDF7ECF901214DF2B4
:1031E0001450FDF7E7F982214DF21550FDF7E2F991
:1031F00001214DF21650FDF7DDF9CA214DF21750AD
:10320000FDF7D8F902214DF21850FDF7D3F900214E
:103210004DF21950FDF7CEF902214DF21A50FDF78B
:10322000C9F901214DF21B50FDF7C4F902214DF2FD
:103230001C50FDF7BFF934214DF21D50FDF7BAF9CE
:1032400002214DF21E50FDF7B5F967214DF21F50D6
:10325000FDF7B0F902214DF22050FDF7ABF98421C2
:103260004DF22150FDF7A6F902214DF22250FDF753
:10327000A1F9A4214DF22350FDF79CF902214DF252
:103280002450FDF797F9B7214DF22550FDF792F93B
:1032900002214DF22650FDF78DF9CF214DF2275036
:1032A000FDF788F902214DF22850FDF783F9DE2160
:1032B0004DF22950FDF77EF902214DF22A50FDF71B
:1032C00079F9F2214DF22B50FDF774F902214DF2FC
:1032D0002C50FDF76FF9FE214DF22D50FDF76AF9E4
:1032E00003214DF22E50FDF765F910214DF22F50BC
:1032F000FDF760F903214DF23050FDF75BF9332102
:103300004DF23150FDF756F903214DF23250FDF7E1
:1033100051F96D214DF23350FDF74CF900214FF476
:103320005640FDF747F933214DF20160FDF742F9B0
:1033300000214DF20260FDF73DF934214DF20360AA
:10334000FDF738F900214DF20460FDF733F93A2119
:103350004DF20560FDF72EF900214DF20660FDF7F4
:1033600029F94A214DF20760FDF724F900214DF2B9
:103370000860FDF71FF95C214DF20960FDF71AF9AD
:1033800000214DF20A60FDF715F981214DF20B6025
:10339000FDF710F900214DF20C60FDF70BF9A621A5
:1033A0004DF20D60FDF706F900214DF20E60FDF7BC
:1033B00001F9E5214DF20F60FDF7FCF801214DF216
:1033C0001060FDF7F7F813214DF21160FDF7F2F8E8
:1033D00001214DF21260FDF7EDF854214DF213601A
:1033E000FDF7E8F801214DF21460FDF7E3F88221C2
:1033F0004DF21560FDF7DEF801214DF21660FDF784
:10340000D9F8CA214DF21760FDF7D4F802214DF228
:103410001860FDF7CFF800214DF21960FDF7CAF8EA
:1034200002214DF21A60FDF7C5F801214DF21B6033
:10343000FDF7C0F802214DF21C60FDF7BBF8342106
:103440004DF21D60FDF7B6F802214DF21E60FDF74A
:10345000B1F867214DF21F60FDF7ACF802214DF283
:103460002060FDF7A7F884214DF22160FDF7A2F856
:1034700002214DF22260FDF79DF8A4214DF2236058
:10348000FDF798F802214DF22460FDF793F8B7217B
:103490004DF22560FDF78EF802214DF22660FDF712
:1034A00089F8CF214DF22760FDF784F802214DF213
:1034B0002860FDF77FF8DE214DF22960FDF77AF8EC
:1034C00002214DF22A60FDF775F8F2214DF22B60D2
:1034D000FDF770F802214DF22C60FDF76BF8FE212C
:1034E0004DF22D60FDF766F803214DF22E60FDF7D9
:1034F00061F810214DF22F60FDF75CF803214DF2C9
:103500003060FDF757F833214DF23160FDF752F886
:1035100003214DF23260FDF74DF86D214DF233601D
:10352000FDF748F855211846FDF744F8AA21204632
:10353000FDF740F852212846FDF73CF808213046B7
:10354000FDF738F800213846FDF734F8CC2148461D
:10355000FDF730F800215046FDF72CF805216046B4
:10356000FDF728F870215846FDF724F870214BF23A
:103570000170FDF71FF801214FF43840FDF71AF8EC
:1035800003214BF60100FDF715F803214BF602006D
:10359000FDF710F803214BF60300FDF70BF80221AD
:1035A0004FF43C40FDF706F800214BF60140FDF7D3
:1035B00001F800214BF60240FCF7FCFFD0214FF44C
:1035C0004940FCF7F7FF02214CF60110FCF7F2FF2F
:1035D00050214CF60210FCF7EDFF50214CF6031081
:1035E000FCF7E8FF50214CF60410FCF7E3FF002144
:1035F0004FF45450FCF7DEFF55214FF46850FCF7B0
:10360000D9FF4FF48850FCF7B3FF782003F014FB88
:103610004FF42450FCF7ACFFF3E0A0F513414FF456
:1036200080744FF4E06740F2022940F23F1B4FF4F0
:10363000274625397ED0FD1DC91E7CD04FF48876E3
:103640004FF41C5A083177D0113976D0A0F5A84133
:10365000083973D0A0F5A8514FF4407605396ED0E3
:10366000B1F520416CD0B1F580516AD0A0F58A4106
:10367000313967D0091F66D09042CDD1E220FCF7E6
:1036800077FF1D20FCF780FF0220FCF77DFF042060
:10369000FCF77AFF642003F0CFFAE020FCF768FF24
:1036A0000120FCF771FF0A2003F0E2FAE020FCF7AA
:1036B0005FFF0320FCF768FF0C2003F0D9FA01201C
:1036C000FCF756FF0A2003F0D3FAE620FCF750FF80
:1036D0002F20FCF759FFFF20FCF756FFFF20FCF7D7
:1036E00053FFB020FCF744FF2020FCF74DFF0020E3
:1036F000FCF74AFF0320FCF747FF40F21F30FCF7BE
:1037000043FF0120FCF740FF40F2DF10FCF73CFFD5
:103710000020FCF739FFB420FCF72AFF0420FCF757
:1037200033FF40F21F40FCF72FFF0020FCF72CFF77
:103730002E2009E072E03CE1F7E19CE270E3FDE35A
:10374000FDE3FDE3FDE3FDE3FCF71EFF0020FCF7D6
:103750001BFF0020FCF718FF0020FCF715FF0020DE
:10376000FCF712FFB620FCF703FF0220FCF70CFF6A
:103770004FF40370FCF708FF0020FCF705FF17204B
:10378000FCF702FF1520FCF7FFFE0020FCF7FCFE13
:103790000020FCF7F9FEF020FCF7EAFE0320FCF71E
:1037A000F3FE2920FCF7E4FED020FCF7E1FE002028
:1037B000FCF7EAFEBE20FCF7DBFE0520FCF7E4FE8A
:1037C000FE20FCF7E1FE0120FCF7DEFE0020FCF706
:1037D000DBFE0020FCF7D8FE0020FCF7D5FEB82069
:1037E000FCF7C6FE0320FCF7CFFE0120FCF7CCFE61
:1037F000BA20FCF7BDFE0120FCF7C6FE6420FDF7F1
:1038000060FA0020FDF780FAFE490120C1F8BC02F1
:103810004046FDF707FC21B0BDE8F08F47F6F00108
:10382000E520FCF7C7FE21460120FCF7C3FE394620
:103830000220FCF7BFFE41F230010320FCF7BAFE84
:1038400000210420FCF7B6FE49460820FCF7B2FE32
:1038500000210920FCF7AEFE00210A20FCF7AAFE99
:1038600000210C20FCF7A6FE00210D20FCF7A2FE93
:1038700000210F20FCF79EFE00211020FCF79AFE8D
:1038800007211120FCF796FE00211220FCF792FE82
:1038900000211320FCF78EFE00210720FCF78AFE92
:1038A00041F290611020FCF785FE40F227211120A3
:1038B000FCF780FE9D211220FCF77CFE4FF4C851DE
:1038C0001320FCF777FE25212920FCF773FE0D213C
:1038D0002B20FCF76FFE07213020FCF76BFE40F237
:1038E00003313120FCF766FE03213220FCF762FE33
:1038F00040F206213520FCF75DFE08213620FCF75A
:1039000059FE40F206413720FCF754FE4FF4417156
:103910003820FCF74FFE07213920FCF74BFE40F220
:1039200002613C20FCF746FE08213D20FCF742FEE8
:1039300000215020FCF73EFEEF215120FCF73AFE1B
:1039400000215220FCF736FE59465320FCF732FE88
:1039500031466020FCF72EFE01216120FCF72AFE93
:1039600000216A20FCF726FE00218020FCF722FEC1
:1039700000218120FCF71EFE00218220FCF71AFEA8
:1039800000218320FCF716FE00218420FCF712FEA4
:1039900000218520FCF70EFE10219020FCF70AFE86
:1039A0004FF4C0619220FCF705FE40F2331107206E
:1039B000FEE341F28F01EC20FCF7FCFD41F23421E3
:1039C000EF20FCF7F7FD21460120FCF7F3FD394617
:1039D0000220FCF7EFFD41F230010320FCF7EAFD85
:1039E00000210420FCF7E6FD49460820FCF7E2FD33
:1039F00000210920FCF7DEFD00210A20FCF7DAFD9A
:103A000001210C20FCF7D6FD00210D20FCF7D2FD92
:103A100000210F20FCF7CEFD00211020FCF7CAFD8D
:103A200007211120FCF7C6FD00211220FCF7C2FD82
:103A300000211320FCF7BEFD01210720FCF7BAFD91
:103A4000322003F015F941F290411020FCF7B2FD4D
:103A500040F227211120FCF7ADFD322003F008F9D8
:103A60008A211220FCF7A6FD322003F001F94FF461
:103A7000D0511320FCF79EFD06212920FCF79AFD6A
:103A80000D212B20FCF796FD322003F0F1F80021E8
:103A90002020FCF78FFD00212120FCF78BFD322038
:103AA00003F0E6F800213020FCF784FD40F20461C9
:103AB0003120FCF77FFD40F205313220FCF77AFD22
:103AC00000213520FCF776FD40F609413620FCF751
:103AD00071FD4FF401713720FCF76CFD40F20131AC
:103AE0003820FCF767FD29463920FCF763FD0021EB
:103AF0003C20FCF75FFD40F60A213D20FCF75AFD13
:103B0000322003F0B5F800215020FCF753FDEF21DF
:103B10005120FCF74FFD00215220FCF74BFD594688
:103B20005320FCF747FD31464FE100210846FCF7E2
:103B300041FD21460120FCF73DFD39460220FCF7FE
:103B400039FD41F230010320FCF734FD002104204F
:103B5000FCF730FD49460820FCF72CFD0021092028
:103B6000FCF728FD00210A20FCF724FD01210C2090
:103B7000FCF720FD00210D20FCF71CFD00210F208B
:103B8000FCF718FD322003F073F840F20111072012
:103B9000FCF710FD322003F06BF84FF48651102033
:103BA000FCF708FD07211120FCF704FD3146122027
:103BB000FCF700FD4FF430611320FCF7FBFC002103
:103BC0002920FCF7F7FC44F210012B20FCF7F2FC53
:103BD00000215020FCF7EEFCEF215120FCF7EAFC1D
:103BE00000215220FCF7E6FC59465320FCF7E2FC8A
:103BF00051466020FCF7DEFC01216120FCF7DAFC75
:103C0000002101E0008040426A20FCF7D3FC002143
:103C10008020FCF7CFFC00218120FCF7CBFC0021A9
:103C20008220FCF7C7FC00218320FCF7C3FC0021A5
:103C30008420FCF7BFFC00218520FCF7BBFC102191
:103C40009020FCF7B7FC00219220FCF7B3FC012187
:103C50009320FCF7AFFC31469520FCF7ABFC00212C
:103C60009720FCF7A7FC00219820FCF7A3FC40F26A
:103C7000731107207DE341F21401E720FCF79AFC61
:103C800021460120FCF796FC4FF400710220FCF75E
:103C900091FC41F238010320FCF78CFC49460820D6
:103CA000FCF788FC00210920FCF784FC00210A2095
:103CB000FCF780FC00210C20FCF77CFC00210D208F
:103CC000FCF778FC00210F20FCF774FC0021102089
:103CD000FCF770FC07211120FCF76CFC002112207E
:103CE000FCF768FC00211320FCF764FCC82002F0FC
:103CF000BFFF41F290611020FCF75CFC40F22721ED
:103D00001120FCF757FC322002F0B2FF0C211220E8
:103D1000FCF750FC322002F0ABFF4FF4006113209F
:103D2000FCF748FC11212920FCF744FC0B212B2037
:103D3000FCF740FC322002F09BFF00212020FCF722
:103D400039FC5C4659462120FCF734FC0021302028
:103D5000FCF730FC4FF4837319463120FCF72AFC42
:103D600000213220FCF726FC4FF401713520FCF7CE
:103D700021FC41F20A613620FCF71CFC2946372061
:103D8000FCF718FC19463820FCF714FC29463920AA
:103D9000FCF710FC40F202413C20FCF70BFC40F623
:103DA0000F413D20FCF706FC00215020FCF702FCEF
:103DB000EF215120FCF7FEFB00215220FCF7FAFB1B
:103DC00021465320FCF7F6FB51466020FCF7F2FB3E
:103DD00001216120FCF7EEFB00216A20FCF7EAFBE1
:103DE00000218020FCF7E6FB00218120FCF7E2FBAC
:103DF00000218220FCF7DEFB00218320FCF7DAFBA8
:103E000000218420FCF7D6FB00218520FCF7D2FBA3
:103E100010219020FCF7CEFB4FF4C0619220FCE310
:103E200021460120FCF7C6FB39460220FCF7C2FB05
:103E300041F230010320FCF7BDFB00210420FCF718
:103E4000B9FB40F207210820FCF7B4FB0021092050
:103E5000FCF7B0FB00210A20FCF7ACFB00210C2092
:103E6000FCF7A8FB00210D20FCF7A4FB00210F208C
:103E7000FCF7A0FB142002F0FBFE41F2B061102021
:103E8000FCF798FB01211120FCF794FB012117207E
:103E9000FCF790FB4FF49C711220FCF78BFB4FF466
:103EA00000611320FCF786FB09212920FCF782FB27
:103EB00009212A20FCF77EFB0021A420FCF77AFBD5
:103EC00000215020FCF776FBEF215120FCF772FB1C
:103ED00000215220FCF76EFB59465320FCF76AFB89
:103EE00051466020FCF766FB01216120FCF762FB74
:103EF00000216A20FCF75EFB00218020FCF75AFBC2
:103F000000218120FCF756FB00218220FCF752FBA8
:103F100000218320FCF74EFB00218420FCF74AFBA4
:103F200000218520FCF746FB13219020FCF742FB83
:103F300000219220FCF73EFB032104E011E01CE18C
:103F400018E2DEE293E39320FCF734FB3146952040
:103F5000FCF730FB40F273110720FCF72BFB3220FB
:103F600007E100210720FCF725FB322002F080FE4C
:103F70004FF48E711220FCF71DFB0121A420FCF7E9
:103F800019FB0F210820FCF715FB08210A20FCF77C
:103F900011FB08210D20FCF70DFB2B462946302094
:103FA000FCF708FB07213120FCF704FB40F203611A
:103FB0003220FCF7FFFA3D4639463320FCF7FAFA87
:103FC00049463420FCF7F6FA02213520FCF7F2FAD4
:103FD00041F60F713620FCF7EDFA19463720FCF751
:103FE000E9FA00213820FCF7E5FA00213920FCF736
:103FF000E1FA19463A20FCF7DDFA00213B20FCF7F4
:10400000D9FA07213C20FCF7D5FA00213D20FCF726
:10401000D1FA322002F02CFE01210720FCF7CAFA67
:1040200001211720FCF7C6FA322002F021FE4FF4DE
:10403000BD511020FCF7BEFA40F217211120FCF709
:10404000B9FA4FF48F711220FCF7B4FA4FF4706193
:104050001320FCF7AFFA00212A20FCF7ABFA0A2163
:104060002920FCF7A7FA4FF49F711220FCF7A2FA5F
:1040700000215020FCF79EFAEF215120FCF79AFA1C
:1040800000215220FCF796FA59465320FCF792FA89
:1040900051466020FCF78EFA01216120FCF78AFA74
:1040A00000216A20FCF786FA00218020FCF782FAC2
:1040B00000218120FCF77EFA00218220FCF77AFAA9
:1040C00000218320FCF776FA00218420FCF772FAA5
:1040D00000218520FCF76EFA13219020FCF76AFA84
:1040E00031469220FCF766FA05219320FCF762FA2C
:1040F00000219520FCF75EFA00219720FCF75AFA80
:1041000000219820FCF756FA21460120FCF752FACC
:1041100029460220FCF74EFA41F238010320FCF751
:1041200049FA00210420FCF745FA00210C20FCF795
:1041300041FA00210F20FCF73DFA00212020FCF776
:1041400039FA00212120FCF735FA21210720FCF75C
:1041500031FA142002F08CFD61210720FCF72AFAC5
:10416000142002F085FD40F273110720FCF722FABB
:10417000142002F07DFDFFF744BB00210846FCF748
:1041800019FA00210846FCF715FA00210846FCF749
:1041900011FA00210846FCF70DFA0121A420FCF7D2
:1041A00009FA142002F064FD55465146602000E0F3
:1041B000DBE0FCF7FFF94E4649460820FCF7FAF928
:1041C0004FF405713020FCF7F5F943F215713120F9
:1041D000FCF7F0F940F204613220FCF7EBF940F60D
:1041E00016613320FCF7E6F942F211213420FCF786
:1041F000E1F94FF4A8513520FCF7DCF948F20751FA
:104200003620FCF7D7F941F207413720FCF7D2F905
:1042100041F203413820FCF7CDF920213920FCF789
:10422000C9F91A219020FCF7C5F900211020FCF7EC
:10423000C1F907211120FCF7BDF900211220FCF77C
:10424000B9F900211320FCF7B5F9142002F010FD94
:104250004FF4E6611020FCF7ADF940F23711112060
:10426000FCF7A8F9142002F003FD4FF4DC711220D2
:10427000FCF7A0F9142002F0FBFC4FF4706113204E
:10428000FCF798F980212A20FCF794F9482129208D
:10429000FCF790F9142002F0EBFC21460120FCF71A
:1042A00089F939460220FCF785F941F238010320EB
:1042B000FCF780F931460820FCF77CF900210A2040
:1042C000FCF778F900210C20FCF774F900210D208F
:1042D000FCF770F930210E20FCF76CF9002150201A
:1042E000FCF768F9EF215120FCF764F90021522016
:1042F000FCF760F959465320FCF75CF92946602029
:10430000FCF758F901216120FCF754F900216A20DB
:10431000FCF750F911219020FCF74CF94FF4C061E3
:104320009220FCF747F940F202419320FCF742F952
:1043300002219420FCF73EF9142002F099FC01219F
:104340000720FCF737F9142002F092FC61210720C6
:10435000FCF730F940F273110720FCF72BF900212C
:104360002020FCF727F900212120FCF723F9222146
:10437000002079E100210846FCF71CF900210846DD
:10438000FCF718F9142002F073FC00210846FCF732
:1043900011F900210846FCF70DF900210846FCF749
:1043A00009F900210846FCF705F90121A420FCF7D2
:1043B00001F9142002F05CFC51466020FCF7FAF889
:1043C00040F606010820FCF7F5F840F203731946A1
:1043D0003020FCF7EFF801213120FCF7EBF8042145
:1043E0003220FCF7E7F84FF481713320FCF7E2F854
:1043F00031463420FCF7DEF840F203113520FCF79B
:10440000D9F81F213620FCF7D5F819463720FCF7DC
:10441000D1F801213820FCF7CDF804213920FCF730
:10442000C9F815219020FCF7C5F84FF482611020DF
:10443000FCF7C0F840F247211120FCF7BBF84FF41D
:10444000DE711220FCF7B6F84FF460611320FCF720
:10445000B1F8782002F00CFC21460120FCF7AAF804
:104460004FF400710220FCF7A5F841F2300103205F
:10447000FCF7A0F808210A20FCF79CF800210C208A
:10448000FCF798F820210E20FCF794F800210F206B
:10449000FCF790F800212020FCF78CF80021212067
:1044A000FCF788F83D212A20FCF784F8142002F05C
:1044B000DFFB2D212920FCF77DF800215020FCF79F
:1044C00079F84DF2EF015120FCF774F800215220E9
:1044D000FCF770F859465320FCF76CF80021612076
:1044E000FCF768F800216A20FCF764F83146922056
:1044F000FCF760F805219320FCF75CF82146FFF7F4
:10450000B8BB01210020FCF755F80A2002F0B0FBEF
:1045100041F228611020FCF74DF80E211220FCF723
:1045200049F840F639211320FCF744F80A2002F03C
:104530009FFB40211120FCF73DF850211520FCF78E
:1045400039F80A2002F094FB1E211220FCF732F801
:104550000A2002F08DFB4FF4B1511020FCF72AF82D
:1045600042F639211320FCF725F80A2002F080FBDF
:1045700021460120FCF71EF831460220FCF71AF80C
:1045800041F238010320FCF715F849460820FCF7F2
:1045900011F808210A20FCF70DF800213020FCF763
:1045A00009F840F202413120FCF704F84FF483711E
:1045B0003220FBF7FFFF40F203513320FBF7FAFFF5
:1045C0004FF482713420FBF7F5FF40F201313520C2
:1045D000FBF7F0FF29463620FBF7ECFF40F20531F0
:1045E0003720FBF7E7FF4FF402713820FBF7E2FFBB
:1045F00040F60B713920FBF7DDFF02214120FBF76C
:10460000D9FF51466020FBF7D5FF01216120FBF760
:10461000D1FF4FF40471902000E0CAE0FBF7CAFF1D
:104620004FF485719220FBF7C5FF04219320FBF71F
:10463000C1FF2146A020FBF7BDFF01210720FBF7AA
:10464000B9FF21210720FBF7B5FF23210720FBF746
:10465000B1FF33210720FBF7ADFF40F233110720F4
:10466000FBF7A8FF0021A020FBF7A4FF83E5302182
:104670001520FBF79FFF10219A20FBF79BFF2021BD
:104680001120FBF797FF43F228411020FBF792FF20
:1046900002211220FBF78EFF41F238011320FBF7B5
:1046A00089FF282002F0E4FA12210846FBF782FF76
:1046B000282002F0DDFA43F220411020FBF77AFFB8
:1046C00043F238011320FBF775FF462002F0D0FAC1
:1046D00000213020FBF76EFF40F202413120FBF752
:1046E00069FF40F207313220FBF764FF4FF441715C
:1046F0003320FBF75FFF04213420FBF75BFF40F220
:1047000001413520FBF756FF29463620FBF752FFC3
:1047100040F205313720FBF74DFF4FF4C2631946D5
:104720003820FBF747FF19463920FBF743FF2146A6
:104730000120FBF73FFF31460220FBF73BFF41F230
:1047400030010320FBF736FF40F608010820FBF795
:1047500031FF08210A20FBF72DFF51466020FBF7AF
:1047600029FF01216120FBF725FF4FF49F71902065
:10477000FBF720FF21469220FBF71CFF21469320E8
:10478000FBF718FF4FF44051A020FBF713FF102157
:10479000A320FBF70FFF01210720FBF70BFF2121CF
:1047A0000720FBF707FF23210720FBF703FF332137
:1047B0000720FBF7FFFE40F23311A0E62DE9F84396
:1047C000FF4C1E468046A388089FA3F5D0400438BE
:1047D00002D1A079012807D0A2EB0800401C84B2C6
:1047E0000D464FF0D84929E025880846A91AA5EBBF
:1047F00008030025A57132462A2565812B26491E0E
:104800005B1EA68189B29BB20097FFF7D7FF0120FC
:10481000A0716681A581BDE8F88329464046FBF773
:1048200055FFFBF7D6FE0020494603E0A1F8807053
:10483000401C80B2A042F9D36D1CADB2B542ECD998
:10484000E9E72DE9F0470746D01B1546401C0E4608
:1048500082B2981BDFF86883401C1FFA80FC1C465C
:10486000B8F80A00DDF82090FBF782FE380AFBF763
:104870008BFEF8B2FBF788FE280AFBF785FEE8B24C
:10488000FBF782FEB8F80C00FBF772FE300AFBF76C
:104890007BFEF0B2FBF778FE200AFBF775FEE0B274
:1048A000FBF772FEFBF795FE4846BDE8F04702FBBA
:1048B0000CF2C449FBF7EEBE2DE9FE4F161ACDE906
:1048C00000104FF000085D1A47464FF0FF30002EF1
:1048D00002DD4FF0010102E003D14FF000018B46F1
:1048E00002E08346C6F10006002D02DD4FF0010014
:1048F00002E003D14FF00000824602E08246C5F19B
:104900000005AE4201DD344600E02C46601C4FF04D
:104910000009029018E0009881B2019880B2FCF77B
:104920003BF9B0442F44A04504DD0198A8EB0408EE
:1049300058440190A74203DD00983F1B504400906B
:1049400009F101001FFA80F902998945E3DDBDE80C
:10495000FE8FF0B51C4615460E4607460B46FFF780
:10496000ABFF3A46234631461046FFF7A5FF2346E4
:104970002A4619463846FFF79FFF2A462346314606
:10498000BDE8F040104697E72DE9FC4F8046002532
:10499000144603200F46A0EB440649E0381B81B2C1
:1049A00008EB050A01901FFA8AF0FCF7F5F8781B6E
:1049B00081B208EB040900901FFA89F0FCF7ECF8CB
:1049C00007EB050B1FFA8BF11FFA89F0FCF7E4F8EF
:1049D00007EB04091FFA89F11FFA8AF0FCF7DCF8EB
:1049E000A8EB050A1FFA89F11FFA8AF0FCF7D4F840
:1049F000A8EB04091FFA8BF11FFA89F0FCF7CCF839
:104A0000019881B21FFA8AF0FCF7C6F8009881B2CB
:104A10001FFA89F0FCF7C0F86D1C002E03DA06EBD4
:104A20008506B61D04E0281B06EB8006641E0A36C8
:104A3000A542B3DDBDE8FC8F2DE9FF4F1D460C46B6
:104A40008A46580700D0012000EBD500690810FB0A
:104A500001F0203A00F0FF09D0B20026DFF860B183
:104A6000029044E00C2D11D0102D14D0182D40D1FF
:104A70000298554900EBC00001EB80004FF00008A0
:104A8000875D38060CD5514802880DE002985049E0
:104A900000EB4000F0E74F49029801EB0010EDE712
:104AA0000D9828B94948428821460098FCF780F8BB
:104AB0007806070E641CBBF80200A4B2A04218D905
:104AC000A4EB0A00A84209D100985446401C80B2C9
:104AD0000090BBF8001081420BD906E008F10100FC
:104AE00000F0FF08B8F1080FCBD3761CF6B24E45A4
:104AF000B8D3BDE8FF8F0246012000E05043491EB5
:104B0000C9B2FBD270472DE9FF4F81B00026DDF816
:104B100038A01D46934681463446B0464FEA5A07B0
:104B200027E0281B401EC1B20A20FFF7E4FFBBFBB1
:104B3000F0F00A21B0FBF1F201FB120026B9691E68
:104B40008C4201DA48B101263030C2B207FB049032
:104B500080B25346CDF8008006E007FB049080B297
:104B600053462022CDF800800299FFF765FF641CB0
:104B7000E4B2AC42D5D305B0BDE8F08F2DE9FF4FCC
:104B800081B04FF00008DDE90EBA1E46814644466A
:104B90000AF001054FEA5B0739E0301B401EC1B245
:104BA0000A20FFF7A8FF0399B1FBF0F00A21B0FB40
:104BB000F1F201FB1200B8F1000F12D1711E0BE0EF
:104BC000E00500208000006C80F70308180000203A
:104BD0001CED030890F103088C4202DA48B14FF053
:104BE00001083030C2B207FB049080B25B460095EA
:104BF00008E05FEA0A6007FB049080B25B4600951C
:104C000008D530220299FFF717FF641CE4B2B442C2
:104C1000C3D3B0E72022F5E72DE9F84F044600F0B2
:104C2000FF0910190D46DDE90AB61FFA80F8581978
:104C300087B24FF0000A12E0444503D305EB0B00A6
:104C40004C4685B2BD420FD25B4629462046CDF880
:104C500000A0FFF7F1FE04EB5B0084B2761C327813
:104C6000A2F120005E28E7D9BDE8F88F2DE9F041D8
:104C700016460F460446002500F0A0F8702000F00C
:104C80003BF900F0D6F8E0B200F036F900F0D1F8C8
:104C9000002408E0385D00F02FF900F0CAF80500A4
:104CA00003D1641CE4B2B442F4D300F0A6F8284661
:104CB000BDE8F0812DE9F04115460E46044600F0AE
:104CC0007DF8702000F018F900F0B3F8E0B200F0C1
:104CD00013F900F0AEF800F071F8712000F00CF953
:104CE00000F0A7F800246F1E09E0BC4201D00120AB
:104CF00000E0002000F02DF93055641CE4B2AC4215
:104D0000F3D3BDE8F04100F078B87CB5012106206E
:104D100002F007FF00248DF8044002208DF80640C1
:104D2000032600908DF8056001258DF8075069462F
:104D3000104802F0B9FA68038DF8045000908DF81D
:104D400006408DF8056069460B4802F0ADFA00F0A8
:104D50001AF80A4EC6F8B442142006F52D7601F072
:104D600087FF3560322001F083FF01207CBD0020E9
:104D70007047000000040240000802400000414269
:104D8000022001F059BF1CB50121222002F0C9FE0A
:104D900001248DF8044000208DF8060000948DF861
:104DA00007406946854802F07FFAE00200908DF8DE
:104DB00004406946824802F077FA1CBD70B580480D
:104DC000016821F440010160016841F48001016043
:104DD0007C4C0120C4F8AC027B4DC5F880021E203B
:104DE00004F52B7405F5207501F026FF00262660DA
:104DF000022001F021FF2E6070BD70B5704801687F
:104E000021F440010160016841F4800101606E48B5
:104E10000125C0F880521E2001F00EFF694C0020D1
:104E2000C4F8AC02022004F52B7401F005FF2560E4
:104E300070BD70B562480024016821F44001016032
:104E4000016801605F4E0120C6F8AC025E4DC5F8F6
:104E5000800207E0641CE4B2FA2C03D9FFF7CDFF0F
:104E6000012070BD022001F0E7FED6F82C020028D8
:104E7000F0D1C5F8800270BD70B5534C0025C4F860
:104E800080524F48016821F440010160016841F4FB
:104E900080010160022004F5207401F0CDFE494834
:104EA000C0F8AC52022001F0C7FE012020600220B1
:104EB00001F0C2FE256070BD70B5434C0025C4F8FA
:104EC00080523F48016821F440010160016841F4CB
:104ED00080010160022004F5207401F0ADFE394824
:104EE0000126C0F8AC62022001F0A6FE2660022076
:104EF00001F0A2FE256070BD2DE9F047064630485E
:104F0000016821F440010160016841F48001016001
:104F10002D4D0027C5F88072022001F08DFEDFF8CC
:104F2000A48000244FF00109F109C8F8AC12700602
:104F3000060EC5F88092022001F07EFEC5F8807250
:104F4000022001F079FE641CE4B2082CECD3BDE829
:104F5000F0872DE9F047824619480024016821F4C2
:104F600040010160016801601E2001F065FE00251E
:104F7000154EDFF850902F464FF00108C6F88072AA
:104F8000022001F059FEC6F88082022001F054FE92
:104F90006006040ED9F82C0208B1641CE4B26D1C42
:104FA000EDB2082DEAD3BAF1000F03D0FFF764FF8A
:104FB0002046CCE7FFF780FFFAE70000000402403C
:104FC0000014024000804242008040421A480168BA
:104FD00041F001010160016841F0040101600168D4
:104FE00041F0020101601548016821F4407101603F
:104FF000016821F440410160016821F0C0010160B5
:10500000016841F480510160016841F48041016010
:10501000016841F0400101607047084A082108B169
:105020001183704751837047044A802108B151832E
:105030007047118370470000303802400000024082
:105040004FF08040FE49406A084400EE100AB8EE76
:10505000C00A9FEDFC1AC0EE010A9FEDFB0A20EE8C
:10506000800A704770B5F94D288AC00714D0F84CF3
:10507000A06868B1804748B10020A060FFF7CDFF6D
:105080009FEDF40A01F068F801F06AF801F068F8A1
:10509000FFF7D6FF84ED010A4FF6FE70288270BD3F
:1050A000EB48017800294CD101210170EA480168E0
:1050B00041F001010160E8480C38016841F003014A
:1050C00001600007018921F007010181018941F098
:1050D00003010181018B4FF6FC4211400183018BDA
:1050E00040F2022211430183018C21F0220101844C
:1050F000018B40F60F7211400183018841F00101DC
:105100000180D6490A6842F400620A60D44A1368F2
:1051100043F0800313600A6A42F480120A62D049A5
:1051200020310A6842F480520A60CE49C1620021EF
:105130000185018841F080010180018841F0010171
:10514000018070477FB50121080402F012FD40F292
:10515000F310019040F24F10ADF800000024BB4D59
:10516000ADF80240ADF808406946284602F0EAFF73
:1051700001221146284603F06EFB18208DF80C0022
:105180008DF80D408DF80E4001208DF80F0003A81A
:1051900001F0CBFFFFF784FF7FBD10B50446FFF79A
:1051A00015FF0120FFF739FFFFF7CCFFA74908885B
:1051B00020F001000880A6488460088840F00100C3
:1051C000088010BDA2488068002800D001207047E8
:1051D000FEB50D460446A44E284316D00120FFF725
:1051E0001CFFADF800500020ADF80200ADF808003B
:1051F000019469463546304602F0A4FF60086863B2
:105200000121284603F016F8FEBD00213046F9E7DB
:105210009149091D0A6842F001020A608E4910395D
:105220000A6842F001020A6042088F4842638B49D3
:105230000B6823F440330B600B6843F400330B60BE
:105240004B6A43F001034B625321018540F2E73181
:10525000C1624FF4FA714163018B21F07001018347
:10526000018B41F060010183018B41F00801018352
:10527000018C41F001010184018841F0800101802D
:10528000B0F8441041F40041A0F84410018841F006
:1052900001010180426355E72DE9F047061E72487F
:1052A000724905464FF0000403D007DA7642002029
:1052B00005E0BDE8F047002102F0BCBF012091FBF2
:1052C000F6F78146384637F050FD41EC100B38F0C8
:1052D000EFFB51EC100B37F066FD034664490220EA
:1052E0004FF4803C12E000BF97FBF0F200FB12721B
:1052F00091420ADD97FBF0F8E04506DA110004461A
:1053000003D197FBF0F2624502DB401C9842EBDDD3
:1053100097FBF4F7641E7F1EB6F57A7F0CDD4846D6
:10532000FFF782FEE86AB84202D1288DA04203D07E
:1053300021463846FFF74CFF288840F001002880BE
:10534000BDE8F0872DE9F047061E474D47484FF06E
:10535000000403D007DA7642002105E0BDE8F047FB
:105360000021084634E7012190FBF6F789463846CC
:1053700037F0FBFC41EC100B38F09AFB51EC100BB2
:1053800037F011FD03463A4902204FF4803C11E00A
:1053900097FBF0F200FB127291420ADD97FBF0F8E6
:1053A000E04506DA1100044603D197FBF0F26245AE
:1053B00002DB401C9842EBDD97FBF4F7641E7F1E76
:1053C000B6F57A7F03DC686AE96B88420CD94846F7
:1053D000FFF72AFEE86AB84202D1288DA04203D026
:1053E00021463846FFF7F4FE288840F00100288067
:1053F000A6E72DE9F0411C4E1C490024002805D0E9
:105400000ADAC0F100004FF0000706E0BDE8F04105
:105410004FF000010846DBE6012791FBF0F5284636
:1054200037F0A3FC41EC100B38F042FB51EC100BB1
:1054300037F0B9FC03460E4902204FF4803C2BE0C4
:10544000DACEF7FF681283490000B4430040014000
:105450002000002000000000403802400000024010
:10546000000402404D6210000000014000BD010533
:105470008096980095FBF0F200FB125291420ADDF3
:1054800095FBF0FEE64506DA1100044603D195FBD4
:10549000F0F2624502DB401C9842EBDD95FBF4F52F
:1054A0003846641E6D1EFFF7BFFDF06AA84202D1A8
:1054B000308DA04203D021462846FFF789FE308870
:1054C00040F001003080BDE8F0810120704710B548
:1054D0000020FFF7A2FDBDE810400021104802F0B7
:1054E000A9BE01207047012070474FF08040406AFC
:1054F00070474FF0804148627047DFED0A0A0A4862
:1055000030EE200A5FED300A80EE201A1FED330ADC
:1055100021EE000ABDEEC00A80ED000A70470000CF
:105520000000014000003443240000402DE9F04118
:105530008046584888B041600121042002F0F1FA09
:105540000121102002F015FB534F07220921384694
:1055500001F033FF07220A21384601F02EFF022511
:105560008DF8045038158DF80550002400908DF802
:10557000064001268DF807606946384601F094FE22
:105580008DF8045028028DF8055000908DF80640E3
:105590008DF807606946384601F086FEADF8104088
:1055A0000C203E4DADF80C40ADF81200CDF808804F
:1055B000ADF80E40ADF8144002A9284602F0CDFB2C
:1055C0000121284602F03AFC012240F225512846EA
:1055D00002F0D3FC25208DF818008DF81940032027
:1055E0008DF81A008DF81B6006A801F09EFD08B02A
:1055F000BDE8F08127490A884B889A4203D30020EE
:1056000008804880704723B1254B9B5C0370521C77
:105610000A800120704770B51E4D0C46698809B19B
:10562000002070BD014622461D4836F0C2FF6C8046
:10563000012240F22771194802F09FFC012070BD41
:1056400038B5164C40F225552946204602F0B7FCE5
:1056500048B1A0880F49C0B24A6802B190472946B4
:10566000204602F0CBFC40F227752946204602F086
:10567000A6FC60B16846FFF7BDFF18B19DF80000B9
:10568000A08004E000222946204602F076FC00209B
:10569000208038BD2C000020000002400010014096
:1056A0002C0600202DE9F0418046634888B0416017
:1056B0000121042002F035FA0121880402F04FFA9A
:1056C0005E4F07220B21384601F077FE07220A21A0
:1056D000384601F072FE02258DF80450F8148DF85A
:1056E0000550002400908DF8064001268DF80760D3
:1056F0006946384601F0D8FD8DF8045068028DF8EF
:10570000055000908DF806408DF8076069463846D0
:1057100001F0CAFDADF810400C20494FADF80C4027
:10572000ADF81200CDF80880ADF80E40ADF8144089
:1057300002A9384602F011FB0121384602F07EFB37
:10574000012240F22551384602F017FC27208DF83F
:1057500018008DF819408DF81A508DF81B6006A8B6
:1057600001F0E3FC08B0BDE8F08133490A884B88BA
:105770009A4203D3002008804880704723B1314B00
:105780009B5C0370521C0A800120704770B52A4D43
:105790000C46698809B1002070BD0146224629489F
:1057A00036F007FF6C80012240F22771244802F096
:1057B000E4FB012070BD70B51F4D0C46698809B12E
:1057C000002070BD014622461E4836F0F2FE6C8075
:1057D000012240F227711A4802F0CFFB012070BD70
:1057E000F8B5174C40F225563146204602F0E7FB4B
:1057F000251D48B128881049C0B24A6802B19047B7
:105800003146204602F0FAFB40F227763146204628
:1058100002F0D5FB60B16846FFF7A7FF18B19DF80D
:105820000000288004E000223146204602F0A5FB5B
:1058300000202080F8BD0000340000200008024055
:1058400000480040900600202DE9F04381463D4885
:1058500087B0016001210C2002F063F901210805E5
:1058600002F07DF9384F08220C21384601F0A5FDE1
:10587000DFF8D88008220221404601F09EFD022573
:105880008DF80450B8148DF80550002400908DF860
:10589000064001268DF807606946384601F004FD90
:1058A0008DF8045004208DF8055000908DF80640C6
:1058B0008DF807606946404601F0F6FCADF81040EF
:1058C0000C20234DADF80C40ADF81200CDF8089037
:1058D000ADF80E40ADF8144002A9284602F03DFA9A
:1058E0000121284602F0AAFA012240F22551284659
:1058F00002F043FB35208DF818008DF81940032085
:105900008DF81A008DF81B6006A801F00EFC07B098
:10591000BDE8F08370B50E4C40F22555294620466F
:1059200002F04DFB00280BD0A0880649C0B20A68DF
:1059300002B1904729462046BDE8704002F05EBBA8
:1059400070BD00003C00002000080240000C024036
:10595000005000402DE9F0410024002861D00029CA
:105960005FD0002A5DD0002B5BD0401EC5B2491E1F
:10597000F748521ECEB25B1E0168D7B29BB241F00F
:1059800001010160016841F001010160F04910313D
:105990000A6842F080620A600A6842F000720A6097
:1059A000016841F002010160EA48016821F070617C
:1059B0000160016841F000610160016841F000711F
:1059C0000160E4480830016821F0706101600168FD
:1059D00041F000710160016841F000610160DD4843
:1059E0002430016841F410210160016841F4100184
:1059F0000160D8480C30016821F0706101600168D5
:105A000041F080710160016841F080610160D2481D
:105A100000220260016841F00101016000F1040C04
:105A200008E00120BDE8F081641CA4B2642C01D917
:105A30000220F7E7DCF80010C907F5D00168016023
:105A40000168016001680160016841F010010160B6
:105A50000168016001680160BF491C310A60D1F82A
:105A600000E0C1F800E0D1F800E0C1F800E0D1F8B2
:105A700000E04EEA05650D600D6845EA06550D60CB
:105A80000D6845EA07450D600D681D430D6001680E
:105A900021F0010101604FF6F07005E0641CA4B232
:105AA000844201D90320BDE7DCF80010C907F5D115
:105AB000AA48016841F001010160A8491C310B6846
:105AC00023F480430B60A54B0C331C6844F48044E2
:105AD0001C60031D1A60A14B14331C681C609F4B93
