:020000040800F2
:1000000050D40120E1670008710300087303000861
:10001000750300087703000879030008000000005A
:100020000000000000000000000000009D0100082A
:100030007B03000800000000F90100083995000862
:10004000FB670008FB670008FB670008FB67000808
:10005000FB670008FB670008FB670008FB670008F8
:10006000FB670008FB670008FB670008FB670008E8
:10007000FB670008FB670008FB670008FB670008D8
:10008000FB670008FB670008FB670008FB670008C8
:10009000FB670008FB670008FB670008FB670008B8
:1000A000C54E0008FB670008FB670008FB670008F7
:1000B000FB6700083D030008FB670008FB670008BA
:1000C000FB670008FB670008FB670008FB67000888
:1000D000FB6700089D530008396700083D5500087C
:1000E000FB670008FB670008FB670008FB67000868
:1000F000FB670008FB670008FB670008FB67000858
:10010000FB670008FB670008FB670008FB67000847
:10011000FB67000871560008FB670008FB670008D2
:10012000FB670008FB670008FB670008FB67000827
:10013000FB670008FB670008FB670008FB67000817
:100140009D590008FB670008FB6700087D880308CD
:10015000FB670008FB670008FB670008095D0008F3
:10016000FB670008FB670008FB670008FB670008E7
:10017000FB670008FB670008FB670008FB670008D7
:10018000FB670008FB670008DFF80CD039F01EFCA5
:10019000004800471503000850D401202C4B196873
:1001A0000868B0E8F04F80F30988BFF36F8F4FF015
:1001B000000080F3118870470000000008480068C4
:1001C000006880F308884FF0000080F3148862B65E
:1001D00061B6BFF34F8FBFF36F8F00DF00BF00BF6B
:1001E00008ED00E0DFF80C00016841F470010160E7
:1001F000704700BF88ED00E0EFF30980BFF36F8F19
:10020000134B1A681EF0100F08BF20ED108A20E96A
:10021000F04F106009B44FF0100080F31188BFF365
:100220004F8FBFF36F8F08F058FA4FF0000080F344
:10023000118809BC19680868B0E8F04F1EF0100F6B
:1002400008BFB0EC108A80F30988BFF36F8F704746
:100250006C000020EFF30580704700007FB50C466E
:1002600005460121022006F0ECFF0195ADF80040A3
:100270000024394DADF80240ADF8084069462846E3
:1002800007F0D2FA01221146284607F056FE012156
:10029000284607F041FB1D208DF80C008DF80D401D
:1002A00002208DF80E0001208DF80F0003A806F043
:1002B000AEFA7FBD4FF4A06006F0A4FA4FF4FA60E6
:1002C00033F030F800F039FE04F065FC012000F056
:1002D00075FC0BF058FE09F084F909F0F8F9532188
:1002E00040F2CF70FFF7BAFF32F088F933F06FFBBE
:1002F00034F026FC0021012009F096F927F078FD62
:10030000022033F00FF8F5E7144800680168491C33
:10031000016070470EB5A82006F016F8032002A968
:10032000CDE9000100234FF480520DA1AFF27B0014
:1003300007F081FF08F00DFB00200EBD10B5064C44
:1003400010342088C00702D0022024F0F7FD4FF6B9
:10035000FE70208010BD000000040040000000205E
:100360004F7574736964655F6D6F746F7200000020
:100370007047FEE7FEE7FEE7FEE770470CB500209A
:100380005449019000900A6842F480320A604FF4A8
:10039000A0430A6802F400320092019A521C0192B2
:1003A000009A12B9019A9A42F3D10A68920334D59D
:1003B0000120009047484030026842F080520260BD
:1003C0004548026842F440420260424808300268F0
:1003D0000260026842F400420260026842F4A052E5
:1003E0000260031F3D4A1A600A6842F080720A6088
:1003F0000A689201FCD53A4A40F205711160016821
:1004000021F003010160016841F00201016001680F
:10041000C1F381010229FAD10CBD00900CBD314815
:1004200010B5016841F4700101602A48016841F08B
:1004300001010160274A00210832116002682A4B3D
:100440001A400260031D294A1A60026822F48022C1
:10045000026020480C300160FFF790FF21494FF007
:1004600000608039086010BD70B51A4C08342068EF
:100470001F4A10F00C011F4804D05510042903D066
:10048000082903D002601BE0056019E01149091D2D
:100490000B68C3F380560B6803F03F0316B1B5FB3E
:1004A000F3F201E0B2FBF3F20B680968C3F38813BF
:1004B0005A43C1F30141491C4900B2FBF1F101600B
:1004C00021680C4AC1F30311121D515C0268CA4035
:1004D000026070BD003802400070004008544007C0
:1004E000003C024088ED00E0FFFFF6FE10300024E3
:1004F0000024F4000400002001B5BDF80000ADF8B0
:100500000000BDF800004FF0D841A1F87E0008BD02
:1005100001B5BDF80000ADF80000BDF800004FF0D7
:10052000D841A1F8800008BD08B54FF0D840B0F818
:100530008000ADF80000BDF8000008BD4FF0D842C3
:1005400022F87E0F5180704710B5FFF7D5FF0520C8
:1005500005F000FFBDE81040E6E7FE484FF0D84147
:100560000089A1F87E0070474FF0D841A1F88000C3
:100570007047C0F34511C20AC00200EB411010449D
:1005800080B27047401EC0B2FCD27047F0B5F14E49
:1005900002463346B0880C464FEA112C150A5B8997
:1005A000A0F5134141391AD0A0F5A641103916D053
:1005B000B646B1793688A0F5D047B61A761E043F04
:1005C00018D07746A0F5C85EBEF1630E27D0A0F51F
:1005D000A04EBEF5A26E5BD0012974D074E018461F
:1005E000FFF78AFF2846FFF793FFD0B2FFF790FF8F
:1005F000B0890DE07546012900D1B2B21846FFF767
:100600007BFF100AFFF784FFD0B2FFF781FFA889B4
:10061000FFF772FF6046FFF77BFFE0B226E041B3D1
:100620001846FFF769FF2846FFF772FFD0B2FFF7C1
:100630006FFF3888401EC0F30F20FFF769FF38783E
:10064000401EC0B2FFF764FFB889FFF755FF604650
:10065000FFF75EFFE0B2FFF75BFF7888401EC0F354
:100660000F20FFF755FFB878401EC0B2BDE8F0403C
:100670004EE7B2B21846FFF73FFF0020FFF748FFF2
:100680000020FFF745FF100AFFF742FFD0B2D9E77D
:100690001846FFF731FF2846FFF73AFF7889401CDC
:1006A00080B2FFF729FFD0B2FFF732FFB889FFF71A
:1006B00023FF6046FFF72CFFB889401C80B2FFF78C
:1006C0001BFFAAE7FFE7B2B211461846FFF736FF55
:1006D000B8892146BDE8F04030E72DE9F0419D4C56
:1006E000002635462288824202D962888A4202D890
:1006F0000020BDE8F081FFF749FFA08849F24138AA
:1007000041F6631C45F2103245F21057404507D0C0
:10071000A0F5D041043903D0904201D0604501D109
:100720002E2005E0B84202D14FF4385000E02220DC
:10073000FFF7E2FEA088A0F51341203903D1012084
:10074000401EC0B2FCD2FFF7EFFEA1886145D0D0B9
:100750000120401EC0B2FCD2FFF7E6FE0146A08891
:10076000C446604503D0904201D0B8420BD101206D
:10077000401EC0B2FCD2FFF7D7FE0546C8B24FF606
:10078000FF7303EA0026A088A0F51343253B1AD087
:10079000A0F58A43353B16D01B1D14D0A0F5354378
:1007A000053B10D0B3F580530DD0604503D0904287
:1007B00001D0B84209D1C80AC002B10A40EA4110CA
:1007C00040EAD52095E7084693E7BDE8F0410846A2
:1007D000CFE660488088A0F51341413913D0A0F5D9
:1007E000D04104390FD0A0F5A64110390BD0A0F5A7
:1007F000C851633907D0A0F5AA41103905D040F29D
:10080000731107209AE6292001E04FF4245073E683
:1008100050488088A0F51341413912D0A0F5D0414D
:1008200004390ED0A0F5A64110390AD0A0F5C85160
:10083000633906D0A0F5AA41103904D00021072061
:100840007CE6282001E04FF4205055E6F0B5414CFD
:1008500000232146A579898846F6040241F66316ED
:10086000012D01D02DB11DE091421BD0B14202D12A
:1008700018E0B14216D1082814D2DFE800F00406CF
:10088000080A0C0E101206200CE007200AE00420D3
:1008900008E0052006E0012004E0002002E003203B
:1008A00000E00220A1F5134C45F2103745F2105537
:1008B000BCF1410C07D0914205D0B94203D0A94206
:1008C00001D0B1427ED1082812D2DFE800F0110435
:1008D00006080A0C0E1080230AE0402308E0C0231B
:1008E00006E0202304E0602302E0A02300E0E023F0
:1008F000A94202D14FF4585000E03620B94205D049
:10090000A94203D0B14201D043F00803914201D182
:1009100043F002031946FFF711FEA188B1420AD045
:1009200098062088628802D5904202D303E0904264
:1009300001D9228060806089A94244D1FFF7DCFDA3
:100940000020FFF7E5FD6089401C80B2FFF7D4FD71
:10095000002001E014050020FFF7DAFD6089801C0B
:1009600080B2FFF7C9FD2088401EC0F30F20FFF7BB
:10097000CFFD6089C01C80B2FFF7BEFD2078401E0D
:10098000C0B2FFF7C5FDA089FFF7B6FD0020FFF755
:10099000BFFDA089401C80B2FFF7AEFD0020FFF72D
:1009A000B7FDA089801C80B2FFF7A6FD6088401EBD
:1009B000C0F30F20FFF7ACFDA089C01C80B2FFF789
:1009C0009BFD22E027E0FFF797FD0020FFF7A0FD49
:1009D0000020FFF79DFD2088401EC0F30F20FFF789
:1009E00097FD2078401EC0B2FFF792FDA089FFF767
:1009F00083FD0020FFF78CFD0020FFF789FD608854
:100A0000401EC0F30F20FFF783FDA078BDE8F04043
:100A1000401EC0B27CE5082812D2DFE800F00406D0
:100A200008110A0C0E1030230AE0102308E02023DE
:100A300006E0382304E0282302E0182300E008231E
:100A4000BDE8F040032043F4805177E500B5FFF79F
:100A50009DFDFFF782FDFE484FF0D8410088A1F8C8
:100A6000800000BD2DE9F041FA4C90460246A08876
:100A700023460D464FEA112C160A5B89A0F5134157
:100A8000413916D0A0F5A641103912D0B1F5007148
:100A900014D02646A0F5C857B1793688B61A761E06
:100AA000633F25D0A0F5D047043F3DD0012951D068
:100AB00051E01846FFF720FD30463CE01846FFF7AE
:100AC0001BFD3046FFF724FD6089401C80B2FFF714
:100AD00013FDD0B2FFF71CFDA089FFF70DFD6046A6
:100AE000FFF716FDA089401C80B2FFF705FD2DE041
:100AF00001B9B2B21846FFF7FFFC160A3046FFF7FD
:100B000007FDD0B2FFF704FD3046FFF701FDD0B27C
:100B1000FFF7FEFCA089FFF7EFFC6046FFF7F8FC4B
:100B2000E8B2FFF7F5FC0EE0012900D1B2B2184699
:100B3000FFF7E2FC100AFFF7EBFCD0B2FFF7E8FC8E
:100B4000A089FFF7D9FC6046FFF7E2FCE8B2FFF7A7
:100B5000DFFC08E0B2B211461846FFF7EFFCA089AF
:100B60002946FFF7EBFC4FF0D840218920F87E1F83
:100B7000A0F80280BDE510B50246BE20FFF7BCFC20
:100B80000520FFF7C5FC104638F052FB9FEDB21B65
:100B900053EC112B38F05AFA38F076FB80B2FFF79D
:100BA000B7FC0120FFF7B4FCFF20FFF7B1FC0020E9
:100BB000FFF7AEFCBDE810400020A9E42DE9F04F9E
:100BC000A4492A242B25898845F2105A4FF4305B1A
:100BD0004FF4285E4FF448764FF0F00C49F241395B
:100BE0004FF4A07345F210374FF4F07280B199487A
:100BF0004FF00108494580F806800380A0F802C044
:100C000001D0B9423ED12C2606814481858157E02E
:100C100090484FF00008494580F80680A0F800C0D1
:100C2000438006D0A1F5D04CBCF1040C01D0B942F0
:100C30000CD12C2606814481A1F5D0448581043C49
:100C400001D0B94244D10380428041E0514507D1EF
:100C5000A0F808B0A0F80AE04FF42C5181810EE012
:100C6000A1F5C853633B06D0222101812021418197
:100C7000212181812CE02C21018145818481028008
:100C8000468025E0A1F5D04CBCF1040C09D05145BB
:100C90000BD1A0F808B0A0F80AE04FF42C548481DE
:100CA00020E02C260681458109E0A1F5C85CBCF155
:100CB000630C11D0222404812124448120248481C6
:100CC000A1F5D044043C01D0B94201D10280438057
:100CD000BDE8F04F0020B9E54FF02C0CA0F808C09B
:100CE0004481858106804280EAE72DE9FE4F044673
:100CF000104401EB0308DFF85C91401EA8F10108E5
:100D000087B2B9F80400C8F3072302930B0A0093D3
:100D1000A3185B1EC3F3072301934B460D465B8963
:100D2000A0F513411FFA88F64FEA142B413912D06F
:100D3000A0F5A04CBCF5447C0DD0A0F5D04CBCF186
:100D4000040C08D099F806A041F6631CBAF1010F13
:100D50001ED160451CD14A461846FFF7CDFB5846C8
:100D6000FFF7D6FBE0B2FFF7D3FB0198FFF7D0FB0C
:100D7000F8B2FFF7CDFB9089FFF7BEFB0098FFF7B5
:100D8000C7FBE8B2FFF7C4FB0298FFF7C1FB95E091
:100D900030496045098825D1881A001B84B24E4627
:100DA0001FFA88F71846FFF7A7FB200AFFF7B0FBEA
:100DB000E0B2FFF7ADFB2244521EC2F30F20FFF753
:100DC000A7FBD0B2FFF7A4FBB089FFF795FB009813
:100DD000FFF79EFBE8B2FFF79BFB380AFFF798FB93
:100DE000F8B26CE0A0F5A04C4A46BCF5A26C23D04A
:100DF000BAF1010F67D03B4620462F4650220146EC
:100E00004FF051094FF052084FF0530C1046FFF7C6
:100E100095FB19464846FFF791FB39464046FFF7D8
:100E20008DFB31466046FFF789FB03B0294620461B
:100E3000BDE8F04FFFF7AABB1846FFF75DFB584629
:100E4000FFF766FB5089401C80B2FFF755FB07E0B7
:100E50001800002014050020666666666666044079
:100E6000E0B2FFF755FB5089801C80B2FFF744FBCE
:100E70000198FFF74DFB5089C01C80B2FFF73CFB87
:100E8000F8B2FFF745FB9089FFF736FB0098FFF7B4
:100E90003FFB9089401C80B2FFF72EFBE8B2FFF7C2
:100EA00037FB9089801C80B2FFF726FB0298FFF782
:100EB0002FFB9089C01C80B2FFF71EFBF0B2BDE88B
:100EC000FE4FFFF725BBCA1B521E091B3346491EA6
:100ED000284697B28EB291E72DE9F043FF4C814648
:100EE0000025208866884643A088A0F5D0410439B3
:100EF00002D1A079012808D000210846FFF746FB5F
:100F0000FFF72BFB4FF0D84013E00020A0712A27F9
:100F100067814FF02B08A4F80C800146FFF736FBE1
:100F20000120A071A4F80A80A781E9E7A0F88090C9
:100F30006D1CB542FAD3BDE8F0832DE9F04FA1B0A6
:100F4000002401217A20119406F05DF90121084660
:100F500006F06DF901208DF804008DF8064002209E
:100F60008DF80500012008258DF8070000956946D9
:100F7000DB4805F00BFD4CF23370009002208DF839
:100F800004008DF8064003208DF8050001208DF83F
:100F900007006946D34805F0F9FC4FF680700090D1
:100FA00002208DF804008DF8064003208DF805001E
:100FB0000120CD4E8DF807006946304605F0E6FC6D
:100FC0006802009002208DF804008DF8064003208E
:100FD0008DF805000120C54F8DF807006946384699
:100FE00005F0D4FC6802009002208DF804008DF812
:100FF000064003208DF8050001208DF807006946A2
:10100000B74805F0C3FC0C220021B64805F047FDA7
:101010000C220121B34805F042FD0C220421B14805
:1010200005F03DFD0C220521AE4805F038FD0C22EF
:101030000821AC4805F033FD0C220921A94805F030
:101040002EFD0C220A21A74805F029FD0C220E21B5
:10105000A44805F024FD0C220F21A24805F01FFD35
:101060000C220721304605F01AFD0C2208213046DB
:1010700005F015FD0C220921304605F010FD0C226B
:101080000A21304605F00BFD0C220B21304605F0FD
:1010900006FD0C221146304605F001FD0C220D2103
:1010A000304605F0FCFC0C220E21304605F0F7FC22
:1010B0000C220F21304605F0F2FC0C221146384676
:1010C00005F0EDFC0C221146854805F0E8FC0F20E8
:1010D000CDE91A043C20CDE91C0413A91E941F94E9
:1010E0000920209481E83100169417940620CDE958
:1010F0000204189419941020CDE9044006940002CB
:10110000CDE90A40089407948000CDE90C40099489
:101110001AA8CDE90E4013A8109002A805F0FAFC19
:101120000121062005F06FFD6D4C1834258001204B
:1011300005F02CF9A01C0580012005F027F9258079
:10114000322005F023F901210020FFF7F7F93220C2
:1011500005F01CF90020FFF7F7F9DFF880C14FF028
:1011600020494FF6FF78ACF8040049F2413545F2CA
:10117000103645F2105441F6631246F60407FF2874
:1011800004D3404502D0B0F5134F7DD1D320FFF7F3
:10119000B3F9FFF7C9F9ACF80400FFF7C5F9ACF8EB
:1011A0000400FFF7C1F908EA0020ACF80400FFF7DB
:1011B000BBF9BCF804100843ACF80400A84273D093
:1011C000BF20FFF799F9FFF7AFF9ACF80400FFF77C
:1011D000ABF9ACF80400FFF7A7F9ACF80400FFF78F
:1011E000A3F908EA0020ACF80400FFF79DF9BCF869
:1011F00004100843ACF80400B84255D0D420FFF7DF
:101200007BF9FFF791F9ACF80400FFF78DF9ACF822
:101210000400FFF789F908EA0020ACF80400FFF7A2
:1012200083F9BCF804100843ACF80400B0423BD08A
:101230004FF45A40FFF760F9FFF776F9ACF8040075
:101240004FF45B40FFF758F9FFF76EF908EA00200A
:10125000ACF804004FF45C40FFF74EF9FFF764F977
:10126000BCF804100843ACF80400B0F5004F4BD0B4
:10127000A04219D0A120FFF73FF9FFF755F9ACF8CC
:101280000400FFF751F900E00EE008EA0020ACF896
:101290000400FFF749F9BCF804100843A0F5AE417B
:1012A000ACF8040061392CD080B2A84205D0B0421D
:1012B00003D0A04201D0904229D1D9F81C11484650
:1012C00021F00F01C9F81C11D9F81C1121F470612B
:1012D000C9F81C11D9F81C110AE0000014050020FF
:1012E00000180240000C02400010024000140240AE
:1012F00041F00301C9F81C11D9F81C1141F4007127
:1013000022E0ACF80420D8E7ACF80440D5E7B842B6
:1013100003D0A0F54541053918D1D9F81C1148462C
:1013200021F00F01C9F81C11D9F81C1121F47061CA
:10133000C9F81C11D9F81C1141F00A01C9F81C1197
:10134000D9F81C1141F44061C0F81C11BCF804002C
:10135000A8427CD1CF20FFF7CFF80020FFF7D8F8C4
:10136000C120FFF7D5F83020FFF7D2F8ED20FFF7C6
:10137000C3F86420FFF7CCF80320FFF7C9F8122068
:10138000FFF7C6F88120FFF7C3F8E820FFF7B4F8AD
:101390008520FFF7BDF81020FFF7BAF87A20FFF795
:1013A000B7F8CB20FFF7A8F83920FFF7B1F82C20C9
:1013B000FFF7AEF80020FFF7ABF83420FFF7A8F8EE
:1013C0000220FFF7A5F8F720FFF796F82020FFF797
:1013D0009FF8EA20FFF790F80020FFF799F8002027
:1013E000FFF796F8C020FFF787F81B20FFF790F86B
:1013F000C120FFF781F80120FFF78AF8C520FFF729
:101400007BF83020FFF784F83020FFF781F8C72001
:10141000FFF772F8B720FFF77BF83620FFF76CF87C
:101420004820FFF775F83A20FFF766F85520FFF7D8
:101430006FF8B120FFF760F80020FFF769F81A2075
:10144000FFF766F8B620FFF757F80A2000E092E0B1
:10145000FFF75EF8A220FFF75BF8F220FFF74CF8E9
:101460000020FFF755F82620FFF746F80120FFF788
:101470004FF8E020FFF740F80F20FFF749F82A2047
:10148000FFF746F82820FFF743F80820FFF740F859
:101490000E20FFF73DF80820FFF73AF85420FFF739
:1014A00037F8A920FFF734F84320FFF731F80A2076
:1014B000FFF72EF80F20FFF72BF80020FFF728F892
:1014C0000020FFF725F80020FFF722F80020FFF7A3
:1014D0001FF8E120FFF710F80020FFF719F815209A
:1014E000FFF716F81720FFF713F80720FFF710F89B
:1014F0001120FFF70DF80620FFF70AF82B20FFF761
:1015000007F85620FFF704F83C20FFF701F8052004
:10151000FEF7FEFF1020FEF7FBFF0F20FEF7F8FF9F
:101520003F20FEF7F5FF3F20FEF7F2FF0F20FEF70A
:10153000EFFF2B20FEF7E0FF0020FEF7E9FF002081
:10154000FEF7E6FF0120FEF7E3FF3F20FEF7E0FF96
:101550002A20FEF7D1FF0020FEF7DAFF0020FEF779
:10156000D7FF0020FEF7D4FFEF20FEF7D1FF1120B8
:10157000FEF7C2FFA5E0B8427ED11120FEF7BCFF06
:10158000142004F003FFD020FEF7B6FF0720FEF77B
:10159000BFFF4220FEF7BCFF1D20FEF7B9FFD120A0
:1015A000FEF7AAFF0020FEF7B3FF1A20FEF7B0FFF8
:1015B0000920FEF7ADFFD220FEF79EFF0120FEF7C7
:1015C000A7FF2220FEF7A4FFC020FEF795FF102002
:1015D000FEF79EFF3B20FEF79BFF0020FEF798FFE3
:1015E0000220FEF795FF1120FEF792FFC520FEF7BF
:1015F00083FF0320FEF78CFFC820FEF77DFF00204D
:10160000FEF786FF2520FEF783FF2120FEF780FFEF
:101610000520FEF77DFF0020FEF77AFF0A20FEF787
:1016200077FF6520FEF774FF2520FEF771FF772016
:10163000FEF76EFF5020FEF76BFF0F20FEF768FFEE
:101640000020FEF765FFF820FEF756FF0120FEF7A9
:101650005FFFFE20FEF750FF0020FEF759FF02203B
:10166000FEF756FF2020FEF747FF3620FEF744FF27
:101670000820FEF74DFF00E029E03A20FEF73CFF8E
:101680005520FEF745FF2B20FEF736FF0020FEF722
:101690003FFF0020FEF73CFF0120FEF739FF3F200F
:1016A000FEF736FF2A20FEF727FF0020FEF730FF67
:1016B0000020FEF72DFF0120FEF72AFFDF20FEF7B6
:1016C00027FF782004F062FE292001F0FBBEB04223
:1016D0007ED1ED20FEF710FF0120FEF719FFFE205E
:1016E000FEF716FFEE20FEF707FFDE20FEF710FFE5
:1016F0002120FEF70DFFF120FEF7FEFE0120FEF790
:1017000007FFDF20FEF7F8FE1020FEF701FFC420E0
:10171000FEF7F2FE8F20FEF7FBFEC620FEF7ECFE82
:101720000020FEF7F5FEE220FEF7F2FEE220FEF7D3
:10173000EFFEE220FEF7ECFEBF20FEF7DDFEAA2062
:10174000FEF7E6FEB020FEF7D7FE0D20FEF7E0FE26
:101750000020FEF7DDFE0D20FEF7DAFE0020FEF78A
:10176000D7FE1120FEF7D4FE0020FEF7D1FE19208F
:10177000FEF7CEFE0020FEF7CBFE2120FEF7C8FECE
:101780000020FEF7C5FE2D20FEF7C2FE0020FEF76A
:10179000BFFE3D20FEF7BCFE0020FEF7B9FE5D2037
:1017A000FEF7B6FE0020FEF7B3FE5D20FEF7B0FEAA
:1017B0000020FEF7ADFEB120FEF79EFE8020FEF772
:1017C000A7FE0020FEF7A4FE8B20FEF7A1FE00E09E
:1017D000FDE30020FEF79CFE9620FEF799FE002018
:1017E000FEF796FEB220FEF787FE0020FEF790FE81
:1017F0000020FEF78DFE0220FEF78AFE0020FEF795
:1018000087FE0320FEF784FE0020FEF781FEB32052
:10181000FEF772FE0020FEF77BFE0020FEF778FE4A
:101820000020FEF775FE0020FEF772FE0020FEF796
:101830006FFE0020FEF76CFE0020FEF769FE002020
:10184000FEF766FE0020FEF763FE0020FEF760FE56
:101850000020FEF75DFE0020FEF75AFE0020FEF796
:1018600057FE0020FEF754FE0020FEF751FE002038
:10187000FEF74EFE0020FEF74BFE0020FEF748FE6E
:101880000020FEF745FE0020FEF742FE0020FEF796
:101890003FFE0020FEF73CFE0020FEF739FE002050
:1018A000FEF736FEB420FEF727FE8B20FEF730FE53
:1018B0000020FEF72DFE9620FEF72AFE0020FEF700
:1018C00027FEA120FEF724FE0020FEF721FEB52012
:1018D000FEF712FE0220FEF71BFE0020FEF718FEA8
:1018E0000320FEF715FE0020FEF712FE0420FEF78F
:1018F0000FFE0020FEF70CFEB620FEF7FDFD0020D7
:10190000FEF706FE0020FEF703FEB720FEF7F4FD0B
:101910000020FEF7FDFD0020FEF7FAFD3F20FEF758
:10192000F7FD0020FEF7F4FD5E20FEF7F1FD00203C
:10193000FEF7EEFD6420FEF7EBFD0020FEF7E8FD6C
:101940008C20FEF7E5FD0020FEF7E2FDAC20FEF75F
:10195000DFFD0020FEF7DCFDDC20FEF7D9FD0020D6
:10196000FEF7D6FD7020FEF7D3FD0020FEF7D0FD78
:101970009020FEF7CDFD0020FEF7CAFDEB20FEF71C
:10198000C7FD0020FEF7C4FDDC20FEF7C1FD0020EE
:10199000FEF7BEFDB820FEF7AFFD0020FEF7B8FD54
:1019A0000020FEF7B5FD0020FEF7B2FD0020FEF797
:1019B000AFFD0020FEF7ACFD0020FEF7A9FD0020E2
:1019C000FEF7A6FD0020FEF7A3FDBA20FEF794FD6A
:1019D0002420FEF79DFD0020FEF79AFD0020FEF773
:1019E00097FD0020FEF794FDC120FEF785FD202025
:1019F000FEF78EFD0020FEF78BFD5420FEF788FDDC
:101A00000020FEF785FDFF20FEF782FD0020FEF797
:101A10007FFDC220FEF770FD0A20FEF779FD002051
:101A2000FEF776FD0420FEF773FD0020FEF770FD43
:101A3000C320FEF761FD3C20FEF76AFD0020FEF7A3
:101A400067FD3A20FEF764FD0020FEF761FD3920B6
:101A5000FEF75EFD0020FEF75BFD3720FEF758FD28
:101A60000020FEF755FD3C20FEF752FD0020FEF75A
:101A70004FFD3620FEF74CFD0020FEF749FD3220D9
:101A8000FEF746FD0020FEF743FD2F20FEF740FD48
:101A90000020FEF73DFD2C20FEF73AFD0020FEF76A
:101AA00037FD2920FEF734FD0020FEF731FD26200A
:101AB000FEF72EFD0020FEF72BFD2420FEF728FD6B
:101AC0000020FEF725FD2420FEF722FD0020FEF772
:101AD0001FFD2320FEF71CFD0020FEF719FD3C2012
:101AE000FEF716FD0020FEF713FD3620FEF710FD71
:101AF0000020FEF70DFD3220FEF70AFD0020FEF764
:101B000007FD2F20FEF704FD0020FEF701FD2C202D
:101B1000FEF7FEFC0020FEF7FBFC2920FEF7F8FC98
:101B20000020FEF7F5FC2620FEF7F2FC0020FEF771
:101B3000EFFC2420FEF7ECFC0020FEF7E9FC24205B
:101B4000FEF7E6FC0020FEF7E3FC2320FEF7E0FCB6
:101B50000020FEF7DDFCC420FEF7CEFC6220FEF77D
:101B6000D7FC0020FEF7D4FC0520FEF7D1FC0020B6
:101B7000FEF7CEFC8420FEF7CBFC0020FEF7C8FC6D
:101B8000F020FEF7C5FC0020FEF7C2FC1820FEF78F
:101B9000BFFC0020FEF7BCFCA420FEF7B9FC00202F
:101BA000FEF7B6FC1820FEF7B3FC0020FEF7B0FCF1
:101BB0005020FEF7ADFC0020FEF7AAFC0C20FEF73B
:101BC000A7FC0020FEF7A4FC1720FEF7A1FC0020D4
:101BD000FEF79EFC9520FEF79BFC0020FEF798FC8C
:101BE000F320FEF795FC0020FEF792FCE620FEF7BE
:101BF0008FFC0020FEF78CFCC520FEF77DFC322018
:101C0000FEF786FC0020FEF783FC4420FEF780FCF4
:101C10000020FEF77DFC6520FEF77AFC0020FEF731
:101C200077FC7620FEF774FC0020FEF771FC88201C
:101C3000FEF76EFC0020FEF76BFCC620FEF75CFC96
:101C40002020FEF765FC0020FEF762FC1720FEF75F
:101C50005FFC0020FEF75CFC0120FEF759FC002031
:101C6000FEF756FCC720FEF747FC0020FEF750FCAD
:101C70000020FEF74DFC0020FEF74AFC0020FEF796
:101C800047FCC820FEF738FC0020FEF741FC00208E
:101C9000FEF73EFC0020FEF73BFC0020FEF738FC80
:101CA000C920FEF729FC0020FEF732FC0020FEF7D9
:101CB0002FFC0020FEF72CFC0020FEF729FC002062
:101CC000FEF726FC0020FEF723FC0020FEF720FC98
:101CD0000020FEF71DFC0020FEF71AFC0020FEF796
:101CE00017FC0020FEF714FC0020FEF711FC00207A
:101CF000FEF70EFC0020FEF70BFC0020FEF708FCB0
:101D00000020FEF705FCE020FEF7F6FB1620FEF7AC
:101D1000FFFB0020FEF7FCFB1C20FEF7F9FB002078
:101D2000FEF7F6FB2120FEF7F3FB0020FEF7F0FBA9
:101D30003620FEF7EDFB0020FEF7EAFB4620FEF71B
:101D4000E7FB0020FEF7E4FB5220FEF7E1FB00205A
:101D5000FEF7DEFB6420FEF7DBFB0020FEF7D8FB7E
:101D60007A20FEF7D5FB0020FEF7D2FB8B20FEF792
:101D7000CFFB0020FEF7CCFB9920FEF7C9FB00202B
:101D8000FEF7C6FBA820FEF7C3FB0020FEF7C0FB52
:101D9000B920FEF7BDFB0020FEF7BAFBC420FEF71A
:101DA000B7FB0020FEF7B4FBCA20FEF7B1FB002012
:101DB000FEF7AEFBD220FEF7ABFB0020FEF7A8FB40
:101DC000D920FEF7A5FB0020FEF7A2FBE020FEF7DE
:101DD0009FFB0020FEF79CFBF320FEF799FB002001
:101DE000FEF796FBE120FEF787FB1620FEF790FB3F
:101DF0000020FEF78DFB1C20FEF78AFB0020FEF77B
:101E000087FB2220FEF784FB0020FEF781FB3620B3
:101E1000FEF77EFB0020FEF77BFB4520FEF778FBFC
:101E20000020FEF775FB5220FEF772FB0020FEF744
:101E30006FFB6420FEF76CFB0020FEF769FB7A2045
:101E4000FEF766FB0020FEF763FB8B20FEF760FBCE
:101E50000020FEF75DFB9920FEF75AFB0020FEF7FD
:101E600057FBA820FEF754FB0020FEF751FBB920DA
:101E7000FEF74EFB0020FEF74BFBC420FEF748FBAD
:101E80000020FEF745FBCA20FEF742FB0020FEF7CC
:101E90003FFBD220FEF73CFB0020FEF739FBD820A9
:101EA000FEF736FB0020FEF733FBE020FEF730FBA9
:101EB0000020FEF72DFBF320FEF72AFB0020FEF7A3
:101EC00027FBE220FEF718FB0520FEF721FB002090
:101ED000FEF71EFB0B20FEF71BFB0020FEF718FB96
:101EE0001B20FEF715FB0020FEF712FB3420FEF747
:101EF0000FFB0020FEF70CFB4420FEF709FB00203F
:101F0000FEF706FB4F20FEF703FB0020FEF700FB69
:101F10006120FEF7FDFA0020FEF7FAFA7920FEF7BD
:101F2000F7FA0020FEF7F4FA8820FEF7F1FA002015
:101F3000FEF7EEFA9720FEF7EBFA0020FEF7E8FA3C
:101F4000A620FEF7E5FA0020FEF7E2FAB720FEF73A
:101F5000DFFA0020FEF7DCFAC220FEF7D9FA0020F3
:101F6000FEF7D6FAC720FEF7D3FA0020FEF7D0FA24
:101F7000D120FEF7CDFA0020FEF7CAFAD620FEF7F0
:101F8000C7FA0020FEF7C4FADD20FEF7C1FA0020F0
:101F9000FEF7BEFAF320FEF7BBFA0020FEF7B8FA10
:101FA000E320FEF7A9FA0520FEF7B2FA0020FEF7BB
:101FB000AFFA0A20FEF7ACFA0020FEF7A9FA1C20BF
:101FC000FEF7A6FA0020FEF7A3FA332000E0FAE2BB
:101FD000FEF79EFA0020FEF79BFA4420FEF798FADF
:101FE0000020FEF795FA5020FEF792FA0020FEF747
:101FF0008FFA6220FEF78CFA0020FEF789FA78202B
:10200000FEF786FA0020FEF783FA8820FEF780FAB2
:102010000020FEF77DFA9720FEF77AFA0020FEF7FF
:1020200077FAA620FEF774FA0020FEF771FAB720BF
:10203000FEF76EFA0020FEF76BFAC220FEF768FA90
:102040000020FEF765FAC720FEF762FA0020FEF7CF
:102050005FFAD120FEF75CFA0020FEF759FAD5208E
:10206000FEF756FA0020FEF753FADD20FEF750FA8D
:102070000020FEF74DFAF320FEF74AFA0020FEF7A3
:1020800047FAE420FEF738FA0120FEF741FA002073
:10209000FEF73EFA0120FEF73BFA0020FEF738FA81
:1020A0000220FEF735FA0020FEF732FA2A20FEF76A
:1020B0002FFA0020FEF72CFA3C20FEF729FA002028
:1020C000FEF726FA4B20FEF723FA0020FEF720FA4F
:1020D0005D20FEF71DFA0020FEF71AFA7420FEF7C5
:1020E00017FA0020FEF714FA8420FEF711FA0020F8
:1020F000FEF70EFA9320FEF70BFA0020FEF708FA1F
:10210000A220FEF705FA0020FEF702FAB320FEF740
:10211000FFF90020FEF7FCF9BE20FEF7F9F90020D8
:10212000FEF7F6F9C420FEF7F3F90020FEF7F0F908
:10213000CD20FEF7EDF90020FEF7EAF9D320FEF7F7
:10214000E7F90020FEF7E4F9DD20FEF7E1F90020D1
:10215000FEF7DEF9F320FEF7DBF90020FEF7D8F9F1
:10216000E520FEF7C9F90020FEF7D2F90020FEF7BE
:10217000CFF90020FEF7CCF90020FEF7C9F90220C4
:10218000FEF7C6F90020FEF7C3F92920FEF7C0F9D3
:102190000020FEF7BDF93C20FEF7BAF90020FEF75B
:1021A000B7F94B20FEF7B4F90020FEF7B1F95D2036
:1021B000FEF7AEF90020FEF7ABF97420FEF7A8F9A0
:1021C0000020FEF7A5F98420FEF7A2F90020FEF713
:1021D0009FF99320FEF79CF90020FEF799F9A220C1
:1021E000FEF796F90020FEF793F9B320FEF790F979
:1021F0000020FEF78DF9BE20FEF78AF90020FEF7D9
:1022000087F9C420FEF784F90020FEF781F9CD207C
:10221000FEF77EF90020FEF77BF9D320FEF778F970
:102220000020FEF775F9DC20FEF772F90020FEF7BA
:102230006FF9F320FEF76CF90020FEF769F9E6204C
:10224000FEF75AF91120FEF763F90020FEF760F956
:102250003420FEF75DF90020FEF75AF95620FEF70C
:1022600057F90020FEF754F97620FEF751F90020C7
:10227000FEF74EF97720FEF74BF90020FEF748F9FC
:102280006620FEF745F90020FEF742F98820FEF7A8
:102290003FF90020FEF73CF99920FEF739F90020BC
:1022A000FEF736F9BB20FEF733F90020FEF730F9D0
:1022B0009920FEF72DF90020FEF72AF96620FEF797
:1022C00027F90020FEF724F95520FEF721F9002018
:1022D000FEF71EF95520FEF71BF90020FEF718F94E
:1022E0004520FEF715F90020FEF712F94320FEF70E
:1022F0000FF90020FEF70CF94420FEF709F9002041
:10230000FEF706F9E720FEF7F7F83220FEF700F9AE
:102310000020FEF7FDF85520FEF7FAF80020FEF742
:10232000F7F87620FEF7F4F80020FEF7F1F86620C3
:10233000FEF7EEF80020FEF7EBF86720FEF7E8F86E
:102340000020FEF7E5F86720FEF7E2F80020FEF730
:10235000DFF88720FEF7DCF80020FEF7D9F8992097
:10236000FEF7D6F80020FEF7D3F8BB20FEF7D0F832
:102370000020FEF7CDF89920FEF7CAF80020FEF7FE
:10238000C7F87720FEF7C4F80020FEF7C1F8442014
:10239000FEF7BEF80020FEF7BBF85620FEF7B8F8AF
:1023A0000020FEF7B5F82320FEF7B2F80020FEF774
:1023B000AFF83320FEF7ACF80020FEF7A9F845206F
:1023C000FEF7A6F80020FEF7A3F8E820FEF794F841
:1023D0000020FEF79DF80020FEF79AF89920FEF7FE
:1023E00097F80020FEF794F88720FEF791F8002078
:1023F000FEF78EF88820FEF78BF80020FEF788F8AD
:102400007720FEF785F80020FEF782F86620FEF7B9
:102410007FF80020FEF77CF88820FEF779F800208E
:10242000FEF776F8AA20FEF773F80020FEF770F8A2
:10243000BB20FEF76DF80020FEF76AF89920FEF742
:1024400067F80020FEF764F86620FEF761F80020C8
:10245000FEF75EF85520FEF75BF80020FEF758F80F
:102460005520FEF755F80020FEF752F84420FEF7FD
:102470004FF80020FEF74CF84420FEF749F8002002
:10248000FEF746F85520FEF743F80020FEF740F827
:10249000E920FEF731F8AA20FEF73AF80020FEF70F
:1024A00037F80020FEF734F80020FEF731F800205E
:1024B000FEF722F8AA20FEF72BF8CF20FEF71CF833
:1024C0000020FEF725F80020FEF722F80020FEF796
:1024D0001FF80020FEF71CF80020FEF719F8002076
:1024E000FEF716F80020FEF713F80020FEF710F8AC
:1024F0000020FEF70DF80020FEF70AF80020FEF796
:1025000007F80020FEF704F80020FEF701F800208D
:10251000FDF7FEFF0020FDF7FBFF0020FDF7F8FFB1
:102520000020FDF7F5FFF020FDF7E6FF0020FDF7A6
:10253000EFFF5020FDF7ECFF0020FDF7E9FF002042
:10254000FDF7E6FF0020FDF7E3FFF320FDF7D4FFE2
:102550000020FDF7DDFFF920FDF7CEFF0620FDF797
:10256000D7FF1020FDF7D4FF2920FDF7D1FF002071
:10257000FDF7CEFF3A20FDF7BFFF5520FDF7C8FF5E
:102580001120FDF7B9FF642003F000FF2920FDF7BB
:10259000B3FF3520FDF7B0FF0020FDF7B9FF512054
:1025A000FDF7AAFFFF20FDF7B3FF5320FDF7A4FFBF
:1025B0002C20FDF7ADFF5520FDF79EFF8220FDF793
:1025C000A7FF2C20FDE3A0427ED14FF4704355219C
:1025D0001846FDF7B3FF4FF20104AA212046FDF78C
:1025E000ADFF651C52212846FDF7A8FFA61C082157
:1025F0003046FDF7A3FFE71C01213846FDF79EFF9B
:102600000D214FF43040FDF799FF0D214BF20100F1
:10261000FDF794FF0D214BF20200FDF78FFF4FF401
:10262000364C34216046FDF789FF34214BF20160BE
:10263000FDF784FF34214BF20260FDF77FFF4FF47A
:1026400031490D214846FDF779FF4BF2011A0D2162
:102650005046FDF773FF0D214BF20210FDF76EFFA0
:102660004FF4374B34215846FDF768FF34214BF2C5
:102670000170FDF763FF34214BF20270FDF75EFF3E
:1026800000214FF43240FDF759FF00214BF20120A9
:10269000FDF754FF00214BF20220FDF74FFF2421EC
:1026A0004FF43840FDF74AFF24214BF60100FDF7B7
:1026B00045FF24214BF60200FDF740FF01214FF4B6
:1026C0003F40FDF73BFF00E0FEE30F214FF43340B6
:1026D000FDF734FF0F214BF20130FDF72FFF0F21E3
:1026E0004BF20230FDF72AFF34214FF43940FDF759
:1026F00025FF34214BF60110FDF720FF34214BF666
:102700000210FDF71BFF08214FF43540FDF716FFBF
:1027100008214BF20150FDF711FF08214BF2025046
:10272000FDF70CFF03214FF44240FDF707FF242182
:102730004FF43A40FDF702FF24214BF60120FDF74C
:10274000FDFE24214BF60220FDF7F8FE00214FF498
:102750003C40FDF7F3FE78214BF60140FDF7EEFE1D
:1027600000214BF60240FDF7E9FE00214FF43D4009
:10277000FDF7E4FE78214BF60150FDF7DFFE002166
:102780004BF60250FDF7DAFE00214FF43E40FDF714
:10279000D5FE64214BF60160FDF7D0FE00214FF419
:1027A0005140FDF7CBFE33214DF20110FDF7C6FE7F
:1027B00000214DF20210FDF7C1FE34214DF203104D
:1027C000FDF7BCFE00214DF20410FDF7B7FE3A21E3
:1027D0004DF20510FDF7B2FE00214DF20610FDF797
:1027E000ADFE4A214DF20710FDF7A8FE00214DF283
:1027F0000810FDF7A3FE5C214DF20910FDF79EFEC7
:1028000000214DF20A10FDF799FE81214DF20B10C7
:10281000FDF794FE00214DF20C10FDF78FFEA6216E
:102820004DF20D10FDF78AFE00214DF20E10FDF75E
:1028300085FEE5214DF20F10FDF780FE01214DF2DE
:102840001010FDF77BFE13214DF21110FDF776FEFF
:1028500001214DF21210FDF771FE54214DF21310BB
:10286000FDF76CFE01214DF21410FDF767FE822189
:102870004DF21510FDF762FE01214DF21610FDF725
:102880005DFECA214DF21710FDF758FE02214DF2F0
:102890001810FDF753FE00214DF21910FDF74EFE02
:1028A00002214DF21A10FDF749FE01214DF21B10D5
:1028B000FDF744FE02214DF21C10FDF73FFE3421CE
:1028C0004DF21D10FDF73AFE02214DF21E10FDF7EC
:1028D00035FE67214DF21F10FDF730FE02214DF24B
:1028E0002010FDF72BFE84214DF22110FDF726FE6E
:1028F00002214DF22210FDF721FEA4214DF22310FA
:10290000FDF71CFE02214DF22410FDF717FEB72142
:102910004DF22510FDF712FE02214DF22610FDF7B3
:102920000DFECF214DF22710FDF708FE02214DF2DA
:102930002810FDF703FEDE214DF22910FDF7FEFD04
:1029400002214DF22A10FDF7F9FDF2214DF22B1074
:10295000FDF7F4FD02214DF22C10FDF7EFFDFE21F5
:102960004DF22D10FDF7EAFD03214DF22E10FDF77B
:10297000E5FD10214DF22F10FDF7E0FD03214DF292
:102980003010FDF7DBFD33214DF23110FDF7D6FDA0
:1029900003214DF23210FDF7D1FD6D214DF23310C0
:1029A000FDF7CCFD00214FF45240FDF7C7FD332168
:1029B0004DF20120FDF7C2FD00214DF20220FDF78E
:1029C000BDFD34214DF20320FDF7B8FD00214DF28D
:1029D0000420FDF7B3FD3A214DF20520FDF7AEFDD1
:1029E00000214DF20620FDF7A9FD4A214DF20720F6
:1029F000FDF7A4FD00214DF20820FDF79FFD5C21AD
:102A00004DF20920FDF79AFD00214DF20A20FDF755
:102A100095FD81214DF20B20FDF790FD00214DF237
:102A20000C20FDF78BFDA6214DF20D20FDF786FD54
:102A300000214DF20E20FDF781FDE5214DF20F2022
:102A4000FDF77CFD01214DF21020FDF777FD1321EC
:102A50004DF21120FDF772FD01214DF21220FDF71C
:102A60006DFD54214DF21320FDF768FD01214DF25B
:102A70001420FDF763FD82214DF21520FDF75EFD68
:102A800001214DF21620FDF759FDCA214DF2172004
:102A9000FDF754FD02214DF21820FDF74FFD0021F6
:102AA0004DF21920FDF74AFD02214DF21A20FDF7E3
:102AB00045FD01214DF21B20FDF740FD02214DF2A5
:102AC0001C20FDF73BFD34214DF21D20FDF736FDA6
:102AD00002214DF21E20FDF731FD67214DF21F202E
:102AE000FDF72CFD02214DF22020FDF727FD84216A
:102AF0004DF22120FDF722FD02214DF22220FDF7AB
:102B00001DFDA4214DF22320FDF718FD02214DF2F9
:102B10002420FDF713FDB7214DF22520FDF70EFD12
:102B200002214DF22620FDF709FDCF214DF227208D
:102B3000FDF704FD02214DF22820FDF7FFFCDE2108
:102B40004DF22920FDF7FAFC02214DF22A20FDF773
:102B5000F5FCF2214DF22B20FDF7F0FC02214DF2A5
:102B60002C20FDF7EBFCFE214DF22D20FDF7E6FCBD
:102B700003214DF22E20FDF7E1FC10214DF22F2014
:102B8000FDF7DCFC03214DF23020FDF7D7FC3321AB
:102B90004DF23120FDF7D2FC03214DF23220FDF73A
:102BA000CDFC6D214DF23320FDF7C8FC00214FF420
:102BB0005340FDF7C3FC33214DF20130FDF7BEFC5D
:102BC00000214DF20230FDF7B9FC34214DF2033003
:102BD000FDF7B4FC00214DF20430FDF7AFFC3A21C3
:102BE0004DF20530FDF7AAFC00214DF20630FDF74D
:102BF000A5FC4A214DF20730FDF7A0FC00214DF263
:102C00000830FDF79BFC5C214DF20930FDF796FC86
:102C100000214DF20A30FDF791FC81214DF20B307D
:102C2000FDF78CFC00214DF20C30FDF787FCA6214E
:102C30004DF20D30FDF782FC00214DF20E30FDF714
:102C40007DFCE5214DF20F30FDF778FC01214DF2BE
:102C50001030FDF773FC13214DF21130FDF76EFCBF
:102C600001214DF21230FDF769FC54214DF2133071
:102C7000FDF764FC01214DF21430FDF75FFC822169
:102C80004DF21530FDF75AFC01214DF21630FDF7DB
:102C900055FCCA214DF21730FDF750FC02214DF2D0
:102CA0001830FDF74BFC00214DF21930FDF746FCC2
:102CB00002214DF21A30FDF741FC01214DF21B308B
:102CC000FDF73CFC02214DF21C30FDF737FC3421AE
:102CD0004DF21D30FDF732FC02214DF21E30FDF7A2
:102CE0002DFC67214DF21F30FDF728FC02214DF22B
:102CF0002030FDF723FC84214DF22130FDF71EFC2E
:102D000002214DF22230FDF719FCA4214DF22330AF
:102D1000FDF714FC02214DF22430FDF70FFCB72122
:102D20004DF22530FDF70AFC02214DF22630FDF769
:102D300005FCCF214DF22730FDF700FC02214DF2BA
:102D40002830FDF7FBFBDE214DF22930FDF7F6FBC5
:102D500002214DF22A30FDF7F1FBF2214DF22B302A
:102D6000FDF7ECFB02214DF22C30FDF7E7FBFE21D5
:102D70004DF22D30FDF7E2FB03214DF22E30FDF731
:102D8000DDFB10214DF22F30FDF7D8FB03214DF272
:102D90003030FDF7D3FB33214DF23130FDF7CEFB60
:102DA00003214DF23230FDF7C9FB6D214DF2333076
:102DB000FDF7C4FB00214FF45440FDF7BFFB332166
:102DC00000E07FE34DF20140FDF7B8FB00214DF23A
:102DD0000240FDF7B3FB34214DF20340FDF7AEFB9B
:102DE00000214DF20440FDF7A9FB3A214DF20540C8
:102DF000FDF7A4FB00214DF20640FDF79FFB4A21A1
:102E00004DF20740FDF79AFB00214DF20840FDF717
:102E100095FB5C214DF20940FDF790FB00214DF23E
:102E20000A40FDF78BFB81214DF20B40FDF786FB3D
:102E300000214DF20C40FDF781FBA6214DF20D4023
:102E4000FDF77CFB00214DF20E40FDF777FBE521FD
:102E50004DF20F40FDF772FB01214DF21040FDF7DE
:102E60006DFB13214DF21140FDF768FB01214DF27E
:102E70001240FDF763FB54214DF21340FDF75EFB5A
:102E800001214DF21440FDF759FB82214DF215400E
:102E9000FDF754FB01214DF21640FDF74FFBCA210F
:102EA0004DF21740FDF74AFB02214DF21840FDF7A5
:102EB00045FB00214DF21940FDF740FB02214DF288
:102EC0001A40FDF73BFB00E0FFE201214DF21B4001
:102ED000FDF734FB02214DF21C40FDF72FFB34219E
:102EE0004DF21D40FDF72AFB02214DF21E40FDF779
:102EF00025FB67214DF21F40FDF720FB02214DF21B
:102F00002040FDF71BFB84214DF22140FDF716FB0D
:102F100002214DF22240FDF711FBA4214DF2234086
:102F2000FDF70CFB02214DF22440FDF707FBB72112
:102F30004DF22540FDF702FB02214DF22640FDF740
:102F4000FDFACF214DF22740FDF7F8FA02214DF2AC
:102F50002840FDF7F3FADE214DF22940FDF7EEFAA5
:102F600002214DF22A40FDF7E9FAF2214DF22B4001
:102F7000FDF7E4FA02214DF22C40FDF7DFFAFE21C5
:102F80004DF22D40FDF7DAFA03214DF22E40FDF708
:102F9000D5FA10214DF22F40FDF7D0FA03214DF262
:102FA0003040FDF7CBFA33214DF23140FDF7C6FA40
:102FB00003214DF23240FDF7C1FA6D214DF233404D
:102FC000FDF7BCFA00214FF45540FDF7B7FA332165
:102FD0004DF20150FDF7B2FA00214DF20250FDF71B
:102FE000ADFA34214DF20350FDF7A8FA00214DF25D
:102FF0000450FDF7A3FA3A214DF20550FDF79EFA71
:1030000000214DF20650FDF799FA4A214DF2075082
:10301000FDF794FA00214DF20850FDF78FFA5C217C
:103020004DF20950FDF78AFA00214DF20A50FDF7E2
:1030300085FA81214DF20B50FDF780FA00214DF207
:103040000C50FDF77BFAA6214DF20D50FDF776FAF4
:1030500000214DF20E50FDF771FAE5214DF20F50AF
:10306000FDF76CFA01214DF21050FDF767FA1321BC
:103070004DF21150FDF762FA01214DF21250FDF7A9
:103080005DFA54214DF21350FDF758FA01214DF22B
:103090001450FDF753FA82214DF21550FDF74EFA08
:1030A00001214DF21650FDF749FACA214DF2175091
:1030B000FDF744FA02214DF21850FDF73FFA0021C6
:1030C0004DF21950FDF73AFA02214DF21A50FDF770
:1030D00035FA01214DF21B50FDF730FA02214DF275
:1030E0001C50FDF72BFA34214DF21D50FDF726FA46
:1030F00002214DF21E50FDF721FA67214DF21F50BB
:10310000FDF71CFA02214DF22050FDF717FA842139
:103110004DF22150FDF712FA02214DF22250FDF737
:103120000DFAA4214DF22350FDF708FA02214DF2C9
:103130002450FDF703FAB7214DF22550FDF7FEF9B3
:1031400002214DF22650FDF7F9F9CF214DF227501B
:10315000FDF7F4F902214DF22850FDF7EFF9DE21D9
:103160004DF22950FDF7EAF902214DF22A50FDF700
:10317000E5F9F2214DF22B50FDF7E0F902214DF275
:103180002C50FDF7DBF9FE214DF22D50FDF7D6F95D
:1031900003214DF22E50FDF7D1F910214DF22F50A1
:1031A000FDF7CCF903214DF23050FDF7C7F933217B
:1031B0004DF23150FDF7C2F903214DF23250FDF7C7
:1031C000BDF96D214DF23350FDF7B8F900214FF4F0
:1031D0005640FDF7B3F933214DF20160FDF7AEF92A
:1031E00000214DF20260FDF7A9F934214DF2036090
:1031F000FDF7A4F900214DF20460FDF79FF93A2193
:103200004DF20560FDF79AF900214DF20660FDF7D9
:1032100095F94A214DF20760FDF790F900214DF232
:103220000860FDF78BF95C214DF20960FDF786F926
:1032300000214DF20A60FDF781F981214DF20B600A
:10324000FDF77CF900214DF20C60FDF777F9A6211E
:103250004DF20D60FDF772F900214DF20E60FDF7A1
:103260006DF9E5214DF20F60FDF768F901214DF28E
:103270001060FDF763F913214DF21160FDF75EF95F
:1032800001214DF21260FDF759F954214DF21360FE
:10329000FDF754F901214DF21460FDF74FF9822139
:1032A0004DF21560FDF74AF901214DF21660FDF768
:1032B00045F9CA214DF21760FDF740F902214DF2A0
:1032C0001860FDF73BF900214DF21960FDF736F962
:1032D00002214DF21A60FDF731F901214DF21B6018
:1032E000FDF72CF902214DF21C60FDF727F934217E
:1032F0004DF21D60FDF722F902214DF21E60FDF72F
:103300001DF967214DF21F60FDF718F902214DF2FA
:103310002060FDF713F984214DF22160FDF70EF9CD
:1033200002214DF22260FDF709F9A4214DF223603C
:10333000FDF704F902214DF22460FDF7FFF8B721F3
:103340004DF22560FDF7FAF802214DF22660FDF7F7
:10335000F5F8CF214DF22760FDF7F0F802214DF28C
:103360002860FDF7EBF8DE214DF22960FDF7E6F865
:1033700002214DF22A60FDF7E1F8F2214DF22B60B7
:10338000FDF7DCF802214DF22C60FDF7D7F8FE21A5
:103390004DF22D60FDF7D2F803214DF22E60FDF7BE
:1033A000CDF810214DF22F60FDF7C8F803214DF242
:1033B0003060FDF7C3F833214DF23160FDF7BEF800
:1033C00003214DF23260FDF7B9F86D214DF2336003
:1033D000FDF7B4F855211846FDF7B0F8AA212046AC
:1033E000FDF7ACF852212846FDF7A8F80821304631
:1033F000FDF7A4F800213846FDF7A0F8CC21484697
:10340000FDF79CF800215046FDF798F8052160462D
:10341000FDF794F870215846FDF790F870214BF2B3
:103420000170FDF78BF801214FF43840FDF786F865
:1034300003214BF60100FDF781F803214BF6020052
:10344000FDF77CF803214BF60300FDF777F8022126
:103450004FF43C40FDF772F800214BF60140FDF7B8
:103460006DF800214BF60240FDF768F8D0214FF4CB
:103470004940FDF763F802214CF60110FDF75EF8B4
:1034800050214CF60210FDF759F850214CF603106C
:10349000FDF754F850214CF60410FDF74FF80021C9
:1034A0004FF45450FDF74AF855214FF46850FDF79A
:1034B00045F84FF48850FDF71FF8782002F04AFFD6
:1034C0004FF42450FDF718F8F3E0A0F513414FF442
:1034D00080744FF4E06740F2022940F23F1B4FF442
:1034E000274625397ED0FD1DC91E7CD04FF4887635
:1034F0004FF41C5A083177D0113976D0A0F5A84185
:10350000083973D0A0F5A8514FF4407605396ED034
:10351000B1F520416CD0B1F580516AD0A0F58A4157
:10352000313967D0091F66D09042CDD1E220FCF737
:10353000E3FF1D20FCF7ECFF0220FCF7E9FF04206D
:10354000FCF7E6FF642002F005FFE020FCF7D4FF63
:103550000120FCF7DDFF0A2002F018FFE020FCF755
:10356000CBFF0320FCF7D4FF0C2002F00FFF01205B
:10357000FCF7C2FF0A2002F009FFE620FCF7BCFFBF
:103580002F20FCF7C5FFFF20FCF7C2FFFF20FCF750
:10359000BFFFB020FCF7B0FF2020FCF7B9FF0020F0
:1035A000FCF7B6FF0320FCF7B3FF40F21F30FCF737
:1035B000AFFF0120FCF7ACFF40F2DF10FCF7A8FFE3
:1035C0000020FCF7A5FFB420FCF796FF0420FCF7D1
:1035D0009FFF40F21F40FCF79BFF0020FCF798FF85
:1035E0002E2009E072E03CE1F7E19CE270E3FDE3AC
:1035F000FDE3FDE3FDE3FDE3FCF78AFF0020FCF7BC
:1036000087FF0020FCF784FF0020FCF781FF0020EB
:10361000FCF77EFFB620FCF76FFF0220FCF778FF77
:103620004FF40370FCF774FF0020FCF771FF1720C4
:10363000FCF76EFF1520FCF76BFF0020FCF768FF1E
:103640000020FCF765FFF020FCF756FF0320FCF795
:103650005FFF2920FCF750FFD020FCF74DFF002032
:10366000FCF756FFBE20FCF747FF0520FCF750FF94
:10367000FE20FCF74DFF0120FCF74AFF0020FCF77D
:1036800047FF0020FCF744FF0020FCF741FFB82073
:10369000FCF732FF0320FCF73BFF0120FCF738FF6B
:1036A000BA20FCF729FF0120FCF732FF6420FDF768
:1036B00062FA0020FDF782FAFE490120C1F8BC023F
:1036C0004046FDF709FC21B0BDE8F08F47F6F00158
:1036D000E520FCF733FF21460120FCF72FFF394698
:1036E0000220FCF72BFF41F230010320FCF726FFFC
:1036F00000210420FCF722FF49460820FCF71EFFAA
:1037000000210920FCF71AFF00210A20FCF716FF10
:1037100000210C20FCF712FF00210D20FCF70EFF0A
:1037200000210F20FCF70AFF00211020FCF706FF04
:1037300007211120FCF702FF00211220FCF7FEFEFA
:1037400000211320FCF7FAFE00210720FCF7F6FE0B
:1037500041F290611020FCF7F1FE40F22721112088
:10376000FCF7ECFE9D211220FCF7E8FE4FF4C85157
:103770001320FCF7E3FE25212920FCF7DFFE0D21B5
:103780002B20FCF7DBFE07213020FCF7D7FE40F2B0
:1037900003313120FCF7D2FE03213220FCF7CEFEAC
:1037A00040F206213520FCF7C9FE08213620FCF73F
:1037B000C5FE40F206413720FCF7C0FE4FF44171D0
:1037C0003820FCF7BBFE07213920FCF7B7FE40F29A
:1037D00002613C20FCF7B2FE08213D20FCF7AEFE62
:1037E00000215020FCF7AAFEEF215120FCF7A6FE95
:1037F00000215220FCF7A2FE59465320FCF79EFE02
:1038000031466020FCF79AFE01216120FCF796FE0C
:1038100000216A20FCF792FE00218020FCF78EFE3A
:1038200000218120FCF78AFE00218220FCF786FE21
:1038300000218320FCF782FE00218420FCF77EFE1D
:1038400000218520FCF77AFE10219020FCF776FEFF
:103850004FF4C0619220FCF771FE40F23311072053
:10386000FEE341F28F01EC20FCF768FE41F23421C7
:10387000EF20FCF763FE21460120FCF75FFE39468E
:103880000220FCF75BFE41F230010320FCF756FEFC
:1038900000210420FCF752FE49460820FCF74EFEAA
:1038A00000210920FCF74AFE00210A20FCF746FE11
:1038B00001210C20FCF742FE00210D20FCF73EFE0A
:1038C00000210F20FCF73AFE00211020FCF736FE05
:1038D00007211120FCF732FE00211220FCF72EFEFA
:1038E00000211320FCF72AFE01210720FCF726FE09
:1038F000322002F04BFD41F290411020FCF71EFEF9
:1039000040F227211120FCF719FE322002F03EFD83
:103910008A211220FCF712FE322002F037FD4FF40C
:10392000D0511320FCF70AFE06212920FCF706FEE1
:103930000D212B20FCF702FE322002F027FD002192
:103940002020FCF7FBFD00212120FCF7F7FD3220B1
:1039500002F01CFD00213020FCF7F0FD40F2046174
:103960003120FCF7EBFD40F205313220FCF7E6FD9B
:1039700000213520FCF7E2FD40F609413620FCF736
:10398000DDFD4FF401713720FCF7D8FD40F2013125
:103990003820FCF7D3FD29463920FCF7CFFD002164
:1039A0003C20FCF7CBFD40F60A213D20FCF7C6FD8C
:1039B000322002F0EBFC00215020FCF7BFFDEF218C
:1039C0005120FCF7BBFD00215220FCF7B7FD594602
:1039D0005320FCF7B3FD31464FE100210846FCF7C8
:1039E000ADFD21460120FCF7A9FD39460220FCF778
:1039F000A5FD41F230010320FCF7A0FD00210420C9
:103A0000FCF79CFD49460820FCF798FD00210920A1
:103A1000FCF794FD00210A20FCF790FD01210C2009
:103A2000FCF78CFD00210D20FCF788FD00210F2004
:103A3000FCF784FD322002F0A9FC40F201110720BE
:103A4000FCF77CFD322002F0A1FC4FF486511020DF
:103A5000FCF774FD07211120FCF770FD31461220A0
:103A6000FCF76CFD4FF430611320FCF767FD00217B
:103A70002920FCF763FD44F210012B20FCF75EFDCA
:103A800000215020FCF75AFDEF215120FCF756FD94
:103A900000215220FCF752FD59465320FCF74EFD01
:103AA00051466020FCF74AFD01216120FCF746FDEC
:103AB000002101E0008040426A20FCF73FFD002128
:103AC0008020FCF73BFD00218120FCF737FD002121
:103AD0008220FCF733FD00218320FCF72FFD00211D
:103AE0008420FCF72BFD00218520FCF727FD102109
:103AF0009020FCF723FD00219220FCF71FFD0121FF
:103B00009320FCF71BFD31469520FCF717FD0021A3
:103B10009720FCF713FD00219820FCF70FFD40F2E1
:103B2000731107207DE341F21401E720FCF706FD45
:103B300021460120FCF702FD4FF400710220FCF742
:103B4000FDFC41F238010320FCF7F8FC494608204F
:103B5000FCF7F4FC00210920FCF7F0FC00210A200E
:103B6000FCF7ECFC00210C20FCF7E8FC00210D2008
:103B7000FCF7E4FC00210F20FCF7E0FC0021102002
:103B8000FCF7DCFC07211120FCF7D8FC00211220F7
:103B9000FCF7D4FC00211320FCF7D0FCC82002F075
:103BA000F5FB41F290611020FCF7C8FC40F22721A0
:103BB0001120FCF7C3FC322002F0E8FB0C2112209C
:103BC000FCF7BCFC322002F0E1FB4FF40061132053
:103BD000FCF7B4FC11212920FCF7B0FC0B212B20B1
:103BE000FCF7ACFC322002F0D1FB00212020FCF7D6
:103BF000A5FC5C4659462120FCF7A0FC00213020A2
:103C0000FCF79CFC4FF4837319463120FCF796FCBB
:103C100000213220FCF792FC4FF401713520FCF7B3
:103C20008DFC41F20A613620FCF788FC29463720DA
:103C3000FCF784FC19463820FCF780FC2946392023
:103C4000FCF77CFC40F202413C20FCF777FC40F69C
:103C50000F413D20FCF772FC00215020FCF76EFC68
:103C6000EF215120FCF76AFC00215220FCF766FC92
:103C700021465320FCF762FC51466020FCF75EFCB5
:103C800001216120FCF75AFC00216A20FCF756FC58
:103C900000218020FCF752FC00218120FCF74EFC23
:103CA00000218220FCF74AFC00218320FCF746FC1F
:103CB00000218420FCF742FC00218520FCF73EFC1B
:103CC00010219020FCF73AFC4FF4C0619220FCE3F5
:103CD00021460120FCF732FC39460220FCF72EFC7D
:103CE00041F230010320FCF729FC00210420FCF7FD
:103CF00025FC40F207210820FCF720FC00210920C8
:103D0000FCF71CFC00210A20FCF718FC00210C2009
:103D1000FCF714FC00210D20FCF710FC00210F2003
:103D2000FCF70CFC142002F031FB41F2B0611020D2
:103D3000FCF704FC01211120FCF700FC01211720F5
:103D4000FCF7FCFB4FF49C711220FCF7F7FB4FF4DF
:103D500000611320FCF7F2FB09212920FCF7EEFBA0
:103D600009212A20FCF7EAFB0021A420FCF7E6FB4E
:103D700000215020FCF7E2FBEF215120FCF7DEFB95
:103D800000215220FCF7DAFB59465320FCF7D6FB02
:103D900051466020FCF7D2FB01216120FCF7CEFBED
:103DA00000216A20FCF7CAFB00218020FCF7C6FB3B
:103DB00000218120FCF7C2FB00218220FCF7BEFB22
:103DC00000218320FCF7BAFB00218420FCF7B6FB1E
:103DD00000218520FCF7B2FB13219020FCF7AEFBFD
:103DE00000219220FCF7AAFB032104E011E01CE172
:103DF00018E2DEE293E39320FCF7A0FB3146952026
:103E0000FCF79CFB40F273110720FCF797FB322074
:103E100007E100210720FCF791FB322002F0B6FAFF
:103E20004FF48E711220FCF789FB0121A420FCF7CE
:103E300085FB0F210820FCF781FB08210A20FCF7F5
:103E40007DFB08210D20FCF779FB2B46294630200D
:103E5000FCF774FB07213120FCF770FB40F2036193
:103E60003220FCF76BFB3D4639463320FCF766FBFE
:103E700049463420FCF762FB02213520FCF75EFB4B
:103E800041F60F713620FCF759FB19463720FCF735
:103E900055FB00213820FCF751FB00213920FCF7AD
:103EA0004DFB19463A20FCF749FB00213B20FCF76B
:103EB00045FB07213C20FCF741FB00213D20FCF79E
:103EC0003DFB322002F062FA01210720FCF736FBAD
:103ED00001211720FCF732FB322002F057FA4FF491
:103EE000BD511020FCF72AFB40F217211120FCF7EE
:103EF00025FB4FF48F711220FCF720FB4FF470610B
:103F00001320FCF71BFB00212A20FCF717FB0A21DA
:103F10002920FCF713FB4FF49F711220FCF70EFBD6
:103F200000215020FCF70AFBEF215120FCF706FB93
:103F300000215220FCF702FB59465320FCF7FEFA01
:103F400051466020FCF7FAFA01216120FCF7F6FAED
:103F500000216A20FCF7F2FA00218020FCF7EEFA3B
:103F600000218120FCF7EAFA00218220FCF7E6FA22
:103F700000218320FCF7E2FA00218420FCF7DEFA1E
:103F800000218520FCF7DAFA13219020FCF7D6FAFD
:103F900031469220FCF7D2FA05219320FCF7CEFAA5
:103FA00000219520FCF7CAFA00219720FCF7C6FAF9
:103FB00000219820FCF7C2FA21460120FCF7BEFA46
:103FC00029460220FCF7BAFA41F238010320FCF737
:103FD000B5FA00210420FCF7B1FA00210C20FCF70F
:103FE000ADFA00210F20FCF7A9FA00212020FCF7F0
:103FF000A5FA00212120FCF7A1FA21210720FCF7D6
:104000009DFA142002F0C2F961210720FCF796FA0C
:10401000142002F0BBF940F273110720FCF78EFA6E
:10402000142002F0B3F9FFF744BB00210846FCF767
:1040300085FA00210846FCF781FA00210846FCF7C2
:104040007DFA00210846FCF779FA0121A420FCF74B
:1040500075FA142002F09AF955465146602000E0A6
:10406000DBE0FCF76BFA4E4649460820FCF766FA9F
:104070004FF405713020FCF761FA43F215713120DD
:10408000FCF75CFA40F204613220FCF757FA40F684
:1040900016613320FCF752FA42F211213420FCF76A
:1040A0004DFA4FF4A8513520FCF748FA48F2075171
:1040B0003620FCF743FA41F207413720FCF73EFA7D
:1040C00041F203413820FCF739FA20213920FCF76E
:1040D00035FA1A219020FCF731FA00211020FCF764
:1040E0002DFA07211120FCF729FA00211220FCF7F4
:1040F00025FA00211320FCF721FA142002F046F9DA
:104100004FF4E6611020FCF719FA40F23711112044
:10411000FCF714FA142002F039F94FF4DC71122084
:10412000FCF70CFA142002F031F94FF470611320FF
:10413000FCF704FA80212A20FCF700FA4821292004
:10414000FCF7FCF9142002F021F921460120FCF7CC
:10415000F5F939460220FCF7F1F941F23801032064
:10416000FCF7ECF931460820FCF7E8F900210A20B9
:10417000FCF7E4F900210C20FCF7E0F900210D2008
:10418000FCF7DCF930210E20FCF7D8F90021502093
:10419000FCF7D4F9EF215120FCF7D0F9002152208F
:1041A000FCF7CCF959465320FCF7C8F929466020A2
:1041B000FCF7C4F901216120FCF7C0F900216A2055
:1041C000FCF7BCF911219020FCF7B8F94FF4C0615D
:1041D0009220FCF7B3F940F202419320FCF7AEF9CC
:1041E00002219420FCF7AAF9142002F0CFF8012153
:1041F0000720FCF7A3F9142002F0C8F8612107207A
:10420000FCF79CF940F273110720FCF797F90021A5
:104210002020FCF793F900212120FCF78FF92221BF
:10422000002079E100210846FCF788F900210846C2
:10423000FCF784F9142002F0A9F800210846FCF7E5
:104240007DF900210846FCF779F900210846FCF7C2
:1042500075F900210846FCF771F90121A420FCF74B
:104260006DF9142002F092F851466020FCF766F9CF
:1042700040F606010820FCF761F940F20373194685
:104280003020FCF75BF901213120FCF757F90421BC
:104290003220FCF753F94FF481713320FCF74EF9CB
:1042A00031463420FCF74AF940F203113520FCF77F
:1042B00045F91F213620FCF741F919463720FCF754
:1042C0003DF901213820FCF739F904213920FCF7A8
:1042D00035F915219020FCF731F94FF48261102057
:1042E000FCF72CF940F247211120FCF727F94FF495
:1042F000DE711220FCF722F94FF460611320FCF705
:104300001DF9782002F042F821460120FCF716F949
:104310004FF400710220FCF711F941F23001032043
:10432000FCF70CF908210A20FCF708F900210C2001
:10433000FCF704F920210E20FCF700F900210F20E2
:10434000FCF7FCF800212020FCF7F8F800212120E0
:10435000FCF7F4F83D212A20FCF7F0F8142002F0D5
:1043600015F82D212920FCF7E9F800215020FCF751
:10437000E5F84DF2EF015120FCF7E0F80021522062
:10438000FCF7DCF859465320FCF7D8F800216120EF
:10439000FCF7D4F800216A20FCF7D0F831469220CF
:1043A000FCF7CCF805219320FCF7C8F82146FFF76D
:1043B000B8BB01210020FCF7C1F80A2001F0E6FF9C
:1043C00041F228611020FCF7B9F80E211220FCF709
:1043D000B5F840F639211320FCF7B0F80A2001F0B7
:1043E000D5FF40211120FCF7A9F850211520FCF73A
:1043F000A5F80A2001F0CAFF1E211220FCF79EF842
:104400000A2001F0C3FF4FF4B1511020FCF796F8D9
:1044100042F639211320FCF791F80A2001F0B6FF8B
:1044200021460120FCF78AF831460220FCF786F885
:1044300041F238010320FCF781F849460820FCF7D7
:104440007DF808210A20FCF779F800213020FCF7DC
:1044500075F840F202413120FCF770F84FF4837197
:104460003220FCF76BF840F203513320FCF766F87A
:104470004FF482713420FCF761F840F201313520AD
:10448000FCF75CF829463620FCF758F840F2053175
:104490003720FCF753F84FF402713820FCF74EF840
:1044A00040F60B713920FCF749F802214120FCF756
:1044B00045F851466020FCF741F801216120FCF7E6
:1044C0003DF84FF40471902000E0CAE0FCF736F8A4
:1044D0004FF485719220FCF731F804219320FCF70A
:1044E0002DF82146A020FCF729F801210720FCF730
:1044F00025F821210720FCF721F823210720FCF7CC
:104500001DF833210720FCF719F840F2331107207A
:10451000FCF714F80021A020FCF710F883E5302107
:104520001520FCF70BF810219A20FCF707F8202142
:104530001120FCF703F843F228411020FBF7FEFF9F
:1045400002211220FBF7FAFF41F238011320FBF79A
:10455000F5FF282001F01AFF12210846FBF7EEFFB5
:10456000282001F013FF43F220411020FBF7E6FF63
:1045700043F238011320FBF7E1FF462001F006FF6C
:1045800000213020FBF7DAFF40F202413120FBF737
:10459000D5FF40F207313220FBF7D0FF4FF44171D5
:1045A0003320FBF7CBFF04213420FBF7C7FF40F299
:1045B00001413520FBF7C2FF29463620FBF7BEFF3D
:1045C00040F205313720FBF7B9FF4FF4C2631946BB
:1045D0003820FBF7B3FF19463920FBF7AFFF214620
:1045E0000120FBF7ABFF31460220FBF7A7FF41F2AA
:1045F00030010320FBF7A2FF40F608010820FBF77B
:104600009DFF08210A20FBF799FF51466020FBF728
:1046100095FF01216120FBF791FF4FF49F719020DE
:10462000FBF78CFF21469220FBF788FF2146932061
:10463000FBF784FF4FF44051A020FBF77FFF1021D0
:10464000A320FBF77BFF01210720FBF777FF212148
:104650000720FBF773FF23210720FBF76FFF3321B0
:104660000720FBF76BFF40F23311A0E62DE9F8437A
:10467000FD4C1E468046A388089FA3F5D040043811
:1046800002D1A079012807D0A2EB0800401C84B217
:104690000D464FF0D84929E025880846A91AA5EB10
:1046A00008030025A57132462A2565812B26491E5F
:1046B0005B1EA68189B29BB20097FFF7D7FF01204E
:1046C000A0716681A581BDE8F88329464046FBF7C5
:1046D0005DFFFBF742FF0020494603E0A1F8807030
:1046E000401C80B2A042F9D36D1CADB2B542ECD9EA
:1046F000E9E72DE9F0478246A2EB0A00401C0E468E
:1047000085B2981B401C87B200244FF0D849DDF8D1
:10471000208015E0301981B25046FBF737FFFBF7D8
:104720001CFF0020494607E004FB050338F813206E
:10473000A1F88020401C80B2A842F5D3641CA4B22A
:10474000BC42E7D3BDE8F0872DE9FE4F161ACDE94C
:1047500000104FF000085D1A47464FF0FF30002E62
:1047600002DD4FF0010102E003D14FF000018B4662
:1047700002E08346C6F10006002D02DD4FF0010085
:1047800002E003D14FF00000824602E08246C5F10C
:104790000005AE4201DD344600E02C46601C4FF0BF
:1047A0000009029018E0009881B2019880B2FCF7ED
:1047B0004DF9B0442F44A04504DD0198A8EB04084E
:1047C00058440190A74203DD00983F1B50440090DD
:1047D00009F101001FFA80F902998945E3DDBDE87E
:1047E000FE8FF0B51C4615460E4607460B46FFF7F2
:1047F000ABFF3A46234631461046FFF7A5FF234656
:104800002A4619463846FFF79FFF2A462346314677
:10481000BDE8F040104697E72DE9FC4F80460025A3
:10482000144603200F46A0EB440649E0381B81B232
:1048300008EB050A01901FFA8AF0FCF707F9781BCC
:1048400081B208EB040900901FFA89F0FCF7FEF82A
:1048500007EB050B1FFA8BF11FFA89F0FCF7F6F84E
:1048600007EB04091FFA89F11FFA8AF0FCF7EEF84A
:10487000A8EB050A1FFA89F11FFA8AF0FCF7E6F89F
:10488000A8EB04091FFA8BF11FFA89F0FCF7DEF898
:10489000019881B21FFA8AF0FCF7D8F8009881B22B
:1048A0001FFA89F0FCF7D2F86D1C002E03DA06EB34
:1048B0008506B61D04E0281B06EB8006641E0A363A
:1048C000A542B3DDBDE8FC8F2DE9FF4F1D460C4628
:1048D0008A46580700D0012000EBD500690810FB7C
:1048E00001F0203A00F0FF09D0B20026DFF878B1DD
:1048F000029044E00C2D11D0102D14D0182D40D171
:1049000002985A4900EBC00001EB80004FF000080C
:10491000875D38060CD5564802880DE00298554947
:1049200000EB4000F0E75449029801EB0010EDE77E
:104930000D9828B94E48428821460098FCF792F815
:104940007806070E641CBBF80200A4B2A04218D976
:10495000A4EB0A00A84209D100985446401C80B23A
:104960000090BBF8001081420BD906E008F101006D
:1049700000F0FF08B8F1080FCBD3761CF6B24E4515
:10498000B8D3BDE8FF8F0246012000E05043491E26
:10499000C9B2FBD270472DE9FF4F81B00026DDF888
:1049A00038A01D46934681463446B0464FEA5A0722
:1049B00027E0281B401EC1B20A20FFF7E4FFBBFB23
:1049C000F0F00A21B0FBF1F201FB120026B9691EDA
:1049D0008C4201DA48B101263030C2B207FB0490A4
:1049E00080B25346CDF8008006E007FB049080B209
:1049F00053462022CDF800800299FFF765FF641C22
:104A0000E4B2AC42D5D305B0BDE8F08F2DE9FF4F3D
:104A100081B04FF00008DDE90EBA1E4681464446DB
:104A20000AF001054FEA5B0736E0301B401EC1B2B9
:104A30000A20FFF7A8FF0399B1FBF0F00A21B0FBB1
:104A4000F1F201FB1200B8F1000F05D1711E8C428A
:104A500002DA98B14FF001083030C2B207FB04907F
:104A600080B25B46009512E01405002028BC0308C4
:104A700018000020C4B1030838B603085FEA0A60D2
:104A800007FB049080B25B46009508D5302202995E
:104A9000FFF71AFF641CE4B2B442C6D3B3E7202286
:104AA000F5E72DE9F84F044600F0FF0910190D460F
:104AB000DDE90AB61FFA80F8581987B24FF0000AEC
:104AC00012E0444503D305EB0B004C4685B2BD42D2
:104AD0000FD25B4629462046CDF800A0FFF7F4FE32
:104AE00004EB5B0084B2761C3278A2F120005E28D1
:104AF000E7D9BDE8F88F00002DE9F04116460F46D2
:104B00000446002500F0A0F8702000F03BF900F00A
:104B1000D6F8E0B200F036F900F0D1F8002408E051
:104B2000385D00F02FF900F0CAF8050003D1641CCD
:104B3000E4B2B442F4D300F0A6F82846BDE8F08110
:104B40002DE9F04115460E46044600F07DF8702030
:104B500000F018F900F0B3F8E0B200F013F900F03B
:104B6000AEF800F071F8712000F00CF900F0A7F831
:104B700000246F1E09E0BC4201D0012000E00020AB
:104B800000F02DF93055641CE4B2AC42F3D3BDE81B
:104B9000F04100F078B87CB50121062002F033FB2B
:104BA00000248DF8044002208DF806400326009072
:104BB0008DF8056001258DF807506946104801F011
:104BC000E5FE68038DF8045000908DF806408DF8DE
:104BD000056069460B4801F0D9FE00F01AF80A4E4C
:104BE000C6F8B442142006F52D7601F0CFFB3560EF
:104BF000322001F0CBFB01207CBD0020704700007B
:104C0000000402400008024000004142022001F07E
:104C1000A1BB1CB50121222002F0F5FA01248DF878
:104C2000044000208DF8060000948DF80740694686
:104C3000854801F0ABFEE00200908DF80440694623
:104C4000824801F0A3FE1CBD70B58048016821F4C4
:104C500040010160016841F4800101607C4C012049
:104C6000C4F8AC027B4DC5F880021E2004F52B74FD
:104C700005F5207501F06EFB00262660022001F08C
:104C800069FB2E6070BD70B57048016821F4400169
:104C90000160016841F4800101606E480125C0F89F
:104CA00080521E2001F056FB694C0020C4F8AC0273
:104CB000022004F52B7401F04DFB256070BD70B52A
:104CC00062480024016821F440010160016801602C
:104CD0005F4E0120C6F8AC025E4DC5F8800207E0C9
:104CE000641CE4B2FA2C03D9FFF7CDFF012070BD9C
:104CF000022001F02FFBD6F82C020028F0D1C5F8D5
:104D0000800270BD70B5534C0025C4F880524F48E6
:104D1000016821F440010160016841F480010160F3
:104D2000022004F5207401F015FB4948C0F8AC528C
:104D3000022001F00FFB01202060022001F00AFB9D
:104D4000256070BD70B5434C0025C4F880523F48C3
:104D5000016821F440010160016841F480010160B3
:104D6000022004F5207401F0F5FA39480126C0F854
:104D7000AC62022001F0EEFA2660022001F0EAFAAD
:104D8000256070BD2DE9F04706463048016821F4E2
:104D900040010160016841F4800101602D4D002750
:104DA000C5F88072022001F0D5FADFF8A480002453
:104DB0004FF00109F109C8F8AC127006060EC5F8EB
:104DC0008092022001F0C6FAC5F88072022001F03C
:104DD000C1FA641CE4B2082CECD3BDE8F0872DE9DD
:104DE000F047824619480024016821F4400101601F
:104DF000016801601E2001F0ADFA0025154EDFF8B4
:104E000050902F464FF00108C6F88072022001F042
:104E1000A1FAC6F88082022001F09CFA6006040E16
:104E2000D9F82C0208B1641CE4B26D1CEDB2082D57
:104E3000EAD3BAF1000F03D0FFF764FF2046CCE7B6
:104E4000FFF780FFFAE70000000402400014024070
:104E500000804242008040421848016841F0010150
:104E60000160016841F004010160016841F0020144
:104E700001601348016821F440710160016821F468
:104E800040410160016821F0C0010160016841F406
:104E900080410160016841F0400101607047084AAB
:104EA000082108B11183704751837047044A80215B
:104EB00008B15183704711837047000030380240B9
:104EC0000000024010B5E64C208AC0070BD0E54830
:104ED000006840B1804730B1208820F00100208078
:104EE0000020FFF7DCFF4FF6FE70208210BD7FB57B
:104EF0000121080402F0AFF940F2F310019040F2F2
:104F00004F10ADF800000024D54DADF80240ADF8CB
:104F100008406946284602F087FC012211462846CF
:104F200003F00BF818208DF80C008DF80D408DF86B
:104F30000E4001208DF80F0003A801F068FC7FBD32
:104F400010B50446FFF788FF0120FFF7A8FFFFF721
:104F5000CEFFC349088820F001000880C1480460E2
:104F6000088840F00100088010BDFEB50D460446DB
:104F7000BD4E284303D10021304602F0CDFCADF8F0
:104F800000500020ADF80200ADF808000194694619
:104F90003546304602F048FC600868630121284627
:104FA00002F0BAFCFEBDB148016841F001010160A8
:104FB000AE480C38016841F0030101600007018927
:104FC00021F007010181018941F003010181018B79
:104FD0004FF6FC4211400183018B40F20222114343
:104FE0000183018C21F022010184018B40F60F72B4
:104FF00011400183018841F0010101809C490A6848
:1050000042F400620A609B4A136843F08003136015
:105010000A6A42F480120A62964920310A6842F410
:1050200080520A604FF0FF31C16200210185018882
:1050300041F00101018070478C49091D0A6842F066
:1050400001020A60894910390A6842F001020A60C7
:1050500042088548426386490B6823F440330B605D
:105060000B6843F400330B604B6A43F001034B625F
:105070005321018540F2E731C1624FF4FA71416377
:10508000018B21F070010183018B41F060010183EC
:10509000018B41F008010183018C41F00101018481
:1050A000018841F080010180B0F8441041F40041D2
:1050B000A0F84410018841F001010180426316E725
:1050C0002DE9F047061E68486B4905464FF000047D
:1050D00003D007DA7642002005E0BDE8F047002162
:1050E00002F01ABC012091FBF6F78146384634F0F5
:1050F0008EF841EC100B34F02FFF51EC100B34F014
:10510000A4F803465D4902204FF4803C12E000BF42
:1051100097FBF0F200FB127291420ADD97FBF0F868
:10512000E04506DA1100044603D197FBF0F2624530
:1051300002DB401C9842EBDD97FBF4F7641E7F1EF8
:10514000B6F57A7F0CDD4846FFF7B0FEE86AB84254
:1051500002D1288DA04203D021463846FFF705FF33
:10516000288840F001002880BDE8F0872DE9F0474D
:10517000061E3D4D40484FF0000403D007DA76424A
:10518000002105E0BDE8F04700210846EDE60121D9
:1051900090FBF6F78946384634F039F841EC100BAD
:1051A00034F0DAFE51EC100B34F04FF8034633497B
:1051B00002204FF4803C11E097FBF0F200FB1272EA
:1051C00091420ADD97FBF0F8E04506DA110004464B
:1051D00003D197FBF0F2624502DB401C9842EBDD05
:1051E00097FBF4F7641E7F1EB6F57A7F03DC686ACE
:1051F000E96B88420CD94846FFF758FEE86AB84286
:1052000002D1288DA04203D021463846FFF7ADFEDB
:10521000288840F001002880A6E70120704701207F
:105220007047012070474FF08040406A70474FF050
:105230008041486270474FF08040406A9FED101AED
:1052400000EE100AF8EEC00A80EE810ADFED0D0ACA
:1052500020EE200AF2EE000A20EE200A704700003D
:10526000004001401C000020000001404038024086
:10527000000002400004024000BD01058096980035
:10528000F0FF7F4C0000B4432DE9F04180465848C0
:1052900088B041600121042001F0B5FF01211020F8
:1052A00001F0D9FF534F07220921384601F0F7FBDF
:1052B00007220A21384601F0F2FB02258DF804503E
:1052C00038158DF80550002400908DF80640012611
:1052D0008DF807606946384601F058FB8DF8045098
:1052E00028028DF8055000908DF806408DF8076073
:1052F0006946384601F04AFBADF810400C203E4D9F
:10530000ADF80C40ADF81200CDF80880ADF80E40B5
:10531000ADF8144002A9284602F091F80121284670
:1053200002F0FEF8012240F22551284602F097F9DA
:1053300025208DF818008DF8194003208DF81A00EB
:105340008DF81B6006A801F062FA08B0BDE8F08194
:1053500027490A884B889A4203D300200880488056
:10536000704723B1254B9B5C0370521C0A800120BF
:10537000704770B51E4D0C46698809B1002070BD9C
:10538000014622461D4833F066FB6C80012240F244
:105390002771194802F063F9012070BD38B5164C29
:1053A00040F225552946204602F07BF948B1A088F5
:1053B0000F49C0B24A6802B190472946204602F020
:1053C0008FF940F227752946204602F06AF960B14C
:1053D0006846FFF7BDFF18B19DF80000A08004E00B
:1053E00000222946204602F03AF90020208038BDEC
:1053F0002000002000000240001001402205002093
:105400002DE9F0418046634888B0416001210420C5
:1054100001F0F9FE0121880401F013FF5E4F07221D
:105420000B21384601F03BFB07220A21384601F0E8
:1054300036FB02258DF80450F8148DF80550002431
:1054400000908DF8064001268DF8076069463846C1
:1054500001F09CFA8DF8045068028DF80550009018
:105460008DF806408DF807606946384601F08EFADF
:10547000ADF810400C20494FADF80C40ADF81200CB
:10548000CDF80880ADF80E40ADF8144002A93846BA
:1054900001F0D5FF0121384602F042F8012240F226
:1054A0002551384602F0DBF827208DF818008DF8DA
:1054B00019408DF81A508DF81B6006A801F0A7F965
:1054C00008B0BDE8F08133490A884B889A4203D37B
:1054D000002008804880704723B1314B9B5C0370EB
:1054E000521C0A800120704770B52A4D0C4669880D
:1054F00009B1002070BD01462246294833F0ABFABD
:105500006C80012240F22771244802F0A8F80120A3
:1055100070BD70B51F4D0C46698809B1002070BD83
:10552000014622461E4833F096FA6C80012240F272
:1055300027711A4802F093F8012070BDF8B5174C96
:1055400040F225563146204602F0ABF8251D48B101
:1055500028881049C0B24A6802B1904731462046B7
:1055600002F0BEF840F227763146204602F099F864
:1055700060B16846FFF7A7FF18B19DF800002880CA
:1055800004E000223146204602F069F80020208025
:10559000F8BD00002800002000080240004800403C
:1055A000860500202DE9F04381463D4887B0016023
:1055B00001210C2001F027FE0121080501F041FE28
:1055C000384F08220C21384601F069FADFF8D880FC
:1055D00008220221404601F062FA02258DF80450AB
:1055E000B8148DF80550002400908DF8064001266F
:1055F0008DF807606946384601F0C8F98DF8045007
:1056000004208DF8055000908DF806408DF8076055
:105610006946404601F0BAF9ADF810400C20234D20
:10562000ADF80C40ADF81200CDF80890ADF80E4082
:10563000ADF8144002A9284601F001FF01212846D7
:1056400001F06EFF012240F22551284602F007F8D2
:1056500035208DF818008DF8194003208DF81A00B8
:105660008DF81B6006A801F0D2F807B0BDE8F08302
:1056700070B50E4C40F225552946204602F011F82F
:1056800000280BD0A0880649C0B20A6802B1904732
:1056900029462046BDE8704002F022B870BD0000E7
:1056A0003000002000080240000C02400050004082
:1056B0002DE9F0410024002861D000295FD0002AA4
:1056C0005DD0002B5BD0401EC5B2491EF748521E6C
:1056D000CEB25B1E0168D7B29BB241F001010160FE
:1056E000016841F001010160F04910310A6842F09F
:1056F00080620A600A6842F000720A60016841F044
:1057000002010160EA48016821F0706101600168EE
:1057100041F000610160016841F000710160E448FE
:105720000830016821F070610160016841F000718A
:105730000160016841F000610160DD4824300168CA
:1057400041F410210160016841F410010160D84862
:105750000C30016821F070610160016841F08071D6
:105760000160016841F080610160D248002202605E
:10577000016841F00101016000F1040C08E0012022
:10578000BDE8F081641CA4B2642C01D90220F7E7C3
:10579000DCF80010C907F5D00168016001680160FC
:1057A00001680160016841F0100101600168016059
:1057B00001680160BF491C310A60D1F800E0C1F8FE
:1057C00000E0D1F800E0C1F800E0D1F800E04EEAD6
:1057D00005650D600D6845EA06550D600D6845EAE2
:1057E00007450D600D681D430D60016821F0010142
:1057F00001604FF6F07005E0641CA4B2844201D948
:105800000320BDE7DCF80010C907F5D1AA480168FC
:1058100041F001010160A8491C310B6823F4804369
:105820000B60A54B0C331C6844F480441C60031DC2
:105830001A60A14B14331C681C609F4BB0331A6074
:105840001B1D1A600B6843F480430B600168026003
:1058500098481430016841F002010160022340229F
:105860000021012000F0ADFB002089E7F0B5914C4C
:10587000059E083425686D0101D5002508E02568DE
:105880002D0101D5012503E02468E4003DD5022562
:105890008A4C002704EB0514C4F88079A1B3C0003A
:1058A000D4F880790743C4F88079D4F8800940EAB5
:1058B0008100C4F88009D4F8800940EA4200C4F8A5
:1058C0008009D4F8841903F00F0021F00F01C4F807
:1058D0008419D4F884190143C4F884193079D6F8AE
:1058E000051040EA0120C4F88C093078D6F8011080
:1058F00040EA0120C4F88809D4F8800940F001008A
:10590000C4F880092846F0BD01E0FF20FBE7400510
:10591000C6E7F0B5694CDDE9057504EB0014D4F871
:10592000B06916F004061670D4F8B02931D0D20848
:105930000A60D4F8B01901F002011970D4F8B41952
:1059400001F00F013970D4F8B8192970D4F8B819DA
:10595000090A6970D4F8B819090CA970D4F8B819F3
:10596000090EE970D4F8BC192971D4F8BC19090AD8
:105970006971D4F8BC19090CA971D4F8BC19090EC5
:10598000E97140B14B481030016841F020010160DD
:10599000B9E7520DCCE747480C30F5E700B587B0C2
:1059A000142102A833F07EF80DF11300411ECDE959
:1059B0000010831E04AA02A90020FFF7AAFF404896
:1059C0000168002901D002A8884707B000BDF8B5DA
:1059D000002413460091012522462146FFF746FF89
:1059E000064640F6FF77304600F02FF8072805D02E
:1059F000641CA4B2BC42F6D32846F8BD0025FBE7E0
:105A000030B5054686B000242A4803940C308DF842
:105A10000840006810F0030015D002A8CDE900018D
:105A200005AB04AA03A90020FFF773FF0398A8425F
:105A300005D19DF8100010B99DF8140008B18DF83B
:105A400008409DF8080006B030BD1A49083128B159
:105A5000012810D002281BD005207047086800F0EC
:105A600001020868096800F00200104301F080613B
:105A700040EA11607047086800F001020868096890
:105A800000F00200104301F0006140EA51607047ED
:105A9000086800F001020868096800F0020010437D
:105AA00001F0805140EA91607047000030380240B8
:105AB00000040240006800400066004000600040B2
:105AC0003400002010B5164A4FF480435C10911C3E
:105AD000022805D0012806D04FF4C040088010BD30
