:020000040800F2
:10000000F01B0020D11300085F0200086102000805
:1000100065020008690200086D0200080000000087
:10002000000000000000000000000000A101000826
:100030007102000800000000FD010008254B0008C7
:10004000EB130008EB130008EB130008EB13000898
:10005000EB130008EB130008EB130008EB13000888
:10006000EB130008EB130008EB130008EB13000878
:10007000EB130008EB130008EB130008EB13000868
:10008000EB130008EB130008EB130008EB13000858
:10009000EB130008EB130008EB130008EB13000848
:1000A00061050008EB130008EB130008EB130008D0
:1000B000EB130008EB130008EB130008EB13000828
:1000C000EB130008EB130008EB130008EB13000818
:1000D000EB130008090E0008ED120008450B00089C
:1000E000EB130008EB130008EB130008EB130008F8
:1000F000EB130008EB130008EB130008EB130008E8
:10010000EB130008EB130008EB130008EB130008D7
:10011000EB130008930C0008EB130008EB13000826
:10012000EB130008EB130008EB130008EB130008B7
:10013000EB130008EB130008EB130008EB130008A7
:10014000EB130008EB130008EB130008315D000807
:10015000EB130008EB130008EB130008EB13000887
:10016000EB130008EB130008EB130008EB13000877
:10017000EB130008EB130008EB130008EB13000867
:10018000EB130008EB130008DFF810D009F0F6FBC2
:100190000048004785040008AFF30080F01B0020F2
:1001A0002C4B19680868B0E8F04F80F30988BFF35A
:1001B0006F8F4FF0000080F311887047000000003F
:1001C00008480068006880F308884FF0000080F35A
:1001D000148862B661B6BFF34F8FBFF36F8F00DF35
:1001E00000BF00BF08ED00E0DFF80C00016841F43B
:1001F00070010160704700BF88ED00E0EFF30980F7
:10020000BFF36F8F134B1A681EF0100F08BF20ED5D
:10021000108A20E9F04F106009B44FF0100080F30D
:100220001188BFF34F8FBFF36F8F03F0C7FA4FF002
:10023000000080F3118809BC19680868B0E8F04F25
:100240001EF0100F08BFB0EC108A80F30988BFF3CE
:100250006F8F70474C000020EFF3058070477047A8
:1002600000BFFEE700BFFEE700BFFEE700BFFEE7FE
:10027000704700000CB5002001900090764800689F
:1002800040F480307449086000BF7348006800F48F
:10029000003000900198401C0190009818B9019816
:1002A000B0F5A04FF1D16C48006800F4003010B1F7
:1002B0000120009001E0002000900098012846D124
:1002C00065484030006840F0805063494031086024
:1002D0006248006840F44040604908605E48083069
:1002E00000685D49083108600846006840F4004035
:1002F00008600846006840F4A05008605848091F8C
:100300000860081F006840F08070091F086000BF87
:100310005148006800F000700028F9D040F20570E4
:10032000504908604C480830006820F003004A49F2
:10033000083108600846006840F00200086000BF0D
:1003400045480830006800F00C000828F8D10CBDC2
:1003500010B54548006840F47000434908603E48C5
:10036000006840F001003C49086000203A4908312B
:100370000860394800683D490840374908603C48F2
:10038000091D0860081F006820F48020091F08600C
:10039000002031490C310860FFF76CFF4FF000601E
:1003A00031498039086010BD70B500200022022359
:1003B00000240221284D08352D6805F00C0020B1DD
:1003C000042806D0082834D107E02A4D2A4E35608B
:1003D00033E02A4D284E35602FE01F4D2D1D2D682E
:1003E000C5F380541C4D2D1D2D6805F03F0154B1FF
:1003F000224DB5FBF1F5184E361D3668C6F388164A
:1004000005FB06F209E01B4DB5FBF1F5124E361D5A
:100410003668C6F3881605FB06F20F4D2D1D2D68B4
:10042000C5F301456D1C6B00B2FBF3F5124E356050
:1004300003E0104D104E356000BF00BF064D08357B
:100440002D68C5F303150E4E705D0B4D2D68C5402C
:10045000094E356070BD0000003802400070004059
:1004600008544007003C024088ED00E0FFFFF6FE24
:10047000103000240024F4000000002000127A0054
:100480000400002010B5A82000F016FD00F01EF8B2
:100490000A214CF2503000F0DCF8012000F041F865
:1004A000A82000F009FD42F21070B3EE0E0A04F02D
:1004B0004DFD04F05CFE04F08FFE3220B3EE040A22
:1004C00004F024FE03F00DFB10BD0000224800687C
:1004D00040F00100204908600846006840F0040030
:1004E00008600846006840F0020008601B48006889
:1004F00020F44070194908600846006820F4404024
:1005000008600846006820F0C000086008460068DF
:1005100040F4804008600846006840F040000860F1
:10052000704710B50D491831082218B108230B4C3B
:10053000238302E00823094C638310BD10B50749EB
:100540001831802218B18023044C238302E08023D9
:10055000024C638310BD00003038024000000240AE
:1005600010B5F948008A00F0010070B1F748006842
:1005700058B1F6480068804704462CB1F24800881C
:1005800020F00100F049088000BF4FF6FE70EE49F0
:10059000088210BD05200321ED4A126842F00102D5
:1005A000EB4B1A60EA4A0C3A126842F00302E84B3D
:1005B0000C3B1A608207128922F0070283071A8116
:1005C0008207128942F003021A818207128B40F2DD
:1005D00003339A4383071A838207128B40F2022364
:1005E0001A4383071A838207128C22F022021A848C
:1005F0008207128B4FF2F0039A4383071A83820714
:10060000128842F001021A80D24A126842F4006253
:10061000D04B1A60D04A126842F08002CE4B1A606A
:10062000CC4A126A42F48012CA4B1A62CA4A203279
:10063000126842F48052C84B20331A60821F83072D
:10064000DA6200221A858207128842F001021A80BB
:1006500070477FB504460D46BD48001D006840F058
:100660000100BB49091D0860B9481038006840F016
:100670000100B749103908606008B8494863B548B7
:10068000006820F44030B34908600846006840F430
:10069000003008600846406A40F00101AD48416200
:1006A0005320AE49088540F2E730C8624FF4FA7033
:1006B00048630846008B20F0700008830846008BD2
:1006C00040F0600008830846008B40F00800088373
:1006D0000846008C40F0010008840846008840F07D
:1006E000800008809D484430008840F40040A1F814
:1006F00044000846008840F0010008806008486314
:10070000FFF748FF0121080401F062FA40F2E730E8
:100710000290A720ADF804000020ADF80600ADF867
:100720000C0001A9884801F024FE012211468648E8
:1007300002F0C0FA18208DF8000000208DF80100AA
:100740008DF8020001208DF80300684600F057FE86
:100750007FBD10B50446FFF7B9FE0120FFF7E1FEAB
:100760000A214CF25030FFF774FF7748008820F0E0
:10077000010075490880754804600846008840F00B
:100780000100088010BD3EB504460D4624B91DB9D0
:100790000021724801F076FEA8B2ADF800000020FA
:1007A000ADF802000194ADF8080069466B4801F00D
:1007B000E0FD6008694948630121684801F062FE74
:1007C0003EBD2DE9F04F2DED048B85B00546634FFE
:1007D000634803900020019045B90021384601F09C
:1007E00051FE05B0BDEC048BBDE8F08F002D03DA9F
:1007F0006D424FF0000A01E04FF0010A039890FBB0
:10080000F5F6304608F0A3FA41EC190BB0EE490AB0
:10081000F0EE690A09F0EEFAB0EE408AF0EE608A76
:1008200051EC180B08F0A4FA0290DFF8389102247A
:1008300016E096FBF4F004FB1068C1450FDD96FB53
:10084000F4F0B0F5803F0ADAC1460194B9F1000F27
:1008500005D196FBF4F0B0F5803F00DA03E0641CAC
:1008600002988442E5DD00BF0A200290019896FBC1
:10087000F0F0A0F1010B0198401E0490B5F57A7FCD
:100880000DDD5046FFF75AFEF86A584503D1398D01
:100890000498814203D058460499FFF774FF3888C2
:1008A00040F00100388000BF9BE72DE9F04F2DEDAF
:1008B000048B85B00546294E2948039000200190FD
:1008C00045B900210846FFF75EFF05B0BDEC048B7B
:1008D000BDE8F08F002D03DA6D424FF0000A01E011
:1008E0004FF0010A039890FBF5F7384608F02FFA0D
:1008F00041EC190BB0EE490AF0EE690A09F07AFAF8
:10090000B0EE408AF0EE608A51EC180B08F030FA35
:100910000290DFF85090022427E097FBF4F004FBEC
:100920001078C14520DD97FBF4F0B0F5803F1BDA6D
:10093000C1460194B9F1000F16D197FBF4F0B0F560
:10094000803F11DA14E00000004001401400002054
:100950004038024000000240000402400000014014
:1009600000BD010580969800641C02988442D4DD85
:1009700000BF0A200290019897FBF0F0A0F1010B54
:100980000198401E0490B5F57A7F03DC706AF16B24
:1009900088420DD95046FFF7D1FDF06A584503D182
:1009A000318D0498814203D058460499FFF7EBFE3D
:1009B000308840F00100308000BF86E7014601200A
:1009C0007047024601207047012070474FF0804079
:1009D000406A70474FF08041486270474FF0804056
:1009E000406A00EE900AF8EEE01A9FED072A81EEC9
:1009F000821ADFED061A21EE211AF2EE001A21EE1C
:100A0000211AB0EE410A7047F0FF7F4C0000B4435A
:100A100030B587B004460D466448056001210420C6
:100A200001F07CF80121880401F0C1F807220B21B4
:100A30005F4800F060FE07220A215D4800F05BFE7F
:100A40004FF40060059002208DF818008DF8190011
:100A500000208DF81A0001208DF81B0005A95448CC
:100A600000F0BEFD4FF48060059002208DF8180064
:100A70008DF8190000208DF81A0001208DF81B0058
:100A800005A94B4800F0ACFD01940020ADF808002A
:100A9000ADF80A00ADF80C00ADF810000C20ADF870
:100AA0000E0001A9434801F0F4F90121414801F089
:100AB00078FA012240F225513E4801F028FB272018
:100AC0008DF8000000208DF8010003208DF8020051
:100AD00001208DF80300684600F091FC07B030BD9E
:100AE000014635480088354A1288904205DB0020CF
:100AF000314A1080314A108070473048008840B138
:100B00002D4802880088401C2B4B18802C48805CA4
:100B100008700120F0E770B505460C4627480088AC
:100B200008B1002070BD22462946254807F0D4FFB1
:100B300022480480012240F227711E4801F0E7FAA2
:100B40000120EFE738B540F225511A4801F01AFBB1
:100B500080B11848001D0088C4B21448006818B15C
:100B6000204612490968884740F22551114801F092
:100B700044FB00BF40F227710E4801F003FB80B137
:100B80006846FFF7ADFF28B19DF800000949091D2F
:100B9000088005E0002240F22771064801F0B7FA0C
:100BA00000BF00200349088038BD00001800002065
:100BB00000080240004800401C0000201E000020E9
:100BC0007401002030B587B004460D463D480560ED
:100BD00001210C2000F0A2FF0121080500F0E7FF31
:100BE00008220C21384800F086FD082202213748EF
:100BF00000F081FD4FF48050059002208DF8180020
:100C00008DF8190000208DF81A0001208DF81B00C6
:100C100005A92D4800F0E4FC0420059002208DF881
:100C200018008DF8190000208DF81A0001208DF8A9
:100C30001B0005A9254800F0D3FC01940020ADF865
:100C40000800ADF80A00ADF80C00ADF810000C205B
:100C5000ADF80E0001A91E4801F01BF901211C4846
:100C600001F09FF9012240F22551194801F04FFA95
:100C700035208DF8000000208DF8010003208DF84C
:100C8000020001208DF80300684600F0B8FB07B0B1
:100C900030BD10B540F225510D4801F073FA78B11E
:100CA0000B488088C4B20748006818B1204605493F
:100CB0000968884740F22551054801F09EFA00BFB7
:100CC00010BD00002000002000080240000C02407F
:100CD0000050004030B587B004460D4663480560BB
:100CE0000121042000F01AFF0121102000F070FF04
:100CF000072209215E4800F0FEFC07220A215C4819
:100D000000F0F9FC4FF48060059002208DF8180087
:100D10008DF8190000208DF81A0001208DF81B00B5
:100D200005A9534800F05CFC4FF4007005900220C8
:100D30008DF818008DF8190000208DF81A00012098
:100D40008DF81B0005A94A4800F04AFC01940020D8
:100D5000ADF80800ADF80A00ADF80C00ADF81000D1
:100D60000C20ADF80E0001A9424801F092F80121D3
:100D7000404801F016F9012240F225513D4801F0AA
:100D8000C6F925208DF8000000208DF80100032011
:100D90008DF8020001208DF80300684600F02FFB5B
:100DA00007B030BD014634480088344A128890426A
:100DB00005DB0020304A1080304A108070472F48F1
:100DC000008840B12C4802880088401C2A4B1880BB
:100DD0002B48805C08700120F0E770B505460C4692
:100DE0002648008808B1002070BD224629462448C4
:100DF00007F072FE21480480012240F227711D484D
:100E000001F085F90120EFE738B540F22551194886
:100E100001F0B8F978B117488088C4B21348006867
:100E200018B1204611490968884740F225511148F8
:100E300001F0E3F900BF40F227710E4801F0A2F97A
:100E400078B16846FFF7AEFF20B19DF80000094970
:100E5000888005E0002240F22771064801F057F92A
:100E600000BF00200349088038BD00002400002096
:100E70000000024000100140280000202A0000204D
:100E8000D80100200A48016901F0400109B9012098
:100E900070470020FCE70748006840F01000054953
:100EA00008600348006820F440500149086070471A
:100EB00000100240303802402649096841F4807130
:100EC000244A116070470921B0F57A7F01D941F2B7
:100ED00088300022204B1A8053221A8500EB8002B2
:100EE0000123C3EB42021C4BDA6200225A62BFF3B9
:100EF0004F8F1A4612880A431A8000BF164A12887A
:100F000002F00102002AF9D1704770470921B0F5BB
:100F10007A7F01DD41F2883000220F4B1A8042F2C5
:100F2000CF021A8500EB80020123C3EB42020A4B79
:100F3000DA6200225A62BFF34F8F1A4612880A43C0
:100F40001A8000BF044A128802F00102002AF9D177
:100F500070470000403802400020004000BF70474A
:100F60000FB438B500244FF48071FE4807F0CDFD72
:100F700005A80090FB48009A049908F029FF00207A
:100F800000900DE000BFF848008800F04000002805
:100F9000F9D02046611C8CB2F249085CF249888085
:100FA000F048005D0028EDD138BC5DF814FB0FB4AB
:100FB00038B500244FF48071EC4807F0A6FD05A871
:100FC0000090EA48009A049908F002FF002000907F
:100FD0000EE000BFE648008800F040000028F9D08D
:100FE0002046611C8CB2E149085CE149091D08807A
:100FF000DE48005D0028ECD138BC5DF814FB10B56C
:1010000088B004460121042000F088FD01218804F5
:1010100000F0CDFD07220A21D64800F06CFB072224
:101020000B21D44800F067FB4FF44060069002208B
:101030008DF81C008DF81D0000208DF81E00012089
:101040008DF81F0006A9CB4800F0CAFA02940020D0
:10105000ADF80C00ADF80E00ADF81000ADF81400BE
:101060000C20ADF8120002A9C34800F012FF0121C4
:10107000C14800F096FF012240F22551BE4801F020
:1010800046F827208DF8040000208DF80500032085
:101090008DF8060001208DF8070001A800F0AFF9D7
:1010A00008B010BD10B588B0044601210C2000F036
:1010B00035FD0121080500F07AFD08220C21AD481C
:1010C00000F019FB08220221AC4800F014FB4FF499
:1010D0008050069002208DF81C008DF81D00002025
:1010E0008DF81E0001208DF81F0006A9A14800F010
:1010F00077FA0420069002208DF81C008DF81D0060
:1011000000208DF81E0001208DF81F0006A99B48C5
:1011100000F066FA02940020ADF80C00ADF80E0065
:10112000ADF81000ADF814000C20ADF8120002A9C3
:10113000934800F0AEFE0121914800F032FF0122F9
:1011400040F225518E4800F0E2FF35208DF8040072
:1011500000208DF8050003208DF8060001208DF891
:10116000070001A800F04BF908B010BD854A1278BD
:10117000012A0AD100BF7C4A128802F04002002AEC
:10118000F9D0C2B2784B9A80704700BF784A128873
:1011900002F04002002AF9D0C2B2754B1B1D1A8022
:1011A00000BFF1E710B588B004460121084600F001
:1011B000B5FC0121102000F00BFD07220921724827
:1011C00000F099FA07220A216F4800F094FA4FF4D0
:1011D000C060069002208DF81C008DF81D000020D4
:1011E0008DF81E0001208DF81F0006A9664800F04A
:1011F000F7F902940020ADF80C00ADF80E00ADF840
:101200001000ADF814000C20ADF8120002A95648E9
:1012100000F03FFE0121544800F0C3FE012240F2DD
:101220002551514800F073FF25208DF8040003205C
:101230008DF805008DF8060001208DF8070001A843
:1012400000F0DDF808B010BD10B588B004460121EB
:10125000084600F063FC0121480400F0A8FC0722C6
:101260000221494800F047FA07220321464800F0CE
:1012700042FA0C20069002208DF81C008DF81D000B
:1012800000208DF81E0001208DF81F0006A93E48A1
:1012900000F0A6F902940020ADF80C00ADF80E00A5
:1012A000ADF81000ADF814000C20ADF8120002A942
:1012B0002F4800F0EEFD01212D4800F072FE0122C2
:1012C00040F225512A4800F022FF26208DF8040024
:1012D00002208DF8050003208DF8060001208DF80E
:1012E000070001A800F08BF808B010BD10B540F25F
:1012F00025511F4800F046FF10B31D4800F080FE46
:10130000C4B22248008800F40040C8B91F480088D1
:1013100000F4804060B10A2C03D000201B490880F3
:1013200039E01A48008840F400401849088032E04B
:101330000D2C06D11548008840F4804013490880E0
:1013400029E012480088C0F30D0011490C540F48E1
:101350000088401C0D49088008460088C7281ADD0F
:10136000002017E0040300200010014004040020C6
:10137000004400400008024000480040000C0240C9
:10138000005000402C0000200000024038000020E7
:101390003C020020088010BD0FB438B5002405A819
:1013A00000900948009A049907F0D8FB84B24FF4E2
:1013B0008071054807F0A9FB0020009003490880D0
:1013C000204638BC5DF814FB3C0200202E000020B3
:1013D0000648804706480047FEE7FEE7FEE7FEE7CF
:1013E000FEE7FEE7FEE7FEE7FEE7FEE75103000843
:1013F0008901000832490143324A1160704770B5D3
:10140000002100230F22C4781CB32E4C246804F45E
:10141000E064C4F5E064C4F30721C1F10404E3B25D
:101420000A4144789C40E1B28478144021430C077F
:10143000210E254C05786155047804F01F05012420
:10144000AC4005786D11AD0005F1E025C5F800410F
:1014500009E0047804F01F050124AC401B4D067818
:10146000761145F8264070BD194A0A400243154BD3
:101470001B1F1A60704739B1124A121D12680243CD
:10148000104B1B1D1A6006E00E4A121D12688243A3
:101490000C4B1B1D1A607047042808D14FF0E02147
:1014A000096941F004014FF0E022116107E04FF0BB
:1014B000E021096921F004014FF0E0221161704739
:1014C0000000FA050CED00E000E400E080E100E03F
:1014D00080FFFF1F10B504469848844208D10121BF
:1014E000084600F086FB0021012000F082FB76E038
:1014F0009348844208D10121022000F07AFB0021A8
:10150000022000F076FB6AE08E48844208D1012177
:10151000042000F06EFB0021042000F06AFB5EE076
:101520008948844208D10121082000F062FB002193
:10153000082000F05EFB52E08448844208D101217B
:10154000102000F056FB0021102000F052FB46E076
:101550007F48844208D10121202000F04AFB00216D
:10156000202000F046FB3AE07A48844208D101216D
:10157000402000F03EFB0021402000F03AFB2EE02E
:101580007548844208D10121802000F032FB0021FF
:10159000802000F02EFB22E07048844208D1012117
:1015A000801500F026FB0021A01500F022FB16E0BC
:1015B0006B48844208D10121401500F01AFB00213C
:1015C000601500F016FB0AE06648844207D101214D
:1015D000001500F00EFB0021201500F00AFB10BDE5
:1015E000F0B50A4600210023002400BF3DE001259C
:1015F00005FA01F3156805EA03049C4234D1056835
:101600004F000326BE40B543056015794E00B54036
:101610000668354305601579012D02D01579022D34
:1016200016D185684F000326BE40B54385605579C5
:101630004E00B540866835438560456801268E407A
:10164000B5434560456896798E40B6B235434560EE
:10165000C5684F000326BE40B543C560D5794E002E
:10166000B540C6683543C560491C1029BFD3F0BDDD
:101670004FF6FF7101600021017141718171C171EB
:10168000704708B54FF480320092009A0A430092E6
:10169000009AC261C161009AC261C2690092C269C6
:1016A000009208BD0246002013690B400BB10120D7
:1016B00000E0002070470146086980B2704702468A
:1016C000002053690B400BB1012000E0002070475F
:1016D0000146486980B27047018370474183704773
:1016E0000AB1018300E0418370474161704742695C
:1016F0004A4042617047F0B5002300244D07ED0ECB
:1017000002FA05F3CE1000F1200555F826504E07D9
:10171000F70E0F26BE40B543CF1000F1200646F865
:101720002750CE1000F1200555F8265045EA030455
:10173000CE1000F1200545F82640F0BD0000024023
:101740000004024000080240000C02400010024069
:101750000014024000180240001C02400020024019
:101760000024024000280240F948006840F00100CF
:10177000F74908600020F64908310860F44800681D
:10178000F4490840F2490860F348091D0860F3482D
:10179000EF4984310860F0481038091D0860EC48B2
:1017A000006820F48020EA4908600020E8490C31F4
:1017B0000860E7498C31086070470021E44A921CB8
:1017C000117011460870704710B5014600220023C1
:1017D00000204A11012A02D1DD4C236808E0022AC8
:1017E00003D1DB4C7034236802E0D94C7434236895
:1017F00001F01F02012494401C400CB1012000E0C4
:10180000002010BD38B5002000900024002500BF46
:101810003120FFF7D9FF05460098401C0090009842
:10182000B0F5A04F01D0002DF2D03120FFF7CCFF52
:1018300008B1012400E00024204638BD0146002004
:10184000C34A106820F0F80040EAC10010607047F9
:10185000C349086070470021BD4A70321170117091
:10186000012802D004280AD104E00121B84A7032CC
:10187000117005E00521B64A7032117000E000BF1A
:1018800000BF7047B7490860704770B5049C41EAD3
:1018900082150126C6EB530645EA0645054345EA8F
:1018A0000465AB4E361D356070BDAD4908667047A6
:1018B000820142EA0172A64B84331A607047A8493C
:1018C0008866704710B5830143EA016343EA0273F7
:1018D0009F4C8834236010BDA14908677047A04918
:1018E000C864704702460020994B0833186820F0FE
:1018F000EC6042EA01031843954B083318607047C7
:1019000002460020924B0833186820F0784042EAE3
:10191000010318438E4B08331860704701460020BE
:101920008B4A0832106820F00300084310607047AB
:1019300087480830006800F00C007047014600201E
:10194000834A0832106820F0F000084310607047A6
:10195000014600207E4A0832106820F4E050084317
:101960001060704701460020794A0832106820F460
:10197000604040EAC10010607047F0B500210022CD
:101980000024022500260223714F08373F6807F024
:101990000C0121B1042905D0082937D105E0724F87
:1019A000076036E0714F076033E0694F3F1D3F68C5
:1019B000C7F38056664F3F1D3F6807F03F036EB187
:1019C0006A4FB7FBF3F7DFF888C10CF1040CDCF8C1
:1019D00000C0CCF3881C07FB0CF40CE0624FB7FB93
:1019E000F3F7DFF86CC10CF1040CDCF800C0CCF3A9
:1019F000881C07FB0CF4564F3F1D3F68C7F3014797
:101A00007F1C7D00B4FBF5F7076002E0564F0760CE
:101A100000BF00BF4E4F08373F6807F0F0010909CB
:101A2000534F7A5C0768D7404760494F08373F6893
:101A300007F4E051890A4E4F7A5C4768D7408760C7
:101A4000434F08373F6807F46041490B484F7A5CC1
:101A50004768D740C760F0BD002100F44072B2F57E
:101A6000407F0AD13A4A0832116821F4F811414AFC
:101A700002401143364A08321160354A703212680A
:101A8000C0F30B031A43324B70331A607047354969
:101A90004439086070473349403908607047364917
:101AA0000860704701460020294A8C32106820F0F7
:101AB0001F004A1E1043264A8C32106070470146B0
:101AC0000020234A8C32106820F4F8504A1E40EA65
:101AD00002201F4A8C3210607047014600201C4AC9
:101AE0008C32106820F440100843106070470146A3
:101AF0000020174A8C32106820F440000843106020
:101B0000704701460020124A8C32106820F44030A1
:101B100008431060704719490860704739B10C4A92
:101B20003032126802430A4B30331A6006E0084A2A
:101B3000303212688243064B30331A607047F9B175
:101B4000034A343212680243014B34331A601CE0FA
:101B500000380240FFFFF6EA103000240030002079
:101B600000004742800E47420024F40000127A0031
:101B70003A000020FFFCFF0F5C014742E0114742A2
:101B80008F4A126882438E4B1A60704739B18C4A73
:101B9000121D126802438A4B1B1D1A6006E0884A18
:101BA000121D12688243864B1B1D1A60704739B1A3
:101BB000834A0C3212680243814B0C331A6006E0F0
:101BC0007F4A0C32126882437D4B0C331A60704797
:101BD00039B17B4A103212680243794B10331A60D4
:101BE00006E0774A103212688243754B10331A6050
:101BF000704739B1724A243A12680243704B243B51
:101C00001A6006E06E4A243A126882436C4B243B09
:101C10001A60704739B16A4A203A12680243684B29
:101C2000203B1A6006E0664A203A12688243644B01
:101C3000203B1A60704739B1614A1C3A126802436E
:101C40005F4B1C3B1A6006E05D4A1C3A12688243F7
:101C50005B4B1C3B1A60704739B1594A143A126801
:101C60000243574B143B1A6006E0554A143A126877
:101C70008243534B143B1A60704739B1504A103AB3
:101C8000126802434E4B103B1A6006E04C4A103A71
:101C9000126882434A4B103B1A60704739B1484A78
:101CA0001C3212680243464B1C331A6006E0444A59
:101CB0001C3212688243424B1C331A60704739B1A0
:101CC0003F4A2032126802433D4B20331A6006E03F
:101CD0003B4A203212688243394B20331A607047E6
:101CE00039B1374A243212680243354B24331A6023
:101CF00006E0334A243212688243314B24331A609F
:101D0000704739B12E4A2C32126802432C4B2C33C7
:101D10001A6006E02A4A2C3212688243284B2C3380
:101D20001A60704739B1264A303212680243244B98
:101D300030331A6006E0224A303212688243204B68
:101D400030331A607047012808D11D493C310968B9
:101D500041F008011A4A3C32116007E018493C3151
:101D6000096821F00801164A3C321160704739B108
:101D7000134A273A12780243114B273B1A7006E0A8
:101D80000F4A273A127882430D4B273B1A7070474F
:101D90000B484030006840F08070094940310860CD
:101DA000704701460020064A283A12680A400AB1E4
:101DB000012000E000207047014926390870704773
:101DC0003438024010B50446FA48844208D1012153
:101DD0001020FFF752FF00211020FFF74EFF57E0C1
:101DE000F548844209D101214804FFF735FF00215D
:101DF0004FF40030FFF730FF4AE0F048844209D149
:101E000001218804FFF728FF00214FF48020FFF70D
:101E100023FF3DE0EA48844209D10121C804FFF7CD
:101E20001BFF00214FF40020FFF716FF30E0E548CC
:101E3000844209D101210805FFF70EFF00214FF46C
:101E40008010FFF709FF23E0DF48844208D1012119
:101E50002020FFF712FF00212020FFF70EFF17E0E0
:101E6000DA48844209D101218807FFF7F5FE0021F5
:101E70004FF08040FFF7F0FE0AE0D548844207D1DA
:101E800001214005FFF7E8FE00216005FFF7E4FEB1
:101E900010BD2DE9FF4705460E460024A14600BFB0
:101EA000A046B08900B100BF2C8A24F44054F088C9
:101EB00004432C82AC8941F20C608443B0883189A0
:101EC0000843718908430443AC81AC8A24F440740C
:101ED000B0890443AC826846FFF74FFDB5488542A0
:101EE00002D0B948854202D1DDF80C9001E0DDF85E
:101EF0000890A88900F4004040B109EBC90000EB4C
:101F0000091031684900B0FBF1F707E009EBC9009F
:101F100000EB091031688900B0FBF1F76420B7FBD2
:101F2000F0F004012009642101FB1078A88900F475
:101F3000004040B1322000EBC800B0FBF1F000F0EF
:101F40000700044308E0322000EB08106421B0FBD6
:101F5000F1F000F00F0004432C81BDE8FF874FF43F
:101F60001651016000218180C18001810C214181D5
:101F700000218181704710B502460020108A20F4AC
:101F800070600B884C8823438C882343CC88234380
:101F90001843108210BD0021018041808180C180E2
:101FA000704721B1828942F40052828104E0828923
:101FB0004DF6FF731A4082817047028B02F47F4214
:101FC0000283028B0A430283704721B1828942F463
:101FD0000042828103E08289C2F30E02828170474F
:101FE00021B1828A42F40062828204E0828A4FF246
:101FF000FF731A4082827047C1F3080282807047E3
:1020000001468888C0F308007047028A4FF6F073D3
:102010001A400282028A0A430282704721B18289F1
:1020200042F00202828104E082894FF6FD731A4079
:102030008281704782894FF2FF731A4082818289C0
:102040000A4382817047028A4FF6DF731A40028288
:10205000028A0A430282704721B1028A42F4804216
:10206000028204E0028A4BF6FF731A400282704734
:10207000818941F001018181704721B1828A42F05A
:102080000802828204E0828A4FF6F7731A40828245
:102090007047028BD2B20283028B42EA0122028392
:1020A000704721B1828A42F02002828204E0828A53
:1020B0004FF6DF731A408282704721B1828A42F064
:1020C0001002828204E0828A4FF6EF731A40828205
:1020D0007047828A4FF6FB731A408282828A0A43D3
:1020E0008282704721B1828A42F00202828204E039
:1020F000828A4FF6FD731A40828270471AB1838A32
:102100000B43838202E0838A8B4383827047F0B55E
:102110000346002400260025002040F66A17B94235
:1021200000D100BF1846C1F3421401F01F06012779
:1021300007FA06F5012C01D10C3004E0022C01D184
:10214000103000E014301AB107682F43076002E036
:102150000768AF430760F0BD02460020B1F5007F7D
:1021600000D100BF13880B400BB1012000E000201C
:10217000704701F40072B2F5007F00D100BFCA437E
:102180000280704770B5024600240023002500201D
:1021900040F66A16B14200D100BFC1F3421501F00A
:1021A0001F03012606FA03F3012D13D1968933404C
:1021B00017E00000001001400044004000480040CB
:1021C000004C0040005000400014014000780040E6
:1021D000007C0040022D02D1168A334001E0968A2D
:1021E00033400C12012606FA04F41688344013B169
:1021F0000CB1012000E0002070BD10B500220023CA
:1022000040F66A14A14200D100BF0A120124944092
:10221000A3B2DC43048010BD10B50446FE488442DE
:1022200008D101210846FFF728FD00210120FFF712
:1022300024FD9DE0B4F1804F08D101210846FFF74D
:102240000BFD00210120FFF707FD91E0F3488442D8
:1022500008D101210220FFF7FFFC00210220FFF737
:10226000FBFC85E0EE48844208D101210420FFF701
:10227000F3FC00210420FFF7EFFC79E0E9488442F9
:1022800008D101210820FFF7E7FC00210820FFF713
:10229000E3FC6DE0E448844208D101211020FFF7FF
:1022A000DBFC00211020FFF7D7FC61E0DF4884420F
:1022B00008D101212020FFF7CFFC00212020FFF7CB
:1022C000CBFC55E0DA48844208D101210220FFF717
:1022D000D4FC00210220FFF7D0FC49E0D54884421D
:1022E00009D101210804FFF7C8FC00214FF4803018
:1022F000FFF7C3FC3CE0D048844209D101214804E7
:10230000FFF7BBFC00214FF40030FFF7B6FC2FE0D5
:10231000CA48844209D101218804FFF7AEFC00219C
:102320004FF48020FFF7A9FC22E0C548844208D181
:1023300001214020FFF790FC00214020FFF78CFC9A
:1023400016E0C048844208D101218020FFF784FCB8
:1023500000218020FFF780FC0AE0BB48844207D1BF
:1023600001218015FFF778FC0021A015FFF774FC10
:1023700010BD00220288A84B98420ED0AC4B984268
:102380000BD0B0F1804F08D0A44B984205D0A44B9D
:10239000984202D0A34B984204D14FF68F731A4053
:1023A0004B881A43A04B984207D0A04B984204D0C8
:1023B0004FF6FF431A400B891A4302804B68C362F1
:1023C0000B880385944B984202D0994B984201D1D7
:1023D0008B7A03860123838270474FF0FF3141607F
:1023E00000210180018141808172704701858282D4
:1023F00070470A46002101884FF68F731940114338
:102400000180704741627047C16270470146486A67
:1024100070470146088D704721B1028842F00202E0
:10242000028004E002884FF6FD731A400280704774
:1024300021B1028842F00402028004E002884FF6D3
:10244000FB731A400280704721B1028842F080027B
:10245000028004E002884FF67F731A4002807047C2
:1024600002884FF6F7731A40028002880A430280FE
:10247000704702884FF6FF431A40028002880A43E1
:102480000280704721B1028842F00102028004E01C
:1024900002884FF6FE731A400280704770B5002420
:1024A00000220023058C4FF6FE7635400584028C11
:1024B0008388048B4FF68F752C40B51E2C400D88F9
:1024C0002C43751E2A408D892A434D882A43524D3C
:1024D000A84202D0564DA84213D14FF6F7752A40B4
:1024E000CD892A434FF6FB752A408D882A434FF643
:1024F000FF652B404FF6FF552B400D8A2B434D8A2D
:102500002B43838004838D684563028470BD70B55E
:10251000002400220023058C4FF6EF763540058419
:10252000028C8388048B48F6FF752C404FF6FF45DC
:102530002C400D884FF6FF7606EA05252C434FF612
:10254000DF752A408D8906EA05152A434D8806EA7B
:1025500005152A43304DA84202D0354DA8421DD161
:102560004FF67F752A40CD894FF6FF7606EA0515AE
:102570002A434FF6BF752A408D8806EA05152A437F
:102580004FF6FF352B404FF2FF752B400D8A06EAC0
:1025900085052B434D8A06EA85052B4383800483FA
:1025A0008D688563028470BD70B50024002200230D
:1025B000058C4FF6FF6635400584028C8388848B3A
:1025C0004FF68F752C404FF6FC752C400D882C4330
:1025D0004FF6FF552A408D894FF6FF7606EA05250E
:1025E0002A434D8806EA05252A430B4DA84202D00E
:1025F0000F4DA84238D14FF2FF752A40CD894FF6D2
:10260000FF7606EA05252A434FF6FF352A408D88D6
:1026100006EA05252A4319E00000014000040040B5
:1026200000080040000C0040001000400014004072
:1026300000040140004001400044014000480140C6
:1026400000180040001C0040002000404EF6FF75BE
:102650002B404DF6FF752B400D8A06EA05152B43DE
:102660004D8A06EA05152B43838084838D68C563F4
:10267000028470BD70B5002200230024058C4EF644
:10268000FF7635400584038C8488828B48F6FF757D
:102690002A404FF6FF452A400D884FF6FF7606EA9E
:1026A00005252A434DF6FF752B408D8906EA053531
:1026B0002B434D8806EA05352B43FE4DA84202D038
:1026C000FD4DA84208D14BF6FF752C400D8A4FF600
:1026D000FF7606EA85152C43848082838D68056425
:1026E000038470BD002101804180818081608181EF
:1026F000C18101824182704770B5034600200024E9
:102700001846183001258D40ACB21D8CA5431D84A0
:1027100009B108290AD100EB610005684FF68F76F0
:10272000354005600568154305600FE00D1FC5F3D2
:102730004E052844056848F6FF7635400560056873
:102740004FF6FF7606EA02263543056070BD416309
:10275000704781637047C1637047016470470A46E0
:102760000021018B4FF68F7319401143018370478D
:102770000A460021018B48F6FF7319404FF6FF739C
:1027800003EA02231943018370470A460021818B23
:102790004FF68F7319401143818370470A46002119
:1027A000818B48F6FF7319404FF6FF7303EA02234B
:1027B0001943818370470A460021018B4FF6F77356
:1027C00019401143018370470A460021018B4FF2E3
:1027D000FF7319404FF6FF7303EA02231943018385
:1027E00070470A460021818B4FF6F7731940114359
:1027F000818370470A460021818B4FF2FF73194095
:102800004FF6FF7303EA02231943818370470A4698
:102810000021018B4FF6FB73194011430183704770
:102820000A460021018B4FF6FF3319404FF6FF7324
:1028300003EA02231943018370470A460021818B72
:102840004FF6FB7319401143818370470A460021FC
:10285000818B4FF6FF3319404FF6FF7303EA0223D3
:102860001943818370470A460021018B4FF67F731D
:1028700019401143018370470A460021018BC1F3BF
:102880000E014FF6FF7303EA0223194301837047D9
:102890000A460021818B4FF67F73194011438183D3
:1028A00070470A460021818BC1F30E014FF6FF737A
:1028B00003EA02231943818370470A460021018CF1
:1028C0004FF6FD7319401143018470470A460021F9
:1028D000018C4FF6F77319401143018470470A4683
:1028E0000021018C4FF6DF7319404FF6FF7303EAA6
:1028F00002131943018470470A460021018C4FF6E8
:102900007F7319404FF6FF7303EA021319430184E2
:1029100070470A460021018C4FF6FF5319404FF6CD
:10292000FF7303EA02231943018470470A4600211A
:10293000018C4FF2FF7319404FF6FF7303EA022335
:102940001943018470470A460021018C4DF6FF733C
:1029500019404FF6FF7303EA0233194301847047AD
:1029600030B5002301248C40A3B2048C9C43048422
:10297000048C02FA01F5ADB22C43048430BD30B5AD
:10298000002304248C40A3B2048C9C430484048C54
:1029900002FA01F5ADB22C43048430BD828B4FF2B4
:1029A000FF331A408283828B4FF6FF7303EA0123C1
:1029B0001A4382837047F0B50C4615460021002269
:1029C0000026078C4EF6FF7C07EA0C070784818BF4
:1029D000028C4FF6FF7707EA043640F6FF4739408E
:1029E0004FF6FF7707EA052739434FF6FF7707EAE7
:1029F0000337394345F6FF773A4046F480573A4368
:102A000081830284F0BD828B4FF6F3731A40828378
:102A1000828B0A4382837047F0B50C46154600212D
:102A200000220026078C4FF6FF6C07EA0C0707848C
:102A3000818B028C4FF6FF7707EA04264FF60C775E
:102A400039404FF6FF7707EA03172F4339434FF218
:102A5000FF573A4046F480773A4381830284F0BDC1
:102A6000028B4FF2FF331A400283028B4FF6FF7343
:102A700003EA01231A4302837047F0B50C4615465A
:102A8000002100220026078C4FF6EF7C07EA0C0796
:102A90000784018B028C4FF6FF7707EA041640F695
:102AA000FF4739404FF6FF7707EA033739434FF6C0
:102AB000FF7703E0000001400004014007EA05271A
:102AC00039434FF65F773A4046F010073A430183A7
:102AD0000284F0BD028B4FF6F3731A400283028B1F
:102AE0000A4302837047F0B50C46154600210022C8
:102AF000068C4FF6FE773E400684018B028C4FF623
:102B00000C7631407E1C06EA03162E4331434FF605
:102B1000F576324044F00106324301830284F0BD71
:102B200070B505460C46208850B92389A288618873
:102B30002846FFF7D8FFE1882846FFF7CBFF25E0BE
:102B4000208804280AD12389A28861882846FFF7B3
:102B500094FFE1882846FFF783FF17E020880828C4
:102B60000AD12389A28861882846FFF755FFE188AA
:102B70002846FFF748FF09E02389A2886188284694
:102B8000FFF719FFE1882846FFF708FF70BD002115
:102B900001804180012181800021C1800181704735
:102BA0002DE9F04105460C4600260127608808B94A
:102BB000022600E00026A088012801D1022700E0BB
:102BC00001272088A0B92389A28861882846FFF7B9
:102BD0008AFFE1882846FFF77DFF23893A46314680
:102BE0002846FFF74AFFE1882846FFF739FF13E040
:102BF0002389A28861882846FFF73FFFE18828469D
:102C0000FFF72EFF23893A4631462846FFF76BFF30
:102C1000E1882846FFF75EFFBDE8F0810146486B7A
:102C200070470146886B70470146C86B7047014684
:102C3000086C70470A884B881A438B881A43CB88E4
:102C40001A430B891A434B891A438B891A43A0F8FC
:102C5000442070470021018041808180C180018132
:102C600041818181704731B1B0F8442042F4004283
:102C7000A0F8442005E0B0F84420C2F30E02A0F80A
:102C80004420704721B1828842F00402828004E02F
:102C900082884FF6FB731A408280704721B1828888
:102CA00042F00102828004E082884FF6FE731A40EF
:102CB000828070471AB183890B43838102E0838944
:102CC0008B43838170478182704702460020138ABC
:102CD0000B400BB1012000E000207047CA43028284
:102CE000704730B50246002000230024158A05EA0B
:102CF0000103958905EA010413B10CB1012000E03C
:102D0000002030BDCA430282704741EA0203A0F8A6
:102D1000483070471AB183890B43838102E083896D
:102D20008B438381704721B1828842F00802828000
:102D300004E082884FF6F7731A4082807047018959
:102D40004FF6F8721140018170470A46002101894F
:102D50004FF68F73194011430181704730B5044617
:102D60000D4629462046FFF7F0FF208940F0070076
:102D7000208130BD2DE9F04104460D4616461F4620
:102D8000602D06D13B46012231462046FFF775FEF5
:102D900005E03B46012231462046FFF7A4FE2946C6
:102DA0002046FFF7D2FF208940F007002081BDE8D0
:102DB000F08130B50C4600210189C9B24FF6FF758C
:102DC00005EA0325154325432943018130BD2DE93B
:102DD000F04105460E4617469846002443463A46BB
:102DE00031462846FFF7E5FF2C894FF6F87004407E
:102DF00044F007044FF68F70044044F070042C81B7
:102E0000BDE8F081F0B504460D4616461F463B4628
:102E1000324629462046FFF7CCFF208940F4804007
:102E20002081F0BD82884FF68F731A40828082889D
:102E30000A438280704702894FF6F8731A40028174
:102E400002890A430281704702894FF67F731A4054
:102E5000028102890A4302817047F0B50C4615468B
:102E60001E460021002200230189028B038C4FF6AD
:102E7000F877394021434FF6FC473A4040F20117BA
:102E80003A434FF6DD773B404FF6FF7707EA0617E8
:102E90002F433B43018102830384F0BD21B182882B
:102EA00042F08002828004E082884FF67F731A40ED
:102EB00082807047A0F85010704700F1080141600F
:102EC0004FF0FF31816000F10801C1600161002114
:102ED0000160704700210161704742684A60936851
:102EE0008B60936859609160086103685B1C0360A4
:102EF000704710B502460B685C1C0CB9106907E0FE
:102F000002F1080000E04068446824689C42FAD955
:102F100044684C604C68A160886041600A61146834
:102F2000641C146010BD01460A69D1E90130986043
:102F3000D1E9010358605068884201D18868506027
:102F4000002008611068401E106010687047000083
:102F500010B5002407E004EB8401FB4A02EB81007A
:102F6000FFF7ABFF641C052CF5D3F848FFF7A5FF6E
:102F7000F748FFF7A2FFF748FFF79FFFF648FFF774
:102F80009CFFF648FFF799FFF048F5490860F048C4
:102F9000F449086010BD10B5044601F080FDF24808
:102FA0000068401CF0490860F048006840B9EF48EC
:102FB00004600846006801280DD1FFF7C9FF0AE048
:102FC000EB48006838B9E9480068C06AE16A88429D
:102FD00001D8E6480460E7480068401CE5490860FD
:102FE00094F82C1001208840E34909680843E2491D
:102FF0000860E16A01EB8101D34A02EB8100211DE7
:10300000FFF76BFF01F072FDD948006868B1D7483F
:103010000068C06AE16A884207D24FF08050D74901
:103020000860BFF34F8FBFF36F8F10BD2DE9FF5FB7
:1030300081460E469246DDE90E7B109CAAF1010006
:10304000216B01EB800828F0070808F0070008B999
:10305000012000E0002050B900BF102080F311884B
:10306000BFF34F8FBFF36F8F00BF00BFFEE786B186
:10307000002507E0715D04F134004155705D00B931
:1030800002E06D1C102DF5D300BF00214320015537
:1030900002E0002084F83400052F00D30427E76203
:1030A000201DFFF717FF04F11800FFF713FF24613D
:1030B000C7F10500A06164620020606484F84800E4
:1030C00049464046039A01F0FDFB2060BBF1000F2A
:1030D00001D0CBF80040BDE8FF9F2DE9FF4F85B040
:1030E000804689461746DDE912ABB80001F08DFA3B
:1030F000064656B14C2001F088FA04460CB126630E
:1031000004E0304601F02AFB00E000247CB10020FE
:10311000CDE900ABCDE902403A4649464046089B1E
:10312000FFF784FF2046FFF736FF012501E04FF04F
:10313000FF35284609B0BDE8F08F8948006800686F
:1031400008B9012000E0002020B14FF0FF308C4989
:10315000086005E082480068C06800688849086027
:10316000704710B50446206B01F0F8FA204601F0D4
:10317000F5FA10BD70B5054601F091FC15B97B4814
:10318000006800E028460446201DFFF7CCFE78B911
:10319000E06A00EB80006C4951F8200040B994F8D7
:1031A0002C100120884074490968814372480160ED
:1031B000A06A18B104F11800FFF7B5FE6D48006869
:1031C000401C6C49086069480068844209D1211D8F
:1031D0006148FFF782FE6B480068401C694908603F
:1031E00009E061480068401E5F4908602046FFF71B
:1031F000B8FFFFF7A2FF01F079FC5D480068E8B175
:103200005A480068844219D15F48006808B9012013
:1032100000E0002050B900BF102080F31188BFF3F8
:103220004F8FBFF36F8F00BF00BFFEE74FF080509E
:1032300052490860BFF34F8FBFF36F8F70BD2DE908
:10324000F0414FF000085048006800287BD14F48FB
:103250000068451C4D48056015BB41480068006882
:1032600008B9012000E0002050B900BF102080F311
:103270001188BFF34F8FBFF36F8F00BF00BFFEE712
:10328000374807683748006835490860354807609F
:103290003F480068401C3E490860FFF74EFF00BFF2
:1032A0003748006885423CD300BF2D48006800685D
:1032B00008B9012000E0002020B14FF0FF30304974
:1032C00008602DE026480068C068C4686668B5429A
:1032D00002D22B48066023E0201DFFF724FEA06ADF
:1032E00018B104F11800FFF71EFE94F82C1001200D
:1032F00088402149096808431F490860E16A01EBD9
:103300008101114A02EB8100211DFFF7E6FD1749FB
:10331000E06A0968C96A8842C7D34FF00108C4E768
:1033200000BF12480068C06A00EB8000064951F8EF
:103330002000012801D94FF001081648006808B1A3
:103340004FF001082DE027E004050020680500206B
:103350007C05002090050020A4050020B805002071
:1033600050000020540000205C0000204C00002091
:1033700068000020780000206400002004ED00E0D8
:103380007C00002058000020880000206000002001
:103390007400002070000020FA480068401CF949C1
:1033A00008604046BDE8F08170B500240026F6486C
:1033B000006850B900BF102080F31188BFF34F8F11
:1033C000BFF36F8F00BF00BFFEE701F068FBEE4860
:1033D0000068401EEC4908600846006800284FD18C
:1033E000EA48006800284BD024E0E948C068C46877
:1033F00004F11800FFF797FD201DFFF794FD94F8E6
:103400002C1001208840E34909680843E14908601D
:10341000E16A01EB8101E04A02EB8100211DFFF727
:103420005CFDDE49E06A0968C96A884202D301206E
:10343000DB490860D648006808B9012000E0002098
:103440000028D2D00CB1FFF778FECE48056865B1F0
:1034500000BFFFF7F4FE10B10120D14908606D1ED6
:10346000002DF6D10020C7490860CD48006838B16A
:1034700001263007CB490860BFF34F8FBFF36F8F32
:1034800001F034FB304670BD2DE9F04105460E4693
:10349000C5480768C1480068001DFFF744FD50B9E2
:1034A000BE48006890F82C1001208840B94909688E
:1034B0008143B8480160681C38B936B1B748016823
:1034C000091DBA48FFF709FD1AE07C19B3480068E6
:1034D0004460BC4207D2B1480168091DB448006885
:1034E000FFF707FD0CE0AD480168091DB148006811
:1034F000FFF7FFFCB0480068844201D2AE48046088
:10350000BDE8F081A0480068401C9F4908607047F2
:103510002DE9F04704460F464FF0000954B900BFAB
:10352000102080F31188BFF34F8FBFF36F8F00BF60
:1035300000BFFEE70FB1012000E0002050B900BF3E
:10354000102080F31188BFF34F8FBFF36F8F00BF40
:1035500000BFFEE78C48006808B9012000E00020A9
:1035600050B900BF102080F31188BFF34F8FBFF315
:103570006F8F00BF00BFFEE7FFF7C4FF8A480668F1
:103580002068C5192068B04207D92068A8420BD925
:10359000B54209D94FF0010906E02068A84201D8D8
:1035A000B54201D94FF001092560B9F1000F03D0F0
:1035B000A81B0021FFF768FFFFF7F6FE8046B8F171
:1035C000000F07D14FF0805076490860BFF34F8F4E
:1035D000BFF36F8F4846BDE8F08770B504460025FD
:1035E000D4B16948006808B9012000E0002050B952
:1035F00000BF102080F31188BFF34F8FBFF36F8F90
:1036000000BF00BFFEE7FFF77DFF00212046FFF768
:103610003BFFFFF7C9FE05463DB94FF080506149B9
:103620000860BFF34F8FBFF36F8F70BD70B5044656
:1036300001F035FA14B95948006800E02046064602
:10364000F56A01F053FA284670BD2DE9F0410546B0
:1036500001F080FA00BF1021EFF3118081F311888F
:10366000BFF34F8FBFF36F8F00BF044615B94B48B0
:10367000006800E028460746FE6A00BF84F3118810
:1036800000BF3046BDE8F0812DE9F04780460D4689
:103690004FF00009052D01D2012000E0002050B9B3
:1036A00000BF102080F31188BFF34F8FBFF36F8FDF
:1036B00000BF00BFFEE7052D00D3042501F0EFF9A0
:1036C000B8F1000F02D13548006800E040460446DA
:1036D000E66AAE4251D0B5420BD930480068844208
:1036E0000DD02E480068C06AA84208D84FF00109E2
:1036F00005E02A480068844201D14FF00109E76AD9
:10370000E562A06900F0004010B9C5F10500A061B4
:1037100007EB8701204A02EB81016069884201D1F1
:10372000012000E00020E0B1201DFFF7FCFB30B9D4
:103730000120B8401749096881431648016094F890
:103740002C1001208840134909680843114908607A
:10375000E16A01EB8101104A02EB8100211DFFF7B4
:10376000BCFBB9F1000F07D04FF080500D49086045
:10377000BFF34F8FBFF36F8F00BF01F0B7F9BDE804
:10378000F08700006C000020880000205C00002012
:103790009005002064000020040500204C0000205B
:1037A0007000002004ED00E060000020B80500205B
:1037B00054000020500000207C000020FD480068DC
:1037C00018B10120FC49086032E00020FA49086085
:1037D000FA480068B0FA80F0C0F11F0101EB8100E7
:1037E000F74A52F8200008B1012000E0002050B94B
:1037F00000BF102080F31188BFF34F8FBFF36F8F8E
:1038000000BF00BFFEE701EB8102ED4B03EB82003E
:1038100042685268426000F108024368934202D154
:103820004268526842604268D268E64B1A6000BF44
:10383000704770B5054601F032F915B9E1480068E6
:1038400000E028460446201DFFF76DFB78B9E06ACA
:1038500000EB8000DA4951F8200040B994F82C10B0
:1038600001208840D54909688143D4480160A06A95
:1038700018B104F11800FFF756FB211DD248FFF7DD
:103880002CFB002009E004F14801095C012903D167
:10389000002204F148010A54401C0128F3DB01F026
:1038A00025F9CA48006828B101F0F9F8FFF745FC8E
:1038B00001F01CF9C3480068844229D1C34800685C
:1038C000D0B1BC48006808B9012000E0002050B920
:1038D00000BF102080F31188BFF34F8FBFF36F8FAD
:1038E00000BF00BFFEE74FF08050B9490860BFF34A
:1038F0004F8FBFF36F8F0BE0B3480068B54909687D
:10390000884203D10020AF49086001E0FFF756FF6D
:1039100070BD10B502460020114652B900BF1023F9
:1039200083F31188BFF34F8FBFF36F8F00BF00BFCA
:10393000FEE7A54C4B69A34201D1012300E000231F
:1039400073B1A54C8B6AA34201D1012300E000238F
:1039500033B98B6A0BB9012300E0002303B10120C6
:1039600010BD70B505462C4655B900BF102080F338
:103970001188BFF34F8FBFF36F8F00BF00BFFEE70B
:103980009048006884422BD054B301F088F8204658
:10399000FFF7BFFF10B3201DFFF7C5FA94F82C10F6
:1039A0000120884085490968084384490860E16A24
:1039B00001EB8101824A02EB8100211DFFF78DFAA4
:1039C0008049E06A0968C96A884207D34FF080508D
:1039D0007F490860BFF34F8FBFF36F8F01F086F808
:1039E00070BD2DE9F04106460027344656B900BFA8
:1039F000102080F31188BFF34F8FBFF36F8F00BF8C
:103A000000BFFEE701F0A6F800BF1021EFF3118020
:103A100081F31188BFF34F8FBFF36F8F00BF05464F
:103A20002046FFF776FF08B362480068F8B9654999
:103A3000E06A0968C96A884203D3012701205E4908
:103A40000860201DFFF76FFA94F82C1001208840C1
:103A50005A490968084359490860E16A01EB810144
:103A6000574A02EB8100211DFFF737FA04E004F109
:103A700018015948FFF731FA00BF85F3118800BFDC
:103A80003846BDE8F08110B516E001F008F853485B
:103A9000C068C468201DFFF746FA4E480068401E03
:103AA0004C4908604E480068401E4D49086001F0CE
:103AB0001DF82046FFF755FB494800680028E4D16F
:103AC00010BD00BFFFF7DFFF3D4800680128F9D9AE
:103AD0004FF080503E490860BFF34F8FBFF36F8FA8
:103AE000F0E71CB53F4800210B468022CDE90010CD
:103AF0003DA13F48FFF7F1FA0446012C15D100BF64
:103B0000102080F31188BFF34F8FBFF36F8F00BF7A
:103B10004FF0FF303749086001202C490860002031
:103B20003549086000F0ECFE10E0601C08B101208F
:103B300000E0002050B900BF102080F31188BFF3CF
:103B40004F8FBFF36F8F00BF00BFFEE72B480068A9
:103B50001CBD10B500BF102080F31188BFF34F8F3C
:103B6000BFF36F8F00BF00201849086000F082FF8C
:103B700010BD21490868704770B500F0EBFF0025C3
:103B80001D480468204670BD124800687047014611
:103B900011B90C48006800E00846024682BB00BF2D
:103BA000102080F31188BFF34F8FBFF36F8F00BFDA
:103BB00000BFFEE7880000207000002064000020A5
:103BC000040500204C000020B805002068000020FB
:103BD00004ED00E05C00002090050020A40500201A
:103BE000580000208000002049444C45000000009F
:103BF000C33A00087C000020600000208400002000
:103C0000FFE702F13400704770B50446FE480068D3
:103C100008B9012000E0002050B900BF102080F357
:103C20001188BFF34F8FBFF36F8F00BF00BFFEE758
:103C3000FFF768FCF54800682044F4490860FFF786
:103C4000B3FB0546284670BD70B504460D4654B911
:103C500000BF102080F31188BFF34F8FBFF36F8F29
:103C600000BF00BFFEE7EA48016818312046FFF7B1
:103C700040F901212846FFF707FC70BD70B50446E6
:103C80000D46164654B900BF102080F31188BFF3CB
:103C90004F8FBFF36F8F00BF00BFFEE7DA480068A9
:103CA00008B1012000E0002050B900BF102080F3CF
:103CB0001188BFF34F8FBFF36F8F00BF00BFFEE7C8
:103CC00045F00040D24909688861D148016818313F
:103CD0002046FFF702F901213046FFF7D5FB70BD02
:103CE00070B50646F068C46854B900BF102080F370
:103CF0001188BFF34F8FBFF36F8F00BF00BFFEE788
:103D000004F11800FFF70FF9BF480068A8B9201D9B
:103D1000FFF709F994F82C1001208840BD49096883
:103D20000843BC490860E16A01EB8101BA4A02EB31
:103D30008100211DFFF7D1F804E004F11801B74814
:103D4000FFF7CBF8B249E06A0968C96A884204D92A
:103D500001250120B249086000E00025284670BD19
:103D600070B505460E46A848006808B1012000E07D
:103D7000002050B900BF102080F31188BFF34F8F8F
:103D8000BFF36F8F00BF00BFFEE746F00040286022
:103D9000EC6854B900BF102080F31188BFF34F8F37
:103DA000BFF36F8F00BF00BFFEE72846FFF7BBF8E9
:103DB000201DFFF7B8F894F82C1001208840954991
:103DC0000968084393490860E16A01EB8101924A5E
:103DD00002EB8100211DFFF780F88D49E06A096838
:103DE000C96A884202D901208D49086070BD10B5AA
:103DF000044654B900BF102080F31188BFF34F8FE1
:103E0000BFF36F8F00BF00BFFEE700F048FE85489C
:103E10000068206084480068606000F067FE10BDA4
:103E2000804909680160804909684160704770B540
:103E300005460C4655B900BF102080F31188BFF32A
:103E40004F8FBFF36F8F00BF00BFFEE754B900BFB5
:103E5000102080F31188BFF34F8FBFF36F8F00BF27
:103E600000BFFEE700F01BFE6F4802686868131A87
:103E70002068401C08B9002619E06A4928680968CA
:103E8000884206D06868904203D80126002020604E
:103E90000DE02068984207D92068C01A20602846A3
:103EA000FFF7BEFF002602E000202060012600F0A0
:103EB0001DFE304670BD01205949086070475449C5
:103EC0000868704752490968886951490968C96A90
:103ED000C1F105014E4A1268916170472DE9F04128
:103EE00004460F4616460CB9012000E0002050B9E8
:103EF00000BF102080F31188BFF34F8FBFF36F8F87
:103F000000BF00BFFEE700F0CAFD41480068443032
:103F100050F8240080B901213D480068483001551F
:103F200056B13046FFF7B0FA4FF080503F49086075
:103F3000BFF34F8FBFF36F8F00F0D8FD00F0AFFDE0
:103F400033480068443050F824506DB137B1002137
:103F50002F480068443040F8241005E0681E2C49C2
:103F60000968443141F8240000212948006848309C
:103F7000015500F0BBFD2846BDE8F0812DE9F04772
:103F800004460F4690461D46DDF820900CB90120EE
:103F900000E0002050B900BF102080F31188BFF36B
:103FA0004F8FBFF36F8F00BF00BFFEE700F077FDBC
:103FB000174800684830005D02281AD01449096883
:103FC000443101EB84000168B943016001211048CC
:103FD000006848300155B9F1000F0AD04846FFF794
:103FE00053FA4FF0805011490860BFF34F8FBFF371
:103FF0006F8F00F07BFD00F052FDD5B104480068E2
:10400000443050F8240013E0880000206C000020A9
:104010004C000020640000200405002090050020D2
:1040200070000020740000206000002004ED00E01B
:104030002860F84800684830005D022801D000265A
:1040400009E0F4490968443101EB8400016821EA80
:104050000801016001260021EE4800684830015542
:1040600000F044FD3046BDE8F0872DE9F05F0746DB
:104070000D4616469846DDF828A04FF0010B0DB905
:10408000012000E0002050B900BF102080F311880B
:10409000BFF34F8FBFF36F8F00BF00BFFEE757B96D
:1040A00000BF102080F31188BFF34F8FBFF36F8FD5
:1040B00000BF00BFFEE73C4600F0F1FCBAF1000F84
:1040C00005D004F1440050F82500CAF8000004F1BE
:1040D000480010F8059002214155B8F1050F29D28A
:1040E000DFE808F027030D171C0004F1440050F826
:1040F0002500304304F1440141F825002DE004F18E
:10410000440050F82500401C04F1440141F825000A
:1041100023E004F1440040F825601EE0B9F1020FED
:1041200004D004F1440040F8256001E04FF0000B9A
:1041300013E012E0B848006808B9012000E0002050
:1041400050B900BF102080F31188BFF34F8FBFF329
:104150006F8F00BF00BFFEE700BF00BFB9F1010FC6
:1041600033D1201DFEF7DFFE94F82C10012088408B
:10417000AA4909680843A9490860E16A01EB81017D
:10418000A74A02EB8100211DFEF7A7FEA06A08B92D
:10419000012000E0002050B900BF102080F31188FA
:1041A000BFF34F8FBFF36F8F00BF00BFFEE799498A
:1041B000E06A0968C96A884207D94FF08050994976
:1041C0000860BFF34F8FBFF36F8F00F08FFC58462E
:1041D000BDE8F09F2DE9F84F80460D4617469946F9
:1041E000DDF828B001200090B8F1000F0AD100BF1F
:1041F000102080F31188BFF34F8FBFF36F8F00BF84
:1042000000BFFEE70DB9012000E0002050B900BF5B
:10421000102080F31188BFF34F8FBFF36F8F00BF63
:1042200000BFFEE700F096FC444600BF1021EFF30C
:10423000118081F31188BFF34F8FBFF36F8F00BFE1
:104240000646BBF1000F05D004F1440050F82500EC
:10425000CBF8000004F1480010F805A002214155F8
:10426000B9F1050F29D2DFE809F027030D171C006B
:1042700004F1440050F82500384304F1440141F8AA
:1042800025002DE004F1440050F82500401C04F105
:10429000440141F8250023E004F1440040F8257072
:1042A0001EE0BAF1020F04D004F1440040F825707A
:1042B00001E00020009013E012E05748006808B9C0
:1042C000012000E0002050B900BF102080F31188C9
:1042D000BFF34F8FBFF36F8F00BF00BFFEE700BF7C
:1042E00000BFBAF1010F3CD1A06A08B9012000E07B
:1042F000002050B900BF102080F31188BFF34F8F0A
:10430000BFF36F8F00BF00BFFEE747480068A8B942
:10431000201DFEF708FE94F82C10012088403F492C
:10432000096808433D490860E16A01EB81013C4AA4
:1043300002EB8100211DFEF7D0FD04E004F118011D
:104340003A48FEF7CAFD3349E06A0968C96A8842FB
:1043500007D90B9810B101210B9801600120344955
:10436000086000BF86F3118800BF0098BDE8F88F91
:104370002DE9F04705460E46904655B900BF10207E
:1043800080F31188BFF34F8FBFF36F8F00BF00BF63
:10439000FEE70EB9012000E0002050B900BF102058
:1043A00080F31188BFF34F8FBFF36F8F00BF00BF43
:1043B000FEE700F0CFFB2C4600BF1021EFF3118089
:1043C00081F31188BFF34F8FBFF36F8F00BF074694
:1043D00004F1480010F8069002218155001F50F8A2
:1043E0002600401C04F1440141F82600B9F1010FF8
:1043F0004DD1A06A08B9012000E00020D0B900BF6B
:10440000102080F31188BFF34F8FBFF36F8F00BF71
:1044100000BFFEE74C000020600000206400002088
:104420000405002004ED00E0880000209005002035
:10443000700000203E480068A8B9201DFEF773FDFB
:1044400094F82C10012088403A49096808433949FA
:104450000860E16A01EB8101374A02EB8100211D0E
:10446000FEF73BFD04E004F118013448FEF735FD8A
:104470003349E06A0968C96A884208D9B8F1000F6F
:1044800002D00120C8F8000001202E49086000BFBA
:1044900087F3118800BFBDE8F0872DE9F04106469B
:1044A0000C460CB9012000E0002050B900BF1020DC
:1044B00080F31188BFF34F8FBFF36F8F00BF00BF32
:1044C000FEE716B91E48006800E03046074600F0D7
:1044D000E6FA07F14800005D022805D1002107F146
:1044E00048000155012500E0002500F0FFFA2846AC
:1044F000BDE8F0812DE9F04106460C46174616B995
:104500000F48006800E03046054600F0C8FA05F1A3
:10451000440050F8248050F82400B84305F14401C9
:1045200041F8240000F0E2FA4046BDE8F0810000C6
:104530008800002064000020040500209005002071
:104540004C0000207000002010B50146C64800E075
:10455000006803688B42FBD30246436813448B42D6
:1045600004D143684C682344436001460A464B68C3
:1045700013440468A34211D1BC4C03682468A342CD
:1045800008D04B680468646823444B6003681B6868
:104590000B6005E0B54B1B680B6001E003680B6026
:1045A000884200D0016010BD30B54FF4F043B048F0
:1045B00000F007042CB1C01D20F00700AC4C041B18
:1045C0001B1B0246A84C22600024A74D6C60D0182B
:1045D000083820F00700A54C20600024A34D2D686A
:1045E0006C60A24D2D682C601146441A4C609F4CA3
:1045F00024680C609F4D4C682C609F4D4C682C606B
:104600004FF000449D4D2C6030BD2DE9F041044633
:104610004FF00008FEF776FF9448006808B9FFF7EE
:10462000C3FF96480068204000287DD13CB304F1C8
:104630000800A04223D9083404F0070000B304F0B6
:104640000700C0F108002044A04216D904F007007A
:10465000C0F10800044404F0070008B9012000E09C
:10466000002068B900BF102080F31188BFF34F8F7E
:10467000BFF36F8F00BF00BFFEE7002400E00024FF
:10468000002C54D07C480068844250D8764E304686
:10469000056801E02E462D686868A04202D22868AD
:1046A0000028F7D171480068854240D0306800F199
:1046B0000808286830606868001B102819D92F196D
:1046C00007F0070008B9012000E0002050B900BF42
:1046D000102080F31188BFF34F8FBFF36F8F00BF9F
:1046E00000BFFEE76868001B78606C603846FFF723
:1046F0002BFF614968680968081A5F490860084625
:1047000000685C490968884203D25B4800685949DF
:1047100008605A4968680968084368600020286092
:1047200057480068401C00E001E055490860FEF76A
:104730003BFE08F0070008B9012000E0002050B956
:1047400000BF102080F31188BFF34F8FBFF36F8F2E
:1047500000BF00BFFEE74046BDE8F08170B50646E9
:104760003546002E44D0083D2C464449606809680F
:10477000084008B1012000E0002050B900BF10201F
:1047800080F31188BFF34F8FBFF36F8F00BF00BF5F
:10479000FEE7206808B9012000E0002050B900BF02
:1047A000102080F31188BFF34F8FBFF36F8F00BFCE
:1047B00000BFFEE73149606809680840C0B1206861
:1047C000B0B92E496068096888436060FEF79AFEB8
:1047D0002949606809680844274908602046FFF7AE
:1047E000B3FE28480068401C26490860FEF7DCFD3F
:1047F00070BD2148006870471E48006870477047C8
:104800002DE9F04104464FF000080026771EFEF720
:1048100079FE154805687DB100BF08F10108686898
:10482000B04200D96E686868B84200D26F682D68DF
:104830000E4800688542F0D1FEF7B6FD6660A760BD
:10484000C4F80C8000F02BF90B48006820600C487D
:10485000006860610B480068A0610648006820613C
:1048600000F044F9BDE8F0818C00002094000020A5
:10487000000000109C00002098000020A8000020EC
:10488000A0000020A4000020CD480068401C08B90A
:10489000012000E0002050B900BF102080F31188F3
:1048A000BFF34F8FBFF36F8F00BF00BFFEE700BFA6
:1048B000102080F31188BFF34F8FBFF36F8F00BFBD
:1048C00000BFFEE7001F4FF080730360001F21F060
:1048D00001030360001FBB4B036014380260001F1C
:1048E0006FF0020303602038704700204FF0E02192
:1048F0000861886141F63F70486107200861704790
:104900001CB5B1480068B149884201D0012000E0DF
:10491000002050B900BF102080F31188BFF34F8FE3
:10492000BFF36F8F00BF00BFFEE7A7480068A7492D
:10493000491E884201D0012000E0002050B900BF8C
:10494000102080F31188BFF34F8FBFF36F8F00BF2C
:1049500000BFFEE79E49084600780190FF200A4606
:1049600010700846007800909DF8000000F0F000FC
:104970009DF80020904201D1012000E0002050B9B4
:1049800000BF102080F31188BFF34F8FBFF36F8FEC
:1049900000BF00BFFEE79DF8000000F010008D4A48
:1049A000107007208C4A106009E08B480068401E98
:1049B000894A10609DF800004006000E00909DF8A6
:1049C000000000F080008028EFD083480068C0F12C
:1049D0000700042801D1012000E0002050B900BFE9
:1049E000102080F31188BFF34F8FBFF36F8F00BF8C
:1049F00000BFFEE778480068C0F10700042801D135
:104A0000012000E0002050B900BF102080F3118881
:104A1000BFF34F8FBFF36F8F00BF00BFFEE76E483D
:104A2000006800026C4A10601046008800F4E060E4
:104A30001060674A0198107063482030006840F4A5
:104A400070006149203108600846006840F07040FD
:104A50000860FFF74AFF002059490860FBF7C4FBD4
:104A60005E48006840F040405C490860FBF7A8FBE6
:104A700000201CBD52480068B0F57A7F01D10120AA
:104A800000E0002050B900BF102080F31188BFF370
:104A90004F8FBFF36F8F00BF00BFFEE7704700BFAF
:104AA000102080F31188BFF34F8FBFF36F8F00BFCB
:104AB00043480068401C42490860084600680128D5
:104AC00013D14148001D0068C0B208B9012000E0C0
:104AD000002050B900BF102080F31188BFF34F8F22
:104AE000BFF36F8F00BF00BFFEE770473448006818
:104AF00050B900BF102080F31188BFF34F8FBFF370
:104B00006F8F00BF00BFFEE72D480068401E2C4994
:104B100008600846006820B9002080F3118800BFB3
:104B200000BF704710B500BF102080F31188BFF39D
:104B30004F8FBFF36F8F00BFFEF781FB20B14FF0A7
:104B400080502149091D086000BF002080F31188B2
:104B500000BF10BD70B5FBF77FFB0446102C16D3C9
:104B600004F1E02090F8F0531A480078854201DB08
:104B7000012000E0002050B900BF102080F3118810
:104B8000BFF34F8FBFF36F8F00BF00BFFEE70E482C
:104B90000C30006800F4E0600F490968884201D8D1
:104BA000012000E0002050B900BF102080F31188E0
:104BB000BFF34F8FBFF36F8F00BF00BFFEE770BD25
:104BC000AC0000208948000800ED00E071C20F41F0
:104BD00000E400E0B0000020B400002034EF00E06A
:104BE0002DE9F0412DED0A8B05460E461446002DA9
:104BF0007AD0202104F1100003F087FF94ED010A20
:104C0000D4ED020A80EE201AB0EE418A94ED010A3A
:104C1000D4ED020A20EE200AF0EE408A94ED030A59
:104C2000F0EE409A94ED010AB0EE40AA84ED0A8AB3
:104C300084ED09AA94ED030AB4EEE80AF1EE10FA45
:104C400023D289EE880A10EE107A384604F0AFF8C5
:104C500041EC1C0BB0EE4C0AF0EE6C0A05F0CAF801
:104C6000B0EE40BAF0EE60BA51EC1B0B04F0B2F8B3
:104C700009EE100AB0EE000A29EE000A84ED080AD7
:104C800084ED069A84ED079A2DE088EE880A10EEEE
:104C9000107A384604F08BF841EC1C0BB0EE4C0A4D
:104CA000F0EE6C0A05F0A6F8B0EE40BAF0EE60BA8D
:104CB00051EC1B0B04F08EF809EE100A39EEE80AED
:104CC000C0EE0A0AF0EE60AAF0EE000AB0EE6A0A40
:104CD00009EE200A84ED080A84ED069A39EE2A0AC4
:104CE00084ED070A00BF00BF94ED040AB8EE400A45
:104CF000DFED280A80EE201A84ED051A94ED050AEE
:104D0000D4ED060AB4EEE00AF1EE10FA11D294EDF9
:104D10000B0AD4ED090AB4EEE00AF1EE10FA33D230
:104D200094ED0A0AD4ED050A20EE200A84ED0B0A60
:104D30002AE094ED050AD4ED070AB4EEE00AF1EE9C
:104D400010FA21DD94ED0B0AB5EEC00AF1EE10FA6F
:104D500015DD94ED050AD4ED080AB4EEE00AF1EE93
:104D600010FA0CD294ED080AD4ED050A30EE600A70
:104D7000D4ED0A0A20EE200A84ED0B0A04E000209C
:104D8000BDEC0A8BBDE8F08194ED0B0A86ED000ABC
:104D90000120F5E700007A4400B52DED048B81B0C9
:104DA000B0EE408AB0EE609AF0EE419AFBF716FE44
:104DB000F0EE408A002184484162C0ED079A80ED00
:104DC000069AB4EEE88AF1EE10FA03DD00207E497F
:104DD000087502E001207C49087538EE680AB5EED6
:104DE000C00AF1EE10FA02DD38EE680A03E038EE90
:104DF000680AB1EE400A744880ED080A00F1140216
:104E000069460120FFF7ECFE01B0BDEC048B00BD4C
:104E100070B52DED048B6C48007800285ED16A488F
:104E200040686949C86008464068401C48600846B8
:104E300090ED020A10EE101A084603F0B8FF41EC9C
:104E4000190B9FED620B53EC102B03F09FFE41EC0E
:104E5000180B03F08DFF0546FBF727FD5A48C06885
:104E600059490969884238D3FBF7B8FDB0EE408A4A
:104E7000BDEEC80A10EE100A4FF4B47190FBF1F0C9
:104E8000484300EE100AB8EEC00A38EE400ADFEDE3
:104E9000510A30EE600AF0EE408AF5EEC08AF1EE7B
:104EA00010FA04DD9FED4C0AF0EE408A03E09FED1E
:104EB0004B0AF0EE408A0020FBF7F7FCB1EE041A33
:104EC000F3EE0E0AB0EE680AFFF766FF01203E49D6
:104ED00008700020BDEC048B70BD00BF3A4800781C
:104EE000012824D13848406A401C3749486201F102
:104EF00014023B490020FFF773FE044624B900204A
:104F0000FBF7D3FC0120E5E73548006803F04FFFCD
:104F100041EC190B9FED2D0B53EC102B03F036FEDB
:104F200041EC180B03F024FF0546FBF7BEFC002004
:104F3000D0E710B50024FFF76BFF044624B1022030
:104F400021490870012010BD0020FCE710B52DEDAF
:104F5000028BB0EE408A04469FED1F0AB4EEC08A71
:104F6000F1EE10FA06DC9FED1F0AB4EEC08AF1EEF6
:104F700010FA03D20020BDEC028B10BD124880ED68
:104F8000028A80ED028A04611748FBF7E2FB0020E9
:104F90000D49486008700120EDE700200A49C8600B
:104FA000012008707047024607480078022801D1A6
:104FB0000020704712B104480069106011B1024826
:104FC000C06808600120F4E7CC0500200000000064
:104FD00000B49540000034430000B44300000000DA
:104FE000B80000200000B4C3334F000800B52DED19
:104FF000048B81B0B0EE408AF0EE608AB0EE419A48
:1050000000214E48C16180ED059AC0ED048A01205F
:105010004A490873084680ED068A00F10C02694689
:105020000120FFF7DDFD01B0BDEC048B00BD10B524
:105030002DED048B82B09FED420A8DED010AFBF746
:1050400021FF80B10020FBF7C5FC01203B4908701F
:10505000B7EE001AF3EE0E0A9FED3A0AFFF7C6FF0D
:105060000020FBF7AEFB35480078E0B93348C06953
:10507000401C3249C86101F10C0201A90020FFF770
:10508000AFFD019803F093FE41EC190B9FED2E0B41
:1050900053EC102B03F07AFD41EC180B03F068FE83
:1050A0000446FBF78EFB2548007801281CD12348D5
:1050B000C069401C2149C86101F10C0201A900200E
:1050C000FFF78EFD019803F072FE41EC190B9FED86
:1050D0001E0B53EC102B03F059FD41EC180B03F0A1
:1050E00047FE0446FBF76DFB002002B0BDEC048BCD
:1050F00010BD10B50024FFF79AFF044624B102202A
:105100000E490870012010BD0020FCE710B52DED00
:10511000028BB0EE408A0446FBF7BDFE0C48FBF75D
:1051200018FBB7EE001AF3EE0E0A9FED0A0AFFF71E
:105130005DFF0120BDEC028B10BD000010060020B9
:105140000000000000000C430000000000B4954087
:10515000F35000080000B44300F03EF806E003F00E
:105160009EFC00F031F8322003F088FCF7E708B528
:105170004FF4807004A3084A00210090AFF227008A
:1051800003F096FC08BD0000636F6D6D756E69637A
:105190006174696F6E000000BC000020704710B59C
:1051A00000F07DF910BD10B50446204600F066F908
:1051B00010BD10B50C494FF41650FBF78BFD0B4892
:1051C00000F017FB012010BD10B5002000F0F0FA30
:1051D000012010BD0120704710B5FFF7E0FFFFF779
:1051E000DDFFFFF7E6FF10BD1D570008DB0D0008CF
:1051F00000B52DED048B83B000200090019002904B
:105200000120AB490870AB48B0F9000000EE100A6D
:10521000B8EEC00A9FEDA81AC0EE010AA74890EDAB
:10522000000A9FEDA71A10EE810AA64880ED000A39
:10523000A048B0F9020000EE100AB8EEC00A9FEDD7
:105240009E1AC0EE010A9D4890ED010A9FED9C1A3E
:1052500010EE810A9B4880ED010A9648B0F90400DF
:1052600000EE100AB8EEC00A9FED931AC0EE010AD4
:10527000924890ED020A9FED921A10EE810A914831
:1052800080ED020A90ED000A20EE000AD0ED010A3E
:1052900090ED011A00EE810A10EE101A084603F094
:1052A00086FD41EC190BB0EE490AF0EE690A04F0F4
:1052B000A1FDB0EE408AF0EE608A51EC180B03F0CD
:1052C00089FD8049C860804800880A2803D103B05E
:1052D000BDEC048B00BD7748B0F9000000EE100A69
:1052E000B8EEC00ADFED740A80EE201A9FED740A52
:1052F00021EE000A734880ED000A6E48B0F9020002
:1053000000EE100AB8EEC00ADFED6B0A80EE201A3C
:105310009FED6B0A21EE000A6A4880ED010A65489C
:10532000B0F9040000EE100AB8EEC00ADFED620A20
:1053300080EE201A9FED620A21EE000A614880ED9E
:10534000020A00205A4908705F48008800EB4000BC
:105350005E4901EB80005B4B0ECB0EC05A480088C3
:10536000401C59490880084600880A2846D1002078
:1053700026E09DED000A00EB4001544A02EB81015A
:10538000D1ED000A30EE200A8DED000A9DED010AF4
:1053900000EB400102EB8101D1ED010A30EE200A61
:1053A0008DED010A9DED020A00EB400102EB810147
:1053B000D1ED020A30EE200A8DED020A411C88B2BE
:1053C0000928D6DB9DED000AF2EE040A80EE201AD1
:1053D0008DED001A9DED010AF2EE040A80EE201A0E
:1053E0008DED011A9DED020AF2EE040A80EE201AFC
:1053F0008DED021A31489DE80E000EC000BF66E731
:1054000038B5044632A0006800903248008820B1C8
:10541000012803D00A2821D110E000BF2D490988B6
:105420001DF80100A04208D12B482A49098844549C
:1054300028480088401C274908801DE001201C499D
:1054400008701C482449D1F802200260C988818074
:10545000FFF7CEFE00201F4908800DE01D480088A0
:105460000B2808DA1C481B4909884454194800884D
:10547000401C1849088000BF00BF38BD01460C48D9
:10548000007808B90020704721B10E4890ED030A5A
:1054900081ED000A0020064A10700120F3E710B5E4
:1054A000AFF2A3014FF41650FBF78CFB10BD0000C8
:1054B000C4000020C6000020000000476006002055
:1054C000000034434C060020CC0000206C06002075
:1054D00055530000CE000020E40600203FB5DDE972
:1054E000075425709DF800106170019988B201126F
:1054F000A170E0709DED020ABCEEC00A10EE101A19
:1055000088B220719DED030AF2EE040A20EE200A13
:10551000BCEEC00A10EE101A88B201126171A071BF
:105520003FBD3EB505460C4600200090019002901C
:10553000FE208DF80000FD208DF80100FC208DF884
:105540000A00092C00DD0924224629460DF102003B
:1055500003F0C2FAAA48006820B10B216846A84AA5
:10556000126890473EBD1CB501A8A6A300220121E8
:105570000090A8A000F09CFA01280BD1A7A0006819
:1055800000900198C0B28DF8010003216846FFF732
:10559000C8FF00BFA2A300220121A3A000F0B1FA1E
:1055A00038B9A3A00068009003216846FFF7B9FF4F
:1055B00000BFA0A3002201219BA000F0A2FA38B9ED
:1055C0009BA00068009003216846FFF7AAFF00BF78
:1055D0009AA30022012194A000F093FA38B99AA06E
:1055E0000068009003216846FFF79BFF00BF1CBDC9
:1055F00070B5044601250CB9002070BD2078012843
:1056000001D00120F9E791A30022012181A000F03F
:1056100079F90220F1E72DE9F84304468FA692A715
:1056200000254FF0020814B90020BDE8F883207867
:10563000022801D00120F8E7607800909DF8000072
:10564000012802D0022804D101E0354601E03D46A0
:1056500000BF00BF2DB12B460022012172A000F037
:1056600051F90220E1E77FB50146032511B9002079
:1056700004B070BD0878032801D00120F8E74B780A
:10568000CE79887906EB002082B28878401EC0B2BD
:105690008DF800000E79C87806EB0020019048795B
:1056A00000EE100AB8EE400A8DED020A00EE102A54
:1056B000B8EE400AF2EE040A80EE201A8DED031ACD
:1056C00000240220D4E77CB5044604260CB900204F
:1056D0007CBD2078042801D00120F9E765780020FE
:1056E0000090019007216846FFF71BFF0220EFE7BB
:1056F0007CB5044605250CB900207CBD2078052822
:1057000001D00120F9E76078019059A0006800906D
:1057100002216846FFF705FF0220EEE718B555A203
:1057200012680092FC21544A127802B118BD534A03
:10573000128822B1012A03D00A2A28D110E000BF22
:105740004E4B1B881DF80320824208D14C4A4B4B1C
:105750001B88D054494A1288521C484B1A8024E0B6
:10576000FC2810D1464A454B1B88D054454A444B2F
:105770001C6814605C6854601C8914819B7A937265
:1057800001223D4B1A7000223C4B1A800DE03B4A2F
:1057900012880B2A08DA3A4A384B1B88D054374A09
:1057A0001288521C354B1A8000BF00BF00BFBDE7F6
:1057B0002DE9F0410746FFF7D6FE2F48007808B9DB
:1057C000BDE8F0812F4DAD1C00240BE02E4850F8B1
:1057D000240030B12C4850F824102846884706464B
:1057E00000BF641C0A2CF1DB00202349087000BFB5
:1057F000E6E70021204A1170014908607047000067
:10580000D000002052656164537461746520256482
:10581000000000007461736B0000000001000000D4
:1058200053747261740000004374726C00000000D5
:105830000201000053746F7000000000436D644566
:1058400072726F7200000000020000005265715217
:1058500065616453746174650000000052657153A2
:10586000747261740000000052657153746F7000AF
:1058700005000000FEFD0000FC000020FE000020EE
:1058800003070020EF060020D40000202DE9F04798
:1058900082460F4690461D46089E15B90720BDE872
:1058A000F087EE4804684FF0000926E00CB90220AA
:1058B000F5E7206808B90220F1E7606808B9072019
:1058C000EDE75046616803F02BF998B9208A08B1DA
:1058D0000320E4E7A089B04201DA0520DFE7E78191
:1058E00032462946206803F0F7F8C4F8088026827B
:1058F0000020D4E7646909F10109B9F10A0FD5DB89
:105900000220CCE70FB42DE9F84380460D46164639
:105910000B9820B90720BDE8F8035DF814FBCF48C9
:105920000468002721E00CB90220F4E7206808B9D8
:105930000220F0E7606808B90720ECE7404661689C
:1059400003F0EEF878B9208A08B10320E3E7E58197
:105950000CA80090A6602068009A0B9904F038FA11
:1059600020820020D7E764697F1C0A2FDBDB02203E
:10597000D1E70FB42DE9F84380460D4616460B9843
:1059800020B90720BDE8F8035DF814FBB3480468AC
:1059900000271DE00CB90220F4E7206808B90220B6
:1059A000F0E7606808B90720ECE74046616803F05B
:1059B000B7F858B9E5810CA80090A6602068009A55
:1059C0000B9904F005FA20820020DBE764697F1C54
:1059D0000A2FDFDB0220D5E72DE9F04107460D460F
:1059E0009E48046800261EE014B90220BDE8F0813C
:1059F000206808B90220F9E7606808B90720F5E7D0
:105A00003846616803F08CF858B9208A08B9042038
:105A1000ECE7E089A84201D00620E7E700202082D9
:105A2000E4E76469761C0A2EDEDB0220DEE72DE95E
:105A3000F04782460F4615461E46DDF8208016B90F
:105A40000720BDE8F087854804684FF000092AE088
:105A50000CB90220F5E7206808B90220F1E7606878
:105A600008B90720EDE75046616803F059F8B8B966
:105A7000208A08B90420E4E7208A404501DD05209A
:105A8000DFE7E089B84201D00620DAE70DB1A0686F
:105A9000286042463046216803F01EF80020D0E717
:105AA000646909F10109B9F10A0FD1DB0220C8E7E5
:105AB0000FB42DE9F84304460D4616464FF0000991
:105AC00000273220664B3246294600902046FFF7D9
:105AD000AEFF8046B8F1000F0ED10CA800906048D0
